{
  "_format": "hh-sol-artifact-1",
  "contractName": "ConstantProductPool",
  "sourceName": "contracts/pools/constant-product/ConstantProductPool.sol",
  "abi": [
    {
      "inputs": [
        {
          "internalType": "contract IVault",
          "name": "vault",
          "type": "address"
        },
        {
          "internalType": "uint256",
          "name": "initialBPT",
          "type": "uint256"
        },
        {
          "internalType": "contract IERC20[]",
          "name": "tokens",
          "type": "address[]"
        },
        {
          "internalType": "uint128[]",
          "name": "amounts",
          "type": "uint128[]"
        },
        {
          "internalType": "address",
          "name": "from",
          "type": "address"
        },
        {
          "internalType": "uint128[]",
          "name": "weights",
          "type": "uint128[]"
        },
        {
          "internalType": "uint128",
          "name": "swapFee",
          "type": "uint128"
        }
      ],
      "stateMutability": "nonpayable",
      "type": "constructor"
    },
    {
      "anonymous": false,
      "inputs": [
        {
          "indexed": true,
          "internalType": "address",
          "name": "owner",
          "type": "address"
        },
        {
          "indexed": true,
          "internalType": "address",
          "name": "spender",
          "type": "address"
        },
        {
          "indexed": false,
          "internalType": "uint256",
          "name": "value",
          "type": "uint256"
        }
      ],
      "name": "Approval",
      "type": "event"
    },
    {
      "anonymous": false,
      "inputs": [
        {
          "indexed": true,
          "internalType": "address",
          "name": "from",
          "type": "address"
        },
        {
          "indexed": true,
          "internalType": "address",
          "name": "to",
          "type": "address"
        },
        {
          "indexed": false,
          "internalType": "uint256",
          "name": "value",
          "type": "uint256"
        }
      ],
      "name": "Transfer",
      "type": "event"
    },
    {
      "inputs": [
        {
          "internalType": "address",
          "name": "src",
          "type": "address"
        },
        {
          "internalType": "address",
          "name": "dst",
          "type": "address"
        }
      ],
      "name": "allowance",
      "outputs": [
        {
          "internalType": "uint256",
          "name": "",
          "type": "uint256"
        }
      ],
      "stateMutability": "view",
      "type": "function"
    },
    {
      "inputs": [
        {
          "internalType": "address",
          "name": "dst",
          "type": "address"
        },
        {
          "internalType": "uint256",
          "name": "amt",
          "type": "uint256"
        }
      ],
      "name": "approve",
      "outputs": [
        {
          "internalType": "bool",
          "name": "",
          "type": "bool"
        }
      ],
      "stateMutability": "nonpayable",
      "type": "function"
    },
    {
      "inputs": [
        {
          "internalType": "address",
          "name": "whom",
          "type": "address"
        }
      ],
      "name": "balanceOf",
      "outputs": [
        {
          "internalType": "uint256",
          "name": "",
          "type": "uint256"
        }
      ],
      "stateMutability": "view",
      "type": "function"
    },
    {
      "inputs": [],
      "name": "decimals",
      "outputs": [
        {
          "internalType": "uint8",
          "name": "",
          "type": "uint8"
        }
      ],
      "stateMutability": "view",
      "type": "function"
    },
    {
      "inputs": [
        {
          "internalType": "address",
          "name": "dst",
          "type": "address"
        },
        {
          "internalType": "uint256",
          "name": "amt",
          "type": "uint256"
        }
      ],
      "name": "decreaseApproval",
      "outputs": [
        {
          "internalType": "bool",
          "name": "",
          "type": "bool"
        }
      ],
      "stateMutability": "nonpayable",
      "type": "function"
    },
    {
      "inputs": [
        {
          "internalType": "uint256",
          "name": "poolAmountIn",
          "type": "uint256"
        },
        {
          "internalType": "uint256[]",
          "name": "minAmountsOut",
          "type": "uint256[]"
        },
        {
          "internalType": "bool",
          "name": "withdrawTokens",
          "type": "bool"
        },
        {
          "internalType": "address",
          "name": "beneficiary",
          "type": "address"
        }
      ],
      "name": "exitPool",
      "outputs": [],
      "stateMutability": "nonpayable",
      "type": "function"
    },
    {
      "inputs": [],
      "name": "getPoolId",
      "outputs": [
        {
          "internalType": "bytes32",
          "name": "",
          "type": "bytes32"
        }
      ],
      "stateMutability": "view",
      "type": "function"
    },
    {
      "inputs": [],
      "name": "getSwapFee",
      "outputs": [
        {
          "internalType": "uint128",
          "name": "",
          "type": "uint128"
        }
      ],
      "stateMutability": "view",
      "type": "function"
    },
    {
      "inputs": [],
      "name": "getVault",
      "outputs": [
        {
          "internalType": "contract IVault",
          "name": "",
          "type": "address"
        }
      ],
      "stateMutability": "view",
      "type": "function"
    },
    {
      "inputs": [
        {
          "internalType": "contract IERC20[]",
          "name": "tokens",
          "type": "address[]"
        }
      ],
      "name": "getWeights",
      "outputs": [
        {
          "internalType": "uint128[]",
          "name": "",
          "type": "uint128[]"
        }
      ],
      "stateMutability": "view",
      "type": "function"
    },
    {
      "inputs": [
        {
          "internalType": "address",
          "name": "dst",
          "type": "address"
        },
        {
          "internalType": "uint256",
          "name": "amt",
          "type": "uint256"
        }
      ],
      "name": "increaseApproval",
      "outputs": [
        {
          "internalType": "bool",
          "name": "",
          "type": "bool"
        }
      ],
      "stateMutability": "nonpayable",
      "type": "function"
    },
    {
      "inputs": [
        {
          "internalType": "uint256",
          "name": "poolAmountOut",
          "type": "uint256"
        },
        {
          "internalType": "uint128[]",
          "name": "maxAmountsIn",
          "type": "uint128[]"
        },
        {
          "internalType": "bool",
          "name": "transferTokens",
          "type": "bool"
        },
        {
          "internalType": "address",
          "name": "beneficiary",
          "type": "address"
        }
      ],
      "name": "joinPool",
      "outputs": [],
      "stateMutability": "nonpayable",
      "type": "function"
    },
    {
      "inputs": [],
      "name": "name",
      "outputs": [
        {
          "internalType": "string",
          "name": "",
          "type": "string"
        }
      ],
      "stateMutability": "view",
      "type": "function"
    },
    {
      "inputs": [],
      "name": "payProtocolFees",
      "outputs": [],
      "stateMutability": "nonpayable",
      "type": "function"
    },
    {
      "inputs": [
        {
          "components": [
            {
              "internalType": "contract IERC20",
              "name": "tokenIn",
              "type": "address"
            },
            {
              "internalType": "contract IERC20",
              "name": "tokenOut",
              "type": "address"
            },
            {
              "internalType": "uint128",
              "name": "amountOut",
              "type": "uint128"
            },
            {
              "internalType": "bytes32",
              "name": "poolId",
              "type": "bytes32"
            },
            {
              "internalType": "address",
              "name": "from",
              "type": "address"
            },
            {
              "internalType": "address",
              "name": "to",
              "type": "address"
            },
            {
              "internalType": "bytes",
              "name": "userData",
              "type": "bytes"
            }
          ],
          "internalType": "struct ITradingStrategy.QuoteRequestGivenOut",
          "name": "request",
          "type": "tuple"
        },
        {
          "internalType": "uint128",
          "name": "currentBalanceTokenIn",
          "type": "uint128"
        },
        {
          "internalType": "uint128",
          "name": "currentBalanceTokenOut",
          "type": "uint128"
        }
      ],
      "name": "quoteInGivenOut",
      "outputs": [
        {
          "internalType": "uint128",
          "name": "",
          "type": "uint128"
        }
      ],
      "stateMutability": "view",
      "type": "function"
    },
    {
      "inputs": [
        {
          "components": [
            {
              "internalType": "contract IERC20",
              "name": "tokenIn",
              "type": "address"
            },
            {
              "internalType": "contract IERC20",
              "name": "tokenOut",
              "type": "address"
            },
            {
              "internalType": "uint128",
              "name": "amountIn",
              "type": "uint128"
            },
            {
              "internalType": "bytes32",
              "name": "poolId",
              "type": "bytes32"
            },
            {
              "internalType": "address",
              "name": "from",
              "type": "address"
            },
            {
              "internalType": "address",
              "name": "to",
              "type": "address"
            },
            {
              "internalType": "bytes",
              "name": "userData",
              "type": "bytes"
            }
          ],
          "internalType": "struct ITradingStrategy.QuoteRequestGivenIn",
          "name": "request",
          "type": "tuple"
        },
        {
          "internalType": "uint128",
          "name": "currentBalanceTokenIn",
          "type": "uint128"
        },
        {
          "internalType": "uint128",
          "name": "currentBalanceTokenOut",
          "type": "uint128"
        }
      ],
      "name": "quoteOutGivenIn",
      "outputs": [
        {
          "internalType": "uint128",
          "name": "",
          "type": "uint128"
        }
      ],
      "stateMutability": "view",
      "type": "function"
    },
    {
      "inputs": [],
      "name": "symbol",
      "outputs": [
        {
          "internalType": "string",
          "name": "",
          "type": "string"
        }
      ],
      "stateMutability": "view",
      "type": "function"
    },
    {
      "inputs": [],
      "name": "totalSupply",
      "outputs": [
        {
          "internalType": "uint256",
          "name": "",
          "type": "uint256"
        }
      ],
      "stateMutability": "view",
      "type": "function"
    },
    {
      "inputs": [
        {
          "internalType": "address",
          "name": "dst",
          "type": "address"
        },
        {
          "internalType": "uint256",
          "name": "amt",
          "type": "uint256"
        }
      ],
      "name": "transfer",
      "outputs": [
        {
          "internalType": "bool",
          "name": "",
          "type": "bool"
        }
      ],
      "stateMutability": "nonpayable",
      "type": "function"
    },
    {
      "inputs": [
        {
          "internalType": "address",
          "name": "src",
          "type": "address"
        },
        {
          "internalType": "address",
          "name": "dst",
          "type": "address"
        },
        {
          "internalType": "uint256",
          "name": "amt",
          "type": "uint256"
        }
      ],
      "name": "transferFrom",
      "outputs": [
        {
          "internalType": "bool",
          "name": "",
          "type": "bool"
        }
      ],
      "stateMutability": "nonpayable",
      "type": "function"
    }
  ],
  "bytecode": "0x61054060405260136105008190527f42616c616e63657220506f6f6c20546f6b656e0000000000000000000000000061052090815262000043916003919062000cb5565b506040805180820190915260038082526210941560ea1b6020909201918252620000709160049162000cb5565b506005805460ff191660121790553480156200008b57600080fd5b5060405162004c7438038062004c74833981016040819052620000ae9162000ec8565b6001600655845160021115620000e15760405162461bcd60e51b8152600401620000d890620010e1565b60405180910390fd5b845160101015620001065760405162461bcd60e51b8152600401620000d890620011af565b83518551146200012a5760405162461bcd60e51b8152600401620000d89062001201565b81518551146200014e5760405162461bcd60e51b8152600401620000d89062001178565b600080886001600160a01b03166381158ad930846040518363ffffffff1660e01b81526004016200018192919062000fa4565b602060405180830381600087803b1580156200019c57600080fd5b505af1158015620001b1573d6000803e3d6000fd5b505050506040513d601f19601f82011682018060405250810190620001d7919062000eaf565b60405163c1be1b6d60e01b81529091506001600160a01b038a169063c1be1b6d906200021190849089908c908c9060009060040162000fd5565b600060405180830381600087803b1580156200022c57600080fd5b505af115801562000241573d6000803e3d6000fd5b505050508651896001600160a01b031663f94d4668836040518263ffffffff1660e01b815260040162000275919062000fcc565b60006040518083038186803b1580156200028e57600080fd5b505afa158015620002a3573d6000803e3d6000fd5b505050506040513d6000823e601f3d908101601f19168201604052620002cd919081019062000e71565b5114620002ee5760405162461bcd60e51b8152600401620000d89062001141565b620002f98862000aae565b62000305858962000abc565b6001600160601b031960608a901b1660805260a081905286516102c05286516200033157600062000348565b866000815181106200033f57fe5b60200260200101515b60601b6001600160601b03191660c05286516001106200036a57600062000381565b866001815181106200037857fe5b60200260200101515b60601b6001600160601b03191660e0528651600210620003a3576000620003ba565b86600281518110620003b157fe5b60200260200101515b60601b6001600160601b031916610100528651600310620003dd576000620003f4565b86600381518110620003eb57fe5b60200260200101515b60601b6001600160601b031916610120528651600410620004175760006200042e565b866004815181106200042557fe5b60200260200101515b60601b6001600160601b0319166101405286516005106200045157600062000468565b866005815181106200045f57fe5b60200260200101515b60601b6001600160601b0319166101605286516006106200048b576000620004a2565b866006815181106200049957fe5b60200260200101515b60601b6001600160601b031916610180528651600710620004c5576000620004dc565b86600781518110620004d357fe5b60200260200101515b60601b6001600160601b0319166101a0528651600810620004ff57600062000516565b866008815181106200050d57fe5b60200260200101515b60601b6001600160601b0319166101c05286516009106200053957600062000550565b866009815181106200054757fe5b60200260200101515b60601b6001600160601b0319166101e0528651600a10620005735760006200058a565b86600a815181106200058157fe5b60200260200101515b60601b6001600160601b031916610200528651600b10620005ad576000620005c4565b86600b81518110620005bb57fe5b60200260200101515b60601b6001600160601b031916610220528651600c10620005e7576000620005fe565b86600c81518110620005f557fe5b60200260200101515b60601b6001600160601b031916610240528651600d106200062157600062000638565b86600d815181106200062f57fe5b60200260200101515b60601b6001600160601b031916610260528651600e106200065b57600062000672565b86600e815181106200066957fe5b60200260200101515b60601b6001600160601b031916610280528651600f1062000695576000620006ac565b86600f81518110620006a357fe5b60200260200101515b60601b6001600160601b0319166102a0528351620006cc576000620006e3565b83600081518110620006da57fe5b60200260200101515b60801b6001600160801b0319166102e0528351600110620007065760006200071d565b836001815181106200071457fe5b60200260200101515b60801b6001600160801b0319166103005283516002106200074057600062000757565b836002815181106200074e57fe5b60200260200101515b60801b6001600160801b0319166103205283516003106200077a57600062000791565b836003815181106200078857fe5b60200260200101515b60801b6001600160801b031916610340528351600410620007b4576000620007cb565b83600481518110620007c257fe5b60200260200101515b60801b6001600160801b031916610360528351600510620007ee57600062000805565b83600581518110620007fc57fe5b60200260200101515b60801b6001600160801b031916610380528351600610620008285760006200083f565b836006815181106200083657fe5b60200260200101515b60801b6001600160801b0319166103a05283516007106200086257600062000879565b836007815181106200087057fe5b60200260200101515b60801b6001600160801b0319166103c05283516008106200089c576000620008b3565b83600881518110620008aa57fe5b60200260200101515b60801b6001600160801b0319166103e0528351600910620008d6576000620008ed565b83600981518110620008e457fe5b60200260200101515b60801b6001600160801b031916610400528351600a106200091057600062000927565b83600a815181106200091e57fe5b60200260200101515b60801b6001600160801b031916610420528351600b106200094a57600062000961565b83600b815181106200095857fe5b60200260200101515b60801b6001600160801b031916610440528351600c10620009845760006200099b565b83600c815181106200099257fe5b60200260200101515b60801b6001600160801b031916610460528351600d10620009be576000620009d5565b83600d81518110620009cc57fe5b60200260200101515b60801b6001600160801b031916610480528351600e10620009f857600062000a0f565b83600e8151811062000a0657fe5b60200260200101515b60801b6001600160801b0319166104a0528351600f1062000a3257600062000a49565b83600f8151811062000a4057fe5b60200260200101515b60801b6001600160801b0319166104c05267016345785d8a00006001600160801b038416111562000a8e5760405162461bcd60e51b8152600401620000d890620011d8565b505060801b6001600160801b0319166104e0525062001295945050505050565b62000ab98162000acc565b50565b62000ac8828262000b54565b5050565b306000908152602081815260409091205462000af39183906200148762000b61821b17901c565b306000908152602081815260409091209190915560025462000b209183906200148762000b61821b17901c565b600255604051309060009060008051602062004c548339815191529062000b4990859062000fcc565b60405180910390a350565b62000ac830838362000b92565b60008282018381101562000b895760405162461bcd60e51b8152600401620000d8906200110a565b90505b92915050565b604080518082018252601481527f4552525f494e53554646494349454e545f42414c0000000000000000000000006020808301919091526001600160a01b0386166000908152808252929092205462000bf89290918491620014b362000c86821b17901c565b6001600160a01b03808516600090815260208181526040808320949094559185168152919091205462000c369183906200148762000b61821b17901c565b6001600160a01b03808416600081815260208190526040908190209390935591519085169060008051602062004c548339815191529062000c7990859062000fcc565b60405180910390a3505050565b6000818484111562000cad5760405162461bcd60e51b8152600401620000d891906200108b565b505050900390565b828054600181600116156101000203166002900490600052602060002090601f016020900481019282601f1062000cf857805160ff191683800117855562000d28565b8280016001018555821562000d28579182015b8281111562000d2857825182559160200191906001019062000d0b565b5062000d3692915062000d3a565b5090565b5b8082111562000d36576000815560010162000d3b565b600082601f83011262000d62578081fd5b815162000d7962000d73826200125f565b62001238565b81815291506020808301908481018184028601820187101562000d9b57600080fd5b60005b8481101562000dc757815162000db4816200127f565b8452928201929082019060010162000d9e565b505050505092915050565b600082601f83011262000de3578081fd5b815162000df462000d73826200125f565b81815291506020808301908481018184028601820187101562000e1657600080fd5b6000805b8581101562000e4d5782516001600160801b038116811462000e3a578283fd5b8552938301939183019160010162000e1a565b50505050505092915050565b80516001600160801b038116811462000b8c57600080fd5b60006020828403121562000e83578081fd5b81516001600160401b0381111562000e99578182fd5b62000ea78482850162000d51565b949350505050565b60006020828403121562000ec1578081fd5b5051919050565b600080600080600080600060e0888a03121562000ee3578283fd5b875162000ef0816200127f565b602089015160408a015191985096506001600160401b038082111562000f14578485fd5b62000f228b838c0162000d51565b965060608a015191508082111562000f38578485fd5b62000f468b838c0162000dd2565b955060808a0151915062000f5a826200127f565b60a08a01519194508082111562000f6f578384fd5b5062000f7e8a828b0162000dd2565b92505062000f908960c08a0162000e59565b905092959891949750929550565b15159052565b6001600160a01b0383168152604081016002831062000fbf57fe5b8260208301529392505050565b90815260200190565b600060a08201878352602060018060a01b038089168286015260a0604086015282885180855260c087019150838a019450855b818110156200102857855184168352948401949184019160010162001008565b50508581036060870152875180825290830193509050818701845b828110156200106a5781516001600160801b03168552938301939083019060010162001043565b505050508091505062001081608083018462000f9e565b9695505050505050565b6000602080835283518082850152825b81811015620010b9578581018301518582016040015282016200109b565b81811115620010cb5783604083870101525b50601f01601f1916929092016040019392505050565b6020808252600f908201526e4552525f5f4d494e5f544f4b454e5360881b604082015260600190565b6020808252601b908201527f536166654d6174683a206164646974696f6e206f766572666c6f770000000000604082015260600190565b60208082526013908201527f4552525f52455045415445445f544f4b454e5300000000000000000000000000604082015260600190565b60208082526019908201527f4552525f544f4b454e535f574549474854535f4c454e47544800000000000000604082015260600190565b6020808252600f908201526e4552525f5f4d41585f544f4b454e5360881b604082015260600190565b6020808252600f908201526e4552525f4d41585f4d41585f46454560881b604082015260600190565b60208082526019908201527f4552525f544f4b454e535f414d4f554e54535f4c454e47544800000000000000604082015260600190565b6040518181016001600160401b03811182821017156200125757600080fd5b604052919050565b60006001600160401b0382111562001275578081fd5b5060209081020190565b6001600160a01b038116811462000ab957600080fd5b60805160601c60a05160c05160601c60e05160601c6101005160601c6101205160601c6101405160601c6101605160601c6101805160601c6101a05160601c6101c05160601c6101e05160601c6102005160601c6102205160601c6102405160601c6102605160601c6102805160601c6102a05160601c6102c0516102e05160801c6103005160801c6103205160801c6103405160801c6103605160801c6103805160801c6103a05160801c6103c05160801c6103e05160801c6104005160801c6104205160801c6104405160801c6104605160801c6104805160801c6104a05160801c6104c05160801c6104e05160801c613770620014e46000398061135d5280611ea05280611ef9525080611dbe525080611d5d525080611cfc525080611c9b525080611c3a525080611bd9525080611b78525080611b17525080611ab6525080611a555250806119f45250806119935250806119325250806118d152508061187052508061180f52505080611d83525080611d22525080611cc1525080611c60525080611bff525080611b9e525080611b3d525080611adc525080611a7b525080611a1a5250806119b95250806119585250806118f75250806118965250806118355250806117d45250806103f252806104a3528061058852806107d352806109a65280610b625280610c135280610cf85280610f365280610fe752806110cc52806112dc5250806103c55280610474528061055b52806107a65280610b355280610be45280610ccb5280610d8c5280610f095280610fb8528061109f52806112af52506137706000f3fe608060405234801561001057600080fd5b50600436106100fc5760003560e01c806306fdde0314610101578063095ea7b31461011f578063127cdc421461013f57806318160ddd1461015457806323b872dd14610169578063313ce5671461017c57806338fff2d014610191578063661884631461019957806370a08231146101ac5780637ee65e53146101bf57806380afb82a146101df5780638d928af8146101e757806395d89b41146101fc578063965b9ff114610204578063a9059cbb14610224578063b5db9b8b14610237578063d4cadf681461024a578063d73dd62314610252578063dd62ed3e14610265578063f9ddfe3e14610278575b600080fd5b61010961028b565b6040516101169190613188565b60405180910390f35b61013261012d366004612d6f565b610321565b60405161011691906130cb565b61015261014d366004612fcc565b61037a565b005b61015c610864565b60405161011691906130d6565b610132610177366004612d2f565b61086a565b61018461099b565b604051610116919061367d565b61015c6109a4565b6101326101a7366004612d6f565b6109c8565b61015c6101ba366004612cdb565b610a91565b6101d26101cd366004612f4f565b610ab0565b6040516101169190613669565b610152610b1b565b6101ef610d8a565b6040516101169190613174565b610109610dae565b610217610212366004612d9a565b610e0f565b60405161011691906130b8565b610132610232366004612d6f565b610eb1565b610152610245366004612fcc565b610ec7565b6101d261135b565b610132610260366004612d6f565b61137f565b61015c610273366004612cf7565b6113f3565b6101d2610286366004612f4f565b61141e565b60038054604080516020601f60026000196101006001881615020190951694909404938401819004810282018101909252828152606093909290918301828280156103175780601f106102ec57610100808354040283529160200191610317565b820191906000526020600020905b8154815290600101906020018083116102fa57829003601f168201915b5050505050905090565b3360008181526001602090815260408083206001600160a01b0387168085529252808320859055519192909160008051602061371b833981519152906103689086906130d6565b60405180910390a35060015b92915050565b600260065414156103a65760405162461bcd60e51b815260040161039d90613590565b60405180910390fd5b6002600655604051631f29a8cd60e31b81526060906001600160a01b037f0000000000000000000000000000000000000000000000000000000000000000169063f94d46689061041a907f0000000000000000000000000000000000000000000000000000000000000000906004016130d6565b60006040518083038186803b15801561043257600080fd5b505afa158015610446573d6000803e3d6000fd5b505050506040513d6000823e601f3d908101601f1916820160405261046e9190810190612e37565b905060607f00000000000000000000000000000000000000000000000000000000000000006001600160a01b031663fe8f2cb27f0000000000000000000000000000000000000000000000000000000000000000846040518363ffffffff1660e01b81526004016104e0929190613130565b60006040518083038186803b1580156104f857600080fd5b505afa15801561050c573d6000803e3d6000fd5b505050506040513d6000823e601f3d908101601f191682016040526105349190810190612ec3565b90506060610541826114df565b604051631c0d366560e11b81529091506001600160a01b037f0000000000000000000000000000000000000000000000000000000000000000169063381a6cca906105b4907f00000000000000000000000000000000000000000000000000000000000000009087908690600401613149565b600060405180830381600087803b1580156105ce57600080fd5b505af11580156105e2573d6000803e3d6000fd5b505050506040513d6000823e601f3d908101601f1916820160405261060a9190810190612ec3565b91506000610616610864565b9050600061062c6106278b8461152b565b6115ca565b90506001600160801b0381166106545760405162461bcd60e51b815260040161039d9061326d565b845188146106745760405162461bcd60e51b815260040161039d906132dd565b606085516001600160401b038111801561068d57600080fd5b506040519080825280602002602001820160405280156106b7578160200160208202803683370190505b50905060005b865181101561078e576106f5838783815181106106d657fe5b60200260200101516001600160801b03166115f390919063ffffffff16565b82828151811061070157fe5b60200260200101906001600160801b031690816001600160801b0316815250508a8a8281811061072d57fe5b90506020020160208101906107429190612fb0565b6001600160801b031682828151811061075757fe5b60200260200101516001600160801b031611156107865760405162461bcd60e51b815260040161039d90613429565b6001016106bd565b5060405163c1be1b6d60e01b81526001600160a01b037f0000000000000000000000000000000000000000000000000000000000000000169063c1be1b6d90610804907f00000000000000000000000000000000000000000000000000000000000000009033908b9087908f15906004016130df565b600060405180830381600087803b15801561081e57600080fd5b505af1158015610832573d6000803e3d6000fd5b5050505061083f856116a7565b6108488b6116aa565b610852878c6116b3565b50506001600655505050505050505050565b60025490565b6000336001600160a01b03851614806108a657506001600160a01b03841660009081526001602090815260408083203384529091529020548211155b6108c25760405162461bcd60e51b815260040161039d906133fa565b6108cd8484846116c1565b336001600160a01b0385161480159061090b57506001600160a01b038416600090815260016020908152604080832033845290915290205460001914155b15610991576001600160a01b038416600090815260016020908152604080832033845290915290205461093e908361178e565b6001600160a01b03858116600090815260016020908152604080832033808552925291829020849055905191861692909160008051602061371b83398151915291610988916130d6565b60405180910390a35b5060019392505050565b60055460ff1690565b7f000000000000000000000000000000000000000000000000000000000000000090565b3360009081526001602090815260408083206001600160a01b038616845290915281205480831115610a1d573360009081526001602090815260408083206001600160a01b0388168452909152812055610a4c565b610a27818461178e565b3360009081526001602090815260408083206001600160a01b03891684529091529020555b3360008181526001602090815260408083206001600160a01b03891680855292529182902054915190929160008051602061371b8339815191529161098891906130d6565b6001600160a01b0381166000908152602081905260409020545b919050565b600080610b0784610acc610ac76020890189612cdb565b6117d0565b6001600160801b031685610ae9610ac760408b0160208c01612cdb565b6001600160801b0316610b0260608b0160408c01612fb0565b611dfa565b9050610b1281611e8d565b95945050505050565b604051631f29a8cd60e31b81526060906001600160a01b037f0000000000000000000000000000000000000000000000000000000000000000169063f94d466890610b8a907f0000000000000000000000000000000000000000000000000000000000000000906004016130d6565b60006040518083038186803b158015610ba257600080fd5b505afa158015610bb6573d6000803e3d6000fd5b505050506040513d6000823e601f3d908101601f19168201604052610bde9190810190612e37565b905060607f00000000000000000000000000000000000000000000000000000000000000006001600160a01b031663fe8f2cb27f0000000000000000000000000000000000000000000000000000000000000000846040518363ffffffff1660e01b8152600401610c50929190613130565b60006040518083038186803b158015610c6857600080fd5b505afa158015610c7c573d6000803e3d6000fd5b505050506040513d6000823e601f3d908101601f19168201604052610ca49190810190612ec3565b90506060610cb1826114df565b604051631c0d366560e11b81529091506001600160a01b037f0000000000000000000000000000000000000000000000000000000000000000169063381a6cca90610d24907f00000000000000000000000000000000000000000000000000000000000000009087908690600401613149565b600060405180830381600087803b158015610d3e57600080fd5b505af1158015610d52573d6000803e3d6000fd5b505050506040513d6000823e601f3d908101601f19168201604052610d7a9190810190612ec3565b9150610d85826116a7565b505050565b7f000000000000000000000000000000000000000000000000000000000000000090565b60048054604080516020601f60026000196101006001881615020190951694909404938401819004810282018101909252828152606093909290918301828280156103175780601f106102ec57610100808354040283529160200191610317565b60608082516001600160401b0381118015610e2957600080fd5b50604051908082528060200260200182016040528015610e53578160200160208202803683370190505b50905060005b8151811015610eaa57610e7e848281518110610e7157fe5b60200260200101516117d0565b828281518110610e8a57fe5b6001600160801b0390921660209283029190910190910152600101610e59565b5092915050565b6000610ebe3384846116c1565b50600192915050565b60026006541415610eea5760405162461bcd60e51b815260040161039d90613590565b6002600655604051631f29a8cd60e31b81526060906001600160a01b037f0000000000000000000000000000000000000000000000000000000000000000169063f94d466890610f5e907f0000000000000000000000000000000000000000000000000000000000000000906004016130d6565b60006040518083038186803b158015610f7657600080fd5b505afa158015610f8a573d6000803e3d6000fd5b505050506040513d6000823e601f3d908101601f19168201604052610fb29190810190612e37565b905060607f00000000000000000000000000000000000000000000000000000000000000006001600160a01b031663fe8f2cb27f0000000000000000000000000000000000000000000000000000000000000000846040518363ffffffff1660e01b8152600401611024929190613130565b60006040518083038186803b15801561103c57600080fd5b505afa158015611050573d6000803e3d6000fd5b505050506040513d6000823e601f3d908101601f191682016040526110789190810190612ec3565b90506060611085826114df565b604051631c0d366560e11b81529091506001600160a01b037f0000000000000000000000000000000000000000000000000000000000000000169063381a6cca906110f8907f00000000000000000000000000000000000000000000000000000000000000009087908690600401613149565b600060405180830381600087803b15801561111257600080fd5b505af1158015611126573d6000803e3d6000fd5b505050506040513d6000823e601f3d908101601f1916820160405261114e9190810190612ec3565b9150600061115a610864565b9050600061116b6106278b8461152b565b90506001600160801b0381166111935760405162461bcd60e51b815260040161039d9061326d565b845188146111b35760405162461bcd60e51b815260040161039d906132dd565b606085516001600160401b03811180156111cc57600080fd5b506040519080825280602002602001820160405280156111f6578160200160208202803683370190505b50905060005b865181101561129757611215838783815181106106d657fe5b82828151811061122157fe5b60200260200101906001600160801b031690816001600160801b0316815250508a8a8281811061124d57fe5b9050602002013582828151811061126057fe5b60200260200101516001600160801b0316101561128f5760405162461bcd60e51b815260040161039d906135c7565b6001016111fc565b5060405163ad0e595960e01b81526001600160a01b037f0000000000000000000000000000000000000000000000000000000000000000169063ad0e59599061130d907f0000000000000000000000000000000000000000000000000000000000000000908b908b9087908f15906004016130df565b600060405180830381600087803b15801561132757600080fd5b505af115801561133b573d6000803e3d6000fd5b50505050611348856116a7565b611352338c611ed4565b6108528b611ede565b7f000000000000000000000000000000000000000000000000000000000000000090565b3360009081526001602090815260408083206001600160a01b03861684529091528120546113ad9083611487565b3360008181526001602090815260408083206001600160a01b0389168085529252918290208490559051909260008051602061371b8339815191529161036891906130d6565b6001600160a01b03918216600090815260016020908152604080832093909416825291909152205490565b6000806114396114346060870160408801612fb0565b611ee7565b9050600061147d85611451610ac760208a018a612cdb565b6001600160801b03168661146e610ac760408c0160208d01612cdb565b6001600160801b031686611f32565b9695505050505050565b6000828201838110156114ac5760405162461bcd60e51b815260040161039d90613238565b9392505050565b600081848411156114d75760405162461bcd60e51b815260040161039d9190613188565b505050900390565b60608082516001600160401b03811180156114f957600080fd5b50604051908082528060200260200182016040528015611523578160200160208202803683370190505b509392505050565b60008161154a5760405162461bcd60e51b815260040161039d906134a5565b670de0b6b3a764000083028315806115725750670de0b6b3a764000084828161156f57fe5b04145b61158e5760405162461bcd60e51b815260040161039d906133d0565b600283048101818110156115b45760405162461bcd60e51b815260040161039d906133d0565b60008482816115bf57fe5b049695505050505050565b6000600160801b82106115ef5760405162461bcd60e51b815260040161039d90613296565b5090565b60008282026001600160801b038416158061163a5750826001600160801b0316846001600160801b0316826001600160801b03168161162e57fe5b046001600160801b0316145b6116565760405162461bcd60e51b815260040161039d9061347b565b6706f05b59d3b2000081016001600160801b03808316908216101561168d5760405162461bcd60e51b815260040161039d9061347b565b6000670de0b6b3a76400006001600160801b0383166115bf565b50565b6116a781611fb3565b6116bd828261201b565b5050565b604080518082018252601481527311549497d25394d551919250d251539517d0905360621b6020808301919091526001600160a01b03861660009081529081905291909120546117129183906114b3565b6001600160a01b0380851660009081526020819052604080822093909355908416815220546117419082611487565b6001600160a01b0380841660008181526020819052604090819020939093559151908516906000805160206136fb833981519152906117819085906130d6565b60405180910390a3505050565b60006114ac83836040518060400160405280601e81526020017f536166654d6174683a207375627472616374696f6e206f766572666c6f7700008152506114b3565b60007f00000000000000000000000000000000000000000000000000000000000000006001600160a01b0316826001600160a01b0316141561183357507f0000000000000000000000000000000000000000000000000000000000000000610aab565b7f00000000000000000000000000000000000000000000000000000000000000006001600160a01b0316826001600160a01b0316141561189457507f0000000000000000000000000000000000000000000000000000000000000000610aab565b7f00000000000000000000000000000000000000000000000000000000000000006001600160a01b0316826001600160a01b031614156118f557507f0000000000000000000000000000000000000000000000000000000000000000610aab565b7f00000000000000000000000000000000000000000000000000000000000000006001600160a01b0316826001600160a01b0316141561195657507f0000000000000000000000000000000000000000000000000000000000000000610aab565b7f00000000000000000000000000000000000000000000000000000000000000006001600160a01b0316826001600160a01b031614156119b757507f0000000000000000000000000000000000000000000000000000000000000000610aab565b7f00000000000000000000000000000000000000000000000000000000000000006001600160a01b0316826001600160a01b03161415611a1857507f0000000000000000000000000000000000000000000000000000000000000000610aab565b7f00000000000000000000000000000000000000000000000000000000000000006001600160a01b0316826001600160a01b03161415611a7957507f0000000000000000000000000000000000000000000000000000000000000000610aab565b7f00000000000000000000000000000000000000000000000000000000000000006001600160a01b0316826001600160a01b03161415611ada57507f0000000000000000000000000000000000000000000000000000000000000000610aab565b7f00000000000000000000000000000000000000000000000000000000000000006001600160a01b0316826001600160a01b03161415611b3b57507f0000000000000000000000000000000000000000000000000000000000000000610aab565b7f00000000000000000000000000000000000000000000000000000000000000006001600160a01b0316826001600160a01b03161415611b9c57507f0000000000000000000000000000000000000000000000000000000000000000610aab565b7f00000000000000000000000000000000000000000000000000000000000000006001600160a01b0316826001600160a01b03161415611bfd57507f0000000000000000000000000000000000000000000000000000000000000000610aab565b7f00000000000000000000000000000000000000000000000000000000000000006001600160a01b0316826001600160a01b03161415611c5e57507f0000000000000000000000000000000000000000000000000000000000000000610aab565b7f00000000000000000000000000000000000000000000000000000000000000006001600160a01b0316826001600160a01b03161415611cbf57507f0000000000000000000000000000000000000000000000000000000000000000610aab565b7f00000000000000000000000000000000000000000000000000000000000000006001600160a01b0316826001600160a01b03161415611d2057507f0000000000000000000000000000000000000000000000000000000000000000610aab565b7f00000000000000000000000000000000000000000000000000000000000000006001600160a01b0316826001600160a01b03161415611d8157507f0000000000000000000000000000000000000000000000000000000000000000610aab565b7f00000000000000000000000000000000000000000000000000000000000000006001600160a01b0316826001600160a01b03161415611de257507f0000000000000000000000000000000000000000000000000000000000000000610aab565b60405162461bcd60e51b815260040161039d90613565565b600080611e26611e166001600160801b03878116908616612026565b6001600160801b0387169061152b565b90506000611e34858861152b565b90506000611e68670de0b6b3a7640000611e59610627611e548787612057565b6121a2565b6001600160801b031690612026565b9050611e806106276001600160801b038b16836121c4565b9998505050505050505050565b6000610374611ec4670de0b6b3a76400007f0000000000000000000000000000000000000000000000000000000000000000612236565b6001600160801b03841690612245565b6116bd8282612331565b6116a78161233c565b600080611f1d6001600160801b0384167f00000000000000000000000000000000000000000000000000000000000000006115f3565b90506114ac6001600160801b03841682612236565b600080611f5e611f4e6001600160801b038981169086166123c7565b6001600160801b0389169061152b565b90506000611f6c878661152b565b90506000611f9b611f83610627611e548686612057565b670de0b6b3a7640000906001600160801b0316612026565b9050611e806106276001600160801b038916836121c4565b30600090815260208190526040902054611fcd9082611487565b30600090815260208190526040902055600254611fea9082611487565b60025560405130906000906000805160206136fb833981519152906120109085906130d6565b60405180910390a350565b6116bd3083836116c1565b600080600061203585856123ec565b9150915080156115235760405162461bcd60e51b815260040161039d90613510565b6000826000126120795760405162461bcd60e51b815260040161039d9061344f565b770bce5086492111aea88f4bb1ca6bcf584181ea8059f7653119821380156120b85750770bce5086492111aea88f4bb1ca6bcf584181ea8059f7653282125b6120d45760405162461bcd60e51b815260040161039d906131db565b6000670c7d713b49da0000841380156120f45750670f43fc2c04ee000084125b1561212b57600061210485612411565b9050670de0b6b3a764000080820785020584670de0b6b3a764000083050201915050612139565b82612135856124c5565b0290505b6f1f2e4fc7e9a120d363a862467b9fffff19811280159061216a57506f62541066c2001c07b75885b199d400008113155b6121865760405162461bcd60e51b815260040161039d906135f3565b670de0b6b3a7640000900561219a81612874565b949350505050565b6000808212156115ef5760405162461bcd60e51b815260040161039d9061339b565b60008282028315806121de5750828482816121db57fe5b04145b6121fa5760405162461bcd60e51b815260040161039d9061347b565b6706f05b59d3b200008101818110156122255760405162461bcd60e51b815260040161039d9061347b565b6000670de0b6b3a7640000826115bf565b60008060006120358585612c4b565b60006001600160801b03821661226d5760405162461bcd60e51b815260040161039d906134a5565b670de0b6b3a764000083026001600160801b03841615806122b35750670de0b6b3a76400006001600160801b03858116908316816122a757fe5b046001600160801b0316145b6122cf5760405162461bcd60e51b815260040161039d906133d0565b600060026001600160801b0385160482019050816001600160801b0316816001600160801b031610156123145760405162461bcd60e51b815260040161039d906133d0565b6000846001600160801b0316826001600160801b0316816115bf57fe5b6116bd8230836116c1565b604080518082018252601481527311549497d25394d551919250d251539517d0905360621b6020808301919091523060009081529081905291909120546123849183906114b3565b306000908152602081905260409020556002546123a1908261178e565b60025560405160009030906000805160206136fb833981519152906120109085906130d6565b6000828201838110156114ac5760405162461bcd60e51b815260040161039d9061353b565b600080828410612402575050808203600061240a565b505081810360015b9250929050565b670de0b6b3a7640000026000806a0c097ce7bc90715b34b9f160241b808401906ec097ce7bc90715b34b9f0fffffffff198501028161244c57fe5b60036a0c097ce7bc90715b34b9f160241b92909105808002839005808202849005928305909101600592820284900592830501600792820284900592830501600992820284900592830501600b92820284900592830501600d92820284900592830501600f929091029290920505016002029392505050565b60008082136124e65760405162461bcd60e51b815260040161039d906134cb565b670de0b6b3a764000082121561252057612516826a0c097ce7bc90715b34b9f160241b8161251057fe5b056124c5565b6000039050610aab565b6000775803bcc5cb9634ba4cfb2213f784019318ed4dcb6017880f60361b831261256b576806f05b59d3b20000000172195e54c5dd42177f53a27172fa9ec63026282760241b830592505b6f8bcc0026baae9e45e470190267a230cf60191b83126125a2576803782dace9d9000000016b1425982cf597cd205cef7380830592505b606492830292026e01855144814a7ff805980ff008400083126125ea5768ad78ebc5ac62000000016e01855144814a7ff805980ff008400068056bc75e2d6310000084020592505b6b02df0ab5a80a22c61ab5a7008312612625576856bc75e2d631000000016b02df0ab5a80a22c61ab5a70068056bc75e2d6310000084020592505b693f1fce3da636ea5cf850831261265c57682b5e3af16b1880000001693f1fce3da636ea5cf85068056bc75e2d6310000084020592505b690127fa27722cc06cc5e28312612693576815af1d78b58c40000001690127fa27722cc06cc5e268056bc75e2d6310000084020592505b68280e60114edb805d0383126126c857680ad78ebc5ac62000000168280e60114edb805d0368056bc75e2d6310000084020592505b680ebc5fb4174612111083126126f357680ebc5fb4174612111068056bc75e2d631000009384020592015b6808f00f760a4b2db55d8312612728576802b5e3af16b1880000016808f00f760a4b2db55d68056bc75e2d6310000084020592505b6806f5f1775788937937831261275d5768015af1d78b58c40000016806f5f177578893793768056bc75e2d6310000084020592505b6806248f33704b28660383126127915767ad78ebc5ac620000016806248f33704b28660368056bc75e2d6310000084020592505b6805c548670b9510e7ac83126127c5576756bc75e2d6310000016805c548670b9510e7ac68056bc75e2d6310000084020592505b600068056bc75e2d63100000840168056bc75e2d63100000850368056bc75e2d6310000002816127f157fe5b059050600768056bc75e2d631000008280028190058084028290058082028390058083028490059485056003909205860160059091050101929091818302059050600981058301925068056bc75e2d631000008282028161284e57fe5b059050600b81058301925060648360020286018161286857fe5b05979650505050505050565b600068023f2fa8f6da5b9d271982121580156128995750680715d69fa8c011c3fd8213155b6128b55760405162461bcd60e51b815260040161039d9061331f565b60008212156128e8576128ca82600003612874565b6a0c097ce7bc90715b34b9f160241b816128e057fe5b059050610aab565b68056bc75e2d6310000060016806f05b59d3b2000000841261292c57506806f05b59d3b1ffffff199092019172195e54c5dd42177f53a27172fa9ec63026282760241b5b6803782dace9d9000000841261295a576803782dace9d8ffffff19909301926b1425982cf597cd205cef7380025b60648402935068ad78ebc5ac62000000841261299e5768056bc75e2d631000006e01855144814a7ff805980ff0084000830205915068ad78ebc5ac62000000840393505b6856bc75e2d63100000084126129d95768056bc75e2d631000006b02df0ab5a80a22c61ab5a70083020591506856bc75e2d631000000840393505b682b5e3af16b188000008412612a125768056bc75e2d63100000693f1fce3da636ea5cf8508302059150682b5e3af16b18800000840393505b6815af1d78b58c4000008412612a4b5768056bc75e2d63100000690127fa27722cc06cc5e283020591506815af1d78b58c400000840393505b680ad78ebc5ac62000008412612a835768056bc75e2d6310000068280e60114edb805d038302059150680ad78ebc5ac6200000840393505b68056bc75e2d631000008412612abb5768056bc75e2d63100000680ebc5fb41746121110830205915068056bc75e2d63100000840393505b6802b5e3af16b18800008412612af35768056bc75e2d631000006808f00f760a4b2db55d83020591506802b5e3af16b1880000840393505b68015af1d78b58c400008412612b2b5768056bc75e2d631000006806f5f1775788937937830205915068015af1d78b58c40000840393505b68056bc75e2d631000008481019085906002828002050591820191905068056bc75e2d631000006003878302050591820191905068056bc75e2d631000006004878302050591820191905068056bc75e2d631000006005878302050591820191905068056bc75e2d631000006006878302050591820191905068056bc75e2d631000006007878302050591820191905068056bc75e2d631000006008878302050591820191905068056bc75e2d631000006009878302050591820191905068056bc75e2d63100000600a878302050591820191905068056bc75e2d63100000600b878302050591820191905068056bc75e2d63100000600c8783020505918201919050606468056bc75e2d63100000858402058402059695505050505050565b600080826001600160801b0316846001600160801b031610612402575050808203600061240a565b60008083601f840112612c84578182fd5b5081356001600160401b03811115612c9a578182fd5b602083019150836020808302850101111561240a57600080fd5b8035801515811461037457600080fd5b600060e08284031215612cd5578081fd5b50919050565b600060208284031215612cec578081fd5b81356114ac816136d0565b60008060408385031215612d09578081fd5b8235612d14816136d0565b91506020830135612d24816136d0565b809150509250929050565b600080600060608486031215612d43578081fd5b8335612d4e816136d0565b92506020840135612d5e816136d0565b929592945050506040919091013590565b60008060408385031215612d81578182fd5b8235612d8c816136d0565b946020939093013593505050565b60006020808385031215612dac578182fd5b82356001600160401b03811115612dc1578283fd5b8301601f81018513612dd1578283fd5b8035612de4612ddf826136b1565b61368b565b8181528381019083850185840285018601891015612e00578687fd5b8694505b83851015612e2b578035612e17816136d0565b835260019490940193918501918501612e04565b50979650505050505050565b60006020808385031215612e49578182fd5b82516001600160401b03811115612e5e578283fd5b8301601f81018513612e6e578283fd5b8051612e7c612ddf826136b1565b8181528381019083850185840285018601891015612e98578687fd5b8694505b83851015612e2b578051612eaf816136d0565b835260019490940193918501918501612e9c565b60006020808385031215612ed5578182fd5b82516001600160401b03811115612eea578283fd5b8301601f81018513612efa578283fd5b8051612f08612ddf826136b1565b8181528381019083850185840285018601891015612f24578687fd5b8694505b83851015612e2b578051612f3b816136e5565b835260019490940193918501918501612f28565b600080600060608486031215612f63578283fd5b83356001600160401b03811115612f78578384fd5b612f8486828701612cc4565b9350506020840135612f95816136e5565b91506040840135612fa5816136e5565b809150509250925092565b600060208284031215612fc1578081fd5b81356114ac816136e5565b600080600080600060808688031215612fe3578283fd5b8535945060208601356001600160401b03811115612fff578384fd5b61300b88828901612c73565b909550935061301f90508760408801612cb4565b9150606086013561302f816136d0565b809150509295509295909350565b6000815180845260208085019450808401835b838110156130755781516001600160a01b031687529582019590820190600101613050565b509495945050505050565b6000815180845260208085019450808401835b838110156130755781516001600160801b031687529582019590820190600101613093565b6000602082526114ac6020830184613080565b901515815260200190565b90815260200190565b8581526001600160a01b038516602082015260a0604082018190526000906131099083018661303d565b828103606084015261311b8186613080565b91505082151560808301529695505050505050565b60008382526040602083015261219a604083018461303d565b600084825260606020830152613162606083018561303d565b828103604084015261147d8185613080565b6001600160a01b0391909116815260200190565b6000602080835283518082850152825b818110156131b457858101830151858201604001528201613198565b818111156131c55783604083870101525b50601f01601f1916929092016040019392505050565b6020808252603d908201527f6162736f6c7574652076616c7565206f6620696e70757420792068617320746f60408201527f206265206c657373207468616e20322a2a323534202f2031302a2a3230000000606082015260800190565b6020808252601b908201527a536166654d6174683a206164646974696f6e206f766572666c6f7760281b604082015260600190565b6020808252600f908201526e08aa4a4be9a82a890be82a0a0a49eb608b1b604082015260600190565b60208082526027908201527f53616665436173743a2076616c756520646f65736e27742066697420696e20316040820152663238206269747360c81b606082015260800190565b60208082526022908201527f546f6b656e7320616e6420616d6f756e7473206c656e677468206d69736d61746040820152610c6d60f31b606082015260800190565b60208082526056908201527f4e61747572616c2065787020617267756d656e74206d7573742062652062657460408201527f7765656e202d34312e34343635333136373338393238323233313220616e64206060820152753133302e37303038323931383239303531343032323160501b608082015260a00190565b6020808252818101527f53616665436173743a2076616c7565206d75737420626520706f736974697665604082015260600190565b60208082526010908201526f11549497d1125597d25395115493905360821b604082015260600190565b60208082526015908201527422a9292fa12a27a5a2a72fa120a22fa1a0a62622a960591b604082015260600190565b6020808252600c908201526b22a9292fa624a6a4aa2fa4a760a11b604082015260600190565b60208082526012908201527178206d75737420626520706f73697469766560701b604082015260600190565b60208082526010908201526f4552525f4d554c5f4f564552464c4f5760801b604082015260600190565b6020808252600c908201526b4552525f4449565f5a45524f60a01b604082015260600190565b60208082526025908201527f4e61747572616c206c6f6720617267756d656e74206d75737420626520706f73604082015264697469766560d81b606082015260800190565b6020808252601190820152704552525f5355425f554e444552464c4f5760781b604082015260600190565b60208082526010908201526f4552525f4144445f4f564552464c4f5760801b604082015260600190565b60208082526011908201527022a9292fa4a72b20a624a22faa27a5a2a760791b604082015260600190565b6020808252601f908201527f5265656e7472616e637947756172643a207265656e7472616e742063616c6c00604082015260600190565b60208082526012908201527109c9ea8408ab092a8929c8e408a9c9eaa8e960731b604082015260600190565b60208082526050908201527f6c6f672878292074696d65732079206d757374206265206265747765656e202d60408201527f34312e34343635333136373338393238323233313220616e64203133302e373060608201526f3038323931383239303531343032323160801b608082015260a00190565b6001600160801b0391909116815260200190565b60ff91909116815260200190565b6040518181016001600160401b03811182821017156136a957600080fd5b604052919050565b60006001600160401b038211156136c6578081fd5b5060209081020190565b6001600160a01b03811681146116a757600080fd5b6001600160801b03811681146116a757600080fdfeddf252ad1be2c89b69c2b068fc378daa952ba7f163c4a11628f55a4df523b3ef8c5be1e5ebec7d5bd14f71427d1e84f3dd0314c0f7b2291e5b200ac8c7c3b925a2646970667358221220ac0da60e03e5e0b7cbf5838350feffcfdee1018d243066060b72c4d8fac50b1d64736f6c63430007010033ddf252ad1be2c89b69c2b068fc378daa952ba7f163c4a11628f55a4df523b3ef",
  "linkReferences": {},
  "deployedLinkReferences": {}
}