{
  "address": "0x9E7261709094d6B502348604ccfb9af67d5F27f5",
  "abi": [
    {
      "inputs": [],
      "stateMutability": "nonpayable",
      "type": "constructor"
    },
    {
      "anonymous": false,
      "inputs": [
        {
          "indexed": true,
          "internalType": "address",
          "name": "strategy",
          "type": "address"
        }
      ],
      "name": "StrategyCreated",
      "type": "event"
    },
    {
      "inputs": [
        {
          "internalType": "uint128",
          "name": "amp",
          "type": "uint128"
        },
        {
          "internalType": "uint256",
          "name": "swapFee",
          "type": "uint256"
        }
      ],
      "name": "create",
      "outputs": [
        {
          "internalType": "address",
          "name": "",
          "type": "address"
        }
      ],
      "stateMutability": "nonpayable",
      "type": "function"
    }
  ],
  "transactionHash": "0x4d862f0588e68e3d46157c3002d1fb98dceb2ee863b388fe6013e52b4b228d45",
  "args": [],
  "solcInputHash": "afcbb748db9c776c982c2f208c231f65",
  "bytecode": "0x608060405234801561001057600080fd5b50611753806100206000396000f3fe608060405234801561001057600080fd5b506004361061002b5760003560e01c8063c1d3c9af14610030575b600080fd5b61004361003e3660046103f7565b610059565b60405161005091906104e8565b60405180910390f35b600060606040518060200161006d906103ea565b7fffffffffffffffffffffffffffffffffffffffffffffffffffffffffffffffe082820381018352601f9091011660408190526100b090869086906020016105ac565b604080517fffffffffffffffffffffffffffffffffffffffffffffffffffffffffffffffe0818403018152908290526100ec92916020016104d3565b604051602081830303815290604052905060006101136000801b83805190602001206101e3565b90506101348173ffffffffffffffffffffffffffffffffffffffff166101f7565b156101425791506101dd9050565b600061014f818085610233565b90508173ffffffffffffffffffffffffffffffffffffffff168173ffffffffffffffffffffffffffffffffffffffff161461018657fe5b610191600082610309565b5060405173ffffffffffffffffffffffffffffffffffffffff8216907fbe69a8909bf54ab6b33b6090045cf72cb4832fe592c189d7cb21504b38ec2d1590600090a292506101dd915050565b92915050565b60006101f083833061032b565b9392505050565b6000813f7fc5d2460186f7233c927e7db2dcc703c0e500b653ca82273b7bfad8045d85a47081811480159061022b57508115155b949350505050565b60008084471015610279576040517f08c379a000000000000000000000000000000000000000000000000000000000815260040161027090610575565b60405180910390fd5b82516102b1576040517f08c379a000000000000000000000000000000000000000000000000000000000815260040161027090610509565b8383516020850187f5905073ffffffffffffffffffffffffffffffffffffffff811661022b576040517f08c379a00000000000000000000000000000000000000000000000000000000081526004016102709061053e565b60006101f08373ffffffffffffffffffffffffffffffffffffffff8416610388565b60008060ff60f81b838686604051602001610349949392919061046f565b604080518083037fffffffffffffffffffffffffffffffffffffffffffffffffffffffffffffffe0018152919052805160209091012095945050505050565b600061039483836103d2565b6103ca575081546001818101845560008481526020808220909301849055845484825282860190935260409020919091556101dd565b5060006101dd565b60009081526001919091016020526040902054151590565b61114f806105cf83390190565b60008060408385031215610409578182fd5b82356fffffffffffffffffffffffffffffffff81168114610428578283fd5b946020939093013593505050565b60008151815b81811015610456576020818501810151868301520161043c565b818111156104645782828601525b509290920192915050565b7fff0000000000000000000000000000000000000000000000000000000000000094909416845260609290921b7fffffffffffffffffffffffffffffffffffffffff0000000000000000000000001660018401526015830152603582015260550190565b600061022b6104e28386610436565b84610436565b73ffffffffffffffffffffffffffffffffffffffff91909116815260200190565b6020808252818101527f437265617465323a2062797465636f6465206c656e677468206973207a65726f604082015260600190565b60208082526019908201527f437265617465323a204661696c6564206f6e206465706c6f7900000000000000604082015260600190565b6020808252601d908201527f437265617465323a20696e73756666696369656e742062616c616e6365000000604082015260600190565b6fffffffffffffffffffffffffffffffff92909216825260208201526040019056fe60c060405234801561001057600080fd5b5060405161114f38038061114f83398101604081905261002f9161007e565b61003d565b60405180910390fd5b67016345785d8a00008111156100655760405162461bcd60e51b8152600401610034906100b6565b60a0526001600160801b0319608091821b1690526100db565b60008060408385031215610090578182fd5b82516001600160801b03811681146100a6578283fd5b6020939093015192949293505050565b6020808252600b908201526a4552525f4d41585f46454560a81b604082015260600190565b60805160801c60a05161103b6101146000398060fa528061025e52806102dc52508061017f52806101ca5280610217525061103b6000f3fe608060405234801561001057600080fd5b50600436106100725760003560e01c8063bc063e1a11610050578063bc063e1a146100cb578063befd70e0146100d3578063d4cadf68146100e657610072565b8063100f37e71461007757806341c37403146100a157806376c7a3c7146100b6575b600080fd5b61008a610085366004610df0565b6100ee565b604051610098929190610fd9565b60405180910390f35b6100a96101c8565b6040516100989190610fbc565b6100be6101ec565b6040516100989190610ffc565b6100be6101f1565b61008a6100e1366004610df0565b6101fd565b6100be6102da565b600080806101466101417f000000000000000000000000000000000000000000000000000000000000000061012960608b0160408c01610e61565b6fffffffffffffffffffffffffffffffff16906102fe565b6103b6565b905060006101768261015e60608b0160408c01610e61565b6fffffffffffffffffffffffffffffffff1690610406565b905060006101b97f00000000000000000000000000000000000000000000000000000000000000006fffffffffffffffffffffffffffffffff1689898986610459565b99929850919650505050505050565b7f000000000000000000000000000000000000000000000000000000000000000090565b600081565b67016345785d8a000081565b6000808061024f6fffffffffffffffffffffffffffffffff7f00000000000000000000000000000000000000000000000000000000000000001687878761024a60608d0160408e01610e61565b6104b8565b905060006102aa6102916102827f00000000000000000000000000000000000000000000000000000000000000006103b6565b670de0b6b3a764000090610406565b6fffffffffffffffffffffffffffffffff841690610516565b905060006102ca6fffffffffffffffffffffffffffffffff831684610406565b9199919850909650505050505050565b7f000000000000000000000000000000000000000000000000000000000000000090565b600082820283158061031857508284828161031557fe5b04145b610357576040517f08c379a000000000000000000000000000000000000000000000000000000000815260040161034e90610f17565b60405180910390fd5b6706f05b59d3b2000081018181101561039c576040517f08c379a000000000000000000000000000000000000000000000000000000000815260040161034e90610f17565b6000670de0b6b3a7640000825b0493505050505b92915050565b60007001000000000000000000000000000000008210610402576040517f08c379a000000000000000000000000000000000000000000000000000000000815260040161034e90610e83565b5090565b600080600061041585856106a1565b915091508015610451576040517f08c379a000000000000000000000000000000000000000000000000000000000815260040161034e90610f85565b509392505050565b6000610463610cef565b61047087878787876106ea565b905060008387868151811061048157fe5b60200260200101510390506104968282610876565b8786815181106104a257fe5b6020026020010151039250505095945050505050565b60006104c2610cef565b6104cf87878787876109b2565b90506000838787815181106104e057fe5b60200260200101510190508686815181106104f757fe5b60200260200101516105098383610876565b0398975050505050505050565b60006fffffffffffffffffffffffffffffffff8216610561576040517f08c379a000000000000000000000000000000000000000000000000000000000815260040161034e90610f4e565b670de0b6b3a764000083026fffffffffffffffffffffffffffffffff841615806105c25750670de0b6b3a76400006fffffffffffffffffffffffffffffffff858116908316816105ad57fe5b046fffffffffffffffffffffffffffffffff16145b6105f8576040517f08c379a000000000000000000000000000000000000000000000000000000000815260040161034e90610ee0565b600060026fffffffffffffffffffffffffffffffff85160482019050816fffffffffffffffffffffffffffffffff16816fffffffffffffffffffffffffffffffff161015610672576040517f08c379a000000000000000000000000000000000000000000000000000000000815260040161034e90610ee0565b6000846fffffffffffffffffffffffffffffffff16826fffffffffffffffffffffffffffffffff16816103a957fe5b600080826fffffffffffffffffffffffffffffffff16846fffffffffffffffffffffffffffffffff16106106db57505080820360006106e3565b505081810360015b9250929050565b6106f2610cef565b60006106fe8787610b09565b8651909150600090670de0b6b3a7640000906001835b828110156108415788811461083557898114156107bd57876fffffffffffffffffffffffffffffffff168b828151811061074a57fe5b60200260200101516fffffffffffffffffffffffffffffffff168601019450670de0b6b3a76400006fffffffffffffffffffffffffffffffff16888c838151811061079157fe5b6020026020010151016fffffffffffffffffffffffffffffffff168502816107b557fe5b059350610835565b8a81815181106107c957fe5b60200260200101516fffffffffffffffffffffffffffffffff1685019450670de0b6b3a76400006fffffffffffffffffffffffffffffffff168b828151811061080e57fe5b60200260200101516fffffffffffffffffffffffffffffffff1685028161083157fe5b0593505b90820290600101610714565b506040805160a0810182528c815260208101969096528501939093525060608301919091526080820152905095945050505050565b60208201518251606084015160009283928392670de0b6b3a76400008161089957fe5b0503028560400151866000015102019050600085608001518660600151876060015102028660200151876020015188602001510202816108d557fe5b05905060005b60ff8112156109a7578651670de0b6b3a764000083026fffffffffffffffffffffffffffffffff8816918202808302928602929092010390600202840180828161092157fe5b056fffffffffffffffffffffffffffffffff808a1691820397508716111561097057655af3107a40008887036fffffffffffffffffffffffffffffffff161361096b5750506109a7565b610998565b655af3107a40008887036fffffffffffffffffffffffffffffffff16136109985750506109a7565b509395508593506001016108db565b509195945050505050565b6109ba610cef565b60006109c68787610b09565b8651909150600090670de0b6b3a7640000906001835b8281101561084157898114610afd5788811415610a8557876fffffffffffffffffffffffffffffffff168b8281518110610a1257fe5b60200260200101516fffffffffffffffffffffffffffffffff168601039450670de0b6b3a76400006fffffffffffffffffffffffffffffffff16888c8381518110610a5957fe5b6020026020010151036fffffffffffffffffffffffffffffffff16850281610a7d57fe5b059350610afd565b8a8181518110610a9157fe5b60200260200101516fffffffffffffffffffffffffffffffff1685019450670de0b6b3a76400006fffffffffffffffffffffffffffffffff168b8281518110610ad657fe5b60200260200101516fffffffffffffffffffffffffffffffff16850281610af957fe5b0593505b908202906001016109dc565b80516000908190670de0b6b3a7640000906001835b82811015610ba957868181518110610b3257fe5b60200260200101516fffffffffffffffffffffffffffffffff1685019450670de0b6b3a76400006fffffffffffffffffffffffffffffffff16878281518110610b7757fe5b60200260200101516fffffffffffffffffffffffffffffffff16850281610b9a57fe5b05935090820290600101610b1e565b508360008083670de0b6b3a764000081610bbf57fe5b058a039050838002860260005b60ff811215610cdf576000670de0b6b3a76400008d8b02878581800281610bef57fe5b0502888702010381610bfd57fe5b0590506000670de0b6b3a7640000878581830281610c1757fe5b0560030202670de0b6b3a76400006fffffffffffffffffffffffffffffffff1687020181610c4157fe5b05905083670de0b6b3a7640000880281610c5757fe5b828002600202919005830260060201671bc16d674ec800008284020281610c7a57fe5b058703955086861315610cae57655af3107a400087870313610ca957859b5050505050505050505050506103b0565b610cd0565b655af3107a400086880313610cd057859b5050505050505050505050506103b0565b50939450849350600101610bcc565b50919a9950505050505050505050565b6040518060a0016040528060008152602001600081526020016000815260200160008152602001600081525090565b600082601f830112610d2e578081fd5b813567ffffffffffffffff80821115610d45578283fd5b602080830260405182828201018181108582111715610d62578687fd5b604052848152945081850192508582018187018301881015610d8357600080fd5b600091505b84821015610dae57610d9a8882610dd0565b845292820192600191909101908201610d88565b505050505092915050565b600060e08284031215610dca578081fd5b50919050565b80356fffffffffffffffffffffffffffffffff811681146103b057600080fd5b60008060008060808587031215610e05578384fd5b843567ffffffffffffffff80821115610e1c578586fd5b610e2888838901610db9565b95506020870135915080821115610e3d578485fd5b50610e4a87828801610d1e565b949794965050505060408301359260600135919050565b600060208284031215610e72578081fd5b610e7c8383610dd0565b9392505050565b60208082526027908201527f53616665436173743a2076616c756520646f65736e27742066697420696e203160408201527f3238206269747300000000000000000000000000000000000000000000000000606082015260800190565b60208082526010908201527f4552525f4449565f494e5445524e414c00000000000000000000000000000000604082015260600190565b60208082526010908201527f4552525f4d554c5f4f564552464c4f5700000000000000000000000000000000604082015260600190565b6020808252600c908201527f4552525f4449565f5a45524f0000000000000000000000000000000000000000604082015260600190565b60208082526011908201527f4552525f5355425f554e444552464c4f57000000000000000000000000000000604082015260600190565b6fffffffffffffffffffffffffffffffff91909116815260200190565b6fffffffffffffffffffffffffffffffff92831681529116602082015260400190565b9081526020019056fea2646970667358221220ef5f9a4b3b8e349fb47a09c8a6531a5867a0bd289b692b7d46c02bcca370675e64736f6c63430007010033a2646970667358221220ec6e7a7d4c675e10650cd3d0fd91c69103943ef9a2940b8afbadf8fe3860535464736f6c63430007010033",
  "devdoc": {
    "kind": "dev",
    "methods": {},
    "version": 1
  },
  "userdoc": {
    "kind": "user",
    "methods": {},
    "version": 1
  },
  "storageLayout": {
    "storage": [
      {
        "astId": 6366,
        "contract": "contracts/strategies/factories/FlattenedFactory.sol:FlattenedFactory",
        "label": "_flattenedStrategies",
        "offset": 0,
        "slot": "0",
        "type": "t_struct(AddressSet)12360_storage"
      }
    ],
    "types": {
      "t_array(t_bytes32)dyn_storage": {
        "base": "t_bytes32",
        "encoding": "dynamic_array",
        "label": "bytes32[]",
        "numberOfBytes": "32"
      },
      "t_bytes32": {
        "encoding": "inplace",
        "label": "bytes32",
        "numberOfBytes": "32"
      },
      "t_mapping(t_bytes32,t_uint256)": {
        "encoding": "mapping",
        "key": "t_bytes32",
        "label": "mapping(bytes32 => uint256)",
        "numberOfBytes": "32",
        "value": "t_uint256"
      },
      "t_struct(AddressSet)12360_storage": {
        "encoding": "inplace",
        "label": "struct EnumerableSet.AddressSet",
        "members": [
          {
            "astId": 12359,
            "contract": "contracts/strategies/factories/FlattenedFactory.sol:FlattenedFactory",
            "label": "_inner",
            "offset": 0,
            "slot": "0",
            "type": "t_struct(Set)12095_storage"
          }
        ],
        "numberOfBytes": "64"
      },
      "t_struct(Set)12095_storage": {
        "encoding": "inplace",
        "label": "struct EnumerableSet.Set",
        "members": [
          {
            "astId": 12090,
            "contract": "contracts/strategies/factories/FlattenedFactory.sol:FlattenedFactory",
            "label": "_values",
            "offset": 0,
            "slot": "0",
            "type": "t_array(t_bytes32)dyn_storage"
          },
          {
            "astId": 12094,
            "contract": "contracts/strategies/factories/FlattenedFactory.sol:FlattenedFactory",
            "label": "_indexes",
            "offset": 0,
            "slot": "1",
            "type": "t_mapping(t_bytes32,t_uint256)"
          }
        ],
        "numberOfBytes": "64"
      },
      "t_uint256": {
        "encoding": "inplace",
        "label": "uint256",
        "numberOfBytes": "32"
      }
    }
  }
}