{
  "address": "0xD1C8625C3ECCD11d214A8760093959A8237dD710",
  "abi": [
    {
      "inputs": [
        {
          "internalType": "address",
          "name": "_vault",
          "type": "address"
        }
      ],
      "stateMutability": "nonpayable",
      "type": "constructor"
    },
    {
      "inputs": [
        {
          "internalType": "contract IERC20[]",
          "name": "tokens",
          "type": "address[]"
        },
        {
          "internalType": "uint256[]",
          "name": "amounts",
          "type": "uint256[]"
        },
        {
          "internalType": "uint256[]",
          "name": "feeAmounts",
          "type": "uint256[]"
        },
        {
          "internalType": "bytes",
          "name": "receiverData",
          "type": "bytes"
        }
      ],
      "name": "receiveFlashLoan",
      "outputs": [],
      "stateMutability": "nonpayable",
      "type": "function"
    },
    {
      "inputs": [],
      "name": "reenter",
      "outputs": [
        {
          "internalType": "bool",
          "name": "",
          "type": "bool"
        }
      ],
      "stateMutability": "view",
      "type": "function"
    },
    {
      "inputs": [],
      "name": "repayInExcess",
      "outputs": [
        {
          "internalType": "bool",
          "name": "",
          "type": "bool"
        }
      ],
      "stateMutability": "view",
      "type": "function"
    },
    {
      "inputs": [],
      "name": "repayLoan",
      "outputs": [
        {
          "internalType": "bool",
          "name": "",
          "type": "bool"
        }
      ],
      "stateMutability": "view",
      "type": "function"
    },
    {
      "inputs": [
        {
          "internalType": "bool",
          "name": "_reenter",
          "type": "bool"
        }
      ],
      "name": "setReenter",
      "outputs": [],
      "stateMutability": "nonpayable",
      "type": "function"
    },
    {
      "inputs": [
        {
          "internalType": "bool",
          "name": "_repayInExcess",
          "type": "bool"
        }
      ],
      "name": "setRepayInExcess",
      "outputs": [],
      "stateMutability": "nonpayable",
      "type": "function"
    },
    {
      "inputs": [
        {
          "internalType": "bool",
          "name": "_repayLoan",
          "type": "bool"
        }
      ],
      "name": "setRepayLoan",
      "outputs": [],
      "stateMutability": "nonpayable",
      "type": "function"
    },
    {
      "inputs": [],
      "name": "vault",
      "outputs": [
        {
          "internalType": "address",
          "name": "",
          "type": "address"
        }
      ],
      "stateMutability": "view",
      "type": "function"
    }
  ],
  "transactionHash": "0x33798e171b49e7bde8d4d025a5c12b2eb6d5e5e04ddf31bee66151f94265010e",
  "args": [
    "0xFa8677072C5066bA66406E3c567bb0503C31df64"
  ],
  "solcInputHash": "65f2583abd05236df79b3ad357daf4f2",
  "bytecode": "0x60a060405234801561001057600080fd5b50604051610c11380380610c118339818101604052602081101561003357600080fd5b50516001600160601b031960609190911b166080526000805462ffff001960ff1990911660011716905560805160601c610b9261007f600039806106bd52806107045250610b926000f3fe608060405234801561001057600080fd5b50600436106100785760003560e01c80633207ce3c1461007d57806362a8239914610099578063a0fe97e3146100ba578063a6af1703146100c2578063b77f3a23146100e1578063f04f270714610100578063f966ade7146102f4578063fbfa77cf146102fc575b600080fd5b610085610320565b604080519115158252519081900360200190f35b6100b8600480360360208110156100af57600080fd5b5035151561032e565b005b610085610341565b6100b8600480360360208110156100d857600080fd5b50351515610350565b6100b8600480360360208110156100f757600080fd5b5035151561036c565b6100b86004803603608081101561011657600080fd5b810190602081018135600160201b81111561013057600080fd5b82018360208201111561014257600080fd5b803590602001918460208302840111600160201b8311171561016357600080fd5b9190808060200260200160405190810160405280939291908181526020018383602002808284376000920191909152509295949360208101935035915050600160201b8111156101b257600080fd5b8201836020820111156101c457600080fd5b803590602001918460208302840111600160201b831117156101e557600080fd5b9190808060200260200160405190810160405280939291908181526020018383602002808284376000920191909152509295949360208101935035915050600160201b81111561023457600080fd5b82018360208201111561024657600080fd5b803590602001918460208302840111600160201b8311171561026757600080fd5b9190808060200260200160405190810160405280939291908181526020018383602002808284376000920191909152509295949360208101935035915050600160201b8111156102b657600080fd5b8201836020820111156102c857600080fd5b803590602001918460018302840111600160201b831117156102e957600080fd5b509092509050610386565b6100856106f9565b610304610702565b604080516001600160a01b039092168252519081900360200190f35b600054610100900460ff1681565b6000805460ff1916911515919091179055565b60005462010000900460ff1681565b60008054911515620100000262ff000019909216919091179055565b600080549115156101000261ff0019909216919091179055565b60005b85518110156106f15760008682815181106103a057fe5b6020026020010151905060008683815181106103b857fe5b6020026020010151905060008684815181106103d057fe5b6020026020010151905081836001600160a01b03166370a08231306040518263ffffffff1660e01b815260040180826001600160a01b0316815260200191505060206040518083038186803b15801561042857600080fd5b505afa15801561043c573d6000803e3d6000fd5b505050506040513d602081101561045257600080fd5b5051146104905760405162461bcd60e51b815260040180806020018281038252602e815260200180610b05602e913960400191505060405180910390fd5b60005462010000900460ff16156105c957336001600160a01b0316635c38449e308b8b8a8a6040518663ffffffff1660e01b815260040180866001600160a01b03168152602001806020018060200180602001848103845288818151815260200191508051906020019060200280838360005b8381101561051b578181015183820152602001610503565b50505050905001848103835287818151815260200191508051906020019060200280838360005b8381101561055a578181015183820152602001610542565b505050509050018481038252868682818152602001925080828437600081840152601f19601f82011690508083019250505098505050505050505050600060405180830381600087803b1580156105b057600080fd5b505af11580156105c4573d6000803e3d6000fd5b505050505b826001600160a01b03166340c10f1930600060019054906101000a900460ff166105f357836105fe565b6105fe846001610726565b6040518363ffffffff1660e01b815260040180836001600160a01b0316815260200182815260200192505050600060405180830381600087803b15801561064457600080fd5b505af1158015610658573d6000803e3d6000fd5b505050506000610671828461072690919063ffffffff16565b60005490915060ff166106905761068981600161077a565b90506106ae565b600054610100900460ff16156106ae576106ab816001610726565b90505b6106e26001600160a01b0385167f0000000000000000000000000000000000000000000000000000000000000000836107dc565b50505050806001019050610389565b505050505050565b60005460ff1681565b7f000000000000000000000000000000000000000000000000000000000000000081565b600082820183811015610773576040805162461bcd60e51b815260206004820152601060248201526f4552525f4144445f4f564552464c4f5760801b604482015290519081900360640190fd5b9392505050565b60008060006107898585610833565b9150915080156107d4576040805162461bcd60e51b81526020600482015260116024820152704552525f5355425f554e444552464c4f5760781b604482015290519081900360640190fd5b509392505050565b604080516001600160a01b038416602482015260448082018490528251808303909101815260649091019091526020810180516001600160e01b031663a9059cbb60e01b17905261082e908490610858565b505050565b6000808284106108495750508082036000610851565b505081810360015b9250929050565b60606108ad826040518060400160405280602081526020017f5361666545524332303a206c6f772d6c6576656c2063616c6c206661696c6564815250856001600160a01b03166109099092919063ffffffff16565b80519091501561082e578080602001905160208110156108cc57600080fd5b505161082e5760405162461bcd60e51b815260040180806020018281038252602a815260200180610b33602a913960400191505060405180910390fd5b60606109188484600085610920565b949350505050565b606061092b85610acb565b61097c576040805162461bcd60e51b815260206004820152601d60248201527f416464726573733a2063616c6c20746f206e6f6e2d636f6e7472616374000000604482015290519081900360640190fd5b60006060866001600160a01b031685876040518082805190602001908083835b602083106109bb5780518252601f19909201916020918201910161099c565b6001836020036101000a03801982511681845116808217855250505050505090500191505060006040518083038185875af1925050503d8060008114610a1d576040519150601f19603f3d011682016040523d82523d6000602084013e610a22565b606091505b50915091508115610a365791506109189050565b805115610a465780518082602001fd5b8360405162461bcd60e51b81526004018080602001828103825283818151815260200191508051906020019080838360005b83811015610a90578181015183820152602001610a78565b50505050905090810190601f168015610abd5780820380516001836020036101000a031916815260200191505b509250505060405180910390fd5b6000813f7fc5d2460186f7233c927e7db2dcc703c0e500b653ca82273b7bfad8045d85a47081811480159061091857505015159291505056fe496e76616c69642062616c616e63652c207761732074686520666c6173684c6f616e207375636365737366756c3f5361666545524332303a204552433230206f7065726174696f6e20646964206e6f742073756363656564a26469706673582212204998fa26f992d8778c3601883a81a5755857a18394636bc5d9dfaeabbac6c80d64736f6c63430007010033",
  "devdoc": {
    "kind": "dev",
    "methods": {},
    "version": 1
  },
  "userdoc": {
    "kind": "user",
    "methods": {},
    "version": 1
  },
  "storageLayout": {
    "storage": [
      {
        "astId": 8376,
        "contract": "contracts/test/MockFlashLoanReceiver.sol:MockFlashLoanReceiver",
        "label": "repayLoan",
        "offset": 0,
        "slot": "0",
        "type": "t_bool"
      },
      {
        "astId": 8378,
        "contract": "contracts/test/MockFlashLoanReceiver.sol:MockFlashLoanReceiver",
        "label": "repayInExcess",
        "offset": 1,
        "slot": "0",
        "type": "t_bool"
      },
      {
        "astId": 8380,
        "contract": "contracts/test/MockFlashLoanReceiver.sol:MockFlashLoanReceiver",
        "label": "reenter",
        "offset": 2,
        "slot": "0",
        "type": "t_bool"
      }
    ],
    "types": {
      "t_bool": {
        "encoding": "inplace",
        "label": "bool",
        "numberOfBytes": "1"
      }
    }
  }
}