{
  "address": "0x643135f368f77155e78Cc02B34DB97Bef1700969",
  "abi": [
    {
      "inputs": [
        {
          "internalType": "enum IVault.SwapKind",
          "name": "",
          "type": "uint8"
        },
        {
          "internalType": "contract IERC20[]",
          "name": "tokens",
          "type": "address[]"
        },
        {
          "internalType": "int256[]",
          "name": "vaultDeltas",
          "type": "int256[]"
        },
        {
          "internalType": "bytes",
          "name": "data",
          "type": "bytes"
        }
      ],
      "name": "validate",
      "outputs": [],
      "stateMutability": "view",
      "type": "function"
    }
  ],
  "transactionHash": "0x8e8040e8e872f996b57f5c532918cff1d289135803d9912f3237190d4ef85deb",
  "args": [],
  "solcInputHash": "65f2583abd05236df79b3ad357daf4f2",
  "bytecode": "0x608060405234801561001057600080fd5b506104b7806100206000396000f3fe608060405234801561001057600080fd5b506004361061002b5760003560e01c80634515114714610030575b600080fd5b61004361003e3660046102ef565b610045565b005b60008080808061005786880188610290565b945094509450945094508042111561008a5760405162461bcd60e51b8152600401610081906103f3565b60405180910390fd5b60005b8a8110156101c657856001600160a01b03168c8c838181106100ab57fe5b90506020020160208101906100c0919061026e565b6001600160a01b0316141561010f57836001600160801b03168a8a838181106100e557fe5b90506020020135131561010a5760405162461bcd60e51b81526004016100819061041d565b6101be565b846001600160a01b03168c8c8381811061012557fe5b905060200201602081019061013a919061026e565b6001600160a01b0316141561018c57826001600160801b031661016e8b8b8481811061016257fe5b905060200201356101d5565b101561010a5760405162461bcd60e51b8152600401610081906103c4565b89898281811061019857fe5b905060200201356000146101be5760405162461bcd60e51b81526004016100819061044a565b60010161008d565b50505050505050505050505050565b6000808213156101e65750806101ed565b8160000390505b919050565b60008083601f840112610203578182fd5b5081356001600160401b03811115610219578182fd5b602083019150836020808302850101111561023357600080fd5b9250929050565b80356001600160a01b038116811461025157600080fd5b92915050565b80356001600160801b038116811461025157600080fd5b60006020828403121561027f578081fd5b610289838361023a565b9392505050565b600080600080600060a086880312156102a7578081fd5b6102b1878761023a565b94506102c0876020880161023a565b93506102cf8760408801610257565b92506102de8760608801610257565b949793965091946080013592915050565b60008060008060008060006080888a031215610309578182fd5b873560028110610317578283fd5b965060208801356001600160401b0380821115610332578384fd5b61033e8b838c016101f2565b909850965060408a0135915080821115610356578384fd5b6103628b838c016101f2565b909650945060608a013591508082111561037a578384fd5b818a0191508a601f83011261038d578384fd5b81358181111561039b578485fd5b8b60208285010111156103ac578485fd5b60208301945080935050505092959891949750929550565b602080825260159082015274139bdd08195b9bdd59da081d1bdad95b9cc81bdd5d605a1b604082015260600190565b60208082526010908201526f111958591b1a5b9948195e1c1a5c995960821b604082015260600190565b60208082526013908201527222bc31b2b9b9b4bb329030b6b7bab73a1034b760691b604082015260600190565b6020808252601d908201527f496e7465726d656469617465206e6f6e2d7a65726f2062616c616e636500000060408201526060019056fea264697066735822122028b0def882e3cb6f8d2ddf0d3e37feeaa7fc54e89618bca041de4438b251c09a64736f6c63430007010033",
  "devdoc": {
    "kind": "dev",
    "methods": {},
    "version": 1
  },
  "userdoc": {
    "kind": "user",
    "methods": {},
    "version": 1
  },
  "storageLayout": {
    "storage": [],
    "types": null
  }
}