{
  "_format": "hh-sol-artifact-1",
  "contractName": "StablecoinPool",
  "sourceName": "contracts/pools/stablecoin/StablecoinPool.sol",
  "abi": [
    {
      "inputs": [
        {
          "internalType": "contract IVault",
          "name": "vault",
          "type": "address"
        },
        {
          "internalType": "uint256",
          "name": "initialBPT",
          "type": "uint256"
        },
        {
          "internalType": "contract IERC20[]",
          "name": "tokens",
          "type": "address[]"
        },
        {
          "internalType": "uint128[]",
          "name": "amounts",
          "type": "uint128[]"
        },
        {
          "internalType": "address",
          "name": "from",
          "type": "address"
        },
        {
          "internalType": "uint128",
          "name": "amp",
          "type": "uint128"
        },
        {
          "internalType": "uint128",
          "name": "swapFee",
          "type": "uint128"
        }
      ],
      "stateMutability": "nonpayable",
      "type": "constructor"
    },
    {
      "anonymous": false,
      "inputs": [
        {
          "indexed": true,
          "internalType": "address",
          "name": "owner",
          "type": "address"
        },
        {
          "indexed": true,
          "internalType": "address",
          "name": "spender",
          "type": "address"
        },
        {
          "indexed": false,
          "internalType": "uint256",
          "name": "value",
          "type": "uint256"
        }
      ],
      "name": "Approval",
      "type": "event"
    },
    {
      "anonymous": false,
      "inputs": [
        {
          "indexed": true,
          "internalType": "address",
          "name": "from",
          "type": "address"
        },
        {
          "indexed": true,
          "internalType": "address",
          "name": "to",
          "type": "address"
        },
        {
          "indexed": false,
          "internalType": "uint256",
          "name": "value",
          "type": "uint256"
        }
      ],
      "name": "Transfer",
      "type": "event"
    },
    {
      "inputs": [
        {
          "internalType": "address",
          "name": "src",
          "type": "address"
        },
        {
          "internalType": "address",
          "name": "dst",
          "type": "address"
        }
      ],
      "name": "allowance",
      "outputs": [
        {
          "internalType": "uint256",
          "name": "",
          "type": "uint256"
        }
      ],
      "stateMutability": "view",
      "type": "function"
    },
    {
      "inputs": [
        {
          "internalType": "address",
          "name": "dst",
          "type": "address"
        },
        {
          "internalType": "uint256",
          "name": "amt",
          "type": "uint256"
        }
      ],
      "name": "approve",
      "outputs": [
        {
          "internalType": "bool",
          "name": "",
          "type": "bool"
        }
      ],
      "stateMutability": "nonpayable",
      "type": "function"
    },
    {
      "inputs": [
        {
          "internalType": "address",
          "name": "whom",
          "type": "address"
        }
      ],
      "name": "balanceOf",
      "outputs": [
        {
          "internalType": "uint256",
          "name": "",
          "type": "uint256"
        }
      ],
      "stateMutability": "view",
      "type": "function"
    },
    {
      "inputs": [],
      "name": "decimals",
      "outputs": [
        {
          "internalType": "uint8",
          "name": "",
          "type": "uint8"
        }
      ],
      "stateMutability": "view",
      "type": "function"
    },
    {
      "inputs": [
        {
          "internalType": "address",
          "name": "dst",
          "type": "address"
        },
        {
          "internalType": "uint256",
          "name": "amt",
          "type": "uint256"
        }
      ],
      "name": "decreaseApproval",
      "outputs": [
        {
          "internalType": "bool",
          "name": "",
          "type": "bool"
        }
      ],
      "stateMutability": "nonpayable",
      "type": "function"
    },
    {
      "inputs": [
        {
          "internalType": "uint256",
          "name": "poolAmountIn",
          "type": "uint256"
        },
        {
          "internalType": "uint256[]",
          "name": "minAmountsOut",
          "type": "uint256[]"
        },
        {
          "internalType": "bool",
          "name": "withdrawTokens",
          "type": "bool"
        },
        {
          "internalType": "address",
          "name": "beneficiary",
          "type": "address"
        }
      ],
      "name": "exitPool",
      "outputs": [],
      "stateMutability": "nonpayable",
      "type": "function"
    },
    {
      "inputs": [],
      "name": "getAmplification",
      "outputs": [
        {
          "internalType": "uint128",
          "name": "",
          "type": "uint128"
        }
      ],
      "stateMutability": "view",
      "type": "function"
    },
    {
      "inputs": [],
      "name": "getPoolId",
      "outputs": [
        {
          "internalType": "bytes32",
          "name": "",
          "type": "bytes32"
        }
      ],
      "stateMutability": "view",
      "type": "function"
    },
    {
      "inputs": [],
      "name": "getSwapFee",
      "outputs": [
        {
          "internalType": "uint128",
          "name": "",
          "type": "uint128"
        }
      ],
      "stateMutability": "view",
      "type": "function"
    },
    {
      "inputs": [],
      "name": "getVault",
      "outputs": [
        {
          "internalType": "contract IVault",
          "name": "",
          "type": "address"
        }
      ],
      "stateMutability": "view",
      "type": "function"
    },
    {
      "inputs": [
        {
          "internalType": "address",
          "name": "dst",
          "type": "address"
        },
        {
          "internalType": "uint256",
          "name": "amt",
          "type": "uint256"
        }
      ],
      "name": "increaseApproval",
      "outputs": [
        {
          "internalType": "bool",
          "name": "",
          "type": "bool"
        }
      ],
      "stateMutability": "nonpayable",
      "type": "function"
    },
    {
      "inputs": [
        {
          "internalType": "uint256",
          "name": "poolAmountOut",
          "type": "uint256"
        },
        {
          "internalType": "uint128[]",
          "name": "maxAmountsIn",
          "type": "uint128[]"
        },
        {
          "internalType": "bool",
          "name": "transferTokens",
          "type": "bool"
        },
        {
          "internalType": "address",
          "name": "beneficiary",
          "type": "address"
        }
      ],
      "name": "joinPool",
      "outputs": [],
      "stateMutability": "nonpayable",
      "type": "function"
    },
    {
      "inputs": [],
      "name": "name",
      "outputs": [
        {
          "internalType": "string",
          "name": "",
          "type": "string"
        }
      ],
      "stateMutability": "view",
      "type": "function"
    },
    {
      "inputs": [],
      "name": "payProtocolFees",
      "outputs": [],
      "stateMutability": "nonpayable",
      "type": "function"
    },
    {
      "inputs": [
        {
          "components": [
            {
              "internalType": "contract IERC20",
              "name": "tokenIn",
              "type": "address"
            },
            {
              "internalType": "contract IERC20",
              "name": "tokenOut",
              "type": "address"
            },
            {
              "internalType": "uint128",
              "name": "amountOut",
              "type": "uint128"
            },
            {
              "internalType": "bytes32",
              "name": "poolId",
              "type": "bytes32"
            },
            {
              "internalType": "address",
              "name": "from",
              "type": "address"
            },
            {
              "internalType": "address",
              "name": "to",
              "type": "address"
            },
            {
              "internalType": "bytes",
              "name": "userData",
              "type": "bytes"
            }
          ],
          "internalType": "struct ITradingStrategy.QuoteRequestGivenOut",
          "name": "request",
          "type": "tuple"
        },
        {
          "internalType": "uint128[]",
          "name": "balances",
          "type": "uint128[]"
        },
        {
          "internalType": "uint256",
          "name": "indexIn",
          "type": "uint256"
        },
        {
          "internalType": "uint256",
          "name": "indexOut",
          "type": "uint256"
        }
      ],
      "name": "quoteInGivenOut",
      "outputs": [
        {
          "internalType": "uint128",
          "name": "",
          "type": "uint128"
        }
      ],
      "stateMutability": "view",
      "type": "function"
    },
    {
      "inputs": [
        {
          "components": [
            {
              "internalType": "contract IERC20",
              "name": "tokenIn",
              "type": "address"
            },
            {
              "internalType": "contract IERC20",
              "name": "tokenOut",
              "type": "address"
            },
            {
              "internalType": "uint128",
              "name": "amountIn",
              "type": "uint128"
            },
            {
              "internalType": "bytes32",
              "name": "poolId",
              "type": "bytes32"
            },
            {
              "internalType": "address",
              "name": "from",
              "type": "address"
            },
            {
              "internalType": "address",
              "name": "to",
              "type": "address"
            },
            {
              "internalType": "bytes",
              "name": "userData",
              "type": "bytes"
            }
          ],
          "internalType": "struct ITradingStrategy.QuoteRequestGivenIn",
          "name": "request",
          "type": "tuple"
        },
        {
          "internalType": "uint128[]",
          "name": "balances",
          "type": "uint128[]"
        },
        {
          "internalType": "uint256",
          "name": "indexIn",
          "type": "uint256"
        },
        {
          "internalType": "uint256",
          "name": "indexOut",
          "type": "uint256"
        }
      ],
      "name": "quoteOutGivenIn",
      "outputs": [
        {
          "internalType": "uint128",
          "name": "",
          "type": "uint128"
        }
      ],
      "stateMutability": "view",
      "type": "function"
    },
    {
      "inputs": [],
      "name": "symbol",
      "outputs": [
        {
          "internalType": "string",
          "name": "",
          "type": "string"
        }
      ],
      "stateMutability": "view",
      "type": "function"
    },
    {
      "inputs": [],
      "name": "totalSupply",
      "outputs": [
        {
          "internalType": "uint256",
          "name": "",
          "type": "uint256"
        }
      ],
      "stateMutability": "view",
      "type": "function"
    },
    {
      "inputs": [
        {
          "internalType": "address",
          "name": "dst",
          "type": "address"
        },
        {
          "internalType": "uint256",
          "name": "amt",
          "type": "uint256"
        }
      ],
      "name": "transfer",
      "outputs": [
        {
          "internalType": "bool",
          "name": "",
          "type": "bool"
        }
      ],
      "stateMutability": "nonpayable",
      "type": "function"
    },
    {
      "inputs": [
        {
          "internalType": "address",
          "name": "src",
          "type": "address"
        },
        {
          "internalType": "address",
          "name": "dst",
          "type": "address"
        },
        {
          "internalType": "uint256",
          "name": "amt",
          "type": "uint256"
        }
      ],
      "name": "transferFrom",
      "outputs": [
        {
          "internalType": "bool",
          "name": "",
          "type": "bool"
        }
      ],
      "stateMutability": "nonpayable",
      "type": "function"
    }
  ],
  "bytecode": "0x61014060405260136101008190527f42616c616e63657220506f6f6c20546f6b656e0000000000000000000000000061012090815262000043916003919062000512565b506040805180820190915260038082526210941560ea1b6020909201918252620000709160049162000512565b506005805460ff191660121790553480156200008b57600080fd5b506040516200346e3803806200346e833981016040819052620000ae91620006ab565b6001600655845160021115620000e15760405162461bcd60e51b8152600401620000d890620009ae565b60405180910390fd5b6040516381158ad960e01b81526000906001600160a01b038916906381158ad99062000115903090600190600401620007da565b602060405180830381600087803b1580156200013057600080fd5b505af115801562000145573d6000803e3d6000fd5b505050506040513d601f19601f820116820180604052508101906200016b919062000692565b60405163c1be1b6d60e01b81529091506001600160a01b0389169063c1be1b6d90620001a590849088908b908b906000906004016200080b565b600060405180830381600087803b158015620001c057600080fd5b505af1158015620001d5573d6000803e3d6000fd5b505050508551886001600160a01b031663f94d4668836040518263ffffffff1660e01b815260040162000209919062000802565b60006040518083038186803b1580156200022257600080fd5b505afa15801562000237573d6000803e3d6000fd5b505050506040513d6000823e601f3d908101601f1916820160405262000261919081019062000654565b5114620002825760405162461bcd60e51b8152600401620000d8906200094e565b6200028d876200030b565b62000299848862000319565b6001600160601b0319606089901b1660805260a081905267016345785d8a00006001600160801b0383161115620002e45760405162461bcd60e51b8152600401620000d89062000985565b506001600160801b0319608091821b811660e05291901b1660c0525062000a499350505050565b620003168162000329565b50565b620003258282620003b1565b5050565b306000908152602081815260409091205462000350918390620013c4620003be821b17901c565b30600090815260208181526040909120919091556002546200037d918390620013c4620003be821b17901c565b60025560405130906000906000805160206200344e83398151915290620003a690859062000802565b60405180910390a350565b62000325308383620003ef565b600082820183811015620003e65760405162461bcd60e51b8152600401620000d89062000917565b90505b92915050565b604080518082018252601481527f4552525f494e53554646494349454e545f42414c0000000000000000000000006020808301919091526001600160a01b03861660009081528082529290922054620004559290918491620013f0620004e3821b17901c565b6001600160a01b03808516600090815260208181526040808320949094559185168152919091205462000493918390620013c4620003be821b17901c565b6001600160a01b0380841660008181526020819052604090819020939093559151908516906000805160206200344e83398151915290620004d690859062000802565b60405180910390a3505050565b600081848411156200050a5760405162461bcd60e51b8152600401620000d89190620008c1565b505050900390565b828054600181600116156101000203166002900490600052602060002090601f016020900481019282601f106200055557805160ff191683800117855562000585565b8280016001018555821562000585579182015b828111156200058557825182559160200191906001019062000568565b506200059392915062000597565b5090565b5b8082111562000593576000815560010162000598565b8051620003e98162000a1d565b600082601f830112620005cc578081fd5b8151620005e3620005dd82620009fd565b620009d6565b8181529150602080830190848101818402860182018710156200060557600080fd5b60005b84811015620006315781516200061e8162000a1d565b8452928201929082019060010162000608565b505050505092915050565b80516001600160801b0381168114620003e957600080fd5b60006020828403121562000666578081fd5b81516001600160401b038111156200067c578182fd5b6200068a84828501620005bb565b949350505050565b600060208284031215620006a4578081fd5b5051919050565b600080600080600080600060e0888a031215620006c6578283fd5b8751620006d38162000a1d565b60208981015160408b01519299509750906001600160401b0380821115620006f9578586fd5b620007078c838d01620005bb565b975060608b01519150808211156200071d578586fd5b508901601f81018b136200072f578485fd5b805162000740620005dd82620009fd565b81815283810190838501858402850186018f10156200075d578889fd5b8894505b838510156200078c578051620007778162000a33565b83526001949094019391850191850162000761565b508098505050505050620007a48960808a01620005ae565b9250620007b58960a08a016200063c565b9150620007c68960c08a016200063c565b905092959891949750929550565b15159052565b6001600160a01b03831681526040810160028310620007f557fe5b8260208301529392505050565b90815260200190565b600060a08201878352602060018060a01b038089168286015260a0604086015282885180855260c087019150838a019450855b818110156200085e5785518416835294840194918401916001016200083e565b50508581036060870152875180825290830193509050818701845b82811015620008a05781516001600160801b03168552938301939083019060010162000879565b5050505080915050620008b76080830184620007d4565b9695505050505050565b6000602080835283518082850152825b81811015620008ef57858101830151858201604001528201620008d1565b81811115620009015783604083870101525b50601f01601f1916929092016040019392505050565b6020808252601b908201527f536166654d6174683a206164646974696f6e206f766572666c6f770000000000604082015260600190565b60208082526013908201527f4552525f52455045415445445f544f4b454e5300000000000000000000000000604082015260600190565b6020808252600f908201526e4552525f4d41585f4d41585f46454560881b604082015260600190565b6020808252600e908201526d4552525f4d494e5f544f4b454e5360901b604082015260600190565b6040518181016001600160401b0381118282101715620009f557600080fd5b604052919050565b60006001600160401b0382111562000a13578081fd5b5060209081020190565b6001600160a01b03811681146200031657600080fd5b6001600160801b03811681146200031657600080fd5b60805160601c60a05160c05160801c60e05160801c61294462000b0a60003980611303528061142e528061183b5250806103865280610a0952806112b552508061043152806104e252806105c7528061081252806109e55280610b565280610c075280610cec5280610e885280610f39528061101e528061122e52508061040452806104b3528061059a52806107e55280610b295280610bd85280610cbf5280610d805280610e5b5280610f0a5280610ff1528061120152506129446000f3fe608060405234801561001057600080fd5b50600436106100fc5760003560e01c806306fdde0314610101578063095ea7b31461011f578063100f37e71461013f578063127cdc421461015f57806318160ddd1461017457806323b872dd14610189578063313ce5671461019c57806338fff2d0146101b1578063468d7c3b146101b957806366188463146101c157806370a08231146101d457806380afb82a146101e75780638d928af8146101ef57806395d89b4114610204578063a9059cbb1461020c578063b5db9b8b1461021f578063befd70e014610232578063d4cadf6814610245578063d73dd6231461024d578063dd62ed3e14610260575b600080fd5b610109610273565b60405161011691906125a6565b60405180910390f35b61013261012d3660046121ce565b610309565b60405161011691906124e1565b61015261014d36600461231d565b610362565b604051610116919061283d565b61017261016d3660046123f5565b6103b9565b005b61017c6108a3565b60405161011691906124ec565b61013261019736600461218e565b6108a9565b6101a46109da565b6040516101169190612851565b61017c6109e3565b610152610a07565b6101326101cf3660046121ce565b610a2b565b61017c6101e236600461213a565b610af4565b610172610b0f565b6101f7610d7e565b6040516101169190612592565b610109610da2565b61013261021a3660046121ce565b610e03565b61017261022d3660046123f5565b610e19565b61015261024036600461238d565b6112ad565b610152611301565b61013261025b3660046121ce565b611325565b61017c61026e366004612156565b611399565b60038054604080516020601f60026000196101006001881615020190951694909404938401819004810282018101909252828152606093909290918301828280156102ff5780601f106102d4576101008083540402835291602001916102ff565b820191906000526020600020905b8154815290600101906020018083116102e257829003601f168201915b5050505050905090565b3360008181526001602090815260408083206001600160a01b038716808552925280832085905551919290916000805160206128ef833981519152906103509086906124ec565b60405180910390a35060015b92915050565b60008061037d61037860608801604089016123d9565b61141c565b905060006103ae7f000000000000000000000000000000000000000000000000000000000000000087878786611467565b979650505050505050565b600260065414156103e55760405162461bcd60e51b81526004016103dc906127da565b60405180910390fd5b6002600655604051631f29a8cd60e31b81526060906001600160a01b037f0000000000000000000000000000000000000000000000000000000000000000169063f94d466890610459907f0000000000000000000000000000000000000000000000000000000000000000906004016124ec565b60006040518083038186803b15801561047157600080fd5b505afa158015610485573d6000803e3d6000fd5b505050506040513d6000823e601f3d908101601f191682016040526104ad91908101906121f9565b905060607f00000000000000000000000000000000000000000000000000000000000000006001600160a01b031663fe8f2cb27f0000000000000000000000000000000000000000000000000000000000000000846040518363ffffffff1660e01b815260040161051f929190612546565b60006040518083038186803b15801561053757600080fd5b505afa15801561054b573d6000803e3d6000fd5b505050506040513d6000823e601f3d908101601f191682016040526105739190810190612291565b90506060610580826114c6565b604051631c0d366560e11b81529091506001600160a01b037f0000000000000000000000000000000000000000000000000000000000000000169063381a6cca906105f3907f00000000000000000000000000000000000000000000000000000000000000009087908690600401612567565b600060405180830381600087803b15801561060d57600080fd5b505af1158015610621573d6000803e3d6000fd5b505050506040513d6000823e601f3d908101601f191682016040526106499190810190612291565b915060006106556108a3565b9050600061066b6106668b84611512565b6115b1565b90506001600160801b0381166106935760405162461bcd60e51b81526004016103dc9061262e565b845188146106b35760405162461bcd60e51b81526004016103dc9061269e565b606085516001600160401b03811180156106cc57600080fd5b506040519080825280602002602001820160405280156106f6578160200160208202803683370190505b50905060005b86518110156107cd576107348387838151811061071557fe5b60200260200101516001600160801b03166115da90919063ffffffff16565b82828151811061074057fe5b60200260200101906001600160801b031690816001600160801b0316815250508a8a8281811061076c57fe5b905060200201602081019061078191906123d9565b6001600160801b031682828151811061079657fe5b60200260200101516001600160801b031611156107c55760405162461bcd60e51b81526004016103dc90612739565b6001016106fc565b5060405163c1be1b6d60e01b81526001600160a01b037f0000000000000000000000000000000000000000000000000000000000000000169063c1be1b6d90610843907f00000000000000000000000000000000000000000000000000000000000000009033908b9087908f15906004016124f5565b600060405180830381600087803b15801561085d57600080fd5b505af1158015610871573d6000803e3d6000fd5b5050505061087e8561168e565b6108878b611691565b610891878c61169a565b50506001600655505050505050505050565b60025490565b6000336001600160a01b03851614806108e557506001600160a01b03841660009081526001602090815260408083203384529091529020548211155b6109015760405162461bcd60e51b81526004016103dc9061270a565b61090c8484846116a8565b336001600160a01b0385161480159061094a57506001600160a01b038416600090815260016020908152604080832033845290915290205460001914155b156109d0576001600160a01b038416600090815260016020908152604080832033845290915290205461097d9083611775565b6001600160a01b0385811660009081526001602090815260408083203380855292529182902084905590519186169290916000805160206128ef833981519152916109c7916124ec565b60405180910390a35b5060019392505050565b60055460ff1690565b7f000000000000000000000000000000000000000000000000000000000000000090565b7f000000000000000000000000000000000000000000000000000000000000000090565b3360009081526001602090815260408083206001600160a01b038616845290915281205480831115610a80573360009081526001602090815260408083206001600160a01b0388168452909152812055610aaf565b610a8a8184611775565b3360009081526001602090815260408083206001600160a01b03891684529091529020555b3360008181526001602090815260408083206001600160a01b0389168085529252918290205491519092916000805160206128ef833981519152916109c791906124ec565b6001600160a01b031660009081526020819052604090205490565b604051631f29a8cd60e31b81526060906001600160a01b037f0000000000000000000000000000000000000000000000000000000000000000169063f94d466890610b7e907f0000000000000000000000000000000000000000000000000000000000000000906004016124ec565b60006040518083038186803b158015610b9657600080fd5b505afa158015610baa573d6000803e3d6000fd5b505050506040513d6000823e601f3d908101601f19168201604052610bd291908101906121f9565b905060607f00000000000000000000000000000000000000000000000000000000000000006001600160a01b031663fe8f2cb27f0000000000000000000000000000000000000000000000000000000000000000846040518363ffffffff1660e01b8152600401610c44929190612546565b60006040518083038186803b158015610c5c57600080fd5b505afa158015610c70573d6000803e3d6000fd5b505050506040513d6000823e601f3d908101601f19168201604052610c989190810190612291565b90506060610ca5826114c6565b604051631c0d366560e11b81529091506001600160a01b037f0000000000000000000000000000000000000000000000000000000000000000169063381a6cca90610d18907f00000000000000000000000000000000000000000000000000000000000000009087908690600401612567565b600060405180830381600087803b158015610d3257600080fd5b505af1158015610d46573d6000803e3d6000fd5b505050506040513d6000823e601f3d908101601f19168201604052610d6e9190810190612291565b9150610d798261168e565b505050565b7f000000000000000000000000000000000000000000000000000000000000000090565b60048054604080516020601f60026000196101006001881615020190951694909404938401819004810282018101909252828152606093909290918301828280156102ff5780601f106102d4576101008083540402835291602001916102ff565b6000610e103384846116a8565b50600192915050565b60026006541415610e3c5760405162461bcd60e51b81526004016103dc906127da565b6002600655604051631f29a8cd60e31b81526060906001600160a01b037f0000000000000000000000000000000000000000000000000000000000000000169063f94d466890610eb0907f0000000000000000000000000000000000000000000000000000000000000000906004016124ec565b60006040518083038186803b158015610ec857600080fd5b505afa158015610edc573d6000803e3d6000fd5b505050506040513d6000823e601f3d908101601f19168201604052610f0491908101906121f9565b905060607f00000000000000000000000000000000000000000000000000000000000000006001600160a01b031663fe8f2cb27f0000000000000000000000000000000000000000000000000000000000000000846040518363ffffffff1660e01b8152600401610f76929190612546565b60006040518083038186803b158015610f8e57600080fd5b505afa158015610fa2573d6000803e3d6000fd5b505050506040513d6000823e601f3d908101601f19168201604052610fca9190810190612291565b90506060610fd7826114c6565b604051631c0d366560e11b81529091506001600160a01b037f0000000000000000000000000000000000000000000000000000000000000000169063381a6cca9061104a907f00000000000000000000000000000000000000000000000000000000000000009087908690600401612567565b600060405180830381600087803b15801561106457600080fd5b505af1158015611078573d6000803e3d6000fd5b505050506040513d6000823e601f3d908101601f191682016040526110a09190810190612291565b915060006110ac6108a3565b905060006110bd6106668b84611512565b90506001600160801b0381166110e55760405162461bcd60e51b81526004016103dc9061262e565b845188146111055760405162461bcd60e51b81526004016103dc9061269e565b606085516001600160401b038111801561111e57600080fd5b50604051908082528060200260200182016040528015611148578160200160208202803683370190505b50905060005b86518110156111e9576111678387838151811061071557fe5b82828151811061117357fe5b60200260200101906001600160801b031690816001600160801b0316815250508a8a8281811061119f57fe5b905060200201358282815181106111b257fe5b60200260200101516001600160801b031610156111e15760405162461bcd60e51b81526004016103dc90612811565b60010161114e565b5060405163ad0e595960e01b81526001600160a01b037f0000000000000000000000000000000000000000000000000000000000000000169063ad0e59599061125f907f0000000000000000000000000000000000000000000000000000000000000000908b908b9087908f15906004016124f5565b600060405180830381600087803b15801561127957600080fd5b505af115801561128d573d6000803e3d6000fd5b5050505061129a8561168e565b6112a4338c6117b7565b6108918b6117c1565b6000806112ec7f00000000000000000000000000000000000000000000000000000000000000008686866112e760608c0160408d016123d9565b6117ca565b90506112f781611828565b9695505050505050565b7f000000000000000000000000000000000000000000000000000000000000000090565b3360009081526001602090815260408083206001600160a01b038616845290915281205461135390836113c4565b3360008181526001602090815260408083206001600160a01b038916808552925291829020849055905190926000805160206128ef8339815191529161035091906124ec565b6001600160a01b03918216600090815260016020908152604080832093909416825291909152205490565b6000828201838110156113e95760405162461bcd60e51b81526004016103dc906125f9565b9392505050565b600081848411156114145760405162461bcd60e51b81526004016103dc91906125a6565b505050900390565b6000806114526001600160801b0384167f00000000000000000000000000000000000000000000000000000000000000006115da565b90506113e96001600160801b0384168261186f565b6000611471612025565b61147e87878787876118a0565b905060008387868151811061148f57fe5b60200260200101510390506114a482826119f9565b8786815181106114b057fe5b6020026020010151039250505095945050505050565b60608082516001600160401b03811180156114e057600080fd5b5060405190808252806020026020018201604052801561150a578160200160208202803683370190505b509392505050565b6000816115315760405162461bcd60e51b81526004016103dc90612789565b670de0b6b3a764000083028315806115595750670de0b6b3a764000084828161155657fe5b04145b6115755760405162461bcd60e51b81526004016103dc906126e0565b6002830481018181101561159b5760405162461bcd60e51b81526004016103dc906126e0565b60008482816115a657fe5b049695505050505050565b6000600160801b82106115d65760405162461bcd60e51b81526004016103dc90612657565b5090565b60008282026001600160801b03841615806116215750826001600160801b0316846001600160801b0316826001600160801b03168161161557fe5b046001600160801b0316145b61163d5760405162461bcd60e51b81526004016103dc9061275f565b6706f05b59d3b2000081016001600160801b0380831690821610156116745760405162461bcd60e51b81526004016103dc9061275f565b6000670de0b6b3a76400006001600160801b0383166115a6565b50565b61168e81611b11565b6116a48282611b79565b5050565b604080518082018252601481527311549497d25394d551919250d251539517d0905360621b6020808301919091526001600160a01b03861660009081529081905291909120546116f99183906113f0565b6001600160a01b03808516600090815260208190526040808220939093559084168152205461172890826113c4565b6001600160a01b0380841660008181526020819052604090819020939093559151908516906000805160206128cf833981519152906117689085906124ec565b60405180910390a3505050565b60006113e983836040518060400160405280601e81526020017f536166654d6174683a207375627472616374696f6e206f766572666c6f7700008152506113f0565b6116a48282611b84565b61168e81611b8f565b60006117d4612025565b6117e18787878787611c1a565b90506000838787815181106117f257fe5b602002602001015101905086868151811061180957fe5b602002602001015161181b83836119f9565b0398975050505050505050565b600061035c61185f670de0b6b3a76400007f000000000000000000000000000000000000000000000000000000000000000061186f565b6001600160801b03841690611d32565b600080600061187e8585611e1e565b91509150801561150a5760405162461bcd60e51b81526004016103dc906127af565b6118a8612025565b60006118b48787611e55565b8651909150600090670de0b6b3a7640000906001835b828110156119b8578881146119ac578981141561194f57876001600160801b03168b82815181106118f757fe5b60200260200101516001600160801b03168601019450670de0b6b3a76400006001600160801b0316888c838151811061192c57fe5b6020026020010151016001600160801b031685028161194757fe5b0593506119ac565b8a818151811061195b57fe5b60200260200101516001600160801b031685019450670de0b6b3a76400006001600160801b03168b828151811061198e57fe5b60200260200101516001600160801b03168502816119a857fe5b0593505b908202906001016118ca565b506040805160c0810182526001600160801b039c909c168c5260208c0195909552938a01526060890192909252608088015260a08701525093949350505050565b60208201518251606084015160009283928392670de0b6b3a764000081611a1c57fe5b050302856080015186600001510201905060008560a00151866060015187606001510202866020015187602001518860200151020281611a5857fe5b05905060005b60ff811215611b06578651670de0b6b3a764000083026001600160801b0388169182028083029286029290920103906002028401808281611a9b57fe5b056001600160801b03808a16918203975087161115611ad857655af3107a40008887036001600160801b031613611ad3575050611b06565b611af7565b655af3107a40008887036001600160801b031613611af7575050611b06565b50939550859350600101611a5e565b509195945050505050565b30600090815260208190526040902054611b2b90826113c4565b30600090815260208190526040902055600254611b4890826113c4565b60025560405130906000906000805160206128cf83398151915290611b6e9085906124ec565b60405180910390a350565b6116a43083836116a8565b6116a48230836116a8565b604080518082018252601481527311549497d25394d551919250d251539517d0905360621b602080830191909152306000908152908190529190912054611bd79183906113f0565b30600090815260208190526040902055600254611bf49082611775565b60025560405160009030906000805160206128cf83398151915290611b6e9085906124ec565b611c22612025565b6000611c2e8787611e55565b8651909150600090670de0b6b3a7640000906001835b828110156119b857898114611d265788811415611cc957876001600160801b03168b8281518110611c7157fe5b60200260200101516001600160801b03168601039450670de0b6b3a76400006001600160801b0316888c8381518110611ca657fe5b6020026020010151036001600160801b0316850281611cc157fe5b059350611d26565b8a8181518110611cd557fe5b60200260200101516001600160801b031685019450670de0b6b3a76400006001600160801b03168b8281518110611d0857fe5b60200260200101516001600160801b0316850281611d2257fe5b0593505b90820290600101611c44565b60006001600160801b038216611d5a5760405162461bcd60e51b81526004016103dc90612789565b670de0b6b3a764000083026001600160801b0384161580611da05750670de0b6b3a76400006001600160801b0385811690831681611d9457fe5b046001600160801b0316145b611dbc5760405162461bcd60e51b81526004016103dc906126e0565b600060026001600160801b0385160482019050816001600160801b0316816001600160801b03161015611e015760405162461bcd60e51b81526004016103dc906126e0565b6000846001600160801b0316826001600160801b0316816115a657fe5b600080826001600160801b0316846001600160801b031610611e465750508082036000611e4e565b505081810360015b9250929050565b80516000906001600160801b038416908290670de0b6b3a7640000906001835b82811015611ee557878181518110611e8957fe5b60200260200101516001600160801b031685019450670de0b6b3a76400006001600160801b0316888281518110611ebc57fe5b60200260200101516001600160801b0316850281611ed657fe5b05935090820290600101611e75565b508360008083670de0b6b3a764000081611efb57fe5b0588039050838002860260005b60ff811215612014576000670de0b6b3a76400008b8b02878581800281611f2b57fe5b0502888702010381611f3957fe5b0590506000670de0b6b3a7640000878581830281611f5357fe5b0560030202670de0b6b3a76400006001600160801b031687020181611f7457fe5b05905083670de0b6b3a7640000880281611f8a57fe5b828002600202919005830260060201671bc16d674ec800008284020281611fad57fe5b058703955086861315611fe257655af3107a400087870313611fdd57859c5050505050505050505050505061035c565b612005565b655af3107a40008688031361200557859c5050505050505050505050505061035c565b50939450849350600101611f08565b50919b9a5050505050505050505050565b6040518060c001604052806000815260200160008152602001600081526020016000815260200160008152602001600081525090565b60008083601f84011261206c578081fd5b5081356001600160401b03811115612082578182fd5b6020830191508360208083028501011115611e4e57600080fd5b600082601f8301126120ac578081fd5b81356120bf6120ba82612885565b61285f565b8181529150602080830190848101818402860182018710156120e057600080fd5b60005b848110156121085781356120f6816128b9565b845292820192908201906001016120e3565b505050505092915050565b8035801515811461035c57600080fd5b600060e08284031215612134578081fd5b50919050565b60006020828403121561214b578081fd5b81356113e9816128a4565b60008060408385031215612168578081fd5b8235612173816128a4565b91506020830135612183816128a4565b809150509250929050565b6000806000606084860312156121a2578081fd5b83356121ad816128a4565b925060208401356121bd816128a4565b929592945050506040919091013590565b600080604083850312156121e0578182fd5b82356121eb816128a4565b946020939093013593505050565b6000602080838503121561220b578182fd5b82516001600160401b03811115612220578283fd5b8301601f81018513612230578283fd5b805161223e6120ba82612885565b818152838101908385018584028501860189101561225a578687fd5b8694505b83851015612285578051612271816128a4565b83526001949094019391850191850161225e565b50979650505050505050565b600060208083850312156122a3578182fd5b82516001600160401b038111156122b8578283fd5b8301601f810185136122c8578283fd5b80516122d66120ba82612885565b81815283810190838501858402850186018910156122f2578687fd5b8694505b83851015612285578051612309816128b9565b8352600194909401939185019185016122f6565b60008060008060808587031215612332578081fd5b84356001600160401b0380821115612348578283fd5b61235488838901612123565b95506020870135915080821115612369578283fd5b506123768782880161209c565b949794965050505060408301359260600135919050565b600080600080608085870312156123a2578384fd5b84356001600160401b03808211156123b8578586fd5b6123c488838901612123565b95506020870135915080821115612369578485fd5b6000602082840312156123ea578081fd5b81356113e9816128b9565b60008060008060006080868803121561240c578283fd5b8535945060208601356001600160401b03811115612428578384fd5b6124348882890161205b565b909550935061244890508760408801612113565b91506060860135612458816128a4565b809150509295509295909350565b6000815180845260208085019450808401835b8381101561249e5781516001600160a01b031687529582019590820190600101612479565b509495945050505050565b6000815180845260208085019450808401835b8381101561249e5781516001600160801b0316875295820195908201906001016124bc565b901515815260200190565b90815260200190565b8581526001600160a01b038516602082015260a06040820181905260009061251f90830186612466565b828103606084015261253181866124a9565b91505082151560808301529695505050505050565b60008382526040602083015261255f6040830184612466565b949350505050565b6000848252606060208301526125806060830185612466565b82810360408401526112f781856124a9565b6001600160a01b0391909116815260200190565b6000602080835283518082850152825b818110156125d2578581018301518582016040015282016125b6565b818111156125e35783604083870101525b50601f01601f1916929092016040019392505050565b6020808252601b908201527a536166654d6174683a206164646974696f6e206f766572666c6f7760281b604082015260600190565b6020808252600f908201526e08aa4a4be9a82a890be82a0a0a49eb608b1b604082015260600190565b60208082526027908201527f53616665436173743a2076616c756520646f65736e27742066697420696e20316040820152663238206269747360c81b606082015260800190565b60208082526022908201527f546f6b656e7320616e6420616d6f756e7473206c656e677468206d69736d61746040820152610c6d60f31b606082015260800190565b60208082526010908201526f11549497d1125597d25395115493905360821b604082015260600190565b60208082526015908201527422a9292fa12a27a5a2a72fa120a22fa1a0a62622a960591b604082015260600190565b6020808252600c908201526b22a9292fa624a6a4aa2fa4a760a11b604082015260600190565b60208082526010908201526f4552525f4d554c5f4f564552464c4f5760801b604082015260600190565b6020808252600c908201526b4552525f4449565f5a45524f60a01b604082015260600190565b6020808252601190820152704552525f5355425f554e444552464c4f5760781b604082015260600190565b6020808252601f908201527f5265656e7472616e637947756172643a207265656e7472616e742063616c6c00604082015260600190565b60208082526012908201527109c9ea8408ab092a8929c8e408a9c9eaa8e960731b604082015260600190565b6001600160801b0391909116815260200190565b60ff91909116815260200190565b6040518181016001600160401b038111828210171561287d57600080fd5b604052919050565b60006001600160401b0382111561289a578081fd5b5060209081020190565b6001600160a01b038116811461168e57600080fd5b6001600160801b038116811461168e57600080fdfeddf252ad1be2c89b69c2b068fc378daa952ba7f163c4a11628f55a4df523b3ef8c5be1e5ebec7d5bd14f71427d1e84f3dd0314c0f7b2291e5b200ac8c7c3b925a264697066735822122089572503f289f58e34e573e20c3a89e43bd3acd36d87e49e0f9bbe8c7ce077ec64736f6c63430007010033ddf252ad1be2c89b69c2b068fc378daa952ba7f163c4a11628f55a4df523b3ef",
  "linkReferences": {},
  "deployedLinkReferences": {}
}