{
  "address": "0x69AC2050b7537f8337fF3f9C329F76dDbCB7D376",
  "abi": [
    {
      "inputs": [],
      "stateMutability": "nonpayable",
      "type": "constructor"
    },
    {
      "anonymous": false,
      "inputs": [
        {
          "indexed": true,
          "internalType": "address",
          "name": "token",
          "type": "address"
        }
      ],
      "name": "TokenCreated",
      "type": "event"
    },
    {
      "inputs": [
        {
          "internalType": "address",
          "name": "admin",
          "type": "address"
        },
        {
          "internalType": "string",
          "name": "name",
          "type": "string"
        },
        {
          "internalType": "string",
          "name": "symbol",
          "type": "string"
        },
        {
          "internalType": "uint8",
          "name": "decimals",
          "type": "uint8"
        }
      ],
      "name": "create",
      "outputs": [
        {
          "internalType": "address",
          "name": "",
          "type": "address"
        }
      ],
      "stateMutability": "nonpayable",
      "type": "function"
    },
    {
      "inputs": [
        {
          "internalType": "uint256",
          "name": "start",
          "type": "uint256"
        },
        {
          "internalType": "uint256",
          "name": "end",
          "type": "uint256"
        }
      ],
      "name": "getTokens",
      "outputs": [
        {
          "internalType": "address[]",
          "name": "",
          "type": "address[]"
        }
      ],
      "stateMutability": "view",
      "type": "function"
    },
    {
      "inputs": [],
      "name": "getTotalTokens",
      "outputs": [
        {
          "internalType": "uint256",
          "name": "",
          "type": "uint256"
        }
      ],
      "stateMutability": "view",
      "type": "function"
    }
  ],
  "transactionHash": "0xdc701fbe881c99ca3a8be403a5406b1085ba00c671c0183221f808a370d09f4f",
  "args": [],
  "solcInputHash": "65f2583abd05236df79b3ad357daf4f2",
  "bytecode": "0x608060405234801561001057600080fd5b50611f1d806100206000396000f3fe60806040523480156200001157600080fd5b5060043610620000465760003560e01c8063494cfc6c146200004b578063ecbfd4b6146200007a578063f08b82e614620000a0575b600080fd5b620000626200005c36600462000602565b620000b9565b6040516200007191906200071c565b60405180910390f35b620000916200008b36600462000564565b6200019e565b604051620000719190620006b9565b620000aa620002d0565b60405162000071919062000871565b6060828210158015620000d95750620000d36000620002e3565b83830311155b620001015760405162461bcd60e51b8152600401620000f89062000815565b60405180910390fd5b60608383036001600160401b03811180156200011c57600080fd5b5060405190808252806020026020018201604052801562000147578160200160208202803683370190505b50905060005b81518110156200019457620001666000828701620002f0565b8282815181106200017357fe5b6001600160a01b03909216602092830291909101909101526001016200014d565b5090505b92915050565b6000606060405180602001620001b490620004d5565b601f1982820381018352601f909101166040819052620001df908890889088908890602001620006cd565b60408051601f1981840301815290829052620001ff929160200162000686565b60405160208183030381529060405290506000620002286000801b838051906020012062000305565b90506200023e816001600160a01b031662000314565b156200024e579150620002c89050565b60006200025d8180856200034e565b9050816001600160a01b0316816001600160a01b0316146200027b57fe5b62000288600082620003c9565b506040516001600160a01b038216907f2e2b3f61b70d2d131b2a807371103cc98d51adcaa5e9a8f9c32658ad8426e74e90600090a29250620002c8915050565b949350505050565b6000620002de6000620002e3565b905090565b60006200019882620003e0565b6000620002fe8383620003e4565b9392505050565b6000620002fe8383306200042d565b6000813f7fc5d2460186f7233c927e7db2dcc703c0e500b653ca82273b7bfad8045d85a470818114801590620002c8575050151592915050565b60008084471015620003745760405162461bcd60e51b8152600401620000f8906200083a565b8251620003955760405162461bcd60e51b8152600401620000f890620007ad565b8383516020850187f590506001600160a01b038116620002c85760405162461bcd60e51b8152600401620000f890620007e2565b6000620002fe836001600160a01b0384166200046e565b5490565b815460009082106200040a5760405162461bcd60e51b8152600401620000f8906200076b565b8260000182815481106200041a57fe5b9060005260206000200154905092915050565b60008060ff60f81b8386866040516020016200044d949392919062000652565b60408051808303601f19018152919052805160209091012095945050505050565b60006200047c8383620004bd565b620004b45750815460018181018455600084815260208082209093018490558454848252828601909352604090209190915562000198565b50600062000198565b60009081526001919091016020526040902054151590565b61163a80620008ae83390190565b600082601f830112620004f4578081fd5b81356001600160401b03808211156200050b578283fd5b604051601f8301601f1916810160200182811182821017156200052c578485fd5b6040528281529250828483016020018610156200054857600080fd5b8260208601602083013760006020848301015250505092915050565b600080600080608085870312156200057a578384fd5b84356001600160a01b038116811462000591578485fd5b935060208501356001600160401b0380821115620005ad578485fd5b620005bb88838901620004e3565b94506040870135915080821115620005d1578384fd5b50620005e087828801620004e3565b925050606085013560ff81168114620005f7578182fd5b939692955090935050565b6000806040838503121562000615578182fd5b50508035926020909101359150565b600081518084526200063e8160208601602086016200087a565b601f01601f19169290920160200192915050565b6001600160f81b031994909416845260609290921b6001600160601b03191660018401526015830152603582015260550190565b600083516200069a8184602088016200087a565b835190830190620006b08183602088016200087a565b01949350505050565b6001600160a01b0391909116815260200190565b6001600160a01b0385168152608060208201819052600090620006f39083018662000624565b828103604084015262000707818662000624565b91505060ff8316606083015295945050505050565b6020808252825182820181905260009190848201906040850190845b818110156200075f5783516001600160a01b03168352928401929184019160010162000738565b50909695505050505050565b60208082526022908201527f456e756d657261626c655365743a20696e646578206f7574206f6620626f756e604082015261647360f01b606082015260800190565b6020808252818101527f437265617465323a2062797465636f6465206c656e677468206973207a65726f604082015260600190565b602080825260199082015278437265617465323a204661696c6564206f6e206465706c6f7960381b604082015260600190565b6020808252600b908201526a42616420696e646963657360a81b604082015260600190565b6020808252601d908201527f437265617465323a20696e73756666696369656e742062616c616e6365000000604082015260600190565b90815260200190565b60005b83811015620008975781810151838201526020016200087d565b83811115620008a7576000848401525b5050505056fe60806040523480156200001157600080fd5b506040516200163a3803806200163a833981810160405260808110156200003757600080fd5b8151602083018051604051929492938301929190846401000000008211156200005f57600080fd5b9083019060208201858111156200007557600080fd5b82516401000000008111828201881017156200009057600080fd5b82525081516020918201929091019080838360005b83811015620000bf578181015183820152602001620000a5565b50505050905090810190601f168015620000ed5780820380516001836020036101000a031916815260200191505b50604052602001805160405193929190846401000000008211156200011157600080fd5b9083019060208201858111156200012757600080fd5b82516401000000008111828201881017156200014257600080fd5b82525081516020918201929091019080838360005b838110156200017157818101518382015260200162000157565b50505050905090810190601f1680156200019f5780820380516001836020036101000a031916815260200191505b5060405260209081015185519093508592508491620001c49160049185019062000362565b508051620001da90600590602084019062000362565b50506006805460ff1916601217905550620001f58162000238565b620002026000856200024e565b6200022e7f9f2df0fed2c77648de5860a4cc508cd0818c85b8b8a1ab4ceeef8d981c8956a6856200024e565b50505050620003fe565b6006805460ff191660ff92909216919091179055565b6200025a82826200025e565b5050565b600082815260208181526040909120620002839183906200093e620002d7821b17901c565b156200025a5762000293620002f7565b6001600160a01b0316816001600160a01b0316837f2f8788117e7eff1d82e926ec794901d17c78024a50270940304540a733656f0d60405160405180910390a45050565b6000620002ee836001600160a01b038416620002fb565b90505b92915050565b3390565b60006200030983836200034a565b6200034157508154600181810184556000848152602080822090930184905584548482528286019093526040902091909155620002f1565b506000620002f1565b60009081526001919091016020526040902054151590565b828054600181600116156101000203166002900490600052602060002090601f016020900481019282601f10620003a557805160ff1916838001178555620003d5565b82800160010185558215620003d5579182015b82811115620003d5578251825591602001919060010190620003b8565b50620003e3929150620003e7565b5090565b5b80821115620003e35760008155600101620003e8565b61122c806200040e6000396000f3fe608060405234801561001057600080fd5b50600436106101075760003560e01c806306fdde031461010c578063095ea7b31461018957806318160ddd146101c957806323b872dd146101e3578063248a9ca3146102195780632f2ff15d14610236578063313ce5671461026457806336568abe1461028257806339509351146102ae57806340c10f19146102da57806370a08231146103065780639010d07c1461032c57806391d148541461036b57806395d89b4114610397578063a217fddf1461039f578063a457c2d7146103a7578063a9059cbb146103d3578063ca15c873146103ff578063d53913931461041c578063d547741f14610424578063dd62ed3e14610450575b600080fd5b61011461047e565b6040805160208082528351818301528351919283929083019185019080838360005b8381101561014e578181015183820152602001610136565b50505050905090810190601f16801561017b5780820380516001836020036101000a031916815260200191505b509250505060405180910390f35b6101b56004803603604081101561019f57600080fd5b506001600160a01b038135169060200135610514565b604080519115158252519081900360200190f35b6101d1610532565b60408051918252519081900360200190f35b6101b5600480360360608110156101f957600080fd5b506001600160a01b03813581169160208101359091169060400135610538565b6101d16004803603602081101561022f57600080fd5b50356105bf565b6102626004803603604081101561024c57600080fd5b50803590602001356001600160a01b03166105d4565b005b61026c610640565b6040805160ff9092168252519081900360200190f35b6102626004803603604081101561029857600080fd5b50803590602001356001600160a01b0316610649565b6101b5600480360360408110156102c457600080fd5b506001600160a01b0381351690602001356106aa565b610262600480360360408110156102f057600080fd5b506001600160a01b0381351690602001356106f8565b6101d16004803603602081101561031c57600080fd5b50356001600160a01b031661075d565b61034f6004803603604081101561034257600080fd5b5080359060200135610778565b604080516001600160a01b039092168252519081900360200190f35b6101b56004803603604081101561038157600080fd5b50803590602001356001600160a01b0316610797565b6101146107af565b6101d1610810565b6101b5600480360360408110156103bd57600080fd5b506001600160a01b038135169060200135610815565b6101b5600480360360408110156103e957600080fd5b506001600160a01b03813516906020013561087d565b6101d16004803603602081101561041557600080fd5b5035610891565b6101d16108a8565b6102626004803603604081101561043a57600080fd5b50803590602001356001600160a01b03166108ba565b6101d16004803603604081101561046657600080fd5b506001600160a01b0381358116916020013516610913565b60048054604080516020601f600260001961010060018816150201909516949094049384018190048102820181019092528281526060939092909183018282801561050a5780601f106104df5761010080835404028352916020019161050a565b820191906000526020600020905b8154815290600101906020018083116104ed57829003601f168201915b5050505050905090565b6000610528610521610953565b8484610957565b5060015b92915050565b60035490565b6000610545848484610a43565b6105b584610551610953565b6105b0856040518060600160405280602881526020016110f2602891396001600160a01b038a1660009081526002602052604081209061058f610953565b6001600160a01b031681526020810191909152604001600020549190610b8e565b610957565b5060019392505050565b60009081526020819052604090206002015490565b6000828152602081905260409020600201546105f7906105f2610953565b610797565b6106325760405162461bcd60e51b815260040180806020018281038252602f81526020018061104b602f913960400191505060405180910390fd5b61063c8282610c25565b5050565b60065460ff1690565b610651610953565b6001600160a01b0316816001600160a01b0316146106a05760405162461bcd60e51b815260040180806020018281038252602f8152602001806111c8602f913960400191505060405180910390fd5b61063c8282610c8e565b60006105286106b7610953565b846105b085600260006106c8610953565b6001600160a01b03908116825260208083019390935260409182016000908120918c168152925290205490610cf7565b61071060008051602061111a83398151915233610797565b610753576040805162461bcd60e51b815260206004820152600f60248201526e4552525f4d494e5445525f524f4c4560881b604482015290519081900360640190fd5b61063c8282610d4f565b6001600160a01b031660009081526001602052604090205490565b60008281526020819052604081206107909083610e2f565b9392505050565b60008281526020819052604081206107909083610e3b565b60058054604080516020601f600260001961010060018816150201909516949094049384018190048102820181019092528281526060939092909183018282801561050a5780601f106104df5761010080835404028352916020019161050a565b600081565b6000610528610822610953565b846105b0856040518060600160405280602581526020016111a3602591396002600061084c610953565b6001600160a01b03908116825260208083019390935260409182016000908120918d16815292529020549190610b8e565b600061052861088a610953565b8484610a43565b600081815260208190526040812061052c90610e50565b60008051602061111a83398151915281565b6000828152602081905260409020600201546108d8906105f2610953565b6106a05760405162461bcd60e51b81526004018080602001828103825260308152602001806110c26030913960400191505060405180910390fd5b6001600160a01b03918216600090815260026020908152604080832093909416825291909152205490565b6000610790836001600160a01b038416610e5b565b3390565b6001600160a01b03831661099c5760405162461bcd60e51b815260040180806020018281038252602481526020018061117f6024913960400191505060405180910390fd5b6001600160a01b0382166109e15760405162461bcd60e51b815260040180806020018281038252602281526020018061107a6022913960400191505060405180910390fd5b6001600160a01b03808416600081815260026020908152604080832094871680845294825291829020859055815185815291517f8c5be1e5ebec7d5bd14f71427d1e84f3dd0314c0f7b2291e5b200ac8c7c3b9259281900390910190a3505050565b6001600160a01b038316610a885760405162461bcd60e51b815260040180806020018281038252602581526020018061115a6025913960400191505060405180910390fd5b6001600160a01b038216610acd5760405162461bcd60e51b81526004018080602001828103825260238152602001806110286023913960400191505060405180910390fd5b610ad8838383610ea5565b610b158160405180606001604052806026815260200161109c602691396001600160a01b0386166000908152600160205260409020549190610b8e565b6001600160a01b038085166000908152600160205260408082209390935590841681522054610b449082610cf7565b6001600160a01b03808416600081815260016020908152604091829020949094558051858152905191939287169260008051602061113a83398151915292918290030190a3505050565b60008184841115610c1d5760405162461bcd60e51b81526004018080602001828103825283818151815260200191508051906020019080838360005b83811015610be2578181015183820152602001610bca565b50505050905090810190601f168015610c0f5780820380516001836020036101000a031916815260200191505b509250505060405180910390fd5b505050900390565b6000828152602081905260409020610c3d908261093e565b1561063c57610c4a610953565b6001600160a01b0316816001600160a01b0316837f2f8788117e7eff1d82e926ec794901d17c78024a50270940304540a733656f0d60405160405180910390a45050565b6000828152602081905260409020610ca69082610eaa565b1561063c57610cb3610953565b6001600160a01b0316816001600160a01b0316837ff6391f5c32d9c69d2a47ea670b442974b53935d1edc7fd64eb21e047a839171b60405160405180910390a45050565b600082820183811015610790576040805162461bcd60e51b815260206004820152601b60248201527a536166654d6174683a206164646974696f6e206f766572666c6f7760281b604482015290519081900360640190fd5b6001600160a01b038216610daa576040805162461bcd60e51b815260206004820152601f60248201527f45524332303a206d696e7420746f20746865207a65726f206164647265737300604482015290519081900360640190fd5b610db660008383610ea5565b600354610dc39082610cf7565b6003556001600160a01b038216600090815260016020526040902054610de99082610cf7565b6001600160a01b038316600081815260016020908152604080832094909455835185815293519293919260008051602061113a8339815191529281900390910190a35050565b60006107908383610ebf565b6000610790836001600160a01b038416610f23565b600061052c82610f3b565b6000610e678383610f23565b610e9d5750815460018181018455600084815260208082209093018490558454848252828601909352604090209190915561052c565b50600061052c565b505050565b6000610790836001600160a01b038416610f3f565b81546000908210610f015760405162461bcd60e51b81526004018080602001828103825260228152602001806110066022913960400191505060405180910390fd5b826000018281548110610f1057fe5b9060005260206000200154905092915050565b60009081526001919091016020526040902054151590565b5490565b60008181526001830160205260408120548015610ffb5783546000198083019190810190600090879083908110610f7257fe5b9060005260206000200154905080876000018481548110610f8f57fe5b600091825260208083209091019290925582815260018981019092526040902090840190558654879080610fbf57fe5b6001900381819060005260206000200160009055905586600101600087815260200190815260200160002060009055600194505050505061052c565b600091505061052c56fe456e756d657261626c655365743a20696e646578206f7574206f6620626f756e647345524332303a207472616e7366657220746f20746865207a65726f2061646472657373416363657373436f6e74726f6c3a2073656e646572206d75737420626520616e2061646d696e20746f206772616e7445524332303a20617070726f766520746f20746865207a65726f206164647265737345524332303a207472616e7366657220616d6f756e7420657863656564732062616c616e6365416363657373436f6e74726f6c3a2073656e646572206d75737420626520616e2061646d696e20746f207265766f6b6545524332303a207472616e7366657220616d6f756e74206578636565647320616c6c6f77616e63659f2df0fed2c77648de5860a4cc508cd0818c85b8b8a1ab4ceeef8d981c8956a6ddf252ad1be2c89b69c2b068fc378daa952ba7f163c4a11628f55a4df523b3ef45524332303a207472616e736665722066726f6d20746865207a65726f206164647265737345524332303a20617070726f76652066726f6d20746865207a65726f206164647265737345524332303a2064656372656173656420616c6c6f77616e63652062656c6f77207a65726f416363657373436f6e74726f6c3a2063616e206f6e6c792072656e6f756e636520726f6c657320666f722073656c66a2646970667358221220bf458cda44bccbd4c382c52c0ae55637614fd4da195a797d7e37cfd50fa424fd64736f6c63430007010033a2646970667358221220f42f83606554205161f78b431fe1667dafc34ec1960ede2ad6e6a8143b79481764736f6c63430007010033",
  "devdoc": {
    "kind": "dev",
    "methods": {},
    "version": 1
  },
  "userdoc": {
    "kind": "user",
    "methods": {},
    "version": 1
  },
  "storageLayout": {
    "storage": [
      {
        "astId": 9050,
        "contract": "contracts/test/TokenFactory.sol:TokenFactory",
        "label": "_tokens",
        "offset": 0,
        "slot": "0",
        "type": "t_struct(AddressSet)1875_storage"
      }
    ],
    "types": {
      "t_array(t_bytes32)dyn_storage": {
        "base": "t_bytes32",
        "encoding": "dynamic_array",
        "label": "bytes32[]",
        "numberOfBytes": "32"
      },
      "t_bytes32": {
        "encoding": "inplace",
        "label": "bytes32",
        "numberOfBytes": "32"
      },
      "t_mapping(t_bytes32,t_uint256)": {
        "encoding": "mapping",
        "key": "t_bytes32",
        "label": "mapping(bytes32 => uint256)",
        "numberOfBytes": "32",
        "value": "t_uint256"
      },
      "t_struct(AddressSet)1875_storage": {
        "encoding": "inplace",
        "label": "struct EnumerableSet.AddressSet",
        "members": [
          {
            "astId": 1874,
            "contract": "contracts/test/TokenFactory.sol:TokenFactory",
            "label": "_inner",
            "offset": 0,
            "slot": "0",
            "type": "t_struct(Set)1695_storage"
          }
        ],
        "numberOfBytes": "64"
      },
      "t_struct(Set)1695_storage": {
        "encoding": "inplace",
        "label": "struct EnumerableSet.Set",
        "members": [
          {
            "astId": 1690,
            "contract": "contracts/test/TokenFactory.sol:TokenFactory",
            "label": "_values",
            "offset": 0,
            "slot": "0",
            "type": "t_array(t_bytes32)dyn_storage"
          },
          {
            "astId": 1694,
            "contract": "contracts/test/TokenFactory.sol:TokenFactory",
            "label": "_indexes",
            "offset": 0,
            "slot": "1",
            "type": "t_mapping(t_bytes32,t_uint256)"
          }
        ],
        "numberOfBytes": "64"
      },
      "t_uint256": {
        "encoding": "inplace",
        "label": "uint256",
        "numberOfBytes": "32"
      }
    }
  }
}