{
  "address": "0xFa8677072C5066bA66406E3c567bb0503C31df64",
  "abi": [
    {
      "inputs": [
        {
          "internalType": "address",
          "name": "_admin",
          "type": "address"
        }
      ],
      "stateMutability": "nonpayable",
      "type": "constructor"
    },
    {
      "anonymous": false,
      "inputs": [
        {
          "indexed": true,
          "internalType": "address",
          "name": "user",
          "type": "address"
        },
        {
          "indexed": true,
          "internalType": "address",
          "name": "operator",
          "type": "address"
        }
      ],
      "name": "AuthorizedOperator",
      "type": "event"
    },
    {
      "anonymous": false,
      "inputs": [
        {
          "indexed": true,
          "internalType": "bytes32",
          "name": "poolId",
          "type": "bytes32"
        },
        {
          "indexed": true,
          "internalType": "contract IERC20",
          "name": "token",
          "type": "address"
        },
        {
          "indexed": true,
          "internalType": "address",
          "name": "operator",
          "type": "address"
        }
      ],
      "name": "AuthorizedPoolInvestmentManager",
      "type": "event"
    },
    {
      "anonymous": false,
      "inputs": [
        {
          "indexed": true,
          "internalType": "address",
          "name": "operator",
          "type": "address"
        }
      ],
      "name": "AuthorizedTrustedOperator",
      "type": "event"
    },
    {
      "anonymous": false,
      "inputs": [
        {
          "indexed": true,
          "internalType": "address",
          "name": "depositor",
          "type": "address"
        },
        {
          "indexed": true,
          "internalType": "address",
          "name": "user",
          "type": "address"
        },
        {
          "indexed": true,
          "internalType": "contract IERC20",
          "name": "token",
          "type": "address"
        },
        {
          "indexed": false,
          "internalType": "uint128",
          "name": "amount",
          "type": "uint128"
        }
      ],
      "name": "Deposited",
      "type": "event"
    },
    {
      "anonymous": false,
      "inputs": [
        {
          "indexed": false,
          "internalType": "bytes32",
          "name": "poolId",
          "type": "bytes32"
        }
      ],
      "name": "PoolCreated",
      "type": "event"
    },
    {
      "anonymous": false,
      "inputs": [
        {
          "indexed": true,
          "internalType": "address",
          "name": "user",
          "type": "address"
        },
        {
          "indexed": true,
          "internalType": "address",
          "name": "operator",
          "type": "address"
        }
      ],
      "name": "RevokedOperator",
      "type": "event"
    },
    {
      "anonymous": false,
      "inputs": [
        {
          "indexed": true,
          "internalType": "bytes32",
          "name": "poolId",
          "type": "bytes32"
        },
        {
          "indexed": true,
          "internalType": "contract IERC20",
          "name": "token",
          "type": "address"
        },
        {
          "indexed": true,
          "internalType": "address",
          "name": "operator",
          "type": "address"
        }
      ],
      "name": "RevokedPoolInvestmentManager",
      "type": "event"
    },
    {
      "anonymous": false,
      "inputs": [
        {
          "indexed": true,
          "internalType": "address",
          "name": "operator",
          "type": "address"
        }
      ],
      "name": "RevokedTrustedOperator",
      "type": "event"
    },
    {
      "anonymous": false,
      "inputs": [
        {
          "indexed": true,
          "internalType": "address",
          "name": "user",
          "type": "address"
        },
        {
          "indexed": true,
          "internalType": "address",
          "name": "recipient",
          "type": "address"
        },
        {
          "indexed": true,
          "internalType": "contract IERC20",
          "name": "token",
          "type": "address"
        },
        {
          "indexed": false,
          "internalType": "uint128",
          "name": "amount",
          "type": "uint128"
        }
      ],
      "name": "Withdrawn",
      "type": "event"
    },
    {
      "inputs": [
        {
          "internalType": "bytes32",
          "name": "poolId",
          "type": "bytes32"
        },
        {
          "internalType": "address",
          "name": "from",
          "type": "address"
        },
        {
          "internalType": "contract IERC20[]",
          "name": "tokens",
          "type": "address[]"
        },
        {
          "internalType": "uint128[]",
          "name": "amounts",
          "type": "uint128[]"
        },
        {
          "internalType": "bool",
          "name": "withdrawFromUserBalance",
          "type": "bool"
        }
      ],
      "name": "addLiquidity",
      "outputs": [],
      "stateMutability": "nonpayable",
      "type": "function"
    },
    {
      "inputs": [],
      "name": "admin",
      "outputs": [
        {
          "internalType": "address",
          "name": "",
          "type": "address"
        }
      ],
      "stateMutability": "view",
      "type": "function"
    },
    {
      "inputs": [
        {
          "internalType": "address",
          "name": "operator",
          "type": "address"
        }
      ],
      "name": "authorizeOperator",
      "outputs": [],
      "stateMutability": "nonpayable",
      "type": "function"
    },
    {
      "inputs": [
        {
          "internalType": "bytes32",
          "name": "poolId",
          "type": "bytes32"
        },
        {
          "internalType": "contract IERC20",
          "name": "token",
          "type": "address"
        },
        {
          "internalType": "address",
          "name": "manager",
          "type": "address"
        }
      ],
      "name": "authorizePoolInvestmentManager",
      "outputs": [],
      "stateMutability": "nonpayable",
      "type": "function"
    },
    {
      "inputs": [
        {
          "internalType": "address",
          "name": "reporter",
          "type": "address"
        }
      ],
      "name": "authorizeTrustedOperatorReporter",
      "outputs": [],
      "stateMutability": "nonpayable",
      "type": "function"
    },
    {
      "inputs": [
        {
          "internalType": "contract ISwapValidator",
          "name": "validator",
          "type": "address"
        },
        {
          "internalType": "bytes",
          "name": "validatorData",
          "type": "bytes"
        },
        {
          "components": [
            {
              "internalType": "bytes32",
              "name": "poolId",
              "type": "bytes32"
            },
            {
              "internalType": "uint128",
              "name": "tokenInIndex",
              "type": "uint128"
            },
            {
              "internalType": "uint128",
              "name": "tokenOutIndex",
              "type": "uint128"
            },
            {
              "internalType": "uint128",
              "name": "amountIn",
              "type": "uint128"
            },
            {
              "internalType": "bytes",
              "name": "userData",
              "type": "bytes"
            }
          ],
          "internalType": "struct IVault.SwapIn[]",
          "name": "swaps",
          "type": "tuple[]"
        },
        {
          "internalType": "contract IERC20[]",
          "name": "tokens",
          "type": "address[]"
        },
        {
          "components": [
            {
              "internalType": "address",
              "name": "sender",
              "type": "address"
            },
            {
              "internalType": "address",
              "name": "recipient",
              "type": "address"
            },
            {
              "internalType": "bool",
              "name": "withdrawFromUserBalance",
              "type": "bool"
            },
            {
              "internalType": "bool",
              "name": "depositToUserBalance",
              "type": "bool"
            }
          ],
          "internalType": "struct IVault.FundManagement",
          "name": "funds",
          "type": "tuple"
        }
      ],
      "name": "batchSwapGivenIn",
      "outputs": [],
      "stateMutability": "nonpayable",
      "type": "function"
    },
    {
      "inputs": [
        {
          "internalType": "contract ISwapValidator",
          "name": "validator",
          "type": "address"
        },
        {
          "internalType": "bytes",
          "name": "validatorData",
          "type": "bytes"
        },
        {
          "components": [
            {
              "internalType": "bytes32",
              "name": "poolId",
              "type": "bytes32"
            },
            {
              "internalType": "uint128",
              "name": "tokenInIndex",
              "type": "uint128"
            },
            {
              "internalType": "uint128",
              "name": "tokenOutIndex",
              "type": "uint128"
            },
            {
              "internalType": "uint128",
              "name": "amountOut",
              "type": "uint128"
            },
            {
              "internalType": "bytes",
              "name": "userData",
              "type": "bytes"
            }
          ],
          "internalType": "struct IVault.SwapOut[]",
          "name": "swaps",
          "type": "tuple[]"
        },
        {
          "internalType": "contract IERC20[]",
          "name": "tokens",
          "type": "address[]"
        },
        {
          "components": [
            {
              "internalType": "address",
              "name": "sender",
              "type": "address"
            },
            {
              "internalType": "address",
              "name": "recipient",
              "type": "address"
            },
            {
              "internalType": "bool",
              "name": "withdrawFromUserBalance",
              "type": "bool"
            },
            {
              "internalType": "bool",
              "name": "depositToUserBalance",
              "type": "bool"
            }
          ],
          "internalType": "struct IVault.FundManagement",
          "name": "funds",
          "type": "tuple"
        }
      ],
      "name": "batchSwapGivenOut",
      "outputs": [],
      "stateMutability": "nonpayable",
      "type": "function"
    },
    {
      "inputs": [
        {
          "internalType": "contract IERC20",
          "name": "token",
          "type": "address"
        },
        {
          "internalType": "uint128",
          "name": "amount",
          "type": "uint128"
        },
        {
          "internalType": "address",
          "name": "user",
          "type": "address"
        }
      ],
      "name": "deposit",
      "outputs": [],
      "stateMutability": "nonpayable",
      "type": "function"
    },
    {
      "inputs": [
        {
          "internalType": "bytes32",
          "name": "poolId",
          "type": "bytes32"
        },
        {
          "internalType": "contract IERC20",
          "name": "token",
          "type": "address"
        },
        {
          "internalType": "uint128",
          "name": "amount",
          "type": "uint128"
        }
      ],
      "name": "divestPoolBalance",
      "outputs": [],
      "stateMutability": "nonpayable",
      "type": "function"
    },
    {
      "inputs": [
        {
          "internalType": "contract IFlashLoanReceiver",
          "name": "receiver",
          "type": "address"
        },
        {
          "internalType": "contract IERC20[]",
          "name": "tokens",
          "type": "address[]"
        },
        {
          "internalType": "uint256[]",
          "name": "amounts",
          "type": "uint256[]"
        },
        {
          "internalType": "bytes",
          "name": "receiverData",
          "type": "bytes"
        }
      ],
      "name": "flashLoan",
      "outputs": [],
      "stateMutability": "nonpayable",
      "type": "function"
    },
    {
      "inputs": [
        {
          "internalType": "bytes32",
          "name": "serialized",
          "type": "bytes32"
        }
      ],
      "name": "fromPoolId",
      "outputs": [
        {
          "internalType": "address",
          "name": "strategy",
          "type": "address"
        },
        {
          "internalType": "enum IVault.StrategyType",
          "name": "strategyType",
          "type": "uint8"
        }
      ],
      "stateMutability": "pure",
      "type": "function"
    },
    {
      "inputs": [
        {
          "internalType": "contract IERC20",
          "name": "token",
          "type": "address"
        }
      ],
      "name": "getCollectedFeesByToken",
      "outputs": [
        {
          "internalType": "uint256",
          "name": "",
          "type": "uint256"
        }
      ],
      "stateMutability": "view",
      "type": "function"
    },
    {
      "inputs": [
        {
          "internalType": "bytes32",
          "name": "poolId",
          "type": "bytes32"
        }
      ],
      "name": "getPool",
      "outputs": [
        {
          "internalType": "address",
          "name": "",
          "type": "address"
        },
        {
          "internalType": "enum IVault.StrategyType",
          "name": "",
          "type": "uint8"
        }
      ],
      "stateMutability": "view",
      "type": "function"
    },
    {
      "inputs": [
        {
          "internalType": "uint256",
          "name": "start",
          "type": "uint256"
        },
        {
          "internalType": "uint256",
          "name": "end",
          "type": "uint256"
        }
      ],
      "name": "getPoolIds",
      "outputs": [
        {
          "internalType": "bytes32[]",
          "name": "",
          "type": "bytes32[]"
        }
      ],
      "stateMutability": "view",
      "type": "function"
    },
    {
      "inputs": [
        {
          "internalType": "bytes32",
          "name": "poolId",
          "type": "bytes32"
        },
        {
          "internalType": "contract IERC20[]",
          "name": "tokens",
          "type": "address[]"
        }
      ],
      "name": "getPoolTokenBalances",
      "outputs": [
        {
          "internalType": "uint128[]",
          "name": "",
          "type": "uint128[]"
        }
      ],
      "stateMutability": "view",
      "type": "function"
    },
    {
      "inputs": [
        {
          "internalType": "bytes32",
          "name": "poolId",
          "type": "bytes32"
        }
      ],
      "name": "getPoolTokens",
      "outputs": [
        {
          "internalType": "contract IERC20[]",
          "name": "",
          "type": "address[]"
        }
      ],
      "stateMutability": "view",
      "type": "function"
    },
    {
      "inputs": [],
      "name": "getTotalPools",
      "outputs": [
        {
          "internalType": "uint256",
          "name": "",
          "type": "uint256"
        }
      ],
      "stateMutability": "view",
      "type": "function"
    },
    {
      "inputs": [],
      "name": "getTotalTrustedOperatorReporters",
      "outputs": [
        {
          "internalType": "uint256",
          "name": "",
          "type": "uint256"
        }
      ],
      "stateMutability": "view",
      "type": "function"
    },
    {
      "inputs": [],
      "name": "getTotalTrustedOperators",
      "outputs": [
        {
          "internalType": "uint256",
          "name": "",
          "type": "uint256"
        }
      ],
      "stateMutability": "view",
      "type": "function"
    },
    {
      "inputs": [
        {
          "internalType": "uint256",
          "name": "start",
          "type": "uint256"
        },
        {
          "internalType": "uint256",
          "name": "end",
          "type": "uint256"
        }
      ],
      "name": "getTrustedOperatorReporters",
      "outputs": [
        {
          "internalType": "address[]",
          "name": "",
          "type": "address[]"
        }
      ],
      "stateMutability": "view",
      "type": "function"
    },
    {
      "inputs": [
        {
          "internalType": "uint256",
          "name": "start",
          "type": "uint256"
        },
        {
          "internalType": "uint256",
          "name": "end",
          "type": "uint256"
        }
      ],
      "name": "getTrustedOperators",
      "outputs": [
        {
          "internalType": "address[]",
          "name": "",
          "type": "address[]"
        }
      ],
      "stateMutability": "view",
      "type": "function"
    },
    {
      "inputs": [
        {
          "internalType": "address",
          "name": "user",
          "type": "address"
        },
        {
          "internalType": "uint256",
          "name": "start",
          "type": "uint256"
        },
        {
          "internalType": "uint256",
          "name": "end",
          "type": "uint256"
        }
      ],
      "name": "getUserOperators",
      "outputs": [
        {
          "internalType": "address[]",
          "name": "",
          "type": "address[]"
        }
      ],
      "stateMutability": "view",
      "type": "function"
    },
    {
      "inputs": [
        {
          "internalType": "address",
          "name": "user",
          "type": "address"
        },
        {
          "internalType": "contract IERC20",
          "name": "token",
          "type": "address"
        }
      ],
      "name": "getUserTokenBalance",
      "outputs": [
        {
          "internalType": "uint128",
          "name": "",
          "type": "uint128"
        }
      ],
      "stateMutability": "view",
      "type": "function"
    },
    {
      "inputs": [
        {
          "internalType": "address",
          "name": "user",
          "type": "address"
        }
      ],
      "name": "getUserTotalOperators",
      "outputs": [
        {
          "internalType": "uint256",
          "name": "",
          "type": "uint256"
        }
      ],
      "stateMutability": "view",
      "type": "function"
    },
    {
      "inputs": [
        {
          "internalType": "bytes32",
          "name": "poolId",
          "type": "bytes32"
        },
        {
          "internalType": "contract IERC20",
          "name": "token",
          "type": "address"
        },
        {
          "internalType": "uint128",
          "name": "amount",
          "type": "uint128"
        }
      ],
      "name": "investPoolBalance",
      "outputs": [],
      "stateMutability": "nonpayable",
      "type": "function"
    },
    {
      "inputs": [
        {
          "internalType": "address",
          "name": "user",
          "type": "address"
        },
        {
          "internalType": "address",
          "name": "operator",
          "type": "address"
        }
      ],
      "name": "isOperatorFor",
      "outputs": [
        {
          "internalType": "bool",
          "name": "",
          "type": "bool"
        }
      ],
      "stateMutability": "view",
      "type": "function"
    },
    {
      "inputs": [
        {
          "internalType": "bytes32",
          "name": "poolId",
          "type": "bytes32"
        },
        {
          "internalType": "contract IERC20",
          "name": "token",
          "type": "address"
        },
        {
          "internalType": "address",
          "name": "account",
          "type": "address"
        }
      ],
      "name": "isPoolInvestmentManager",
      "outputs": [
        {
          "internalType": "bool",
          "name": "",
          "type": "bool"
        }
      ],
      "stateMutability": "view",
      "type": "function"
    },
    {
      "inputs": [
        {
          "internalType": "address",
          "name": "strategy",
          "type": "address"
        },
        {
          "internalType": "enum IVault.StrategyType",
          "name": "strategyType",
          "type": "uint8"
        }
      ],
      "name": "newPool",
      "outputs": [
        {
          "internalType": "bytes32",
          "name": "",
          "type": "bytes32"
        }
      ],
      "stateMutability": "nonpayable",
      "type": "function"
    },
    {
      "inputs": [
        {
          "internalType": "bytes32",
          "name": "poolId",
          "type": "bytes32"
        },
        {
          "internalType": "contract IERC20[]",
          "name": "tokens",
          "type": "address[]"
        },
        {
          "internalType": "uint128[]",
          "name": "collectedFees",
          "type": "uint128[]"
        }
      ],
      "name": "paySwapProtocolFees",
      "outputs": [
        {
          "internalType": "uint128[]",
          "name": "balances",
          "type": "uint128[]"
        }
      ],
      "stateMutability": "nonpayable",
      "type": "function"
    },
    {
      "inputs": [],
      "name": "protocolFeeCollector",
      "outputs": [
        {
          "internalType": "address",
          "name": "",
          "type": "address"
        }
      ],
      "stateMutability": "view",
      "type": "function"
    },
    {
      "inputs": [],
      "name": "protocolFlashLoanFee",
      "outputs": [
        {
          "internalType": "uint256",
          "name": "",
          "type": "uint256"
        }
      ],
      "stateMutability": "view",
      "type": "function"
    },
    {
      "inputs": [],
      "name": "protocolSwapFee",
      "outputs": [
        {
          "internalType": "uint128",
          "name": "",
          "type": "uint128"
        }
      ],
      "stateMutability": "view",
      "type": "function"
    },
    {
      "inputs": [],
      "name": "protocolWithdrawFee",
      "outputs": [
        {
          "internalType": "uint128",
          "name": "",
          "type": "uint128"
        }
      ],
      "stateMutability": "view",
      "type": "function"
    },
    {
      "inputs": [
        {
          "internalType": "bytes32",
          "name": "poolId",
          "type": "bytes32"
        },
        {
          "internalType": "address",
          "name": "to",
          "type": "address"
        },
        {
          "internalType": "contract IERC20[]",
          "name": "tokens",
          "type": "address[]"
        },
        {
          "internalType": "uint128[]",
          "name": "amounts",
          "type": "uint128[]"
        },
        {
          "internalType": "bool",
          "name": "depositToUserBalance",
          "type": "bool"
        }
      ],
      "name": "removeLiquidity",
      "outputs": [],
      "stateMutability": "nonpayable",
      "type": "function"
    },
    {
      "inputs": [
        {
          "internalType": "address",
          "name": "operator",
          "type": "address"
        }
      ],
      "name": "reportTrustedOperator",
      "outputs": [],
      "stateMutability": "nonpayable",
      "type": "function"
    },
    {
      "inputs": [
        {
          "internalType": "address",
          "name": "operator",
          "type": "address"
        }
      ],
      "name": "revokeOperator",
      "outputs": [],
      "stateMutability": "nonpayable",
      "type": "function"
    },
    {
      "inputs": [
        {
          "internalType": "bytes32",
          "name": "poolId",
          "type": "bytes32"
        },
        {
          "internalType": "contract IERC20",
          "name": "token",
          "type": "address"
        }
      ],
      "name": "revokePoolInvestmentManager",
      "outputs": [],
      "stateMutability": "nonpayable",
      "type": "function"
    },
    {
      "inputs": [
        {
          "internalType": "address",
          "name": "operator",
          "type": "address"
        }
      ],
      "name": "revokeTrustedOperator",
      "outputs": [],
      "stateMutability": "nonpayable",
      "type": "function"
    },
    {
      "inputs": [
        {
          "internalType": "address",
          "name": "reporter",
          "type": "address"
        }
      ],
      "name": "revokeTrustedOperatorReporter",
      "outputs": [],
      "stateMutability": "nonpayable",
      "type": "function"
    },
    {
      "inputs": [
        {
          "internalType": "address",
          "name": "protocolFeeCollector",
          "type": "address"
        }
      ],
      "name": "setProtocolFeeCollector",
      "outputs": [],
      "stateMutability": "nonpayable",
      "type": "function"
    },
    {
      "inputs": [
        {
          "internalType": "uint128",
          "name": "fee",
          "type": "uint128"
        }
      ],
      "name": "setProtocolFlashLoanFee",
      "outputs": [],
      "stateMutability": "nonpayable",
      "type": "function"
    },
    {
      "inputs": [
        {
          "internalType": "uint128",
          "name": "fee",
          "type": "uint128"
        }
      ],
      "name": "setProtocolSwapFee",
      "outputs": [],
      "stateMutability": "nonpayable",
      "type": "function"
    },
    {
      "inputs": [
        {
          "internalType": "uint128",
          "name": "fee",
          "type": "uint128"
        }
      ],
      "name": "setProtocolWithdrawFee",
      "outputs": [],
      "stateMutability": "nonpayable",
      "type": "function"
    },
    {
      "inputs": [
        {
          "internalType": "address",
          "name": "strategy",
          "type": "address"
        },
        {
          "internalType": "uint16",
          "name": "strategyType",
          "type": "uint16"
        },
        {
          "internalType": "uint32",
          "name": "poolIndex",
          "type": "uint32"
        }
      ],
      "name": "toPoolId",
      "outputs": [
        {
          "internalType": "bytes32",
          "name": "",
          "type": "bytes32"
        }
      ],
      "stateMutability": "pure",
      "type": "function"
    },
    {
      "inputs": [
        {
          "internalType": "address",
          "name": "newAdmin",
          "type": "address"
        }
      ],
      "name": "transferAdmin",
      "outputs": [],
      "stateMutability": "nonpayable",
      "type": "function"
    },
    {
      "inputs": [
        {
          "internalType": "bytes32",
          "name": "poolId",
          "type": "bytes32"
        },
        {
          "internalType": "contract IERC20",
          "name": "token",
          "type": "address"
        },
        {
          "internalType": "uint128",
          "name": "amount",
          "type": "uint128"
        }
      ],
      "name": "updateInvested",
      "outputs": [],
      "stateMutability": "nonpayable",
      "type": "function"
    },
    {
      "inputs": [
        {
          "internalType": "contract IERC20",
          "name": "token",
          "type": "address"
        },
        {
          "internalType": "uint128",
          "name": "amount",
          "type": "uint128"
        },
        {
          "internalType": "address",
          "name": "recipient",
          "type": "address"
        }
      ],
      "name": "withdraw",
      "outputs": [],
      "stateMutability": "nonpayable",
      "type": "function"
    },
    {
      "inputs": [
        {
          "internalType": "contract IERC20[]",
          "name": "tokens",
          "type": "address[]"
        },
        {
          "internalType": "uint256[]",
          "name": "amounts",
          "type": "uint256[]"
        }
      ],
      "name": "withdrawProtocolFees",
      "outputs": [],
      "stateMutability": "nonpayable",
      "type": "function"
    }
  ],
  "transactionHash": "0x4eb7a773dd5e5a5db6ad2fcbbf23113689dd3c56d4d1611cb9ce8ba2f8a2977e",
  "args": [
    "0xf39Fd6e51aad88F6F4ce6aB8827279cffFb92266"
  ],
  "solcInputHash": "65f2583abd05236df79b3ad357daf4f2",
  "bytecode": "0x60e0604052620000536064620000366002670de0b6b3a76400006001600160801b03166200012960201b620023ef1790919060201c565b6001600160801b0316620001f560201b620024aa1790919060201c565b608090811b6001600160801b03191690526200008b606462000036670de0b6b3a7640000603262000129602090811b620023ef17901c565b60801b6001600160801b03191660a052620000c2606462000036670de0b6b3a7640000603262000129602090811b620023ef17901c565b6001600160801b031660c052348015620000db57600080fd5b506040516200608638038062006086833981016040819052620000fe91620002ed565b6001600055601180546001600160a01b0319166001600160a01b039290921691909117905562000397565b60008282026001600160801b0384161580620001725750826001600160801b0316846001600160801b0316826001600160801b0316816200016657fe5b046001600160801b0316145b6200019a5760405162461bcd60e51b8152600401620001919062000347565b60405180910390fd5b6706f05b59d3b2000081016001600160801b038083169082161015620001d45760405162461bcd60e51b8152600401620001919062000347565b6000670de0b6b3a76400006001600160801b0383165b049695505050505050565b60006001600160801b038216620002205760405162461bcd60e51b8152600401620001919062000371565b670de0b6b3a764000083026001600160801b0384161580620002685750670de0b6b3a76400006001600160801b03858116908316816200025c57fe5b046001600160801b0316145b620002875760405162461bcd60e51b815260040162000191906200031d565b600060026001600160801b0385160482019050816001600160801b0316816001600160801b03161015620002cf5760405162461bcd60e51b815260040162000191906200031d565b6000846001600160801b0316826001600160801b031681620001ea57fe5b600060208284031215620002ff578081fd5b81516001600160a01b038116811462000316578182fd5b9392505050565b60208082526010908201526f11549497d1125597d25395115493905360821b604082015260600190565b60208082526010908201526f4552525f4d554c5f4f564552464c4f5760801b604082015260600190565b6020808252600c908201526b4552525f4449565f5a45524f60a01b604082015260600190565b60805160801c60a05160801c60c051615cbc620003ca600039806132b1525080612a0a5250806127395250615cbc6000f3fe608060405234801561001057600080fd5b50600436106102305760003560e01c806305f8df3414610235578063105988f61461024a57806311ec86931461027357806314d5bc7d14610286578063150e92011461029957806323eeca01146102ba5780632f113954146102da57806335abcd89146102ed57806336cf0d0814610300578063381a6cca146103155780633cd80de3146103355780633dc60c5b146103485780634b0205d71461035b5780635af40f781461036e5780635c38449e146103815780636b141c81146103945780636ca60f77146103b45780636feec229146103c757806373f8fd4b146103da57806375829def146103ed57806381158ad914610400578063850a1501146104205780638daf7dc814610435578063959b8c3f14610448578063a4f159661461045b578063a6520fe81461046e578063ad0e595914610481578063b06459b514610494578063b4db26281461049c578063b7b0ef93146104af578063bf79c946146104b7578063c018e8aa146104ca578063c05f0a1d146104d2578063c1be1b6d146104e5578063cfca3147146104f8578063d3ffe67a1461050b578063d95b637114610513578063de22f4b714610526578063ea82e22814610539578063eb1192c31461054c578063f68b998f1461055f578063f6c0092714610567578063f851a4401461057a578063f8bb388714610582578063f90e657014610595578063f94d4668146105a8578063fad8b32a146105c8578063fe8f2cb2146105db575b600080fd5b610248610243366004614b62565b6105ee565b005b61025d610258366004614937565b6106fc565b60405161026a9190615098565b60405180910390f35b61024861028136600461496b565b6107fa565b61025d610294366004614e7b565b6109be565b6102ac6102a73660046149ef565b610a8d565b60405161026a929190615059565b6102cd6102c8366004614e7b565b610ab4565b60405161026a91906150e5565b6102486102e8366004614bf2565b610b6c565b6102486102fb366004614e2b565b610c65565b610308610c9b565b60405161026a9190615b9f565b610328610323366004614aec565b610caa565b60405161026a919061518a565b61025d610343366004614e7b565b610f24565b610248610356366004614e2b565b610fe9565b610248610369366004614d0e565b61101c565b61024861037c366004614bbc565b6110f9565b61024861038f366004614c21565b61113c565b6103a76103a2366004614b86565b611585565b60405161026a919061519d565b6102486103c2366004614bbc565b61159a565b6102486103d5366004614b86565b6115f5565b6103086103e836600461489d565b6116fa565b6102486103fb366004614849565b61172e565b61041361040e3660046148af565b61177a565b60405161026a91906151a8565b610428611831565b60405161026a9190615021565b610248610443366004614849565b611840565b610248610456366004614849565b611879565b610248610469366004614bbc565b6118d0565b61041361047c3660046148df565b611920565b61024861048f366004614a07565b61194a565b610308611bb7565b6102486104aa366004614d0e565b611bcd565b610413611c6d565b6104136104c5366004614849565b611c73565b610413611c94565b6102486104e0366004614849565b611ca5565b6102486104f3366004614a07565b611d13565b610248610506366004614849565b611fcd565b610413612000565b6103a7610521366004614865565b61200c565b610248610534366004614e2b565b61205c565b610248610547366004614bf2565b612098565b61024861055a366004614849565b61216c565b6104136121d9565b6102ac6105753660046149ef565b6121e5565b610428612223565b610248610590366004614849565b612232565b6104136105a3366004614849565b612267565b6105bb6105b63660046149ef565b612282565b60405161026a919061511d565b6102486105d6366004614849565b6122c4565b6103286105e9366004614aa3565b61231b565b8160006105fa82610a8d565b5090506001600160a01b038116331461062e5760405162461bcd60e51b8152600401610625906154b8565b60405180910390fd5b60008481526010602090815260408083206001600160a01b038088168552925282205416908115159061066087610a8d565b9150508180156106765750610676878288612596565b6106925760405162461bcd60e51b815260040161062590615a22565b60008781526010602090815260408083206001600160a01b03808b168086529190935281842080546001600160a01b031916905590519186169290918a917ff06fdd8b5faff2b5f5288a691e9dbbe565e7f445d6fc266a6795c97089e8e7ba91a450505050505050565b606082821015801561073057506001600160a01b038416600090815260066020526040902061072a906125ff565b83830311155b61074c5760405162461bcd60e51b815260040161062590615822565b60608383036001600160401b038111801561076657600080fd5b50604051908082528060200260200182016040528015610790578160200160208202803683370190505b50905060005b81518110156107ef576001600160a01b03861660009081526006602052604090206107c39082870161260a565b8282815181106107cf57fe5b6001600160a01b0390921660209283029190910190910152600101610796565b5090505b9392505050565b8281146108195760405162461bcd60e51b8152600401610625906153a7565b6000610823611831565b90506001600160a01b03811661084b5760405162461bcd60e51b815260040161062590615abd565b60005b848110156109b65783838281811061086257fe5b905060200201356001600088888581811061087957fe5b905060200201602081019061088e9190614849565b6001600160a01b03166001600160a01b031681526020019081526020016000205410156108cd5760405162461bcd60e51b815260040161062590615457565b8383828181106108d957fe5b90506020020135600160008888858181106108f057fe5b90506020020160208101906109059190614849565b6001600160a01b03166001600160a01b0316815260200190815260200160002054036001600088888581811061093757fe5b905060200201602081019061094c9190614849565b6001600160a01b031681526020810191909152604001600020556109ae8285858481811061097657fe5b9050602002013588888581811061098957fe5b905060200201602081019061099e9190614849565b6001600160a01b03169190612616565b60010161084e565b505050505050565b60608282101580156109db57506109d560076125ff565b83830311155b6109f75760405162461bcd60e51b815260040161062590615822565b60608383036001600160401b0381118015610a1157600080fd5b50604051908082528060200260200182016040528015610a3b578160200160208202803683370190505b50905060005b8151811015610a8357610a57600782870161260a565b828281518110610a6357fe5b6001600160a01b0390921660209283029190910190910152600101610a41565b5090505b92915050565b6001600160a01b038116600061ffff60a084901c166001811115610aad57fe5b9050915091565b6060828210158015610ad15750610acb600e6125ff565b83830311155b610aed5760405162461bcd60e51b815260040161062590615822565b60608383036001600160401b0381118015610b0757600080fd5b50604051908082528060200260200182016040528015610b31578160200160208202803683370190505b50905060005b8151811015610a8357610b4d600e82870161260a565b828281518110610b5957fe5b6020908102919091010152600101610b37565b3360009081526005602090815260408083206001600160a01b03871684529091529020546001600160801b0380841691161015610bbb5760405162461bcd60e51b8152600401610625906152ed565b3360009081526005602090815260408083206001600160a01b0387168452909152902080546001600160801b03808216859003166001600160801b0319909116179055610c0b8382846001612671565b826001600160a01b0316816001600160a01b0316336001600160a01b03167fa3e61fe8acce189666029aee3e5bb4d10746d1558d76b8564f6765a16d0725b885604051610c589190615b9f565b60405180910390a4505050565b6011546001600160a01b03163314610c8f5760405162461bcd60e51b815260040161062590615766565b610c9881612737565b50565b6003546001600160801b031690565b606085610cb8600e826127ab565b610cd45760405162461bcd60e51b8152600401610625906152c4565b866000610ce082610a8d565b5090506001600160a01b0381163314610d0b5760405162461bcd60e51b8152600401610625906154b8565b868514610d2a5760405162461bcd60e51b8152600401610625906154e8565b6000610d358a610a8d565b91508890506001600160401b0381118015610d4f57600080fd5b50604051908082528060200260200182016040528015610d79578160200160208202803683370190505b50945060005b88811015610f16576000888883818110610d9557fe5b9050602002016020810190610daa9190614e2b565b6001600160801b03161115610eb7576000610df6610dc6611bb7565b8a8a85818110610dd257fe5b9050602002016020810190610de79190614e2b565b6001600160801b0316906123ef565b9050610e248c848d8d86818110610e0957fe5b9050602002016020810190610e1e9190614849565b846127b7565b610e76816001600160801b0316600160008e8e87818110610e4157fe5b9050602002016020810190610e569190614849565b6001600160a01b0316815260208101919091526040016000205490612934565b600160008d8d86818110610e8657fe5b9050602002016020810190610e9b9190614849565b6001600160a01b03168152602081019190915260400160002055505b610eea610ee58c848d8d86818110610ecb57fe5b9050602002016020810190610ee09190614849565b612959565b6129e2565b868281518110610ef657fe5b6001600160801b0390921660209283029190910190910152600101610d7f565b505050505095945050505050565b6060828210158015610f415750610f3b60096125ff565b83830311155b610f5d5760405162461bcd60e51b815260040161062590615822565b60608383036001600160401b0381118015610f7757600080fd5b50604051908082528060200260200182016040528015610fa1578160200160208202803683370190505b50905060005b8151811015610a8357610fbd600982870161260a565b828281518110610fc957fe5b6001600160a01b0390921660209283029190910190910152600101610fa7565b6011546001600160a01b031633146110135760405162461bcd60e51b815260040161062590615766565b610c9881612a08565b606061107461102a86612a79565b85858080602002602001604051908101604052809392919081815260200183836020028082843760009201919091525061106d9250505036869003860186614dc3565b6001612a7c565b90506001600160a01b038816156110ef57604051634515114760e01b81526001600160a01b038916906345151147906110bc906001908890889087908e908e906004016151b1565b600060405180830381600087803b1580156110d657600080fd5b505af11580156110ea573d6000803e3d6000fd5b505050505b5050505050505050565b8282611106828233612df0565b6111225760405162461bcd60e51b8152600401610625906156d8565b600061112d86610a8d565b9150506109b686828787612e1d565b6002600054141561115f5760405162461bcd60e51b815260040161062590615a57565b600260005582518451146111855760405162461bcd60e51b8152600401610625906153a7565b606084516001600160401b038111801561119e57600080fd5b506040519080825280602002602001820160405280156111c8578160200160208202803683370190505b509050606085516001600160401b03811180156111e457600080fd5b5060405190808252806020026020018201604052801561120e578160200160208202803683370190505b50905060005b865181101561138a5786818151811061122957fe5b60200260200101516001600160a01b03166370a08231306040518263ffffffff1660e01b815260040161125c9190615021565b60206040518083038186803b15801561127457600080fd5b505afa158015611288573d6000803e3d6000fd5b505050506040513d601f19601f820116820180604052508101906112ac9190614e63565b8282815181106112b857fe5b6020026020010181815250508581815181106112d057fe5b60200260200101518282815181106112e457fe5b6020026020010151101561130a5760405162461bcd60e51b81526004016106259061595a565b61132686828151811061131957fe5b6020026020010151612ec4565b83828151811061133257fe5b6020026020010181815250506113828887838151811061134e57fe5b602002602001015189848151811061136257fe5b60200260200101516001600160a01b03166126169092919063ffffffff16565b600101611214565b5060405163f04f270760e01b81526001600160a01b0388169063f04f2707906113bf908990899087908a908a90600401615130565b600060405180830381600087803b1580156113d957600080fd5b505af11580156113ed573d6000803e3d6000fd5b5050505060005b865181101561157657600087828151811061140b57fe5b60200260200101516001600160a01b03166370a08231306040518263ffffffff1660e01b815260040161143e9190615021565b60206040518083038186803b15801561145657600080fd5b505afa15801561146a573d6000803e3d6000fd5b505050506040513d601f19601f8201168201806040525081019061148e9190614e63565b905060006114b88484815181106114a157fe5b602002602001015183612edb90919063ffffffff16565b90508483815181106114c657fe5b60200260200101518110156114ed5760405162461bcd60e51b815260040161062590615457565b61153881600160008c878151811061150157fe5b60200260200101516001600160a01b03166001600160a01b031681526020019081526020016000205461293490919063ffffffff16565b600160008b868151811061154857fe5b6020908102919091018101516001600160a01b031682528101919091526040016000205550506001016113f4565b50506001600055505050505050565b6000611592848484612df0565b949350505050565b82826115a7828233612df0565b6115c35760405162461bcd60e51b8152600401610625906156d8565b60006115d0853386612f0c565b905060006115dd87610a8d565b9150506115ec87828885613060565b50505050505050565b82600061160182610a8d565b5090506001600160a01b038116331461162c5760405162461bcd60e51b8152600401610625906154b8565b60008581526010602090815260408083206001600160a01b038881168552925282205416159061165b87610a8d565b91505081806116705750611670878288612596565b61168c5760405162461bcd60e51b8152600401610625906153e9565b60008781526010602090815260408083206001600160a01b038a81168086529190935281842080546001600160a01b031916938a1693841790559051919290918a917f293bd9bcd163a008da869f64fc5e12158b1e8cd908aab3f05296624b6c08bf1991a450505050505050565b6001600160a01b0391821660009081526005602090815260408083209390941682529190915220546001600160801b031690565b6011546001600160a01b031633146117585760405162461bcd60e51b815260040161062590615766565b601180546001600160a01b0319166001600160a01b0392909216919091179055565b6000806117978484600181111561178d57fe5b61047c600e6125ff565b90506117a4600e826127ab565b156117c15760405162461bcd60e51b81526004016106259061564a565b6001600160a01b0384166117e75760405162461bcd60e51b81526004016106259061567a565b6117f2600e826130c9565b507f76c4350174727086805a3b026998a38a23dec4eaa173f2eb5449eb961e69c0438160405161182291906151a8565b60405180910390a19392505050565b6002546001600160a01b031690565b6011546001600160a01b0316331461186a5760405162461bcd60e51b815260040161062590615766565b6118756009826130d5565b5050565b33600090815260066020526040902061189290826130d5565b15610c98576040516001600160a01b0382169033907ff4caeb2d6ca8932a215a353d0703c326ec2d81fc68170f320eb2ab49e9df61f990600090a350565b82826118dd828233612df0565b6118f95760405162461bcd60e51b8152600401610625906156d8565b600061190486610a8d565b915050611913868287876130ea565b6109b68533866000612671565b60b01b63ffffffff60b01b1660a09190911b61ffff60a01b16176001600160a01b03919091161790565b86611956600e826127ab565b6119725760405162461bcd60e51b8152600401610625906152c4565b87600061197e82610a8d565b5090506001600160a01b03811633146119a95760405162461bcd60e51b8152600401610625906154b8565b8685146119c85760405162461bcd60e51b815260040161062590615596565b60006119d38b610a8d565b91505060005b888110156110ea5760008888838181106119ef57fe5b9050602002016020810190611a049190614e2b565b6001600160801b03161115611baf57611a5f8c838c8c85818110611a2457fe5b9050602002016020810190611a399190614849565b8b8b86818110611a4557fe5b9050602002016020810190611a5a9190614e2b565b6127b7565b8515611b6257611aec888883818110611a7457fe5b9050602002016020810190611a899190614e2b565b6001600160a01b038d166000908152600560205260408120908d8d86818110611aae57fe5b9050602002016020810190611ac39190614849565b6001600160a01b031681526020810191909152604001600020546001600160801b031690613153565b6001600160a01b038c166000908152600560205260408120908c8c85818110611b1157fe5b9050602002016020810190611b269190614849565b6001600160a01b03168152602081019190915260400160002080546001600160801b0319166001600160801b0392909216919091179055611baf565b611baf8a8a83818110611b7157fe5b9050602002016020810190611b869190614849565b8c8a8a85818110611b9357fe5b9050602002016020810190611ba89190614e2b565b6001612671565b6001016119d9565b600354600160801b90046001600160801b031690565b6060611c25611bdb86612a79565b858580806020026020016040519081016040528093929190818152602001838360200280828437600092019190915250611c1e9250505036869003860186614dc3565b6000612a7c565b90506001600160a01b038816156110ef57604051634515114760e01b81526001600160a01b038916906345151147906110bc906000908890889087908e908e906004016151b1565b60045490565b6001600160a01b0381166000908152600660205260408120610a87906125ff565b6000611ca060096125ff565b905090565b611cb0600933613184565b611ccc5760405162461bcd60e51b8152600401610625906159db565b611cd7600782613199565b15610c98576040516001600160a01b038216907fac2ca833204969fb50b2de1888412c13c04d943ed28923683664948ddbf308a590600090a250565b86611d1f600e826127ab565b611d3b5760405162461bcd60e51b8152600401610625906152c4565b876000611d4782610a8d565b5090506001600160a01b0381163314611d725760405162461bcd60e51b8152600401610625906154b8565b868514611d915760405162461bcd60e51b815260040161062590615596565b611d9b893361200c565b611db75760405162461bcd60e51b8152600401610625906156a8565b6000611dc28b610a8d565b91505060005b888110156110ea576000888883818110611dde57fe5b9050602002016020810190611df39190614e2b565b6001600160801b03161115611fc5576000888883818110611e1057fe5b9050602002016020810190611e259190614e2b565b90508615611f16576001600160a01b038c166000908152600560205260408120611e9890828e8e87818110611e5657fe5b9050602002016020810190611e6b9190614849565b6001600160a01b031681526020810191909152604001600020546001600160801b039081169084166131ae565b6001600160a01b038e1660009081526005602052604081209192508291908e8e87818110611ec257fe5b9050602002016020810190611ed79190614849565b6001600160a01b03168152602081019190915260400160002080546001600160801b031981166001600160801b03918216939093031691909117905590035b6000611f438c8c85818110611f2757fe5b9050602002016020810190611f3c9190614849565b8e84612f0c565b9050816001600160801b0316816001600160801b031614611f765760405162461bcd60e51b815260040161062590615562565b611fc28e858e8e87818110611f8757fe5b9050602002016020810190611f9c9190614849565b8d8d88818110611fa857fe5b9050602002016020810190611fbd9190614e2b565b6131c4565b50505b600101611dc8565b6011546001600160a01b03163314611ff75760405162461bcd60e51b815260040161062590615766565b610c988161328d565b6000611ca0600e6125ff565b6000816001600160a01b0316836001600160a01b031614806120345750612034600783613184565b806107f357506001600160a01b03831660009081526006602052604090206107f39083613184565b6011546001600160a01b031633146120865760405162461bcd60e51b815260040161062590615766565b610c98816001600160801b03166132af565b60006120a5843385612f0c565b6001600160a01b038084166000908152600560209081526040808320938916835292905220549091506120e1906001600160801b031682613153565b6001600160a01b038381166000818152600560209081526040808320948a16808452949091529081902080546001600160801b0319166001600160801b039590951694909417909355915190919033907f1afb0bb546173e6a0cfd9a89e8194cc30f3ef142e522d0211bd643a72f2262879061215e908690615b9f565b60405180910390a450505050565b612177600933613184565b6121935760405162461bcd60e51b8152600401610625906159db565b61219e6007826130d5565b15610c98576040516001600160a01b038216907e3a28a533346977ad012a278cc3a0fd93d207d74e458ba699c9d4dc285dde7890600090a250565b6000611ca060076125ff565b600080826121f4600e826127ab565b6122105760405162461bcd60e51b8152600401610625906152c4565b61221984610a8d565b9250925050915091565b6011546001600160a01b031690565b6011546001600160a01b0316331461225c5760405162461bcd60e51b815260040161062590615766565b611875600982613199565b6001600160a01b031660009081526001602052604090205490565b606081612290600e826127ab565b6122ac5760405162461bcd60e51b8152600401610625906152c4565b60006122b784610a8d565b91505061159284826132f4565b3360009081526006602052604090206122dd9082613199565b15610c98576040516001600160a01b0382169033907f50546e66e5f44d728365dc3908c63bc5cfeeab470722c1677e3073a6ac294aa190600090a350565b606083612329600e826127ab565b6123455760405162461bcd60e51b8152600401610625906152c4565b600061235086610a8d565b915060609050846001600160401b038111801561236c57600080fd5b50604051908082528060200260200182016040528015612396578160200160208202803683370190505b50905060005b858110156123e4576123b8610ee589858a8a86818110610ecb57fe5b8282815181106123c457fe5b6001600160801b039092166020928302919091019091015260010161239c565b509695505050505050565b60008282026001600160801b03841615806124365750826001600160801b0316846001600160801b0316826001600160801b03168161242a57fe5b046001600160801b0316145b6124525760405162461bcd60e51b81526004016106259061573c565b6706f05b59d3b2000081016001600160801b0380831690821610156124895760405162461bcd60e51b81526004016106259061573c565b6000670de0b6b3a76400006001600160801b0383165b049695505050505050565b60006001600160801b0382166124d25760405162461bcd60e51b8152600401610625906157c6565b670de0b6b3a764000083026001600160801b03841615806125185750670de0b6b3a76400006001600160801b038581169083168161250c57fe5b046001600160801b0316145b6125345760405162461bcd60e51b8152600401610625906155de565b600060026001600160801b0385160482019050816001600160801b0316816001600160801b031610156125795760405162461bcd60e51b8152600401610625906155de565b6000846001600160801b0316826001600160801b03168161249f57fe5b6000808360018111156125a557fe5b14156125de576000848152600c602090815260408083206001600160a01b03861684529091529020546125d790613468565b90506107f3565b6000848152600d602052604090206125d7906125fa9084613484565b613468565b6000610a8782613499565b60006107f3838361349d565b61266c8363a9059cbb60e01b848460405160240161263592919061507f565b60408051601f198184030181529190526020810180516001600160e01b03166001600160e01b0319909316929092179091526134e2565b505050565b6001600160801b03821661268457612731565b801561271457600061269583613571565b6001600160a01b0386166000908152600160205260409020549091506126c4906001600160801b038316612934565b6001600160a01b03861660009081526001602052604090205561270e846126f46001600160801b0386168461358d565b6001600160a01b03881691906001600160801b0316612616565b50612731565b6127316001600160a01b038516846001600160801b038516612616565b50505050565b7f00000000000000000000000000000000000000000000000000000000000000006001600160801b0316816001600160801b031611156127895760405162461bcd60e51b815260040161062590615797565b600380546001600160801b0319166001600160801b0392909216919091179055565b60006107f3838361359c565b60008360018111156127c557fe5b141561288b576000848152600b602052604090206127e39083613184565b6127ff5760405162461bcd60e51b815260040161062590615b08565b6000848152600c602090815260408083206001600160a01b03861684529091528120549061282d82846135b4565b6000878152600c602090815260408083206001600160a01b03891684529091529020819055905061285d816129e2565b6001600160801b0316612884576000868152600b602052604090206128829085613199565b505b5050612731565b6000848152600d602052604090206128a390836135f5565b6128bf5760405162461bcd60e51b815260040161062590615b08565b6000848152600d602052604081206128d79084613484565b905060006128e582846135b4565b90506128f0816129e2565b6001600160801b031661291b576000868152600d60205260409020612915908561360a565b506109b6565b6000868152600d602052604090206115ec90858361361f565b6000828201838110156107f35760405162461bcd60e51b8152600401610625906158fe565b60008083600181111561296857fe5b14156129c1576000848152600c602090815260408083206001600160a01b03861684529091528120549061299b826129e2565b6001600160801b0316116125d75760405162461bcd60e51b815260040161062590615b08565b6000848152600d602052604081206129d99084613484565b91506107f39050565b6000610a876129f083613635565b6129f98461363b565b6001600160801b031690613153565b7f00000000000000000000000000000000000000000000000000000000000000006001600160801b0316816001600160801b03161115612a5a5760405162461bcd60e51b815260040161062590615537565b600380546001600160801b03928316600160801b029216919091179055565b90565b606060026000541415612aa15760405162461bcd60e51b815260040161062590615a57565b60026000558251612ab2903361200c565b612ace5760405162461bcd60e51b8152600401610625906156a8565b606084516001600160401b0381118015612ae757600080fd5b50604051908082528060200260200182016040528015612b11578160200160208202803683370190505b509050612b1c614583565b612b2461459a565b60005b8851811015612bd757888181518110612b3c57fe5b60200260200101519150600080612b5f8a858b600001518c60200151898d613647565b91509150816001600160801b03168685602001516001600160801b031681518110612b8657fe5b602002602001018181510191508181525050806001600160801b03168685604001516001600160801b031681518110612bbb57fe5b6020908102919091010180519190910390525050600101612b27565b5060005b8751811015612ddf576000888281518110612bf257fe5b602002602001015190506000858381518110612c0a57fe5b60200260200101511315612d13576000858381518110612c2657fe5b60200260200101519050886040015115612cc85788516001600160a01b039081166000908152600560209081526040808320938616835292905290812054612c7b906001600160801b039081169084166131ae565b8a516001600160a01b03908116600090815260056020908152604080832093881683529290522080546001600160801b03808216849003166001600160801b031990911617905590910390505b6000612cd9838b6000015184612f0c565b9050816001600160801b0316816001600160801b031614612d0c5760405162461bcd60e51b815260040161062590615562565b5050612dd6565b6000858381518110612d2157fe5b60200260200101516000039050886060015115612dc3576020808a01516001600160a01b039081166000908152600583526040808220928616825291909252902054612d76906001600160801b031682613153565b60208a8101516001600160a01b039081166000908152600583526040808220928716825291909252902080546001600160801b0319166001600160801b0392909216919091179055612dd4565b612dd4828a60200151836000612671565b505b50600101612bdb565b505060016000555095945050505050565b60009283526010602090815260408085206001600160a01b03948516865290915290922054811691161490565b6000836001811115612e2b57fe5b1415612e87576000848152600c602090815260408083206001600160a01b0386168452909152902054612e5e818361380a565b6000868152600c602090815260408083206001600160a01b038816845290915290205550612731565b6000848152600d60205260408120612e9f9084613484565b90506109b683612eaf838561380a565b6000888152600d60205260409020919061361f565b6000610a876004548361382290919063ffffffff16565b6000806000612eea8585613894565b915091508015610a835760405162461bcd60e51b8152600401610625906158d3565b60006001600160801b038216612f24575060006107f3565b6040516370a0823160e01b81526000906001600160a01b038616906370a0823190612f53903090600401615021565b60206040518083038186803b158015612f6b57600080fd5b505afa158015612f7f573d6000803e3d6000fd5b505050506040513d601f19601f82011682018060405250810190612fa39190614e63565b9050612fc36001600160a01b03861685306001600160801b0387166138b9565b6040516370a0823160e01b81526000906001600160a01b038716906370a0823190612ff2903090600401615021565b60206040518083038186803b15801561300a57600080fd5b505afa15801561301e573d6000803e3d6000fd5b505050506040513d601f19601f820116820180604052508101906130429190614e63565b90506130566130518284612edb565b6138da565b9695505050505050565b600083600181111561306e57fe5b14156130a1576000848152600c602090815260408083206001600160a01b0386168452909152902054612e5e8183613903565b6000848152600d602052604081206130b99084613484565b90506109b683612eaf8385613903565b60006107f38383613924565b60006107f3836001600160a01b038416613924565b60008360018111156130f857fe5b141561312b576000848152600c602090815260408083206001600160a01b0386168452909152902054612e5e818361396e565b6000848152600d602052604081206131439084613484565b90506109b683612eaf838561396e565b60008282016001600160801b0380851690821610156107f35760405162461bcd60e51b8152600401610625906158fe565b60006107f3836001600160a01b03841661359c565b60006107f3836001600160a01b03841661398f565b60008183106131bd57816107f3565b5090919050565b60008360018111156131d257fe5b1415613239576000848152600c602090815260408083206001600160a01b0386168452909152902054613204816129e2565b6001600160801b031661322f576000858152600b6020526040902061322990846130d5565b61322f57fe5b612e5e8183613a55565b6000848152600d6020526040812061325190846135f5565b61326557613260600080613a65565b61327d565b6000858152600d6020526040902061327d9084613484565b90506109b683612eaf8385613a55565b600280546001600160a01b0319166001600160a01b0392909216919091179055565b7f00000000000000000000000000000000000000000000000000000000000000008111156132ef5760405162461bcd60e51b815260040161062590615252565b600455565b606080600083600181111561330557fe5b14156133ba576000848152600b60205260409020613322906125ff565b6001600160401b038111801561333757600080fd5b50604051908082528060200260200182016040528015613361578160200160208202803683370190505b50905060005b81518110156133b4576000858152600b60205260409020613388908261260a565b82828151811061339457fe5b6001600160a01b0390921660209283029190910190910152600101613367565b506107f3565b6000848152600d602052604090206133d1906125ff565b6001600160401b03811180156133e657600080fd5b50604051908082528060200260200182016040528015613410578160200160208202803683370190505b50905060005b8151811015610a83576000858152600d602052604081206134379083613ab8565b5090508083838151811061344757fe5b6001600160a01b039092166020928302919091019091015250600101613416565b60008061347483613635565b6001600160801b03161192915050565b60006107f3836001600160a01b038416613ad4565b5490565b815460009082106134c05760405162461bcd60e51b815260040161062590615282565b8260000182815481106134cf57fe5b9060005260206000200154905092915050565b6060613537826040518060400160405280602081526020017f5361666545524332303a206c6f772d6c6576656c2063616c6c206661696c6564815250856001600160a01b0316613b049092919063ffffffff16565b80519091501561266c578080602001905181019061355591906149d3565b61266c5760405162461bcd60e51b815260040161062590615991565b600354600090610a87906001600160801b0384811691166123ef565b6000806000612eea8585613b13565b60009081526001919091016020526040902054151590565b6000806135d3836135c48661363b565b6001600160801b03169061358d565b905060006135e085613635565b90506135ec8282613a65565b95945050505050565b60006107f3836001600160a01b038416613b3b565b60006107f3836001600160a01b038416613b53565b6000611592846001600160a01b03851684613bcc565b60801c90565b6001600160801b031690565b60008060008888602001516001600160801b03168151811061366557fe5b6020026020010151905060008989604001516001600160801b03168151811061368a57fe5b60200260200101519050806001600160a01b0316826001600160a01b031614156136c65760405162461bcd60e51b81526004016106259061570f565b60608901516001600160801b0381166137465786516001600160a01b03166137005760405162461bcd60e51b815260040161062590615420565b61370b868484613c4f565b6001600160a01b031687600001516001600160a01b03161461373f5760405162461bcd60e51b8152600401610625906157ec565b5060208601515b61374e6145ca565b6040518060e00160405280856001600160a01b03168152602001846001600160a01b03168152602001836001600160801b031681526020018c6000015181526020018b6001600160a01b031681526020018a6001600160a01b031681526020018c60800151815250905060006137c48289613c71565b90506137d1888686613ced565b6001600160a01b031689526001600160801b03811660208a01526137f6888483613d0e565b909e909d509b505050505050505050505050565b6000806138168461363b565b90506115928184613a65565b600082820283158061383c57508284828161383957fe5b04145b6138585760405162461bcd60e51b81526004016106259061573c565b6706f05b59d3b200008101818110156138835760405162461bcd60e51b81526004016106259061573c565b6000670de0b6b3a76400008261249f565b6000808284106138aa57505080820360006138b2565b505081810360015b9250929050565b612731846323b872dd60e01b85858560405160240161263593929190615035565b6000600160801b82106138ff5760405162461bcd60e51b815260040161062590615333565b5090565b600080613913836129f98661363b565b905060006135e0846135c487613635565b6000613930838361359c565b61396657508154600181810184556000848152602080822090930184905584548482528286019093526040902091909155610a87565b506000610a87565b60008061397e836135c48661363b565b905060006135e0846129f987613635565b60008181526001830160205260408120548015613a4b57835460001980830191908101906000908790839081106139c257fe5b90600052602060002001549050808760000184815481106139df57fe5b600091825260208083209091019290925582815260018981019092526040902090840190558654879080613a0f57fe5b60019003818190600052602060002001600090559055866001016000878152602001908152602001600020600090556001945050505050610a87565b6000915050610a87565b6000806135d3836129f98661363b565b60008282016001600160801b038085169082161015613a965760405162461bcd60e51b815260040161062590615847565b50506001600160801b0319608082901b166001600160801b0383161792915050565b6000808080613ac78686613d3c565b9097909650945050505050565b60006107f383836040518060400160405280601e8152602001600080516020615c67833981519152815250613d7e565b60606115928484600085613dcf565b600080826001600160801b0316846001600160801b0316106138aa57505080820360006138b2565b60009081526002919091016020526040902054151590565b60008181526002830160205260408120548015613a4b57835460001990810160008181526001808801602090815260408084209587018452808420865481558684018054918501919091558654855260028b01909252808420969096559382905592819055908655848152918220919091559050610a87565b600082815260028401602052604081205480613c2f5750508254604080518082018252848152602080820185815260008581526001808a0184528582209451855591519382019390935593840180885586835260028801909152919020556107f3565b6000190160009081526001808601602052604082200183905590506107f3565b600080846001811115613c5e57fe5b14613c695781611592565b509092915050565b6000806000613c838560600151610a8d565b90925090506000816001811115613c9657fe5b1415613cae57613ca7858386613e93565b9250613ce5565b6001816001811115613cbc57fe5b1415613ccd57613ca7858386614172565b60405162461bcd60e51b815260040161062590615a8e565b505092915050565b600080846001811115613cfc57fe5b14613d075782611592565b5092915050565b60008080856001811115613d1e57fe5b1415613d2e575082905081613d34565b50819050825b935093915050565b60008082846000015411613d625760405162461bcd60e51b815260040161062590615608565b5050600090815260019182016020526040902080549101549091565b60008281526002840160205260408120548281613dae5760405162461bcd60e51b8152600401610625919061523f565b50600019016000908152600194850160205260409020909301549392505050565b6060613dda856144af565b613df65760405162461bcd60e51b815260040161062590615877565b60006060866001600160a01b03168587604051613e139190615005565b60006040518083038185875af1925050503d8060008114613e50576040519150601f19603f3d011682016040523d82523d6000602084013e613e55565b606091505b50915091508115613e695791506115929050565b805115613e795780518082602001fd5b8360405162461bcd60e51b8152600401610625919061523f565b60608301516000908152600c6020908152604080832086516001600160a01b0316845290915281205481613ec6826129e2565b6001600160801b031611613eec5760405162461bcd60e51b81526004016106259061548b565b60608501516000908152600c60209081526040808320828901516001600160a01b0316845290915281205490613f21826129e2565b6001600160801b031611613f475760405162461bcd60e51b81526004016106259061537a565b6000846001811115613f5557fe5b1415614026576000856001600160a01b031663f9ddfe3e613f75896144e8565b613f7e866129e2565b613f87866129e2565b6040518463ffffffff1660e01b8152600401613fa593929190615b6c565b602060405180830381600087803b158015613fbf57600080fd5b505af1158015613fd3573d6000803e3d6000fd5b505050506040513d601f19601f82011682018060405250810190613ff79190614e47565b9050614010876040015184613a5590919063ffffffff16565b925061401c82826135b4565b90935090506140ed565b6000856001600160a01b0316637ee65e53614040896144e8565b614049866129e2565b614052866129e2565b6040518463ffffffff1660e01b815260040161407093929190615b6c565b602060405180830381600087803b15801561408a57600080fd5b505af115801561409e573d6000803e3d6000fd5b505050506040513d601f19601f820116820180604052508101906140c29190614e47565b90506140ce8382613a55565b92506140e78760400151836135b490919063ffffffff16565b90935090505b60006140f8826129e2565b6001600160801b03161161411e5760405162461bcd60e51b815260040161062590615928565b6060860180516000908152600c602081815260408084208b516001600160a01b0390811686529083528185209790975593518352908152828220988101519094168152969092529420939093555090919050565b825160608401516000908152600d602052604081209091829182918291614198916144f0565b60208089015160608a01516000908152600d9092526040822092935090916141bf916144f0565b905060606141e2600d60008b6060015181526020019081526020016000206125ff565b6001600160401b03811180156141f757600080fd5b50604051908082528060200260200182016040528015614221578160200160208202803683370190505b50905060005b81518110156142a95760608a01516000908152600d6020526040812061424d9083614505565b9050614258816129e2565b83838151811061426457fe5b60200260200101906001600160801b031690816001600160801b03168152505084821415614294578096506142a0565b838214156142a0578095505b50600101614227565b5060008760018111156142b857fe5b141561437c576000886001600160a01b031663100f37e76142d88c6144e8565b8487876040518563ffffffff1660e01b81526004016142fa9493929190615b33565b602060405180830381600087803b15801561431457600080fd5b505af1158015614328573d6000803e3d6000fd5b505050506040513d601f19601f8201168201806040525081019061434c9190614e47565b90508096506143688a6040015187613a5590919063ffffffff16565b955061437485826135b4565b945050614436565b6000886001600160a01b031663befd70e06143968c6144e8565b8487876040518563ffffffff1660e01b81526004016143b89493929190615b33565b602060405180830381600087803b1580156143d257600080fd5b505af11580156143e6573d6000803e3d6000fd5b505050506040513d601f19601f8201168201806040525081019061440a9190614e47565b96508690506144198682613a55565b95506144328a60400151866135b490919063ffffffff16565b9450505b6000614441856129e2565b6001600160801b0316116144675760405162461bcd60e51b815260040161062590615928565b60608901516000908152600d60205260409020614485908487614511565b60608901516000908152600d602052604090206144a3908386614511565b50505050509392505050565b6000813f7fc5d2460186f7233c927e7db2dcc703c0e500b653ca82273b7bfad8045d85a470818114801590611592575050151592915050565b6138ff6145ca565b60006107f3836001600160a01b03841661451c565b60006107f38383614555565b61266c83838361456b565b60008181526002830160205260408120548061454a5760405162461bcd60e51b8152600401610625906158ae565b600019019392505050565b6000908152600191820160205260409020015490565b60009182526001928301602052604090912090910155565b604080518082019091526000808252602082015290565b6040805160a081018252600080825260208201819052918101829052606080820192909252608081019190915290565b6040805160e08101825260008082526020820181905291810182905260608082018390526080820183905260a082019290925260c081019190915290565b60008083601f840112614619578182fd5b5081356001600160401b0381111561462f578182fd5b60208301915083602080830285010111156138b257600080fd5b6000601f838184011261465a578182fd5b823561466d61466882615bd9565b615bb3565b818152925060208084019085810160005b8481101561477e578135880160a0601f198181848e030112156146a057600080fd5b6146a982615bb3565b8684013581526040808501356146be81615c51565b828901526060858101356146d181615c51565b838301526080868101356146e481615c51565b9184019190915293850135936001600160401b03908186111561470657600080fd5b85870196508f603f88011261471a57600080fd5b8987013595508186111561472d57600080fd5b61473c8a868f89011601615bb3565b94508585528f8387890101111561475257600080fd5b858388018b87013760009585018a0195909552505091820152855250928201929082019060010161467e565b50505050505092915050565b600082601f83011261479a578081fd5b81356147a861466882615bd9565b8181529150602080830190848101818402860182018710156147c957600080fd5b60005b848110156147e8578135845292820192908201906001016147cc565b505050505092915050565b60008083601f840112614804578182fd5b5081356001600160401b0381111561481a578182fd5b6020830191508360208285010111156138b257600080fd5b600060808284031215614843578081fd5b50919050565b60006020828403121561485a578081fd5b81356107f381615c2e565b60008060408385031215614877578081fd5b823561488281615c2e565b9150602083013561489281615c2e565b809150509250929050565b60008060408385031215614877578182fd5b600080604083850312156148c1578182fd5b82356148cc81615c2e565b9150602083013560028110614892578182fd5b6000806000606084860312156148f3578081fd5b83356148fe81615c2e565b9250602084013561ffff81168114614914578182fd5b9150604084013563ffffffff8116811461492c578182fd5b809150509250925092565b60008060006060848603121561494b578081fd5b833561495681615c2e565b95602085013595506040909401359392505050565b60008060008060408587031215614980578182fd5b84356001600160401b0380821115614996578384fd5b6149a288838901614608565b909650945060208701359150808211156149ba578384fd5b506149c787828801614608565b95989497509550505050565b6000602082840312156149e4578081fd5b81516107f381615c43565b600060208284031215614a00578081fd5b5035919050565b600080600080600080600060a0888a031215614a21578485fd5b873596506020880135614a3381615c2e565b955060408801356001600160401b0380821115614a4e578687fd5b614a5a8b838c01614608565b909750955060608a0135915080821115614a72578485fd5b50614a7f8a828b01614608565b9094509250506080880135614a9381615c43565b8091505092959891949750929550565b600080600060408486031215614ab7578081fd5b8335925060208401356001600160401b03811115614ad3578182fd5b614adf86828701614608565b9497909650939450505050565b600080600080600060608688031215614b03578283fd5b8535945060208601356001600160401b0380821115614b20578485fd5b614b2c89838a01614608565b90965094506040880135915080821115614b44578283fd5b50614b5188828901614608565b969995985093965092949392505050565b60008060408385031215614b74578182fd5b82359150602083013561489281615c2e565b600080600060608486031215614b9a578081fd5b833592506020840135614bac81615c2e565b9150604084013561492c81615c2e565b600080600060608486031215614bd0578081fd5b833592506020840135614be281615c2e565b9150604084013561492c81615c51565b600080600060608486031215614c06578081fd5b8335614c1181615c2e565b92506020840135614bac81615c51565b600080600080600060808688031215614c38578283fd5b8535614c4381615c2e565b94506020868101356001600160401b0380821115614c5f578586fd5b818901915089601f830112614c72578586fd5b8135614c8061466882615bd9565b81815284810190848601868402860187018e1015614c9c57898afd5b8995505b83861015614cc7578035614cb381615c2e565b835260019590950194918601918601614ca0565b50985050506040890135925080831115614cdf578586fd5b614ceb8a848b0161478a565b95506060890135925080831115614d00578384fd5b5050614b51888289016147f3565b6000806000806000806000610100888a031215614d29578081fd5b8735614d3481615c2e565b965060208801356001600160401b0380821115614d4f578283fd5b614d5b8b838c016147f3565b909850965060408a0135915080821115614d73578283fd5b614d7f8b838c01614649565b955060608a0135915080821115614d94578283fd5b50614da18a828b01614608565b9094509250614db590508960808a01614832565b905092959891949750929550565b600060808284031215614dd4578081fd5b614dde6080615bb3565b8235614de981615c2e565b81526020830135614df981615c2e565b60208201526040830135614e0c81615c43565b60408201526060830135614e1f81615c43565b60608201529392505050565b600060208284031215614e3c578081fd5b81356107f381615c51565b600060208284031215614e58578081fd5b81516107f381615c51565b600060208284031215614e74578081fd5b5051919050565b60008060408385031215614e8d578182fd5b50508035926020909101359150565b6000815180845260208085019450808401835b83811015614ed45781516001600160a01b031687529582019590820190600101614eaf565b509495945050505050565b6000815180845260208085019450808401835b83811015614ed457815187529582019590820190600101614ef2565b6000815180845260208085019450808401835b83811015614ed45781516001600160801b031687529582019590820190600101614f21565b60008284528282602086013780602084860101526020601f19601f85011685010190509392505050565b60008151808452614f88816020860160208601615bf8565b601f01601f19169290920160200192915050565b600060018060a01b0380835116845280602084015116602085015260018060801b036040840151166040850152606083015160608501528060808401511660808501528060a08401511660a08501525060c082015160e060c085015261159260e0850182614f70565b60008251615017818460208701615bf8565b9190910192915050565b6001600160a01b0391909116815260200190565b6001600160a01b039384168152919092166020820152604081019190915260600190565b6001600160a01b03831681526040810161507283615c24565b8260208301529392505050565b6001600160a01b03929092168252602082015260400190565b6020808252825182820181905260009190848201906040850190845b818110156150d95783516001600160a01b0316835292840192918401916001016150b4565b50909695505050505050565b6020808252825182820181905260009190848201906040850190845b818110156150d957835183529284019291840191600101615101565b6000602082526107f36020830184614e9c565b6000608082526151436080830188614e9c565b82810360208401526151558188614edf565b905082810360408401526151698187614edf565b9050828103606084015261517e818587614f46565b98975050505050505050565b6000602082526107f36020830184614f0e565b901515815260200190565b90815260200190565b6000608082016151c089615c24565b88835260206080818501528188835260a085019050899250835b898110156152085783356151ed81615c2e565b6001600160a01b0316825292820192908201906001016151da565b50848103604086015261521b8189614edf565b925050508281036060840152615232818587614f46565b9998505050505050505050565b6000602082526107f36020830184614f70565b60208082526016908201527508cd8c2e6d098dec2dc40cccaca40e8dede40d0d2ced60531b604082015260600190565b60208082526022908201527f456e756d657261626c655365743a20696e646578206f7574206f6620626f756e604082015261647360f01b606082015260800190565b6020808252600f908201526e125b995e1a5cdd195b9d081c1bdbdb608a1b604082015260600190565b60208082526026908201527f5661756c743a20776974686472617720616d6f756e7420657863656564732062604082015265616c616e636560d01b606082015260800190565b60208082526027908201527f53616665436173743a2076616c756520646f65736e27742066697420696e20316040820152663238206269747360c81b606082015260800190565b602080825260139082015272151bdad95b8810881b9bdd081a5b881c1bdbdb606a1b604082015260600190565b60208082526022908201527f546f6b656e7320616e6420616d6f756e7473206c656e677468206d69736d61746040820152610c6d60f31b606082015260800190565b6020808252601d908201527f43414e4e4f545f5345545f494e564553544d454e545f4d414e41474552000000604082015260600190565b6020808252601f908201527f556e6b6e6f776e20616d6f756e7420696e206f6e206669727374207377617000604082015260600190565b6020808252601a9082015279496e73756666696369656e742070726f746f636f6c206665657360301b604082015260600190565b602080825260139082015272151bdad95b8810481b9bdd081a5b881c1bdbdb606a1b604082015260600190565b60208082526016908201527510d85b1b195c881a5cc81b9bdd081d1a19481c1bdbdb60521b604082015260600190565b6020808252602f908201527f546f6b656e7320616e6420746f74616c20636f6c6c656374656420666565732060408201526e0d8cadccee8d040dad2e6dac2e8c6d608b1b606082015260800190565b6020808252601190820152700a6eec2e040cccaca40e8dede40d0d2ced607b1b604082015260600190565b6020808252601a9082015279139bdd08195b9bdd59da081d1bdad95b9cc81c9958d95a5d995960321b604082015260600190565b60208082526028908201527f546f6b656e7320616e6420746f74616c20616d6f756e7473206c656e677468206040820152670dad2e6dac2e8c6d60c31b606082015260800190565b60208082526010908201526f11549497d1125597d25395115493905360821b604082015260600190565b60208082526022908201527f456e756d657261626c654d61703a20696e646578206f7574206f6620626f756e604082015261647360f01b606082015260800190565b602080825260169082015275506f6f6c20494420616c72656164792065786973747360501b604082015260600190565b60208082526014908201527314dd1c985d1959de481b5d5cdd081899481cd95d60621b604082015260600190565b60208082526016908201527521b0b63632b91034b9903737ba1037b832b930ba37b960511b604082015260600190565b6020808252601d908201527f53454e4445525f4e4f545f494e564553544d454e545f4d414e41474552000000604082015260600190565b60208082526013908201527229bbb0b8103337b91039b0b6b2903a37b5b2b760691b604082015260600190565b60208082526010908201526f4552525f4d554c5f4f564552464c4f5760801b604082015260600190565b60208082526017908201527621b0b63632b91034b9903737ba103a34329030b236b4b760491b604082015260600190565b6020808252601590820152740aed2e8d0c8e4c2ee40cccaca40e8dede40d0d2ced605b1b604082015260600190565b6020808252600c908201526b4552525f4449565f5a45524f60a01b604082015260600190565b6020808252601c908201527b04d6973636f6e7374727563746564206d756c7469686f7020737761760241b604082015260600190565b6020808252600b908201526a42616420696e646963657360a81b604082015260600190565b60208082526016908201527542414c414e43455f544f54414c5f4f564552464c4f5760501b604082015260600190565b6020808252601d908201527f416464726573733a2063616c6c20746f206e6f6e2d636f6e7472616374000000604082015260600190565b6020808252601e90820152600080516020615c67833981519152604082015260600190565b6020808252601190820152704552525f5355425f554e444552464c4f5760781b604082015260600190565b60208082526010908201526f4552525f4144445f4f564552464c4f5760801b604082015260600190565b602080825260189082015277119d5b1b1e48191c985a5b9a5b99c81d1bdad95b881bdd5d60421b604082015260600190565b6020808252601e908201527f496e73756666696369656e742062616c616e636520746f20626f72726f770000604082015260600190565b6020808252602a908201527f5361666545524332303a204552433230206f7065726174696f6e20646964206e6040820152691bdd081cdd58d8d9595960b21b606082015260800190565b60208082526027908201527f43616c6c6572206973206e6f742074727573746564206f70657261746f72207260408201526632b837b93a32b960c91b606082015260800190565b6020808252818101527f43414e4e4f545f5245564f4b455f494e564553544d454e545f4d414e41474552604082015260600190565b6020808252601f908201527f5265656e7472616e637947756172643a207265656e7472616e742063616c6c00604082015260600190565b602080825260159082015274556e6b6e6f776e207374726174656779207479706560581b604082015260600190565b6020808252602b908201527f50726f746f636f6c2066656520636f6c6c6563746f7220726563697069656e7460408201526a081a5cc81b9bdd081cd95d60aa1b606082015260800190565b602080825260119082015270151bdad95b881b9bdd081a5b881c1bdbdb607a1b604082015260600190565b600060808252615b466080830187614f9c565b8281036020840152615b588187614f0e565b604084019590955250506060015292915050565b600060608252615b7f6060830186614f9c565b6001600160801b0394851660208401529290931660409091015292915050565b6001600160801b0391909116815260200190565b6040518181016001600160401b0381118282101715615bd157600080fd5b604052919050565b60006001600160401b03821115615bee578081fd5b5060209081020190565b60005b83811015615c13578181015183820152602001615bfb565b838111156127315750506000910152565b60028110610c9857fe5b6001600160a01b0381168114610c9857600080fd5b8015158114610c9857600080fd5b6001600160801b0381168114610c9857600080fdfe456e756d657261626c654d61703a206e6f6e6578697374656e74206b65790000a26469706673582212209ef9e54947c23989ef8d3f68163ef9014487b39249b0573b18bc405c8d8ceee164736f6c63430007010033",
  "devdoc": {
    "kind": "dev",
    "methods": {
      "addLiquidity(bytes32,address,address[],uint128[],bool)": {
        "details": "Adds liquidity into a Pool. Can only be called by its controller. For each token, the Pool's balance will be increased by `totalAmounts[i]`. This is achieved by first transferring `amountsToTransfer[i]` tokens, and then withdrawing any amount remaining from User Balance. In both cases, the tokens will come from `from`. `from` must have granted allowance to the Vault, and the caller (Pool controller) must be an operator for `from`. If a token that was not previously in the Pool is granted balance by this function, it will become part of the Pool. This is the only way tokens can be added to a Pool."
      },
      "authorizeOperator(address)": {
        "details": "Authorizes `operator` to act as an operator for the caller."
      },
      "authorizePoolInvestmentManager(bytes32,address,address)": {
        "details": "Authorize an investment manager for a pool token"
      },
      "authorizeTrustedOperatorReporter(address)": {
        "details": "Authorizes `reporter` to call `reportTrustedOperator`. This is typically called on factory contracts. Can only be called by the admin."
      },
      "batchSwapGivenIn(address,bytes,(bytes32,uint128,uint128,uint128,bytes)[],address[],(address,address,bool,bool))": {
        "details": "Performs a series of swaps with one or multiple Pools. Each swap is validated and executed in order. However, tokens are only transferred in and out of the Vault (or withdrawn/deposited from User Balance) after all swaps have been validated and the net token balance change computed. This means it is possible to e.g. under certain conditions perform arbitrage by swapping with multiple Pools in a way that results in net token movement out of the Vault (profit), with no tokens being sent in. The `diffs` array contains the addresses of all tokens involved in the swaps, along with how many tokens the caller expects to transfer into the Vault for each. Any tokens due to the Vault not included in this amount will be withdrawn from User Balance. The `swaps` array contains the information about each individual swaps. All swaps consist of a Pool receiving some amount of one of its tokens (`tokenIn`), and sending some amount of another one of its tokens (`tokenOut`). A swap cannot cause `tokenOut` to be fully drained. The Pools' Trading Strategies will validate each swap, possibly charging a swap fee on the amount going in. If so, the protocol will then charge the protocol swap fee to the Pool's own swap fee. Funds will be received according to the data in `fundsIn`, and sent according to `fundsOut`."
      },
      "deposit(address,uint128,address)": {
        "details": "Deposits tokens from the caller into `user`'s User Balance."
      },
      "divestPoolBalance(bytes32,address,uint128)": {
        "details": "Decrease the invested amount of a given pool token"
      },
      "flashLoan(address,address[],uint256[],bytes)": {
        "details": "Performs a flash loan where 'amount' tokens of 'token' are sent to 'receiver', which must implement the IFlashLoanReceiver interface. An arbitrary user-provided 'receiverData' is forwarded to this contract. Before returning from the IFlashLoanReceiver.receiveFlashLoan call, the receiver must transfer back the loaned tokens, plus a proportional protocol fee. This is a non-reentrant call: swaps, adding liquidity, etc., are all disabled until the flash loan finishes."
      },
      "getCollectedFeesByToken(address)": {
        "details": "Returns the amount in protocol fees collected for a specific `token`."
      },
      "getPool(bytes32)": {
        "details": "Returns a Pool's address."
      },
      "getPoolIds(uint256,uint256)": {
        "details": "Returns a partial list of Pool IDs, starting at index `start`, up to index `end`."
      },
      "getPoolTokenBalances(bytes32,address[])": {
        "details": "Returns the Pool's balance of `tokens`. This might be zero if the tokens are not in the Pool."
      },
      "getPoolTokens(bytes32)": {
        "details": "Returns all tokens in the Pool (tokens for which the Pool has balance)."
      },
      "getTotalPools()": {
        "details": "Returns the number of Pools."
      },
      "getTotalTrustedOperatorReporters()": {
        "details": "Returns the number of Trusted Operator Reporters."
      },
      "getTotalTrustedOperators()": {
        "details": "Returns the number of Trusted Operators."
      },
      "getTrustedOperatorReporters(uint256,uint256)": {
        "details": "Returns a partial list of Trusted Operator Reporters, starting at index `start`, up to index `end`."
      },
      "getTrustedOperators(uint256,uint256)": {
        "details": "Returns a partial list of Trusted Operators, starting at index `start`, up to index `end`."
      },
      "getUserOperators(address,uint256,uint256)": {
        "details": "Returns a partial list of `user`'s operators, starting at index `start`, up to index `end`. This does not include `user` itself, nor Trusted Operators. The ordering of this list may change as operators are authorized and revoked."
      },
      "getUserTokenBalance(address,address)": {
        "details": "Returns `user`'s User Balance for a specific token."
      },
      "getUserTotalOperators(address)": {
        "details": "Returns the number of operators for `user`. This does not include `user` itself, nor Trusted Operators."
      },
      "investPoolBalance(bytes32,address,uint128)": {
        "details": "Increase the invested amount of a given pool token"
      },
      "isOperatorFor(address,address)": {
        "details": "Returns true of `operator` is an operator for `user`."
      },
      "newPool(address,uint8)": {
        "details": "Creates a new Pool with a Trading Strategy and Trading Strategy Type. The caller of this function becomes the Pool's controller. Returns the created Pool's ID. Also emits a PoolCreated event."
      },
      "paySwapProtocolFees(bytes32,address[],uint128[])": {
        "details": "Receives an array of tokens and their corresponding amounts to which swap protocol fees will be applied. If amounts are greater than zero, it uses them to calculate the corresponding swap protocol fee for the token which is collected by substracting it from the token pool balance."
      },
      "removeLiquidity(bytes32,address,address[],uint128[],bool)": {
        "details": "Removes liquidity from a Pool. Can only be called by its controller. For each token, the Pool's balance will be decreased by `totalAmounts[i]`. This is achieved by first transferring `amountsToTransfer[i]` tokens, and then depositing any amount remaining into User Balance. In both cases, the tokens are sent to `to`. Withdraw protocol fees are charged over any tokens transferred out. If a token that was previously in the Pool has all of its balance removed by this function, it will no longer be in the Pool. This is the only way tokens can be removed from a Pool."
      },
      "reportTrustedOperator(address)": {
        "details": "Adds `operator` as a Trusted Operator. Can only be called by a Trusted Operator Reporter."
      },
      "revokeOperator(address)": {
        "details": "Revokes `operator` so that it no longer is an operator for the caller. An account is always its own operator and cannot revoke itself. Trusted Operators also cannot be revoked."
      },
      "revokePoolInvestmentManager(bytes32,address)": {
        "details": "Revoke the current investment manager of a pool token"
      },
      "revokeTrustedOperator(address)": {
        "details": "Removes `operator` as a Trusted Operator. Can only be called by a Trusted Operator Reporter."
      },
      "revokeTrustedOperatorReporter(address)": {
        "details": "Remove authorization for `reporter` to call `reportTrustedOperator`. This is typically called on factory contracts. Can only be called by the admin."
      },
      "withdraw(address,uint128,address)": {
        "details": "Withdraws tokens from the caller's User Balance, transferring them to `recipient`. Withdraw protocol fees are charged by this."
      },
      "withdrawProtocolFees(address[],uint256[])": {
        "details": "Transfers to protocolFeeCollector address the requested amounts of protocol fees. Anyone can call it."
      }
    },
    "version": 1
  },
  "userdoc": {
    "kind": "user",
    "methods": {},
    "version": 1
  },
  "storageLayout": {
    "storage": [
      {
        "astId": 2090,
        "contract": "contracts/vault/Vault.sol:Vault",
        "label": "_status",
        "offset": 0,
        "slot": "0",
        "type": "t_uint256"
      },
      {
        "astId": 12389,
        "contract": "contracts/vault/Vault.sol:Vault",
        "label": "_collectedProtocolFees",
        "offset": 0,
        "slot": "1",
        "type": "t_mapping(t_contract(IERC20)1159,t_uint256)"
      },
      {
        "astId": 12391,
        "contract": "contracts/vault/Vault.sol:Vault",
        "label": "_protocolFeeCollector",
        "offset": 0,
        "slot": "2",
        "type": "t_address"
      },
      {
        "astId": 12393,
        "contract": "contracts/vault/Vault.sol:Vault",
        "label": "_protocolWithdrawFee",
        "offset": 0,
        "slot": "3",
        "type": "t_uint128"
      },
      {
        "astId": 12395,
        "contract": "contracts/vault/Vault.sol:Vault",
        "label": "_protocolSwapFee",
        "offset": 16,
        "slot": "3",
        "type": "t_uint128"
      },
      {
        "astId": 12407,
        "contract": "contracts/vault/Vault.sol:Vault",
        "label": "_protocolFlashLoanFee",
        "offset": 0,
        "slot": "4",
        "type": "t_uint256"
      },
      {
        "astId": 13769,
        "contract": "contracts/vault/Vault.sol:Vault",
        "label": "_userTokenBalance",
        "offset": 0,
        "slot": "5",
        "type": "t_mapping(t_address,t_mapping(t_contract(IERC20)1159,t_uint128))"
      },
      {
        "astId": 13773,
        "contract": "contracts/vault/Vault.sol:Vault",
        "label": "_userOperators",
        "offset": 0,
        "slot": "6",
        "type": "t_mapping(t_address,t_struct(AddressSet)15804_storage)"
      },
      {
        "astId": 13775,
        "contract": "contracts/vault/Vault.sol:Vault",
        "label": "_trustedOperators",
        "offset": 0,
        "slot": "7",
        "type": "t_struct(AddressSet)15804_storage"
      },
      {
        "astId": 13777,
        "contract": "contracts/vault/Vault.sol:Vault",
        "label": "_trustedOperatorReporters",
        "offset": 0,
        "slot": "9",
        "type": "t_struct(AddressSet)15804_storage"
      },
      {
        "astId": 10821,
        "contract": "contracts/vault/Vault.sol:Vault",
        "label": "_poolPairTokens",
        "offset": 0,
        "slot": "11",
        "type": "t_mapping(t_bytes32,t_struct(AddressSet)15804_storage)"
      },
      {
        "astId": 10827,
        "contract": "contracts/vault/Vault.sol:Vault",
        "label": "_poolPairTokenBalance",
        "offset": 0,
        "slot": "12",
        "type": "t_mapping(t_bytes32,t_mapping(t_contract(IERC20)1159,t_bytes32))"
      },
      {
        "astId": 10831,
        "contract": "contracts/vault/Vault.sol:Vault",
        "label": "_poolTupleTokenBalance",
        "offset": 0,
        "slot": "13",
        "type": "t_mapping(t_bytes32,t_struct(IERC20ToBytes32Map)15281_storage)"
      },
      {
        "astId": 11454,
        "contract": "contracts/vault/Vault.sol:Vault",
        "label": "_pools",
        "offset": 0,
        "slot": "14",
        "type": "t_struct(BytesSet)15719_storage"
      },
      {
        "astId": 11474,
        "contract": "contracts/vault/Vault.sol:Vault",
        "label": "_poolInvestmentManagers",
        "offset": 0,
        "slot": "16",
        "type": "t_mapping(t_bytes32,t_mapping(t_contract(IERC20)1159,t_address))"
      },
      {
        "astId": 9688,
        "contract": "contracts/vault/Vault.sol:Vault",
        "label": "_admin",
        "offset": 0,
        "slot": "17",
        "type": "t_address"
      }
    ],
    "types": {
      "t_address": {
        "encoding": "inplace",
        "label": "address",
        "numberOfBytes": "20"
      },
      "t_array(t_bytes32)dyn_storage": {
        "base": "t_bytes32",
        "encoding": "dynamic_array",
        "label": "bytes32[]",
        "numberOfBytes": "32"
      },
      "t_bytes32": {
        "encoding": "inplace",
        "label": "bytes32",
        "numberOfBytes": "32"
      },
      "t_contract(IERC20)1159": {
        "encoding": "inplace",
        "label": "contract IERC20",
        "numberOfBytes": "20"
      },
      "t_mapping(t_address,t_mapping(t_contract(IERC20)1159,t_uint128))": {
        "encoding": "mapping",
        "key": "t_address",
        "label": "mapping(address => mapping(contract IERC20 => uint128))",
        "numberOfBytes": "32",
        "value": "t_mapping(t_contract(IERC20)1159,t_uint128)"
      },
      "t_mapping(t_address,t_struct(AddressSet)15804_storage)": {
        "encoding": "mapping",
        "key": "t_address",
        "label": "mapping(address => struct EnumerableSet.AddressSet)",
        "numberOfBytes": "32",
        "value": "t_struct(AddressSet)15804_storage"
      },
      "t_mapping(t_bytes32,t_mapping(t_contract(IERC20)1159,t_address))": {
        "encoding": "mapping",
        "key": "t_bytes32",
        "label": "mapping(bytes32 => mapping(contract IERC20 => address))",
        "numberOfBytes": "32",
        "value": "t_mapping(t_contract(IERC20)1159,t_address)"
      },
      "t_mapping(t_bytes32,t_mapping(t_contract(IERC20)1159,t_bytes32))": {
        "encoding": "mapping",
        "key": "t_bytes32",
        "label": "mapping(bytes32 => mapping(contract IERC20 => bytes32))",
        "numberOfBytes": "32",
        "value": "t_mapping(t_contract(IERC20)1159,t_bytes32)"
      },
      "t_mapping(t_bytes32,t_struct(AddressSet)15804_storage)": {
        "encoding": "mapping",
        "key": "t_bytes32",
        "label": "mapping(bytes32 => struct EnumerableSet.AddressSet)",
        "numberOfBytes": "32",
        "value": "t_struct(AddressSet)15804_storage"
      },
      "t_mapping(t_bytes32,t_struct(IERC20ToBytes32Map)15281_storage)": {
        "encoding": "mapping",
        "key": "t_bytes32",
        "label": "mapping(bytes32 => struct EnumerableMap.IERC20ToBytes32Map)",
        "numberOfBytes": "32",
        "value": "t_struct(IERC20ToBytes32Map)15281_storage"
      },
      "t_mapping(t_bytes32,t_uint256)": {
        "encoding": "mapping",
        "key": "t_bytes32",
        "label": "mapping(bytes32 => uint256)",
        "numberOfBytes": "32",
        "value": "t_uint256"
      },
      "t_mapping(t_contract(IERC20)1159,t_address)": {
        "encoding": "mapping",
        "key": "t_contract(IERC20)1159",
        "label": "mapping(contract IERC20 => address)",
        "numberOfBytes": "32",
        "value": "t_address"
      },
      "t_mapping(t_contract(IERC20)1159,t_bytes32)": {
        "encoding": "mapping",
        "key": "t_contract(IERC20)1159",
        "label": "mapping(contract IERC20 => bytes32)",
        "numberOfBytes": "32",
        "value": "t_bytes32"
      },
      "t_mapping(t_contract(IERC20)1159,t_uint128)": {
        "encoding": "mapping",
        "key": "t_contract(IERC20)1159",
        "label": "mapping(contract IERC20 => uint128)",
        "numberOfBytes": "32",
        "value": "t_uint128"
      },
      "t_mapping(t_contract(IERC20)1159,t_uint256)": {
        "encoding": "mapping",
        "key": "t_contract(IERC20)1159",
        "label": "mapping(contract IERC20 => uint256)",
        "numberOfBytes": "32",
        "value": "t_uint256"
      },
      "t_mapping(t_uint256,t_struct(MapEntry)14613_storage)": {
        "encoding": "mapping",
        "key": "t_uint256",
        "label": "mapping(uint256 => struct EnumerableMap.MapEntry)",
        "numberOfBytes": "32",
        "value": "t_struct(MapEntry)14613_storage"
      },
      "t_struct(AddressSet)15804_storage": {
        "encoding": "inplace",
        "label": "struct EnumerableSet.AddressSet",
        "members": [
          {
            "astId": 15803,
            "contract": "contracts/vault/Vault.sol:Vault",
            "label": "_inner",
            "offset": 0,
            "slot": "0",
            "type": "t_struct(Set)15539_storage"
          }
        ],
        "numberOfBytes": "64"
      },
      "t_struct(BytesSet)15719_storage": {
        "encoding": "inplace",
        "label": "struct EnumerableSet.BytesSet",
        "members": [
          {
            "astId": 15718,
            "contract": "contracts/vault/Vault.sol:Vault",
            "label": "_inner",
            "offset": 0,
            "slot": "0",
            "type": "t_struct(Set)15539_storage"
          }
        ],
        "numberOfBytes": "64"
      },
      "t_struct(IERC20ToBytes32Map)15281_storage": {
        "encoding": "inplace",
        "label": "struct EnumerableMap.IERC20ToBytes32Map",
        "members": [
          {
            "astId": 15280,
            "contract": "contracts/vault/Vault.sol:Vault",
            "label": "_inner",
            "offset": 0,
            "slot": "0",
            "type": "t_struct(Map)14624_storage"
          }
        ],
        "numberOfBytes": "96"
      },
      "t_struct(Map)14624_storage": {
        "encoding": "inplace",
        "label": "struct EnumerableMap.Map",
        "members": [
          {
            "astId": 14615,
            "contract": "contracts/vault/Vault.sol:Vault",
            "label": "_length",
            "offset": 0,
            "slot": "0",
            "type": "t_uint256"
          },
          {
            "astId": 14619,
            "contract": "contracts/vault/Vault.sol:Vault",
            "label": "_entries",
            "offset": 0,
            "slot": "1",
            "type": "t_mapping(t_uint256,t_struct(MapEntry)14613_storage)"
          },
          {
            "astId": 14623,
            "contract": "contracts/vault/Vault.sol:Vault",
            "label": "_indexes",
            "offset": 0,
            "slot": "2",
            "type": "t_mapping(t_bytes32,t_uint256)"
          }
        ],
        "numberOfBytes": "96"
      },
      "t_struct(MapEntry)14613_storage": {
        "encoding": "inplace",
        "label": "struct EnumerableMap.MapEntry",
        "members": [
          {
            "astId": 14610,
            "contract": "contracts/vault/Vault.sol:Vault",
            "label": "_key",
            "offset": 0,
            "slot": "0",
            "type": "t_bytes32"
          },
          {
            "astId": 14612,
            "contract": "contracts/vault/Vault.sol:Vault",
            "label": "_value",
            "offset": 0,
            "slot": "1",
            "type": "t_bytes32"
          }
        ],
        "numberOfBytes": "64"
      },
      "t_struct(Set)15539_storage": {
        "encoding": "inplace",
        "label": "struct EnumerableSet.Set",
        "members": [
          {
            "astId": 15534,
            "contract": "contracts/vault/Vault.sol:Vault",
            "label": "_values",
            "offset": 0,
            "slot": "0",
            "type": "t_array(t_bytes32)dyn_storage"
          },
          {
            "astId": 15538,
            "contract": "contracts/vault/Vault.sol:Vault",
            "label": "_indexes",
            "offset": 0,
            "slot": "1",
            "type": "t_mapping(t_bytes32,t_uint256)"
          }
        ],
        "numberOfBytes": "64"
      },
      "t_uint128": {
        "encoding": "inplace",
        "label": "uint128",
        "numberOfBytes": "16"
      },
      "t_uint256": {
        "encoding": "inplace",
        "label": "uint256",
        "numberOfBytes": "32"
      }
    }
  }
}