{
  "address": "0xaEaCB2BC2A09025982069107aCb8956422FbBe87",
  "abi": [
    {
      "inputs": [
        {
          "internalType": "address",
          "name": "_admin",
          "type": "address"
        }
      ],
      "stateMutability": "nonpayable",
      "type": "constructor"
    },
    {
      "anonymous": false,
      "inputs": [
        {
          "indexed": true,
          "internalType": "address",
          "name": "user",
          "type": "address"
        },
        {
          "indexed": true,
          "internalType": "address",
          "name": "operator",
          "type": "address"
        }
      ],
      "name": "AuthorizedOperator",
      "type": "event"
    },
    {
      "anonymous": false,
      "inputs": [
        {
          "indexed": true,
          "internalType": "bytes32",
          "name": "poolId",
          "type": "bytes32"
        },
        {
          "indexed": true,
          "internalType": "contract IERC20",
          "name": "token",
          "type": "address"
        },
        {
          "indexed": true,
          "internalType": "address",
          "name": "operator",
          "type": "address"
        }
      ],
      "name": "AuthorizedPoolInvestmentManager",
      "type": "event"
    },
    {
      "anonymous": false,
      "inputs": [
        {
          "indexed": true,
          "internalType": "address",
          "name": "operator",
          "type": "address"
        }
      ],
      "name": "AuthorizedTrustedOperator",
      "type": "event"
    },
    {
      "anonymous": false,
      "inputs": [
        {
          "indexed": true,
          "internalType": "address",
          "name": "depositor",
          "type": "address"
        },
        {
          "indexed": true,
          "internalType": "address",
          "name": "user",
          "type": "address"
        },
        {
          "indexed": true,
          "internalType": "contract IERC20",
          "name": "token",
          "type": "address"
        },
        {
          "indexed": false,
          "internalType": "uint128",
          "name": "amount",
          "type": "uint128"
        }
      ],
      "name": "Deposited",
      "type": "event"
    },
    {
      "anonymous": false,
      "inputs": [
        {
          "indexed": true,
          "internalType": "address",
          "name": "_target",
          "type": "address"
        },
        {
          "indexed": true,
          "internalType": "address",
          "name": "_token",
          "type": "address"
        },
        {
          "indexed": false,
          "internalType": "uint256",
          "name": "_amount",
          "type": "uint256"
        },
        {
          "indexed": false,
          "internalType": "uint256",
          "name": "_fee",
          "type": "uint256"
        },
        {
          "indexed": false,
          "internalType": "uint256",
          "name": "_timestamp",
          "type": "uint256"
        }
      ],
      "name": "FlashLoan",
      "type": "event"
    },
    {
      "anonymous": false,
      "inputs": [
        {
          "indexed": true,
          "internalType": "bytes4",
          "name": "sig",
          "type": "bytes4"
        },
        {
          "indexed": true,
          "internalType": "address",
          "name": "caller",
          "type": "address"
        },
        {
          "indexed": false,
          "internalType": "bytes",
          "name": "data",
          "type": "bytes"
        }
      ],
      "name": "LogCall",
      "type": "event"
    },
    {
      "anonymous": false,
      "inputs": [
        {
          "indexed": true,
          "internalType": "address",
          "name": "caller",
          "type": "address"
        },
        {
          "indexed": true,
          "internalType": "address",
          "name": "tokenOut",
          "type": "address"
        },
        {
          "indexed": false,
          "internalType": "uint256",
          "name": "tokenAmountOut",
          "type": "uint256"
        }
      ],
      "name": "LogExit",
      "type": "event"
    },
    {
      "anonymous": false,
      "inputs": [
        {
          "indexed": true,
          "internalType": "address",
          "name": "caller",
          "type": "address"
        },
        {
          "indexed": true,
          "internalType": "address",
          "name": "tokenIn",
          "type": "address"
        },
        {
          "indexed": false,
          "internalType": "uint256",
          "name": "tokenAmountIn",
          "type": "uint256"
        }
      ],
      "name": "LogJoin",
      "type": "event"
    },
    {
      "anonymous": false,
      "inputs": [
        {
          "indexed": true,
          "internalType": "address",
          "name": "caller",
          "type": "address"
        },
        {
          "indexed": true,
          "internalType": "address",
          "name": "tokenIn",
          "type": "address"
        },
        {
          "indexed": true,
          "internalType": "address",
          "name": "tokenOut",
          "type": "address"
        },
        {
          "indexed": false,
          "internalType": "uint256",
          "name": "tokenAmountIn",
          "type": "uint256"
        },
        {
          "indexed": false,
          "internalType": "uint256",
          "name": "tokenAmountOut",
          "type": "uint256"
        }
      ],
      "name": "LogSwap",
      "type": "event"
    },
    {
      "anonymous": false,
      "inputs": [
        {
          "indexed": false,
          "internalType": "bytes32",
          "name": "poolId",
          "type": "bytes32"
        }
      ],
      "name": "PoolCreated",
      "type": "event"
    },
    {
      "anonymous": false,
      "inputs": [
        {
          "indexed": true,
          "internalType": "address",
          "name": "user",
          "type": "address"
        },
        {
          "indexed": true,
          "internalType": "address",
          "name": "operator",
          "type": "address"
        }
      ],
      "name": "RevokedOperator",
      "type": "event"
    },
    {
      "anonymous": false,
      "inputs": [
        {
          "indexed": true,
          "internalType": "bytes32",
          "name": "poolId",
          "type": "bytes32"
        },
        {
          "indexed": true,
          "internalType": "contract IERC20",
          "name": "token",
          "type": "address"
        },
        {
          "indexed": true,
          "internalType": "address",
          "name": "operator",
          "type": "address"
        }
      ],
      "name": "RevokedPoolInvestmentManager",
      "type": "event"
    },
    {
      "anonymous": false,
      "inputs": [
        {
          "indexed": true,
          "internalType": "address",
          "name": "user",
          "type": "address"
        },
        {
          "indexed": true,
          "internalType": "address",
          "name": "recipient",
          "type": "address"
        },
        {
          "indexed": true,
          "internalType": "contract IERC20",
          "name": "token",
          "type": "address"
        },
        {
          "indexed": false,
          "internalType": "uint128",
          "name": "amount",
          "type": "uint128"
        }
      ],
      "name": "Withdrawn",
      "type": "event"
    },
    {
      "inputs": [
        {
          "internalType": "bytes32",
          "name": "poolId",
          "type": "bytes32"
        },
        {
          "internalType": "address",
          "name": "from",
          "type": "address"
        },
        {
          "internalType": "contract IERC20[]",
          "name": "tokens",
          "type": "address[]"
        },
        {
          "internalType": "uint128[]",
          "name": "totalAmounts",
          "type": "uint128[]"
        },
        {
          "internalType": "uint128[]",
          "name": "amountsToTransfer",
          "type": "uint128[]"
        }
      ],
      "name": "addLiquidity",
      "outputs": [],
      "stateMutability": "nonpayable",
      "type": "function"
    },
    {
      "inputs": [],
      "name": "admin",
      "outputs": [
        {
          "internalType": "address",
          "name": "",
          "type": "address"
        }
      ],
      "stateMutability": "view",
      "type": "function"
    },
    {
      "inputs": [
        {
          "internalType": "address",
          "name": "operator",
          "type": "address"
        }
      ],
      "name": "authorizeOperator",
      "outputs": [],
      "stateMutability": "nonpayable",
      "type": "function"
    },
    {
      "inputs": [
        {
          "internalType": "bytes32",
          "name": "poolId",
          "type": "bytes32"
        },
        {
          "internalType": "contract IERC20",
          "name": "token",
          "type": "address"
        },
        {
          "internalType": "address",
          "name": "operator",
          "type": "address"
        }
      ],
      "name": "authorizePoolInvestmentManager",
      "outputs": [],
      "stateMutability": "nonpayable",
      "type": "function"
    },
    {
      "inputs": [
        {
          "internalType": "address",
          "name": "reporter",
          "type": "address"
        }
      ],
      "name": "authorizeTrustedOperatorReporter",
      "outputs": [],
      "stateMutability": "nonpayable",
      "type": "function"
    },
    {
      "inputs": [
        {
          "components": [
            {
              "internalType": "bytes32",
              "name": "poolId",
              "type": "bytes32"
            },
            {
              "internalType": "uint128",
              "name": "tokenInIndex",
              "type": "uint128"
            },
            {
              "internalType": "uint128",
              "name": "tokenOutIndex",
              "type": "uint128"
            },
            {
              "internalType": "uint128",
              "name": "amountIn",
              "type": "uint128"
            },
            {
              "internalType": "bytes",
              "name": "userData",
              "type": "bytes"
            }
          ],
          "internalType": "struct IVault.SwapIn[]",
          "name": "swaps",
          "type": "tuple[]"
        },
        {
          "internalType": "contract IERC20[]",
          "name": "tokens",
          "type": "address[]"
        },
        {
          "components": [
            {
              "internalType": "address",
              "name": "sender",
              "type": "address"
            },
            {
              "internalType": "address",
              "name": "recipient",
              "type": "address"
            },
            {
              "internalType": "bool",
              "name": "withdrawFromUserBalance",
              "type": "bool"
            },
            {
              "internalType": "bool",
              "name": "depositToUserBalance",
              "type": "bool"
            }
          ],
          "internalType": "struct IVault.FundManagement",
          "name": "funds",
          "type": "tuple"
        }
      ],
      "name": "batchSwapGivenIn",
      "outputs": [
        {
          "internalType": "int256[]",
          "name": "",
          "type": "int256[]"
        }
      ],
      "stateMutability": "nonpayable",
      "type": "function"
    },
    {
      "inputs": [
        {
          "components": [
            {
              "internalType": "bytes32",
              "name": "poolId",
              "type": "bytes32"
            },
            {
              "internalType": "uint128",
              "name": "tokenInIndex",
              "type": "uint128"
            },
            {
              "internalType": "uint128",
              "name": "tokenOutIndex",
              "type": "uint128"
            },
            {
              "internalType": "uint128",
              "name": "amountOut",
              "type": "uint128"
            },
            {
              "internalType": "bytes",
              "name": "userData",
              "type": "bytes"
            }
          ],
          "internalType": "struct IVault.SwapOut[]",
          "name": "swaps",
          "type": "tuple[]"
        },
        {
          "internalType": "contract IERC20[]",
          "name": "tokens",
          "type": "address[]"
        },
        {
          "components": [
            {
              "internalType": "address",
              "name": "sender",
              "type": "address"
            },
            {
              "internalType": "address",
              "name": "recipient",
              "type": "address"
            },
            {
              "internalType": "bool",
              "name": "withdrawFromUserBalance",
              "type": "bool"
            },
            {
              "internalType": "bool",
              "name": "depositToUserBalance",
              "type": "bool"
            }
          ],
          "internalType": "struct IVault.FundManagement",
          "name": "funds",
          "type": "tuple"
        }
      ],
      "name": "batchSwapGivenOut",
      "outputs": [
        {
          "internalType": "int256[]",
          "name": "",
          "type": "int256[]"
        }
      ],
      "stateMutability": "nonpayable",
      "type": "function"
    },
    {
      "inputs": [
        {
          "internalType": "contract IERC20[]",
          "name": "tokens",
          "type": "address[]"
        },
        {
          "internalType": "uint256[]",
          "name": "amounts",
          "type": "uint256[]"
        },
        {
          "internalType": "address",
          "name": "recipient",
          "type": "address"
        }
      ],
      "name": "claimUnaccountedForTokens",
      "outputs": [],
      "stateMutability": "nonpayable",
      "type": "function"
    },
    {
      "inputs": [
        {
          "internalType": "contract IERC20",
          "name": "token",
          "type": "address"
        },
        {
          "internalType": "uint128",
          "name": "amount",
          "type": "uint128"
        },
        {
          "internalType": "address",
          "name": "user",
          "type": "address"
        }
      ],
      "name": "deposit",
      "outputs": [],
      "stateMutability": "nonpayable",
      "type": "function"
    },
    {
      "inputs": [
        {
          "internalType": "bytes32",
          "name": "poolId",
          "type": "bytes32"
        },
        {
          "internalType": "contract IERC20",
          "name": "token",
          "type": "address"
        },
        {
          "internalType": "address",
          "name": "investmentManager",
          "type": "address"
        },
        {
          "internalType": "uint128",
          "name": "amountToDivest",
          "type": "uint128"
        }
      ],
      "name": "divestPoolBalance",
      "outputs": [],
      "stateMutability": "nonpayable",
      "type": "function"
    },
    {
      "inputs": [
        {
          "internalType": "address",
          "name": "_receiver",
          "type": "address"
        },
        {
          "internalType": "address",
          "name": "_token",
          "type": "address"
        },
        {
          "internalType": "uint256",
          "name": "_amount",
          "type": "uint256"
        },
        {
          "internalType": "bytes",
          "name": "_params",
          "type": "bytes"
        }
      ],
      "name": "flashLoan",
      "outputs": [],
      "stateMutability": "nonpayable",
      "type": "function"
    },
    {
      "inputs": [
        {
          "internalType": "bytes32",
          "name": "serialized",
          "type": "bytes32"
        }
      ],
      "name": "fromPoolId",
      "outputs": [
        {
          "internalType": "address",
          "name": "strategy",
          "type": "address"
        },
        {
          "internalType": "enum IVault.StrategyType",
          "name": "strategyType",
          "type": "uint8"
        }
      ],
      "stateMutability": "pure",
      "type": "function"
    },
    {
      "inputs": [
        {
          "internalType": "bytes32",
          "name": "poolId",
          "type": "bytes32"
        },
        {
          "internalType": "contract IERC20",
          "name": "token",
          "type": "address"
        }
      ],
      "name": "getInvestablePercentage",
      "outputs": [
        {
          "internalType": "uint128",
          "name": "",
          "type": "uint128"
        }
      ],
      "stateMutability": "view",
      "type": "function"
    },
    {
      "inputs": [
        {
          "internalType": "bytes32",
          "name": "poolId",
          "type": "bytes32"
        }
      ],
      "name": "getPoolController",
      "outputs": [
        {
          "internalType": "address",
          "name": "",
          "type": "address"
        }
      ],
      "stateMutability": "view",
      "type": "function"
    },
    {
      "inputs": [
        {
          "internalType": "uint256",
          "name": "start",
          "type": "uint256"
        },
        {
          "internalType": "uint256",
          "name": "end",
          "type": "uint256"
        }
      ],
      "name": "getPoolIds",
      "outputs": [
        {
          "internalType": "bytes32[]",
          "name": "",
          "type": "bytes32[]"
        }
      ],
      "stateMutability": "view",
      "type": "function"
    },
    {
      "inputs": [
        {
          "internalType": "bytes32",
          "name": "poolId",
          "type": "bytes32"
        }
      ],
      "name": "getPoolStrategy",
      "outputs": [
        {
          "internalType": "address",
          "name": "",
          "type": "address"
        },
        {
          "internalType": "enum IVault.StrategyType",
          "name": "",
          "type": "uint8"
        }
      ],
      "stateMutability": "view",
      "type": "function"
    },
    {
      "inputs": [
        {
          "internalType": "bytes32",
          "name": "poolId",
          "type": "bytes32"
        },
        {
          "internalType": "contract IERC20[]",
          "name": "tokens",
          "type": "address[]"
        }
      ],
      "name": "getPoolTokenBalances",
      "outputs": [
        {
          "internalType": "uint128[]",
          "name": "",
          "type": "uint128[]"
        }
      ],
      "stateMutability": "view",
      "type": "function"
    },
    {
      "inputs": [
        {
          "internalType": "bytes32",
          "name": "poolId",
          "type": "bytes32"
        }
      ],
      "name": "getPoolTokens",
      "outputs": [
        {
          "internalType": "contract IERC20[]",
          "name": "",
          "type": "address[]"
        }
      ],
      "stateMutability": "view",
      "type": "function"
    },
    {
      "inputs": [],
      "name": "getTotalPools",
      "outputs": [
        {
          "internalType": "uint256",
          "name": "",
          "type": "uint256"
        }
      ],
      "stateMutability": "view",
      "type": "function"
    },
    {
      "inputs": [],
      "name": "getTotalTrustedOperatorReporters",
      "outputs": [
        {
          "internalType": "uint256",
          "name": "",
          "type": "uint256"
        }
      ],
      "stateMutability": "view",
      "type": "function"
    },
    {
      "inputs": [],
      "name": "getTotalTrustedOperators",
      "outputs": [
        {
          "internalType": "uint256",
          "name": "",
          "type": "uint256"
        }
      ],
      "stateMutability": "view",
      "type": "function"
    },
    {
      "inputs": [
        {
          "internalType": "contract IERC20",
          "name": "token",
          "type": "address"
        }
      ],
      "name": "getTotalUnaccountedForTokens",
      "outputs": [
        {
          "internalType": "uint256",
          "name": "",
          "type": "uint256"
        }
      ],
      "stateMutability": "view",
      "type": "function"
    },
    {
      "inputs": [
        {
          "internalType": "uint256",
          "name": "start",
          "type": "uint256"
        },
        {
          "internalType": "uint256",
          "name": "end",
          "type": "uint256"
        }
      ],
      "name": "getTrustedOperatorReporters",
      "outputs": [
        {
          "internalType": "address[]",
          "name": "",
          "type": "address[]"
        }
      ],
      "stateMutability": "view",
      "type": "function"
    },
    {
      "inputs": [
        {
          "internalType": "uint256",
          "name": "start",
          "type": "uint256"
        },
        {
          "internalType": "uint256",
          "name": "end",
          "type": "uint256"
        }
      ],
      "name": "getTrustedOperators",
      "outputs": [
        {
          "internalType": "address[]",
          "name": "",
          "type": "address[]"
        }
      ],
      "stateMutability": "view",
      "type": "function"
    },
    {
      "inputs": [
        {
          "internalType": "address",
          "name": "user",
          "type": "address"
        },
        {
          "internalType": "uint256",
          "name": "start",
          "type": "uint256"
        },
        {
          "internalType": "uint256",
          "name": "end",
          "type": "uint256"
        }
      ],
      "name": "getUserOperators",
      "outputs": [
        {
          "internalType": "address[]",
          "name": "",
          "type": "address[]"
        }
      ],
      "stateMutability": "view",
      "type": "function"
    },
    {
      "inputs": [
        {
          "internalType": "address",
          "name": "user",
          "type": "address"
        },
        {
          "internalType": "contract IERC20",
          "name": "token",
          "type": "address"
        }
      ],
      "name": "getUserTokenBalance",
      "outputs": [
        {
          "internalType": "uint128",
          "name": "",
          "type": "uint128"
        }
      ],
      "stateMutability": "view",
      "type": "function"
    },
    {
      "inputs": [
        {
          "internalType": "address",
          "name": "user",
          "type": "address"
        }
      ],
      "name": "getUserTotalOperators",
      "outputs": [
        {
          "internalType": "uint256",
          "name": "",
          "type": "uint256"
        }
      ],
      "stateMutability": "view",
      "type": "function"
    },
    {
      "inputs": [
        {
          "internalType": "bytes32",
          "name": "poolId",
          "type": "bytes32"
        },
        {
          "internalType": "contract IERC20",
          "name": "token",
          "type": "address"
        },
        {
          "internalType": "address",
          "name": "investmentManager",
          "type": "address"
        },
        {
          "internalType": "uint128",
          "name": "amountToInvest",
          "type": "uint128"
        }
      ],
      "name": "investPoolBalance",
      "outputs": [],
      "stateMutability": "nonpayable",
      "type": "function"
    },
    {
      "inputs": [
        {
          "internalType": "address",
          "name": "user",
          "type": "address"
        },
        {
          "internalType": "address",
          "name": "operator",
          "type": "address"
        }
      ],
      "name": "isOperatorFor",
      "outputs": [
        {
          "internalType": "bool",
          "name": "",
          "type": "bool"
        }
      ],
      "stateMutability": "view",
      "type": "function"
    },
    {
      "inputs": [
        {
          "internalType": "bytes32",
          "name": "poolId",
          "type": "bytes32"
        },
        {
          "internalType": "contract IERC20",
          "name": "token",
          "type": "address"
        },
        {
          "internalType": "address",
          "name": "operator",
          "type": "address"
        }
      ],
      "name": "isPoolInvestmentManager",
      "outputs": [
        {
          "internalType": "bool",
          "name": "",
          "type": "bool"
        }
      ],
      "stateMutability": "view",
      "type": "function"
    },
    {
      "inputs": [
        {
          "internalType": "address",
          "name": "strategy",
          "type": "address"
        },
        {
          "internalType": "enum IVault.StrategyType",
          "name": "strategyType",
          "type": "uint8"
        }
      ],
      "name": "newPool",
      "outputs": [
        {
          "internalType": "bytes32",
          "name": "",
          "type": "bytes32"
        }
      ],
      "stateMutability": "nonpayable",
      "type": "function"
    },
    {
      "inputs": [],
      "name": "protocolFlashLoanFee",
      "outputs": [
        {
          "internalType": "uint256",
          "name": "",
          "type": "uint256"
        }
      ],
      "stateMutability": "view",
      "type": "function"
    },
    {
      "inputs": [],
      "name": "protocolSwapFee",
      "outputs": [
        {
          "internalType": "uint128",
          "name": "",
          "type": "uint128"
        }
      ],
      "stateMutability": "view",
      "type": "function"
    },
    {
      "inputs": [],
      "name": "protocolWithdrawFee",
      "outputs": [
        {
          "internalType": "uint128",
          "name": "",
          "type": "uint128"
        }
      ],
      "stateMutability": "view",
      "type": "function"
    },
    {
      "inputs": [
        {
          "internalType": "bytes32",
          "name": "poolId",
          "type": "bytes32"
        },
        {
          "internalType": "contract IERC20",
          "name": "token",
          "type": "address"
        },
        {
          "internalType": "address",
          "name": "investmentManager",
          "type": "address"
        }
      ],
      "name": "rebalancePoolInvestment",
      "outputs": [],
      "stateMutability": "nonpayable",
      "type": "function"
    },
    {
      "inputs": [
        {
          "internalType": "bytes32",
          "name": "poolId",
          "type": "bytes32"
        },
        {
          "internalType": "address",
          "name": "to",
          "type": "address"
        },
        {
          "internalType": "contract IERC20[]",
          "name": "tokens",
          "type": "address[]"
        },
        {
          "internalType": "uint128[]",
          "name": "totalAmounts",
          "type": "uint128[]"
        },
        {
          "internalType": "uint128[]",
          "name": "amountsToTransfer",
          "type": "uint128[]"
        }
      ],
      "name": "removeLiquidity",
      "outputs": [],
      "stateMutability": "nonpayable",
      "type": "function"
    },
    {
      "inputs": [
        {
          "internalType": "address",
          "name": "operator",
          "type": "address"
        }
      ],
      "name": "reportTrustedOperator",
      "outputs": [],
      "stateMutability": "nonpayable",
      "type": "function"
    },
    {
      "inputs": [
        {
          "internalType": "address",
          "name": "operator",
          "type": "address"
        }
      ],
      "name": "revokeOperator",
      "outputs": [],
      "stateMutability": "nonpayable",
      "type": "function"
    },
    {
      "inputs": [
        {
          "internalType": "bytes32",
          "name": "poolId",
          "type": "bytes32"
        },
        {
          "internalType": "contract IERC20",
          "name": "token",
          "type": "address"
        },
        {
          "internalType": "address",
          "name": "operator",
          "type": "address"
        }
      ],
      "name": "revokePoolInvestmentManager",
      "outputs": [],
      "stateMutability": "nonpayable",
      "type": "function"
    },
    {
      "inputs": [
        {
          "internalType": "bytes32",
          "name": "poolId",
          "type": "bytes32"
        },
        {
          "internalType": "contract IERC20",
          "name": "token",
          "type": "address"
        },
        {
          "internalType": "uint128",
          "name": "percentage",
          "type": "uint128"
        }
      ],
      "name": "setInvestablePercentage",
      "outputs": [],
      "stateMutability": "nonpayable",
      "type": "function"
    },
    {
      "inputs": [
        {
          "internalType": "bytes32",
          "name": "poolId",
          "type": "bytes32"
        },
        {
          "internalType": "address",
          "name": "controller",
          "type": "address"
        }
      ],
      "name": "setPoolController",
      "outputs": [],
      "stateMutability": "nonpayable",
      "type": "function"
    },
    {
      "inputs": [
        {
          "internalType": "uint128",
          "name": "fee",
          "type": "uint128"
        }
      ],
      "name": "setProtocolFlashLoanFee",
      "outputs": [],
      "stateMutability": "nonpayable",
      "type": "function"
    },
    {
      "inputs": [
        {
          "internalType": "uint128",
          "name": "fee",
          "type": "uint128"
        }
      ],
      "name": "setProtocolSwapFee",
      "outputs": [],
      "stateMutability": "nonpayable",
      "type": "function"
    },
    {
      "inputs": [
        {
          "internalType": "uint128",
          "name": "fee",
          "type": "uint128"
        }
      ],
      "name": "setProtocolWithdrawFee",
      "outputs": [],
      "stateMutability": "nonpayable",
      "type": "function"
    },
    {
      "inputs": [
        {
          "internalType": "address",
          "name": "strategy",
          "type": "address"
        },
        {
          "internalType": "uint16",
          "name": "strategyType",
          "type": "uint16"
        },
        {
          "internalType": "uint32",
          "name": "poolIndex",
          "type": "uint32"
        }
      ],
      "name": "toPoolId",
      "outputs": [
        {
          "internalType": "bytes32",
          "name": "",
          "type": "bytes32"
        }
      ],
      "stateMutability": "pure",
      "type": "function"
    },
    {
      "inputs": [
        {
          "internalType": "address",
          "name": "newAdmin",
          "type": "address"
        }
      ],
      "name": "transferAdmin",
      "outputs": [],
      "stateMutability": "nonpayable",
      "type": "function"
    },
    {
      "inputs": [
        {
          "internalType": "bytes32",
          "name": "poolId",
          "type": "bytes32"
        },
        {
          "internalType": "contract IERC20",
          "name": "token",
          "type": "address"
        },
        {
          "internalType": "uint128",
          "name": "amountInvested",
          "type": "uint128"
        }
      ],
      "name": "updateInvested",
      "outputs": [],
      "stateMutability": "nonpayable",
      "type": "function"
    },
    {
      "inputs": [
        {
          "internalType": "contract IERC20",
          "name": "token",
          "type": "address"
        },
        {
          "internalType": "uint128",
          "name": "amount",
          "type": "uint128"
        },
        {
          "internalType": "address",
          "name": "recipient",
          "type": "address"
        }
      ],
      "name": "withdraw",
      "outputs": [],
      "stateMutability": "nonpayable",
      "type": "function"
    }
  ],
  "transactionHash": "0x896643d9d2c69a2e7cc573030dc4d38d5cd6917b9b1b5d5590fe1a05dbfe6e35",
  "args": [
    "0xf39Fd6e51aad88F6F4ce6aB8827279cffFb92266"
  ],
  "solcInputHash": "afcbb748db9c776c982c2f208c231f65",
  "bytecode": "0x60e0604052620000536064620000366002670de0b6b3a76400006001600160801b03166200012460201b620030651790919060201c565b6001600160801b0316620001f060201b620031201790919060201c565b608090811b6001600160801b03191690526200008b606462000036670de0b6b3a7640000603262000124602090811b6200306517901c565b60801b6001600160801b03191660a052620000c2606462000036670de0b6b3a7640000603262000124602090811b6200306517901c565b6001600160801b031660c052348015620000db57600080fd5b50604051620068a6380380620068a6833981016040819052620000fe91620002e8565b601180546001600160a01b0319166001600160a01b039290921691909117905562000392565b60008282026001600160801b03841615806200016d5750826001600160801b0316846001600160801b0316826001600160801b0316816200016157fe5b046001600160801b0316145b620001955760405162461bcd60e51b81526004016200018c9062000342565b60405180910390fd5b6706f05b59d3b2000081016001600160801b038083169082161015620001cf5760405162461bcd60e51b81526004016200018c9062000342565b6000670de0b6b3a76400006001600160801b0383165b049695505050505050565b60006001600160801b0382166200021b5760405162461bcd60e51b81526004016200018c906200036c565b670de0b6b3a764000083026001600160801b0384161580620002635750670de0b6b3a76400006001600160801b03858116908316816200025757fe5b046001600160801b0316145b620002825760405162461bcd60e51b81526004016200018c9062000318565b600060026001600160801b0385160482019050816001600160801b0316816001600160801b03161015620002ca5760405162461bcd60e51b81526004016200018c9062000318565b6000846001600160801b0316826001600160801b031681620001e557fe5b600060208284031215620002fa578081fd5b81516001600160a01b038116811462000311578182fd5b9392505050565b60208082526010908201526f11549497d1125597d25395115493905360821b604082015260600190565b60208082526010908201526f4552525f4d554c5f4f564552464c4f5760801b604082015260600190565b6020808252600c908201526b4552525f4449565f5a45524f60a01b604082015260600190565b60805160801c60a05160801c60c0516164e1620003c560003980613d5152508061373c5250806136bf52506164e16000f3fe608060405234801561001057600080fd5b50600436106103205760003560e01c80638d56ec93116101a7578063d3ffe67a116100ee578063eb1192c311610097578063f94d466811610071578063f94d466814610696578063fad8b32a146106a9578063fe8f2cb2146106bc57610320565b8063eb1192c314610673578063f68b998f14610686578063f851a4401461068e57610320565b8063d95b6371116100c8578063d95b63711461063a578063de22f4b71461064d578063ea82e2281461066057610320565b8063d3ffe67a1461060c578063d4782a5114610614578063d4c173e01461062757610320565b8063b7b0ef9311610150578063bf79c9461161012a578063bf79c946146105de578063c018e8aa146105f1578063c4ff1709146105f957610320565b8063b7b0ef93146105b0578063bb141ca3146105b8578063bb7972ae146105cb57610320565b80639b53422f116101815780639b53422f14610582578063a6520fe814610595578063b06459b5146105a857610320565b80638d56ec93146105495780638daf7dc81461055c578063959b8c3f1461056f57610320565b80633cd80de31161026b57806373f8fd4b1161021457806380f2dd02116101ee57806380f2dd021461050357806381158ad9146105165780638ad8f3181461053657610320565b806373f8fd4b146104bd57806375829def146104d05780637fac59d6146104e357610320565b80635cffe9de116102455780635cffe9de146104775780636b141c811461048a5780636feec229146104aa57610320565b80633cd80de31461043e5780633dc60c5b146104515780635af40f781461046457610320565b806323eeca01116102cd57806335abcd89116102a757806335abcd891461040357806336cf0d081461041657806339fc9fde1461042b57610320565b806323eeca01146103bd5780632c250d2c146103dd5780632f113954146103f057610320565b8063150e9201116102fe578063150e9201146103765780631561d3161461039757806318c1496d146103aa57610320565b80630feae83614610325578063105988f61461033a57806314d5bc7d14610363575b600080fd5b6103386103333660046150e8565b6106dc565b005b61034d6103483660046150b4565b6107ec565b60405161035a9190615645565b60405180910390f35b61034d61037136600461547e565b6108eb565b6103896103843660046151f7565b6109bb565b60405161035a9291906155e6565b6103386103a5366004615233565b6109e2565b6103386103b8366004615365565b610e55565b6103d06103cb36600461547e565b61107f565b60405161035a9190615692565b6103896103eb3660046151f7565b61115c565b6103386103fe3660046153ed565b6111c3565b61033861041136600461541c565b6112c5565b61041e6112fb565b60405161035a91906163d6565b6103386104393660046153b7565b61130a565b61034d61044c36600461547e565b6114e7565b61033861045f36600461541c565b6115ad565b6103386104723660046153b7565b6115e0565b610338610485366004614fb0565b61168a565b61049d61049836600461532f565b6119a8565b60405161035a91906156dd565b6103386104b836600461532f565b6119d5565b61041e6104cb36600461501a565b611b11565b6103386104de366004614f5c565b611b45565b6104f66104f13660046151f7565b611ba9565b60405161035a9190615595565b61041e61051136600461520f565b611c13565b61052961052436600461502c565b611c94565b60405161035a91906156e8565b6103d0610544366004615169565b611d82565b610529610557366004614f5c565b611da1565b61033861056a366004614f5c565b611e79565b61033861057d366004614f5c565b611eb2565b61033861059036600461532f565b611f09565b6105296105a336600461505c565b612247565b61041e612295565b6105296122ab565b6103386105c636600461520f565b6122b1565b6103386105d9366004615365565b612457565b6105296105ec366004614f5c565b61263f565b610529612660565b61033861060736600461532f565b612671565b6105296127ab565b6103d0610622366004615169565b6127b7565b610338610635366004615233565b6127ce565b61049d610648366004614f78565b612c02565b61033861065b36600461541c565b612c52565b61033861066e3660046153ed565b612c8e565b610338610681366004614f5c565b612d6b565b610529612dd8565b6104f6612de4565b61034d6106a43660046151f7565b612df3565b6103386106b7366004614f5c565b612ef6565b6106cf6106ca3660046152e5565b612f4d565b60405161035a91906156ca565b6011546001600160a01b0316331461070f5760405162461bcd60e51b815260040161070690615f3c565b60405180910390fd5b83821461072e5760405162461bcd60e51b815260040161070690615a1d565b60005b848110156107e457600061075f87878481811061074a57fe5b90506020020160208101906105579190614f5c565b905084848381811061076d57fe5b905060200201358110156107935760405162461bcd60e51b81526004016107069061630d565b6107db838686858181106107a357fe5b905060200201358989868181106107b657fe5b90506020020160208101906107cb9190614f5c565b6001600160a01b0316919061320c565b50600101610731565b505050505050565b606082821015801561082057506001600160a01b038416600090815260046020526040902061081a90613294565b83830311155b61083c5760405162461bcd60e51b8152600401610706906160ac565b606083830367ffffffffffffffff8111801561085757600080fd5b50604051908082528060200260200182016040528015610881578160200160208202803683370190505b50905060005b81518110156108e0576001600160a01b03861660009081526004602052604090206108b49082870161329f565b8282815181106108c057fe5b6001600160a01b0390921660209283029190910190910152600101610887565b5090505b9392505050565b606082821015801561090857506109026005613294565b83830311155b6109245760405162461bcd60e51b8152600401610706906160ac565b606083830367ffffffffffffffff8111801561093f57600080fd5b50604051908082528060200260200182016040528015610969578160200160208202803683370190505b50905060005b81518110156109b157610985600582870161329f565b82828151811061099157fe5b6001600160a01b039092166020928302919091019091015260010161096f565b5090505b92915050565b6001600160a01b038116600061ffff60a084901c1660018111156109db57fe5b9050915091565b876109ee600a826132ab565b610a0a5760405162461bcd60e51b81526004016107069061583b565b6000898152600c602052604090205489906001600160a01b03163314610a425760405162461bcd60e51b815260040161070690615ae8565b868514610a615760405162461bcd60e51b815260040161070690615c6d565b848314610a805760405162461bcd60e51b815260040161070690615e97565b610a8a8933612c02565b610aa65760405162461bcd60e51b815260040161070690615e03565b60005b87811015610e48576000610afe8a8a84818110610ac257fe5b9050602002016020810190610ad79190614f5c565b8c888886818110610ae457fe5b9050602002016020810190610af9919061541c565b6132b7565b90506000610b36828a8a86818110610b1257fe5b9050602002016020810190610b27919061541c565b6001600160801b0316906134e3565b90506001600160801b03811615610c2b576001600160a01b038c166000908152600360205260408120610bb0918391908e8e88818110610b7257fe5b9050602002016020810190610b879190614f5c565b6001600160a01b031681526020810191909152604001600020546001600160801b0316906134e3565b6001600160a01b038d166000908152600360205260408120908d8d87818110610bd557fe5b9050602002016020810190610bea9190614f5c565b6001600160a01b03168152602081019190915260400160002080546fffffffffffffffffffffffffffffffff19166001600160801b03929092169190911790555b50506000878783818110610c3b57fe5b9050602002016020810190610c50919061541c565b6001600160801b03161115610e4057610c67614c56565b60008c8152600e60205260408120908b8b85818110610c8257fe5b9050602002016020810190610c979190614f5c565b6001600160a01b0316815260208082019290925260409081016000208151808301909252546001600160801b038082168352600160801b909104169181018290529150610d1c57610d168a8a84818110610ced57fe5b9050602002016020810190610d029190614f5c565b60008e8152600d6020526040902090613514565b610d1c57fe5b610db8888884818110610d2b57fe5b9050602002016020810190610d40919061541c565b60008e8152600e60205260408120908d8d87818110610d5b57fe5b9050602002016020810190610d709190614f5c565b6001600160a01b0316815260208082019290925260409081016000208151808301909252546001600160801b038082168352600160801b909104169181019190915290613529565b60008d8152600e60205260408120908c8c86818110610dd357fe5b9050602002016020810190610de89190614f5c565b6001600160a01b031681526020808201929092526040016000208251815493909201516001600160801b03908116600160801b029281166fffffffffffffffffffffffffffffffff1990941693909317909216179055505b600101610aa9565b5050505050505050505050565b838383610e638383836119a8565b610e7f5760405162461bcd60e51b815260040161070690616018565b6000878152600f602090815260408083206001600160a01b038a16808552908352818420548b8552600e845282852091855292528220546001600160801b039182169291610ed591600160801b90041683613065565b60008a8152600e602090815260408083206001600160a01b038d16845282528083208151808301909252546001600160801b038082168352600160801b909104169181019190915291925090610f2a90613592565b90506001600160801b0380831690610f449083168961359e565b6001600160801b03161115610f6b5760405162461bcd60e51b81526004016107069061592c565b60008a8152600e602090815260408083206001600160a01b038d168452909152902054610fa1906001600160801b0316886134e3565b60008b8152600e602090815260408083206001600160a01b038e168452909152812080546fffffffffffffffffffffffffffffffff19166001600160801b039390931692909217909155610ffa908a908a908a906135cf565b6040517f353d3aef0000000000000000000000000000000000000000000000000000000081526001600160a01b0389169063353d3aef90611041908d908b906004016156f1565b600060405180830381600087803b15801561105b57600080fd5b505af115801561106f573d6000803e3d6000fd5b5050505050505050505050505050565b60095460609060ff16156110a55760405162461bcd60e51b815260040161070690615d01565b8282101580156110c057506110ba600a613294565b83830311155b6110dc5760405162461bcd60e51b8152600401610706906160ac565b606083830367ffffffffffffffff811180156110f757600080fd5b50604051908082528060200260200182016040528015611121578160200160208202803683370190505b50905060005b81518110156109b15761113d600a82870161329f565b82828151811061114957fe5b6020908102919091010152600101611127565b6000808261116b600a826132ab565b6111875760405162461bcd60e51b81526004016107069061583b565b60095460ff16156111aa5760405162461bcd60e51b815260040161070690615d01565b6000806111b6866109bb565b9095509350505050915091565b3360009081526003602090815260408083206001600160a01b03871684529091529020546001600160801b03808416911610156112125760405162461bcd60e51b815260040161070690615872565b3360009081526003602090815260408083206001600160a01b0387168452909152902080546001600160801b03808216859003166fffffffffffffffffffffffffffffffff1990911617905561126b83828460016135cf565b826001600160a01b0316816001600160a01b0316336001600160a01b03167fa3e61fe8acce189666029aee3e5bb4d10746d1558d76b8564f6765a16d0725b8856040516112b891906163d6565b60405180910390a4505050565b6011546001600160a01b031633146112ef5760405162461bcd60e51b815260040161070690615f3c565b6112f8816136bd565b50565b6000546001600160801b031690565b336001600160a01b03166000357fffffffff00000000000000000000000000000000000000000000000000000000167bffffffffffffffffffffffffffffffffffffffffffffffffffffffff19167f2e52329395aee62a9fbf533a1f6506025329f992ac89d5f7b09e9a32d58cb29160003660405161138a929190615708565b60405180910390a360095460ff16156113b55760405162461bcd60e51b815260040161070690615d01565b600980547fffffffffffffffffffffffffffffffffffffffffffffffffffffffffffffff00166001179055826113ec600a826132ab565b6114085760405162461bcd60e51b81526004016107069061583b565b6000848152600c602052604090205484906001600160a01b031633146114405760405162461bcd60e51b815260040161070690615ae8565b670de0b6b3a76400006001600160801b03841611156114715760405162461bcd60e51b8152600401610706906158cf565b50506000928352600f602090815260408085206001600160a01b03949094168552929052912080546fffffffffffffffffffffffffffffffff19166001600160801b03909216919091179055600980547fffffffffffffffffffffffffffffffffffffffffffffffffffffffffffffff00169055565b606082821015801561150457506114fe6007613294565b83830311155b6115205760405162461bcd60e51b8152600401610706906160ac565b606083830367ffffffffffffffff8111801561153b57600080fd5b50604051908082528060200260200182016040528015611565578160200160208202803683370190505b50905060005b81518110156109b157611581600782870161329f565b82828151811061158d57fe5b6001600160a01b039092166020928302919091019091015260010161156b565b6011546001600160a01b031633146115d75760405162461bcd60e51b815260040161070690615f3c565b6112f88161373a565b8282336115ee8383836119a8565b61160a5760405162461bcd60e51b815260040161070690616018565b6000868152600e602090815260408083206001600160a01b0389168452909152902054611643906001600160801b03868116911661359e565b6000968752600e602090815260408089206001600160a01b0390981689529690529490952080546001600160801b03958616600160801b0295169490941790935550505050565b6040517f70a082310000000000000000000000000000000000000000000000000000000081526000906001600160a01b038516906370a08231906116d2903090600401615595565b60206040518083038186803b1580156116ea57600080fd5b505afa1580156116fe573d6000803e3d6000fd5b505050506040513d601f19601f820116820180604052508101906117229190615466565b9050828110156117445760405162461bcd60e51b8152600401610706906157de565b600061174f846137ab565b9050600081116117715760405162461bcd60e51b815260040161070690615e3a565b6040517fa9059cbb000000000000000000000000000000000000000000000000000000008152869081906001600160a01b0388169063a9059cbb906117bc9084908a906004016155a9565b602060405180830381600087803b1580156117d657600080fd5b505af11580156117ea573d6000803e3d6000fd5b505050506040513d601f19601f8201168201806040525081019061180e91906151db565b506040517fee8725580000000000000000000000000000000000000000000000000000000081526001600160a01b0383169063ee8725589061185a908a908a9088908b9060040161560d565b600060405180830381600087803b15801561187457600080fd5b505af1158015611888573d6000803e3d6000fd5b50506040517f70a08231000000000000000000000000000000000000000000000000000000008152600092506001600160a01b038a1691506370a08231906118d4903090600401615595565b60206040518083038186803b1580156118ec57600080fd5b505afa158015611900573d6000803e3d6000fd5b505050506040513d601f19601f820116820180604052508101906119249190615466565b905061193085856137c2565b811461194e5760405162461bcd60e51b815260040161070690615c10565b876001600160a01b0316896001600160a01b03167fea9aac78e0e48af4897630506e75b1ddba28503b58e70fe7bd92bce4f6efde7c898742604051611995939291906163ea565b60405180910390a3505050505050505050565b60009283526010602090815260408085206001600160a01b03948516865290915290922054811691161490565b6000838152600c602052604090205483906001600160a01b03163314611a0d5760405162461bcd60e51b815260040161070690615ae8565b60008481526010602090815260408083206001600160a01b038781168552925290912054161580611a7257506000848152600e602090815260408083206001600160a01b0387168452909152902054600160801b81046001600160801b039081169116145b611a8e5760405162461bcd60e51b815260040161070690615b45565b60008481526010602090815260408083206001600160a01b038781168086529190935281842080547fffffffffffffffffffffffff000000000000000000000000000000000000000016938716938417905590519192909187917f293bd9bcd163a008da869f64fc5e12158b1e8cd908aab3f05296624b6c08bf1991a450505050565b6001600160a01b0391821660009081526003602090815260408083209390941682529190915220546001600160801b031690565b6011546001600160a01b03163314611b6f5760405162461bcd60e51b815260040161070690615f3c565b601180547fffffffffffffffffffffffff0000000000000000000000000000000000000000166001600160a01b0392909216919091179055565b600081611bb7600a826132ab565b611bd35760405162461bcd60e51b81526004016107069061583b565b60095460ff1615611bf65760405162461bcd60e51b815260040161070690615d01565b50506000908152600c60205260409020546001600160a01b031690565b60095460009060ff1615611c395760405162461bcd60e51b815260040161070690615d01565b82611c45600a826132ab565b611c615760405162461bcd60e51b81526004016107069061583b565b50506000918252600f602090815260408084206001600160a01b039390931684529190529020546001600160801b031690565b600080611cb184846001811115611ca757fe5b6105a3600a613294565b9050611cbe600a826132ab565b15611cdb5760405162461bcd60e51b815260040161070690615d95565b6001600160a01b038416611d015760405162461bcd60e51b815260040161070690615dcc565b611d0c600a826137e7565b506000818152600c60205260409081902080547fffffffffffffffffffffffff00000000000000000000000000000000000000001633179055517f76c4350174727086805a3b026998a38a23dec4eaa173f2eb5449eb961e69c04390611d739083906156e8565b60405180910390a19392505050565b6060611d99611d90856137f3565b848460016137f6565b949350505050565b600080826001600160a01b03166370a08231306040518263ffffffff1660e01b8152600401611dd09190615595565b60206040518083038186803b158015611de857600080fd5b505afa158015611dfc573d6000803e3d6000fd5b505050506040513d601f19601f82011682018060405250810190611e209190615466565b6001600160a01b0384166000908152600260205260409020549091506001600160801b0316811015611e4e57fe5b6001600160a01b0383166000908152600260205260409020546001600160801b031690039050919050565b6011546001600160a01b03163314611ea35760405162461bcd60e51b815260040161070690615f3c565b611eae600782613514565b5050565b336000908152600460205260409020611ecb9082613514565b156112f8576040516001600160a01b0382169033907ff4caeb2d6ca8932a215a353d0703c326ec2d81fc68170f320eb2ab49e9df61f990600090a350565b828282611f178383836119a8565b611f335760405162461bcd60e51b815260040161070690616018565b6000868152600f602090815260408083206001600160a01b038916808552908352818420548a8552600e845282852091855292528220546001600160801b039182169291611f8991600160801b90041683613065565b6000898152600e602090815260408083206001600160a01b038c16845282528083208151808301909252546001600160801b038082168352600160801b909104169181019190915291925090611fde90613592565b9050806001600160801b0316826001600160801b0316111561212057600061200f6001600160801b038416836134e3565b60008b8152600e602090815260408083206001600160a01b038e168452909152902054909150612048906001600160801b0316826134e3565b60008b8152600e602090815260408083206001600160a01b038e168452909152812080546fffffffffffffffffffffffffffffffff19166001600160801b0393909316929092179091556120a1908a908a9084906135cf565b6040517f353d3aef0000000000000000000000000000000000000000000000000000000081526001600160a01b0389169063353d3aef906120e8908d9085906004016156f1565b600060405180830381600087803b15801561210257600080fd5b505af1158015612116573d6000803e3d6000fd5b505050505061223c565b806001600160801b0316826001600160801b0316101561222457600061214f6001600160801b038316846134e3565b60008b8152600e602090815260408083206001600160a01b038e168452909152902054909150612188906001600160801b03168261359e565b60008b8152600e602090815260408083206001600160a01b038e168452909152902080546fffffffffffffffffffffffffffffffff19166001600160801b03929092169190911790556121dc8989836132b7565b506040517fcd112cd80000000000000000000000000000000000000000000000000000000081526001600160a01b0389169063cd112cd8906120e8908d9085906004016156f1565b60405162461bcd60e51b81526004016107069061604f565b505050505050505050565b60b01b79ffffffff000000000000000000000000000000000000000000001660a09190911b75ffff000000000000000000000000000000000000000016176001600160a01b03919091161790565b600054600160801b90046001600160801b031690565b60015490565b336001600160a01b03166000357fffffffff00000000000000000000000000000000000000000000000000000000167bffffffffffffffffffffffffffffffffffffffffffffffffffffffff19167f2e52329395aee62a9fbf533a1f6506025329f992ac89d5f7b09e9a32d58cb291600036604051612331929190615708565b60405180910390a360095460ff161561235c5760405162461bcd60e51b815260040161070690615d01565b600980547fffffffffffffffffffffffffffffffffffffffffffffffffffffffffffffff0016600117905581612393600a826132ab565b6123af5760405162461bcd60e51b81526004016107069061583b565b6000838152600c602052604090205483906001600160a01b031633146123e75760405162461bcd60e51b815260040161070690615ae8565b50506000918252600c602052604090912080547fffffffffffffffffffffffff0000000000000000000000000000000000000000166001600160a01b03909216919091179055600980547fffffffffffffffffffffffffffffffffffffffffffffffffffffffffffffff00169055565b8383836124658383836119a8565b6124815760405162461bcd60e51b815260040161070690616018565b6000878152600f602090815260408083206001600160a01b038a16808552908352818420548b8552600e845282852091855292528220546001600160801b0391821692916124d791600160801b90041683613065565b60008a8152600e602090815260408083206001600160a01b038d16845282528083208151808301909252546001600160801b038082168352600160801b90910416918101919091529192509061252c90613592565b90506001600160801b0380831690612546908316896134e3565b6001600160801b0316101561256d5760405162461bcd60e51b815260040161070690615d38565b60008a8152600e602090815260408083206001600160a01b038d1684529091529020546125a3906001600160801b03168861359e565b60008b8152600e602090815260408083206001600160a01b038e168452909152902080546fffffffffffffffffffffffffffffffff19166001600160801b03929092169190911790556125f78989896132b7565b506040517fcd112cd80000000000000000000000000000000000000000000000000000000081526001600160a01b0389169063cd112cd890611041908d908b906004016156f1565b6001600160a01b03811660009081526004602052604081206109b590613294565b600061266c6007613294565b905090565b6000838152600c602052604090205483906001600160a01b031633146126a95760405162461bcd60e51b815260040161070690615ae8565b60008481526010602090815260408083206001600160a01b038781168552925290912054161580159061271057506000848152600e602090815260408083206001600160a01b0387168452909152902054600160801b81046001600160801b039081169116145b61272c5760405162461bcd60e51b81526004016107069061611a565b60008481526010602090815260408083206001600160a01b038088168086529190935281842080547fffffffffffffffffffffffff0000000000000000000000000000000000000000169055905191851692909187917ff06fdd8b5faff2b5f5288a691e9dbbe565e7f445d6fc266a6795c97089e8e7ba91a450505050565b600061266c600a613294565b6060611d996127c5856137f3565b848460006137f6565b876127da600a826132ab565b6127f65760405162461bcd60e51b81526004016107069061583b565b6000898152600c602052604090205489906001600160a01b0316331461282e5760405162461bcd60e51b815260040161070690615ae8565b86851461284d5760405162461bcd60e51b815260040161070690615c6d565b84831461286c5760405162461bcd60e51b815260040161070690615e97565b60005b87811015610e48576128af89898381811061288657fe5b905060200201602081019061289b9190614f5c565b60008d8152600d6020526040902090613cce565b6128cb5760405162461bcd60e51b8152600401610706906162d6565b60006128fd8686848181106128dc57fe5b90506020020160208101906128f1919061541c565b898985818110610b1257fe5b905061294c8a8a8481811061290e57fe5b90506020020160208101906129239190614f5c565b8c88888681811061293057fe5b9050602002016020810190612945919061541c565b60016135cf565b6001600160801b03811615612a3f576001600160a01b038b1660009081526003602052604081206129c4918391908d8d8781811061298657fe5b905060200201602081019061299b9190614f5c565b6001600160a01b031681526020810191909152604001600020546001600160801b03169061359e565b6001600160a01b038c166000908152600360205260408120908c8c868181106129e957fe5b90506020020160208101906129fe9190614f5c565b6001600160a01b03168152602081019190915260400160002080546fffffffffffffffffffffffffffffffff19166001600160801b03929092169190911790555b612adb888884818110612a4e57fe5b9050602002016020810190612a63919061541c565b60008e8152600e60205260408120908d8d87818110612a7e57fe5b9050602002016020810190612a939190614f5c565b6001600160a01b0316815260208082019290925260409081016000208151808301909252546001600160801b038082168352600160801b909104169181019190915290613ce3565b60008d8152600e60205260408120908c8c86818110612af657fe5b9050602002016020810190612b0b9190614f5c565b6001600160a01b031681526020808201929092526040908101600090812084518154958501516fffffffffffffffffffffffffffffffff199096166001600160801b03918216178116600160801b9190961602949094179093558e8352600e9091528120908b8b85818110612b7c57fe5b9050602002016020810190612b919190614f5c565b6001600160a01b03168152602081019190915260400160002054600160801b90046001600160801b0316612bf957612bf78a8a84818110612bce57fe5b9050602002016020810190612be39190614f5c565b60008e8152600d6020526040902090613d3a565b505b5060010161286f565b6000816001600160a01b0316836001600160a01b03161480612c2a5750612c2a600583613cce565b806108e457506001600160a01b03831660009081526004602052604090206108e49083613cce565b6011546001600160a01b03163314612c7c5760405162461bcd60e51b815260040161070690615f3c565b6112f8816001600160801b0316613d4f565b6000612c9b8433856132b7565b6001600160a01b03808416600090815260036020908152604080832093891683529290522054909150612cd7906001600160801b03168261359e565b6001600160a01b038381166000818152600360209081526040808320948a16808452949091529081902080546fffffffffffffffffffffffffffffffff19166001600160801b039590951694909417909355915190919033907f1afb0bb546173e6a0cfd9a89e8194cc30f3ef142e522d0211bd643a72f22628790612d5d9086906163d6565b60405180910390a450505050565b612d76600733613cce565b612d925760405162461bcd60e51b815260040161070690616242565b612d9d600582613514565b156112f8576040516001600160a01b038216907e3a28a533346977ad012a278cc3a0fd93d207d74e458ba699c9d4dc285dde7890600090a250565b600061266c6005613294565b6011546001600160a01b031690565b60095460609060ff1615612e195760405162461bcd60e51b815260040161070690615d01565b81612e25600a826132ab565b612e415760405162461bcd60e51b81526004016107069061583b565b6000838152600d60205260409020606090612e5b90613294565b67ffffffffffffffff81118015612e7157600080fd5b50604051908082528060200260200182016040528015612e9b578160200160208202803683370190505b50905060005b8151811015612eee576000858152600d60205260409020612ec2908261329f565b828281518110612ece57fe5b6001600160a01b0390921660209283029190910190910152600101612ea1565b509392505050565b336000908152600460205260409020612f0f9082613d3a565b156112f8576040516001600160a01b0382169033907f50546e66e5f44d728365dc3908c63bc5cfeeab470722c1677e3073a6ac294aa190600090a350565b606083612f5b600a826132ab565b612f775760405162461bcd60e51b81526004016107069061583b565b60608367ffffffffffffffff81118015612f9057600080fd5b50604051908082528060200260200182016040528015612fba578160200160208202803683370190505b50905060005b8481101561305b576000878152600e6020526040812090878784818110612fe357fe5b9050602002016020810190612ff89190614f5c565b6001600160a01b03166001600160a01b0316815260200190815260200160002060000160109054906101000a90046001600160801b031682828151811061303b57fe5b6001600160801b0390921660209283029190910190910152600101612fc0565b5095945050505050565b60008282026001600160801b03841615806130ac5750826001600160801b0316846001600160801b0316826001600160801b0316816130a057fe5b046001600160801b0316145b6130c85760405162461bcd60e51b815260040161070690615f05565b6706f05b59d3b2000081016001600160801b0380831690821610156130ff5760405162461bcd60e51b815260040161070690615f05565b6000670de0b6b3a76400006001600160801b0383165b049695505050505050565b60006001600160801b0382166131485760405162461bcd60e51b815260040161070690615faa565b670de0b6b3a764000083026001600160801b038416158061318e5750670de0b6b3a76400006001600160801b038581169083168161318257fe5b046001600160801b0316145b6131aa5760405162461bcd60e51b815260040161070690615cca565b600060026001600160801b0385160482019050816001600160801b0316816001600160801b031610156131ef5760405162461bcd60e51b815260040161070690615cca565b6000846001600160801b0316826001600160801b03168161311557fe5b61328f8363a9059cbb60e01b848460405160240161322b9291906155a9565b60408051601f198184030181529190526020810180517bffffffffffffffffffffffffffffffffffffffffffffffffffffffff167fffffffff0000000000000000000000000000000000000000000000000000000090931692909217909152613d94565b505050565b60006109b582613e23565b60006108e48383613e27565b60006108e48383613e6c565b60006001600160801b0382166132cf575060006108e4565b6040517f70a082310000000000000000000000000000000000000000000000000000000081526000906001600160a01b038616906370a0823190613317903090600401615595565b60206040518083038186803b15801561332f57600080fd5b505afa158015613343573d6000803e3d6000fd5b505050506040513d601f19601f820116820180604052508101906133679190615466565b90506133876001600160a01b03861685306001600160801b038716613e84565b6040517f70a082310000000000000000000000000000000000000000000000000000000081526000906001600160a01b038716906370a08231906133cf903090600401615595565b60206040518083038186803b1580156133e757600080fd5b505afa1580156133fb573d6000803e3d6000fd5b505050506040513d601f19601f8201168201806040525081019061341f9190615466565b905060006134356134308385613ea5565b613eb4565b6001600160a01b0388166000908152600260209081526040918290208251808401909352546001600160801b038082168452600160801b90910416908201529091506134819082613529565b6001600160a01b03881660009081526002602090815260409091208251815493909201516001600160801b03908116600160801b029281166fffffffffffffffffffffffffffffffff1990941693909317909216179055925050509392505050565b60008060006134f28585613edd565b9150915080156109b15760405162461bcd60e51b815260040161070690616177565b60006108e4836001600160a01b038416613f14565b613531614c56565b6040805180820190915283518190613552906001600160801b03168561359e565b6001600160801b031681526020016135808486602001516001600160801b031661359e90919063ffffffff16565b6001600160801b031690529392505050565b80516020909101510390565b60008282016001600160801b0380851690821610156108e45760405162461bcd60e51b8152600401610706906161ae565b6001600160801b0382166135e2576136b7565b6001600160a01b0384166000908152600260209081526040918290208251808401909352546001600160801b038082168452600160801b909104169082015261362b9083613ce3565b6001600160a01b038516600090815260026020908152604082208351815494909201516001600160801b03908116600160801b029281166fffffffffffffffffffffffffffffffff1990951694909417909316179091558161368d5782613696565b61369683613f5e565b90506136b56001600160a01b038616856001600160801b03841661320c565b505b50505050565b7f00000000000000000000000000000000000000000000000000000000000000006001600160801b0316816001600160801b0316111561370f5760405162461bcd60e51b815260040161070690615f73565b600080546fffffffffffffffffffffffffffffffff19166001600160801b0392909216919091179055565b7f00000000000000000000000000000000000000000000000000000000000000006001600160801b0316816001600160801b0316111561378c5760405162461bcd60e51b815260040161070690615ba2565b600080546001600160801b03928316600160801b029216919091179055565b60006109b560015483613f8f90919063ffffffff16565b6000828201838110156108e45760405162461bcd60e51b8152600401610706906161ae565b60006108e48383613f14565b90565b6060613806836000015133612c02565b6138225760405162461bcd60e51b815260040161070690615e03565b6060845167ffffffffffffffff8111801561383c57600080fd5b50604051908082528060200260200182016040528015613866578160200160208202803683370190505b5090506060855167ffffffffffffffff8111801561388357600080fd5b506040519080825280602002602001820160405280156138ad578160200160208202803683370190505b5090506138b8614c56565b6138c0614c6d565b60005b89518110156139f0578981815181106138d857fe5b6020026020010151915060008060006138fd8c868d600001518e602001518a8f614001565b925092509250826001600160801b03168886602001516001600160801b03168151811061392657fe5b602002602001018181510191508181525050816001600160801b03168886604001516001600160801b03168151811061395b57fe5b6020026020010181815103915081815250506139a9818887602001516001600160801b03168151811061398a57fe5b60200260200101516001600160801b031661359e90919063ffffffff16565b8786602001516001600160801b0316815181106139c257fe5b60200260200101906001600160801b031690816001600160801b0316815250505050508060010190506138c3565b5060005b8851811015613cc0576000898281518110613a0b57fe5b602002602001015190506000868381518110613a2357fe5b60200260200101511315613b35576000868381518110613a3f57fe5b60200260200101519050896040015115613aea5789516001600160a01b039081166000908152600360209081526040808320938616835292905290812054613a94906001600160801b039081169084166141ca565b8b516001600160a01b03908116600090815260036020908152604080832093881683529290522080546001600160801b03808216849003166fffffffffffffffffffffffffffffffff1990911617905590910390505b6000613afb838c60000151846132b7565b9050816001600160801b0316816001600160801b031614613b2e5760405162461bcd60e51b815260040161070690615bd9565b5050613c01565b6000868381518110613b4357fe5b60200260200101516000039050896060015115613bee576020808b01516001600160a01b039081166000908152600383526040808220928616825291909252902054613b98906001600160801b03168261359e565b60208b8101516001600160a01b039081166000908152600383526040808220928716825291909252902080546fffffffffffffffffffffffffffffffff19166001600160801b0392909216919091179055613bff565b613bff828b602001518360006135cf565b505b613c60858381518110613c1057fe5b6020908102919091018101516001600160a01b0384166000908152600283526040908190208151808301909252546001600160801b038082168352600160801b9091041692810192909252613ce3565b6001600160a01b0390911660009081526002602090815260409091208251815493909201516001600160801b03908116600160801b029281166fffffffffffffffffffffffffffffffff19909416939093179092161790556001016139f4565b509298975050505050505050565b60006108e4836001600160a01b038416613e6c565b613ceb614c56565b6040805180820190915283518190613d0c906001600160801b0316856134e3565b6001600160801b031681526020016135808486602001516001600160801b03166134e390919063ffffffff16565b60006108e4836001600160a01b0384166141e0565b7f0000000000000000000000000000000000000000000000000000000000000000811115613d8f5760405162461bcd60e51b81526004016107069061574a565b600155565b6060613de9826040518060400160405280602081526020017f5361666545524332303a206c6f772d6c6576656c2063616c6c206661696c6564815250856001600160a01b03166142c49092919063ffffffff16565b80519091501561328f5780806020019051810190613e0791906151db565b61328f5760405162461bcd60e51b8152600401610706906161e5565b5490565b81546000908210613e4a5760405162461bcd60e51b815260040161070690615781565b826000018281548110613e5957fe5b9060005260206000200154905092915050565b60009081526001919091016020526040902054151590565b6136b7846323b872dd60e01b85858560405160240161322b939291906155c2565b60008060006134f285856142d3565b6000600160801b8210613ed95760405162461bcd60e51b815260040161070690615989565b5090565b600080826001600160801b0316846001600160801b031610613f055750508082036000613f0d565b505081810360015b9250929050565b6000613f208383613e6c565b613f56575081546001818101845560008481526020808220909301849055845484825282860190935260409020919091556109b5565b5060006109b5565b600080548190613f7a906001600160801b038581169116613065565b90506108e46001600160801b038416826134e3565b6000828202831580613fa9575082848281613fa657fe5b04145b613fc55760405162461bcd60e51b815260040161070690615f05565b6706f05b59d3b20000810181811015613ff05760405162461bcd60e51b815260040161070690615f05565b6000670de0b6b3a764000082613115565b6000806000808989602001516001600160801b03168151811061402057fe5b6020026020010151905060008a8a604001516001600160801b03168151811061404557fe5b60200260200101519050806001600160a01b0316826001600160a01b031614156140815760405162461bcd60e51b815260040161070690615ece565b60608a01516001600160801b0381166141015787516001600160a01b03166140bb5760405162461bcd60e51b815260040161070690615a7a565b6140c68784846142e9565b6001600160a01b031688600001516001600160a01b0316146140fa5760405162461bcd60e51b815260040161070690615fe1565b5060208701515b614109614c9d565b6040518060e00160405280856001600160a01b03168152602001846001600160a01b03168152602001836001600160801b031681526020018d6000015181526020018c6001600160a01b031681526020018b6001600160a01b031681526020018d608001518152509050600061417f828a61430b565b9650905061418e898686614440565b6001600160a01b03168a526001600160801b03811660208b01526141b3898483614461565b909f909e50959c50949a5050505050505050505050565b60008183106141d957816108e4565b5090919050565b600081815260018301602052604081205480156142ba5783547fffffffffffffffffffffffffffffffffffffffffffffffffffffffffffffffff808301919081019060009087908390811061423157fe5b906000526020600020015490508087600001848154811061424e57fe5b60009182526020808320909101929092558281526001898101909252604090209084019055865487908061427e57fe5b600190038181906000526020600020016000905590558660010160008781526020019081526020016000206000905560019450505050506109b5565b60009150506109b5565b6060611d99848460008561448f565b600080828410613f055750508082036000613f0d565b6000808460018111156142f857fe5b146143035781611d99565b509092915050565b60008060008061431e86606001516109bb565b9150915061432a614c56565b614332614c56565b600083600181111561434057fe5b141561436057614351888589614553565b90985096509092509050614397565b600183600181111561436e57fe5b141561437f5761435188858961480a565b60405162461bcd60e51b81526004016107069061629f565b6060880180516000908152600e602081815260408084208d516001600160a01b03908116865290835281852088518154998501516fffffffffffffffffffffffffffffffff199a8b166001600160801b03928316178216600160801b918316820217909255965186529383528185209d8301511684529b81529a9091208351815494909b0151939094169982169990991781169116909702969096179095555090939092509050565b60008084600181111561444f57fe5b1461445a5782611d99565b5092915050565b6000808085600181111561447157fe5b1415614481575082905081614487565b50819050825b935093915050565b606061449a85614bf4565b6144b65760405162461bcd60e51b8152600401610706906160e3565b60006060866001600160a01b031685876040516144d39190615579565b60006040518083038185875af1925050503d8060008114614510576040519150601f19603f3d011682016040523d82523d6000602084013e614515565b606091505b50915091508115614529579150611d999050565b8051156145395780518082602001fd5b8360405162461bcd60e51b81526004016107069190615737565b61455b614c56565b614563614c56565b60608501516000908152600e6020908152604080832088516001600160a01b0316845282528083208151808301909252546001600160801b038082168352600160801b90910416918101829052935081906145d05760405162461bcd60e51b815260040161070690615ab1565b60608701516000908152600e60209081526040808320828b01516001600160a01b031684528252918290208251808401909352546001600160801b038082168452600160801b9091041690820181905290935061463f5760405162461bcd60e51b8152600401610706906159e6565b600085600181111561464d57fe5b141561473857600080876001600160a01b031663f9ddfe3e61466e8b614c2d565b886020015188602001516040518463ffffffff1660e01b8152600401614696939291906163a3565b6040805180830381600087803b1580156146af57600080fd5b505af11580156146c3573d6000803e3d6000fd5b505050506040513d601f19601f820116820180604052508101906146e79190615438565b915091506146f481614c35565b9250614720614719848b604001516001600160801b03166134e390919063ffffffff16565b8790613529565b61472a8684613ce3565b839550955095505050614801565b600080876001600160a01b0316637ee65e536147538b614c2d565b886020015188602001516040518463ffffffff1660e01b815260040161477b939291906163a3565b6040805180830381600087803b15801561479457600080fd5b505af11580156147a8573d6000803e3d6000fd5b505050506040513d601f19601f820116820180604052508101906147cc9190615438565b915091506147d981614c35565b92506147f16147196001600160801b038416856134e3565b60408a015161472a908790613ce3565b93509350935093565b614812614c56565b61481a614c56565b600080606061483e600d60008a606001518152602001908152602001600020613294565b67ffffffffffffffff8111801561485457600080fd5b5060405190808252806020026020018201604052801561487e578160200160208202803683370190505b509050614889614cdb565b60005b60608a01516000908152600d602052604090206148a890613294565b81101561499d5760608a01516000908152600d602052604081206148cc908361329f565b90506148d6614c56565b5060608b01516000908152600e602090815260408083206001600160a01b03851684528252918290208251808401909352546001600160801b038082168452600160801b90910416908201819052855186908590811061493257fe5b6001600160801b03909216602092830291909101909101528b516001600160a01b038381169116141561496a57828452975087614993565b8b602001516001600160a01b0316826001600160a01b0316141561499357602084018390529650865b505060010161488c565b50600086602001516001600160801b0316116149cb5760405162461bcd60e51b815260040161070690615ab1565b600085602001516001600160801b0316116149f85760405162461bcd60e51b8152600401610706906159e6565b6000876001811115614a0657fe5b1415614b0f57600080896001600160a01b031663100f37e7614a278d614c2d565b855160208701516040517fffffffff0000000000000000000000000000000000000000000000000000000060e086901b168152614a6b93928a92909160040161636a565b6040805180830381600087803b158015614a8457600080fd5b505af1158015614a98573d6000803e3d6000fd5b505050506040513d601f19601f82011682018060405250810190614abc9190615438565b91509150614ac981614c35565b9450614af5614aee868d604001516001600160801b03166134e390919063ffffffff16565b8990613529565b614aff8884613ce3565b8397509750975050505050614801565b600080896001600160a01b031663befd70e0614b2a8d614c2d565b855160208701516040517fffffffff0000000000000000000000000000000000000000000000000000000060e086901b168152614b6e93928a92909160040161636a565b6040805180830381600087803b158015614b8757600080fd5b505af1158015614b9b573d6000803e3d6000fd5b505050506040513d601f19601f82011682018060405250810190614bbf9190615438565b91509150614bcc81614c35565b9450614be4614aee6001600160801b038416876134e3565b60408c0151614aff908990613ce3565b6000813f7fc5d2460186f7233c927e7db2dcc703c0e500b653ca82273b7bfad8045d85a470818114801590611d99575050151592915050565b613ed9614c9d565b600080546109b5906001600160801b0384811691600160801b900416613065565b604080518082019091526000808252602082015290565b6040805160a081018252600080825260208201819052918101829052606080820192909252608081019190915290565b6040805160e08101825260008082526020820181905291810182905260608082018390526080820183905260a082019290925260c081019190915290565b604051806040016040528060008152602001600081525090565b60008083601f840112614d06578182fd5b50813567ffffffffffffffff811115614d1d578182fd5b6020830191508360208083028501011115613f0d57600080fd5b600082601f830112614d47578081fd5b8135614d5a614d5582616427565b616400565b818152915060208083019084810181840286018201871015614d7b57600080fd5b60005b84811015614da3578135614d9181616473565b84529282019290820190600101614d7e565b505050505092915050565b600082601f830112614dbe578081fd5b8135614dcc614d5582616427565b818152915060208083019084810160005b84811015614da3578135870160a080601f19838c03011215614dfe57600080fd5b614e0781616400565b858301358152604080840135614e1c81616496565b82880152606084810135614e2f81616496565b8083850152506080915081850135614e4681616496565b90830152918301359167ffffffffffffffff831115614e6457600080fd5b614e728c8885870101614e8a565b90820152865250509282019290820190600101614ddd565b600082601f830112614e9a578081fd5b813567ffffffffffffffff811115614eb0578182fd5b614ec36020601f19601f84011601616400565b9150808252836020828501011115614eda57600080fd5b8060208401602084013760009082016020015292915050565b600060808284031215614f04578081fd5b614f0e6080616400565b90508135614f1b81616473565b81526020820135614f2b81616473565b60208201526040820135614f3e81616488565b60408201526060820135614f5181616488565b606082015292915050565b600060208284031215614f6d578081fd5b81356108e481616473565b60008060408385031215614f8a578081fd5b8235614f9581616473565b91506020830135614fa581616473565b809150509250929050565b60008060008060808587031215614fc5578182fd5b8435614fd081616473565b93506020850135614fe081616473565b925060408501359150606085013567ffffffffffffffff811115615002578182fd5b61500e87828801614e8a565b91505092959194509250565b60008060408385031215614f8a578182fd5b6000806040838503121561503e578182fd5b823561504981616473565b9150602083013560028110614fa5578182fd5b600080600060608486031215615070578081fd5b833561507b81616473565b9250602084013561ffff81168114615091578182fd5b9150604084013563ffffffff811681146150a9578182fd5b809150509250925092565b6000806000606084860312156150c8578081fd5b83356150d381616473565b95602085013595506040909401359392505050565b6000806000806000606086880312156150ff578283fd5b853567ffffffffffffffff80821115615116578485fd5b61512289838a01614cf5565b9097509550602088013591508082111561513a578485fd5b5061514788828901614cf5565b909450925050604086013561515b81616473565b809150509295509295909350565b600080600060c0848603121561517d578081fd5b833567ffffffffffffffff80821115615194578283fd5b6151a087838801614dae565b945060208601359150808211156151b5578283fd5b506151c286828701614d37565b9250506151d28560408601614ef3565b90509250925092565b6000602082840312156151ec578081fd5b81516108e481616488565b600060208284031215615208578081fd5b5035919050565b60008060408385031215615221578182fd5b823591506020830135614fa581616473565b60008060008060008060008060a0898b03121561524e578586fd5b88359750602089013561526081616473565b9650604089013567ffffffffffffffff8082111561527c578788fd5b6152888c838d01614cf5565b909850965060608b01359150808211156152a0578485fd5b6152ac8c838d01614cf5565b909650945060808b01359150808211156152c4578384fd5b506152d18b828c01614cf5565b999c989b5096995094979396929594505050565b6000806000604084860312156152f9578081fd5b83359250602084013567ffffffffffffffff811115615316578182fd5b61532286828701614cf5565b9497909650939450505050565b600080600060608486031215615343578081fd5b83359250602084013561535581616473565b915060408401356150a981616473565b6000806000806080858703121561537a578182fd5b84359350602085013561538c81616473565b9250604085013561539c81616473565b915060608501356153ac81616496565b939692955090935050565b6000806000606084860312156153cb578081fd5b8335925060208401356153dd81616473565b915060408401356150a981616496565b600080600060608486031215615401578081fd5b833561540c81616473565b9250602084013561535581616496565b60006020828403121561542d578081fd5b81356108e481616496565b6000806040838503121561544a578182fd5b825161545581616496565b6020840151909250614fa581616496565b600060208284031215615477578081fd5b5051919050565b60008060408385031215615490578182fd5b50508035926020909101359150565b6000815180845260208085019450808401835b838110156154d75781516001600160801b0316875295820195908201906001016154b2565b509495945050505050565b600081518084526154fa816020860160208601616447565b601f01601f19169290920160200192915050565b60006001600160a01b038083511684528060208401511660208501526001600160801b036040840151166040850152606083015160608501528060808401511660808501528060a08401511660a08501525060c082015160e060c0850152611d9960e08501826154e2565b6000825161558b818460208701616447565b9190910192915050565b6001600160a01b0391909116815260200190565b6001600160a01b03929092168252602082015260400190565b6001600160a01b039384168152919092166020820152604081019190915260600190565b6001600160a01b0383168152604081016002831061560057fe5b8260208301529392505050565b60006001600160a01b03861682528460208301528360408301526080606083015261563b60808301846154e2565b9695505050505050565b6020808252825182820181905260009190848201906040850190845b818110156156865783516001600160a01b031683529284019291840191600101615661565b50909695505050505050565b6020808252825182820181905260009190848201906040850190845b81811015615686578351835292840192918401916001016156ae565b6000602082526108e4602083018461549f565b901515815260200190565b90815260200190565b9182526001600160801b0316602082015260400190565b60006020825282602083015282846040840137818301604090810191909152601f909201601f19160101919050565b6000602082526108e460208301846154e2565b60208082526016908201527f466c6173684c6f616e2066656520746f6f206869676800000000000000000000604082015260600190565b60208082526022908201527f456e756d657261626c655365743a20696e646578206f7574206f6620626f756e60408201527f6473000000000000000000000000000000000000000000000000000000000000606082015260800190565b60208082526031908201527f5468657265206973206e6f7420656e6f756768206c697175696469747920617660408201527f61696c61626c6520746f20626f72726f77000000000000000000000000000000606082015260800190565b6020808252600f908201527f496e6578697374656e7420706f6f6c0000000000000000000000000000000000604082015260600190565b60208082526026908201527f5661756c743a20776974686472617720616d6f756e742065786365656473206260408201527f616c616e63650000000000000000000000000000000000000000000000000000606082015260800190565b60208082526025908201527f50657263656e74616765206d757374206265206265747765656e203020616e6460408201527f2031303025000000000000000000000000000000000000000000000000000000606082015260800190565b60208082526026908201527f6f76657220696e766573746d656e7420616d6f756e74202d2063616e6e6f742060408201527f696e766573740000000000000000000000000000000000000000000000000000606082015260800190565b60208082526027908201527f53616665436173743a2076616c756520646f65736e27742066697420696e203160408201527f3238206269747300000000000000000000000000000000000000000000000000606082015260800190565b60208082526013908201527f546f6b656e2042206e6f7420696e20706f6f6c00000000000000000000000000604082015260600190565b60208082526022908201527f546f6b656e7320616e6420616d6f756e7473206c656e677468206d69736d617460408201527f6368000000000000000000000000000000000000000000000000000000000000606082015260800190565b6020808252601f908201527f556e6b6e6f776e20616d6f756e7420696e206f6e206669727374207377617000604082015260600190565b60208082526013908201527f546f6b656e2041206e6f7420696e20706f6f6c00000000000000000000000000604082015260600190565b60208082526021908201527f43616c6c6572206973206e6f742074686520706f6f6c20636f6e74726f6c6c6560408201527f7200000000000000000000000000000000000000000000000000000000000000606082015260800190565b6020808252603f908201527f43616e6e6f74207365742061206e657720696e766573746d656e74206d616e6160408201527f6765722077697468206f75747374616e64696e6720696e766573746d656e7400606082015260800190565b60208082526011908201527f537761702066656520746f6f2068696768000000000000000000000000000000604082015260600190565b6020808252601a908201527f4e6f7420656e6f75676820746f6b656e73207265636569766564000000000000604082015260600190565b60208082526032908201527f5468652061637475616c2062616c616e6365206f66207468652070726f746f6360408201527f6f6c20697320696e636f6e73697374656e740000000000000000000000000000606082015260800190565b60208082526028908201527f546f6b656e7320616e6420746f74616c20616d6f756e7473206c656e6774682060408201527f6d69736d61746368000000000000000000000000000000000000000000000000606082015260800190565b60208082526010908201527f4552525f4449565f494e5445524e414c00000000000000000000000000000000604082015260600190565b6020808252600b908201527f4552525f5245454e545259000000000000000000000000000000000000000000604082015260600190565b60208082526027908201527f756e64657220696e766573746d656e7420616d6f756e74202d2063616e6e6f7460408201527f2064697665737400000000000000000000000000000000000000000000000000606082015260800190565b60208082526016908201527f506f6f6c20494420616c72656164792065786973747300000000000000000000604082015260600190565b60208082526014908201527f5374726174656779206d75737420626520736574000000000000000000000000604082015260600190565b60208082526016908201527f43616c6c6572206973206e6f74206f70657261746f7200000000000000000000604082015260600190565b60208082526032908201527f5468652072657175657374656420616d6f756e7420697320746f6f20736d616c60408201527f6c20666f72206120666c6173684c6f616e2e0000000000000000000000000000606082015260800190565b6020808252601d908201527f416d6f756e7420617272617973206c656e677468206d69736d61746368000000604082015260600190565b60208082526013908201527f5377617020666f722073616d6520746f6b656e00000000000000000000000000604082015260600190565b60208082526010908201527f4552525f4d554c5f4f564552464c4f5700000000000000000000000000000000604082015260600190565b60208082526017908201527f43616c6c6572206973206e6f74207468652061646d696e000000000000000000604082015260600190565b60208082526015908201527f57697468647261772066656520746f6f20686967680000000000000000000000604082015260600190565b6020808252600c908201527f4552525f4449565f5a45524f0000000000000000000000000000000000000000604082015260600190565b6020808252601c908201527f4d6973636f6e7374727563746564206d756c7469686f70207377617000000000604082015260600190565b6020808252601d908201527f4f6e6c7920706f6f6c20696e766573746d656e74206f70657261746f72000000604082015260600190565b6020808252603c908201527f506f6f6c2062616c616e636520697320616c72656164792062616c616e63656460408201527f206265747765656e206361736820616e6420696e766573746d656e7400000000606082015260800190565b6020808252600b908201527f42616420696e6469636573000000000000000000000000000000000000000000604082015260600190565b6020808252601d908201527f416464726573733a2063616c6c20746f206e6f6e2d636f6e7472616374000000604082015260600190565b6020808252603f908201527f43616e6e6f742072656d6f766520616e20696e766573746d656e74206d616e6160408201527f6765722077697468206f75747374616e64696e6720696e766573746d656e7400606082015260800190565b60208082526011908201527f4552525f5355425f554e444552464c4f57000000000000000000000000000000604082015260600190565b60208082526010908201527f4552525f4144445f4f564552464c4f5700000000000000000000000000000000604082015260600190565b6020808252602a908201527f5361666545524332303a204552433230206f7065726174696f6e20646964206e60408201527f6f74207375636365656400000000000000000000000000000000000000000000606082015260800190565b60208082526027908201527f43616c6c6572206973206e6f742074727573746564206f70657261746f72207260408201527f65706f7274657200000000000000000000000000000000000000000000000000606082015260800190565b60208082526015908201527f556e6b6e6f776e20737472617465677920747970650000000000000000000000604082015260600190565b60208082526011908201527f546f6b656e206e6f7420696e20706f6f6c000000000000000000000000000000604082015260600190565b60208082526023908201527f496e73756666696369656e7420756e6163636f756e74656420666f7220746f6b60408201527f656e730000000000000000000000000000000000000000000000000000000000606082015260800190565b60006080825261637d608083018761550e565b828103602084015261638f818761549f565b604084019590955250506060015292915050565b6000606082526163b6606083018661550e565b6001600160801b0394851660208401529290931660409091015292915050565b6001600160801b0391909116815260200190565b9283526020830191909152604082015260600190565b60405181810167ffffffffffffffff8111828210171561641f57600080fd5b604052919050565b600067ffffffffffffffff82111561643d578081fd5b5060209081020190565b60005b8381101561646257818101518382015260200161644a565b838111156136b75750506000910152565b6001600160a01b03811681146112f857600080fd5b80151581146112f857600080fd5b6001600160801b03811681146112f857600080fdfea264697066735822122016ee35779a9b440475cda6d821e62731fc36cfea58e96ff9c8da12ca8f19083664736f6c63430007010033",
  "devdoc": {
    "kind": "dev",
    "methods": {
      "addLiquidity(bytes32,address,address[],uint128[],uint128[])": {
        "details": "Adds liquidity into a Pool. Can only be called by its controller. For each token, the Pool's balance will be increased by `totalAmounts[i]`. This is achieved by first transferring `amountsToTransfer[i]` tokens, and then withdrawing any amount remaining from User Balance. In both cases, the tokens will come from `from`. `from` must have granted allowance to the Vault, and the caller (Pool controller) must be an operator for `from`. If a token that was not previously in the Pool is granted balance by this function, it will become part of the Pool. This is the only way tokens can be added to a Pool."
      },
      "authorizeOperator(address)": {
        "details": "Authorizes `operator` to act as an operator for the caller."
      },
      "authorizeTrustedOperatorReporter(address)": {
        "details": "Authorizes `reporter` to call `reportTrustedOperator`. This is typically called on factory contracts. Can only be called by the admin."
      },
      "batchSwapGivenIn((bytes32,uint128,uint128,uint128,bytes)[],address[],(address,address,bool,bool))": {
        "details": "Performs a series of swaps with one or multiple Pools. Each swap is validated and executed in order. However, tokens are only transferred in and out of the Vault (or withdrawn/deposited from User Balance) after all swaps have been validated and the net token balance change computed. This means it is possible to e.g. under certain conditions perform arbitrage by swapping with multiple Pools in a way that results in net token movement out of the Vault (profit), with no tokens being sent in. The `diffs` array contains the addresses of all tokens involved in the swaps, along with how many tokens the caller expects to transfer into the Vault for each. Any tokens due to the Vault not included in this amount will be withdrawn from User Balance. The `swaps` array contains the information about each individual swaps. All swaps consist of a Pool receiving some amount of one of its tokens (`tokenIn`), and sending some amount of another one of its tokens (`tokenOut`). A swap cannot cause `tokenOut` to be fully drained. The Pools' Trading Strategies will validate each swap, possibly charging a swap fee on the amount going in. If so, the protocol will then charge the protocol swap fee to the Pool's own swap fee. Funds will be received according to the data in `fundsIn`, and sent according to `fundsOut`."
      },
      "claimUnaccountedForTokens(address[],uint256[],address)": {
        "details": "Transfers to `recipient` the requested amounts of unnaccounted-for tokens. Can only be called by the admin."
      },
      "deposit(address,uint128,address)": {
        "details": "Deposits tokens from the caller into `user`'s User Balance."
      },
      "flashLoan(address,address,uint256,bytes)": {
        "details": "allows smartcontracts to access the liquidity of the vault within one transaction, as long as the amount taken plus a fee is returned. NOTE There are security concerns for developers of flashloan receiver contracts that must be kept into consideration. For further details please visit https://developers.aave.com",
        "params": {
          "_amount": "the amount requested for this flashloan*",
          "_receiver": "The address of the contract receiving the funds. The receiver should implement the IFlashLoanReceiver interface.",
          "_token": "the address of the principal ERC-20 token"
        }
      },
      "getPoolController(bytes32)": {
        "details": "Returns a Pool's controller."
      },
      "getPoolIds(uint256,uint256)": {
        "details": "Returns a partial list of Pool IDs, starting at index `start`, up to index `end`."
      },
      "getPoolStrategy(bytes32)": {
        "details": "Returns a Pool's Trading Strategy and Trading Strategy Type."
      },
      "getPoolTokenBalances(bytes32,address[])": {
        "details": "Returns the Pool's balance of `tokens`. This might be zero if the tokens are not in the Pool."
      },
      "getPoolTokens(bytes32)": {
        "details": "Returns all tokens in the Pool (tokens for which the Pool has balance)."
      },
      "getTotalPools()": {
        "details": "Returns the number of Pools."
      },
      "getTotalTrustedOperatorReporters()": {
        "details": "Returns the number of Trusted Operator Reporters."
      },
      "getTotalTrustedOperators()": {
        "details": "Returns the number of Trusted Operators."
      },
      "getTotalUnaccountedForTokens(address)": {
        "details": "Returns the number of unaccounted-for tokens for `token`."
      },
      "getTrustedOperatorReporters(uint256,uint256)": {
        "details": "Returns a partial list of Trusted Operator Reporters, starting at index `start`, up to index `end`."
      },
      "getTrustedOperators(uint256,uint256)": {
        "details": "Returns a partial list of Trusted Operators, starting at index `start`, up to index `end`."
      },
      "getUserOperators(address,uint256,uint256)": {
        "details": "Returns a partial list of `user`'s operators, starting at index `start`, up to index `end`. This does not include `user` itself, nor Trusted Operators. The ordering of this list may change as operators are authorized and revoked."
      },
      "getUserTokenBalance(address,address)": {
        "details": "Returns `user`'s User Balance for a specific token."
      },
      "getUserTotalOperators(address)": {
        "details": "Returns the number of operators for `user`. This does not include `user` itself, nor Trusted Operators."
      },
      "isOperatorFor(address,address)": {
        "details": "Returns true of `operator` is an operator for `user`."
      },
      "newPool(address,uint8)": {
        "details": "Creates a new Pool with a Trading Strategy and Trading Strategy Type. The caller of this function becomes the Pool's controller. Returns the created Pool's ID. Also emits a PoolCreated event."
      },
      "removeLiquidity(bytes32,address,address[],uint128[],uint128[])": {
        "details": "Removes liquidity from a Pool. Can only be called by its controller. For each token, the Pool's balance will be decreased by `totalAmounts[i]`. This is achieved by first transferring `amountsToTransfer[i]` tokens, and then depositing any amount remaining into User Balance. In both cases, the tokens are sent to `to`. Withdraw protocol fees are charged over any tokens transferred out. If a token that was previously in the Pool has all of its balance removed by this function, it will no longer be in the Pool. This is the only way tokens can be removed from a Pool."
      },
      "reportTrustedOperator(address)": {
        "details": "Adds `operator` as a Trusted Operator. Can only be called by a Trusted Operator Reporter."
      },
      "revokeOperator(address)": {
        "details": "Revokes `operator` so that it no longer is an operator for the caller. An account is always its own operator and cannot revoke itself. Trusted Operators also cannot be revoked."
      },
      "setPoolController(bytes32,address)": {
        "details": "Sets a new controller for a Pool. Can only be called by its current controller."
      },
      "withdraw(address,uint128,address)": {
        "details": "Withdraws tokens from the caller's User Balance, transferring them to `recipient`. Withdraw protocol fees are charged by this."
      }
    },
    "version": 1
  },
  "userdoc": {
    "kind": "user",
    "methods": {},
    "version": 1
  },
  "storageLayout": {
    "storage": [
      {
        "astId": 10016,
        "contract": "contracts/vault/Vault.sol:Vault",
        "label": "_protocolWithdrawFee",
        "offset": 0,
        "slot": "0",
        "type": "t_uint128"
      },
      {
        "astId": 10018,
        "contract": "contracts/vault/Vault.sol:Vault",
        "label": "_protocolSwapFee",
        "offset": 16,
        "slot": "0",
        "type": "t_uint128"
      },
      {
        "astId": 10030,
        "contract": "contracts/vault/Vault.sol:Vault",
        "label": "_protocolFlashLoanFee",
        "offset": 0,
        "slot": "1",
        "type": "t_uint256"
      },
      {
        "astId": 11929,
        "contract": "contracts/vault/Vault.sol:Vault",
        "label": "_vaultTokenBalance",
        "offset": 0,
        "slot": "2",
        "type": "t_mapping(t_contract(IERC20)1268,t_struct(Balance)11842_storage)"
      },
      {
        "astId": 11290,
        "contract": "contracts/vault/Vault.sol:Vault",
        "label": "_userTokenBalance",
        "offset": 0,
        "slot": "3",
        "type": "t_mapping(t_address,t_mapping(t_contract(IERC20)1268,t_uint128))"
      },
      {
        "astId": 11294,
        "contract": "contracts/vault/Vault.sol:Vault",
        "label": "_userOperators",
        "offset": 0,
        "slot": "4",
        "type": "t_mapping(t_address,t_struct(AddressSet)12360_storage)"
      },
      {
        "astId": 11296,
        "contract": "contracts/vault/Vault.sol:Vault",
        "label": "_trustedOperators",
        "offset": 0,
        "slot": "5",
        "type": "t_struct(AddressSet)12360_storage"
      },
      {
        "astId": 11298,
        "contract": "contracts/vault/Vault.sol:Vault",
        "label": "_trustedOperatorReporters",
        "offset": 0,
        "slot": "7",
        "type": "t_struct(AddressSet)12360_storage"
      },
      {
        "astId": 7774,
        "contract": "contracts/vault/Vault.sol:Vault",
        "label": "_mutex",
        "offset": 0,
        "slot": "9",
        "type": "t_bool"
      },
      {
        "astId": 8604,
        "contract": "contracts/vault/Vault.sol:Vault",
        "label": "_pools",
        "offset": 0,
        "slot": "10",
        "type": "t_struct(BytesSet)12275_storage"
      },
      {
        "astId": 8608,
        "contract": "contracts/vault/Vault.sol:Vault",
        "label": "_poolController",
        "offset": 0,
        "slot": "12",
        "type": "t_mapping(t_bytes32,t_address)"
      },
      {
        "astId": 8612,
        "contract": "contracts/vault/Vault.sol:Vault",
        "label": "_poolTokens",
        "offset": 0,
        "slot": "13",
        "type": "t_mapping(t_bytes32,t_struct(AddressSet)12360_storage)"
      },
      {
        "astId": 8618,
        "contract": "contracts/vault/Vault.sol:Vault",
        "label": "_poolTokenBalance",
        "offset": 0,
        "slot": "14",
        "type": "t_mapping(t_bytes32,t_mapping(t_contract(IERC20)1268,t_struct(Balance)11842_storage))"
      },
      {
        "astId": 8638,
        "contract": "contracts/vault/Vault.sol:Vault",
        "label": "_investablePercentage",
        "offset": 0,
        "slot": "15",
        "type": "t_mapping(t_bytes32,t_mapping(t_contract(IERC20)1268,t_uint128))"
      },
      {
        "astId": 8644,
        "contract": "contracts/vault/Vault.sol:Vault",
        "label": "_poolInvestmentManagers",
        "offset": 0,
        "slot": "16",
        "type": "t_mapping(t_bytes32,t_mapping(t_contract(IERC20)1268,t_address))"
      },
      {
        "astId": 7851,
        "contract": "contracts/vault/Vault.sol:Vault",
        "label": "_admin",
        "offset": 0,
        "slot": "17",
        "type": "t_address"
      }
    ],
    "types": {
      "t_address": {
        "encoding": "inplace",
        "label": "address",
        "numberOfBytes": "20"
      },
      "t_array(t_bytes32)dyn_storage": {
        "base": "t_bytes32",
        "encoding": "dynamic_array",
        "label": "bytes32[]",
        "numberOfBytes": "32"
      },
      "t_bool": {
        "encoding": "inplace",
        "label": "bool",
        "numberOfBytes": "1"
      },
      "t_bytes32": {
        "encoding": "inplace",
        "label": "bytes32",
        "numberOfBytes": "32"
      },
      "t_contract(IERC20)1268": {
        "encoding": "inplace",
        "label": "contract IERC20",
        "numberOfBytes": "20"
      },
      "t_mapping(t_address,t_mapping(t_contract(IERC20)1268,t_uint128))": {
        "encoding": "mapping",
        "key": "t_address",
        "label": "mapping(address => mapping(contract IERC20 => uint128))",
        "numberOfBytes": "32",
        "value": "t_mapping(t_contract(IERC20)1268,t_uint128)"
      },
      "t_mapping(t_address,t_struct(AddressSet)12360_storage)": {
        "encoding": "mapping",
        "key": "t_address",
        "label": "mapping(address => struct EnumerableSet.AddressSet)",
        "numberOfBytes": "32",
        "value": "t_struct(AddressSet)12360_storage"
      },
      "t_mapping(t_bytes32,t_address)": {
        "encoding": "mapping",
        "key": "t_bytes32",
        "label": "mapping(bytes32 => address)",
        "numberOfBytes": "32",
        "value": "t_address"
      },
      "t_mapping(t_bytes32,t_mapping(t_contract(IERC20)1268,t_address))": {
        "encoding": "mapping",
        "key": "t_bytes32",
        "label": "mapping(bytes32 => mapping(contract IERC20 => address))",
        "numberOfBytes": "32",
        "value": "t_mapping(t_contract(IERC20)1268,t_address)"
      },
      "t_mapping(t_bytes32,t_mapping(t_contract(IERC20)1268,t_struct(Balance)11842_storage))": {
        "encoding": "mapping",
        "key": "t_bytes32",
        "label": "mapping(bytes32 => mapping(contract IERC20 => struct BalanceLib.Balance))",
        "numberOfBytes": "32",
        "value": "t_mapping(t_contract(IERC20)1268,t_struct(Balance)11842_storage)"
      },
      "t_mapping(t_bytes32,t_mapping(t_contract(IERC20)1268,t_uint128))": {
        "encoding": "mapping",
        "key": "t_bytes32",
        "label": "mapping(bytes32 => mapping(contract IERC20 => uint128))",
        "numberOfBytes": "32",
        "value": "t_mapping(t_contract(IERC20)1268,t_uint128)"
      },
      "t_mapping(t_bytes32,t_struct(AddressSet)12360_storage)": {
        "encoding": "mapping",
        "key": "t_bytes32",
        "label": "mapping(bytes32 => struct EnumerableSet.AddressSet)",
        "numberOfBytes": "32",
        "value": "t_struct(AddressSet)12360_storage"
      },
      "t_mapping(t_bytes32,t_uint256)": {
        "encoding": "mapping",
        "key": "t_bytes32",
        "label": "mapping(bytes32 => uint256)",
        "numberOfBytes": "32",
        "value": "t_uint256"
      },
      "t_mapping(t_contract(IERC20)1268,t_address)": {
        "encoding": "mapping",
        "key": "t_contract(IERC20)1268",
        "label": "mapping(contract IERC20 => address)",
        "numberOfBytes": "32",
        "value": "t_address"
      },
      "t_mapping(t_contract(IERC20)1268,t_struct(Balance)11842_storage)": {
        "encoding": "mapping",
        "key": "t_contract(IERC20)1268",
        "label": "mapping(contract IERC20 => struct BalanceLib.Balance)",
        "numberOfBytes": "32",
        "value": "t_struct(Balance)11842_storage"
      },
      "t_mapping(t_contract(IERC20)1268,t_uint128)": {
        "encoding": "mapping",
        "key": "t_contract(IERC20)1268",
        "label": "mapping(contract IERC20 => uint128)",
        "numberOfBytes": "32",
        "value": "t_uint128"
      },
      "t_struct(AddressSet)12360_storage": {
        "encoding": "inplace",
        "label": "struct EnumerableSet.AddressSet",
        "members": [
          {
            "astId": 12359,
            "contract": "contracts/vault/Vault.sol:Vault",
            "label": "_inner",
            "offset": 0,
            "slot": "0",
            "type": "t_struct(Set)12095_storage"
          }
        ],
        "numberOfBytes": "64"
      },
      "t_struct(Balance)11842_storage": {
        "encoding": "inplace",
        "label": "struct BalanceLib.Balance",
        "members": [
          {
            "astId": 11839,
            "contract": "contracts/vault/Vault.sol:Vault",
            "label": "cash",
            "offset": 0,
            "slot": "0",
            "type": "t_uint128"
          },
          {
            "astId": 11841,
            "contract": "contracts/vault/Vault.sol:Vault",
            "label": "total",
            "offset": 16,
            "slot": "0",
            "type": "t_uint128"
          }
        ],
        "numberOfBytes": "32"
      },
      "t_struct(BytesSet)12275_storage": {
        "encoding": "inplace",
        "label": "struct EnumerableSet.BytesSet",
        "members": [
          {
            "astId": 12274,
            "contract": "contracts/vault/Vault.sol:Vault",
            "label": "_inner",
            "offset": 0,
            "slot": "0",
            "type": "t_struct(Set)12095_storage"
          }
        ],
        "numberOfBytes": "64"
      },
      "t_struct(Set)12095_storage": {
        "encoding": "inplace",
        "label": "struct EnumerableSet.Set",
        "members": [
          {
            "astId": 12090,
            "contract": "contracts/vault/Vault.sol:Vault",
            "label": "_values",
            "offset": 0,
            "slot": "0",
            "type": "t_array(t_bytes32)dyn_storage"
          },
          {
            "astId": 12094,
            "contract": "contracts/vault/Vault.sol:Vault",
            "label": "_indexes",
            "offset": 0,
            "slot": "1",
            "type": "t_mapping(t_bytes32,t_uint256)"
          }
        ],
        "numberOfBytes": "64"
      },
      "t_uint128": {
        "encoding": "inplace",
        "label": "uint128",
        "numberOfBytes": "16"
      },
      "t_uint256": {
        "encoding": "inplace",
        "label": "uint256",
        "numberOfBytes": "32"
      }
    }
  }
}