{
  "address": "0x47753454C4270DAE017499952b973c24Aaa5768D",
  "abi": [
    {
      "inputs": [
        {
          "internalType": "contract IAuthorizer",
          "name": "authorizer",
          "type": "address"
        }
      ],
      "stateMutability": "nonpayable",
      "type": "constructor"
    },
    {
      "anonymous": false,
      "inputs": [
        {
          "indexed": true,
          "internalType": "address",
          "name": "depositor",
          "type": "address"
        },
        {
          "indexed": true,
          "internalType": "address",
          "name": "user",
          "type": "address"
        },
        {
          "indexed": true,
          "internalType": "contract IERC20",
          "name": "token",
          "type": "address"
        },
        {
          "indexed": false,
          "internalType": "uint256",
          "name": "amount",
          "type": "uint256"
        }
      ],
      "name": "InternalBalanceDeposited",
      "type": "event"
    },
    {
      "anonymous": false,
      "inputs": [
        {
          "indexed": true,
          "internalType": "address",
          "name": "from",
          "type": "address"
        },
        {
          "indexed": true,
          "internalType": "address",
          "name": "to",
          "type": "address"
        },
        {
          "indexed": true,
          "internalType": "contract IERC20",
          "name": "token",
          "type": "address"
        },
        {
          "indexed": false,
          "internalType": "uint256",
          "name": "amount",
          "type": "uint256"
        }
      ],
      "name": "InternalBalanceTransferred",
      "type": "event"
    },
    {
      "anonymous": false,
      "inputs": [
        {
          "indexed": true,
          "internalType": "address",
          "name": "user",
          "type": "address"
        },
        {
          "indexed": true,
          "internalType": "address",
          "name": "recipient",
          "type": "address"
        },
        {
          "indexed": true,
          "internalType": "contract IERC20",
          "name": "token",
          "type": "address"
        },
        {
          "indexed": false,
          "internalType": "uint256",
          "name": "amount",
          "type": "uint256"
        }
      ],
      "name": "InternalBalanceWithdrawn",
      "type": "event"
    },
    {
      "anonymous": false,
      "inputs": [
        {
          "indexed": true,
          "internalType": "bytes32",
          "name": "poolId",
          "type": "bytes32"
        },
        {
          "indexed": true,
          "internalType": "contract IERC20",
          "name": "token",
          "type": "address"
        },
        {
          "indexed": true,
          "internalType": "address",
          "name": "manager",
          "type": "address"
        }
      ],
      "name": "PoolAssetManagerSet",
      "type": "event"
    },
    {
      "anonymous": false,
      "inputs": [
        {
          "indexed": true,
          "internalType": "bytes32",
          "name": "poolId",
          "type": "bytes32"
        },
        {
          "indexed": true,
          "internalType": "address",
          "name": "assetManager",
          "type": "address"
        },
        {
          "indexed": true,
          "internalType": "contract IERC20",
          "name": "token",
          "type": "address"
        },
        {
          "indexed": false,
          "internalType": "int256",
          "name": "amount",
          "type": "int256"
        }
      ],
      "name": "PoolBalanceChanged",
      "type": "event"
    },
    {
      "anonymous": false,
      "inputs": [
        {
          "indexed": false,
          "internalType": "bytes32",
          "name": "poolId",
          "type": "bytes32"
        }
      ],
      "name": "PoolCreated",
      "type": "event"
    },
    {
      "anonymous": false,
      "inputs": [
        {
          "indexed": true,
          "internalType": "bytes32",
          "name": "poolId",
          "type": "bytes32"
        },
        {
          "indexed": true,
          "internalType": "address",
          "name": "liquidityProvider",
          "type": "address"
        },
        {
          "indexed": false,
          "internalType": "uint256[]",
          "name": "amountsOut",
          "type": "uint256[]"
        },
        {
          "indexed": false,
          "internalType": "uint256[]",
          "name": "protocolFees",
          "type": "uint256[]"
        }
      ],
      "name": "PoolExited",
      "type": "event"
    },
    {
      "anonymous": false,
      "inputs": [
        {
          "indexed": true,
          "internalType": "bytes32",
          "name": "poolId",
          "type": "bytes32"
        },
        {
          "indexed": true,
          "internalType": "address",
          "name": "liquidityProvider",
          "type": "address"
        },
        {
          "indexed": false,
          "internalType": "uint256[]",
          "name": "amountsIn",
          "type": "uint256[]"
        },
        {
          "indexed": false,
          "internalType": "uint256[]",
          "name": "protocolFees",
          "type": "uint256[]"
        }
      ],
      "name": "PoolJoined",
      "type": "event"
    },
    {
      "anonymous": false,
      "inputs": [
        {
          "indexed": true,
          "internalType": "bytes32",
          "name": "poolId",
          "type": "bytes32"
        },
        {
          "indexed": true,
          "internalType": "contract IERC20",
          "name": "tokenIn",
          "type": "address"
        },
        {
          "indexed": true,
          "internalType": "contract IERC20",
          "name": "tokenOut",
          "type": "address"
        },
        {
          "indexed": false,
          "internalType": "uint256",
          "name": "tokensIn",
          "type": "uint256"
        },
        {
          "indexed": false,
          "internalType": "uint256",
          "name": "tokensOut",
          "type": "uint256"
        }
      ],
      "name": "Swap",
      "type": "event"
    },
    {
      "anonymous": false,
      "inputs": [
        {
          "indexed": false,
          "internalType": "bytes32",
          "name": "poolId",
          "type": "bytes32"
        },
        {
          "indexed": false,
          "internalType": "contract IERC20[]",
          "name": "tokens",
          "type": "address[]"
        }
      ],
      "name": "TokensRegistered",
      "type": "event"
    },
    {
      "anonymous": false,
      "inputs": [
        {
          "indexed": false,
          "internalType": "bytes32",
          "name": "poolId",
          "type": "bytes32"
        },
        {
          "indexed": false,
          "internalType": "contract IERC20[]",
          "name": "tokens",
          "type": "address[]"
        }
      ],
      "name": "TokensUnregistered",
      "type": "event"
    },
    {
      "inputs": [
        {
          "internalType": "contract ISwapValidator",
          "name": "validator",
          "type": "address"
        },
        {
          "internalType": "bytes",
          "name": "validatorData",
          "type": "bytes"
        },
        {
          "components": [
            {
              "internalType": "bytes32",
              "name": "poolId",
              "type": "bytes32"
            },
            {
              "internalType": "uint256",
              "name": "tokenInIndex",
              "type": "uint256"
            },
            {
              "internalType": "uint256",
              "name": "tokenOutIndex",
              "type": "uint256"
            },
            {
              "internalType": "uint256",
              "name": "amountIn",
              "type": "uint256"
            },
            {
              "internalType": "bytes",
              "name": "userData",
              "type": "bytes"
            }
          ],
          "internalType": "struct IVault.SwapIn[]",
          "name": "swaps",
          "type": "tuple[]"
        },
        {
          "internalType": "contract IERC20[]",
          "name": "tokens",
          "type": "address[]"
        },
        {
          "components": [
            {
              "internalType": "address",
              "name": "recipient",
              "type": "address"
            },
            {
              "internalType": "bool",
              "name": "fromInternalBalance",
              "type": "bool"
            },
            {
              "internalType": "bool",
              "name": "toInternalBalance",
              "type": "bool"
            }
          ],
          "internalType": "struct IVault.FundManagement",
          "name": "funds",
          "type": "tuple"
        }
      ],
      "name": "batchSwapGivenIn",
      "outputs": [
        {
          "internalType": "int256[]",
          "name": "",
          "type": "int256[]"
        }
      ],
      "stateMutability": "nonpayable",
      "type": "function"
    },
    {
      "inputs": [
        {
          "internalType": "contract ISwapValidator",
          "name": "validator",
          "type": "address"
        },
        {
          "internalType": "bytes",
          "name": "validatorData",
          "type": "bytes"
        },
        {
          "components": [
            {
              "internalType": "bytes32",
              "name": "poolId",
              "type": "bytes32"
            },
            {
              "internalType": "uint256",
              "name": "tokenInIndex",
              "type": "uint256"
            },
            {
              "internalType": "uint256",
              "name": "tokenOutIndex",
              "type": "uint256"
            },
            {
              "internalType": "uint256",
              "name": "amountOut",
              "type": "uint256"
            },
            {
              "internalType": "bytes",
              "name": "userData",
              "type": "bytes"
            }
          ],
          "internalType": "struct IVault.SwapOut[]",
          "name": "swaps",
          "type": "tuple[]"
        },
        {
          "internalType": "contract IERC20[]",
          "name": "tokens",
          "type": "address[]"
        },
        {
          "components": [
            {
              "internalType": "address",
              "name": "recipient",
              "type": "address"
            },
            {
              "internalType": "bool",
              "name": "fromInternalBalance",
              "type": "bool"
            },
            {
              "internalType": "bool",
              "name": "toInternalBalance",
              "type": "bool"
            }
          ],
          "internalType": "struct IVault.FundManagement",
          "name": "funds",
          "type": "tuple"
        }
      ],
      "name": "batchSwapGivenOut",
      "outputs": [
        {
          "internalType": "int256[]",
          "name": "",
          "type": "int256[]"
        }
      ],
      "stateMutability": "nonpayable",
      "type": "function"
    },
    {
      "inputs": [
        {
          "internalType": "contract IAuthorizer",
          "name": "newAuthorizer",
          "type": "address"
        }
      ],
      "name": "changeAuthorizer",
      "outputs": [],
      "stateMutability": "nonpayable",
      "type": "function"
    },
    {
      "inputs": [
        {
          "internalType": "contract IERC20[]",
          "name": "tokens",
          "type": "address[]"
        },
        {
          "internalType": "uint256[]",
          "name": "amounts",
          "type": "uint256[]"
        },
        {
          "internalType": "address",
          "name": "user",
          "type": "address"
        }
      ],
      "name": "depositToInternalBalance",
      "outputs": [],
      "stateMutability": "nonpayable",
      "type": "function"
    },
    {
      "inputs": [
        {
          "internalType": "bytes32",
          "name": "poolId",
          "type": "bytes32"
        },
        {
          "internalType": "contract IERC20",
          "name": "token",
          "type": "address"
        },
        {
          "internalType": "uint256",
          "name": "amount",
          "type": "uint256"
        }
      ],
      "name": "depositToPoolBalance",
      "outputs": [],
      "stateMutability": "nonpayable",
      "type": "function"
    },
    {
      "inputs": [
        {
          "internalType": "bytes32",
          "name": "poolId",
          "type": "bytes32"
        },
        {
          "internalType": "address",
          "name": "recipient",
          "type": "address"
        },
        {
          "internalType": "contract IERC20[]",
          "name": "tokens",
          "type": "address[]"
        },
        {
          "internalType": "uint256[]",
          "name": "minAmountsOut",
          "type": "uint256[]"
        },
        {
          "internalType": "bool",
          "name": "toInternalBalance",
          "type": "bool"
        },
        {
          "internalType": "bytes",
          "name": "userData",
          "type": "bytes"
        }
      ],
      "name": "exitPool",
      "outputs": [],
      "stateMutability": "nonpayable",
      "type": "function"
    },
    {
      "inputs": [
        {
          "internalType": "contract IFlashLoanReceiver",
          "name": "receiver",
          "type": "address"
        },
        {
          "internalType": "contract IERC20[]",
          "name": "tokens",
          "type": "address[]"
        },
        {
          "internalType": "uint256[]",
          "name": "amounts",
          "type": "uint256[]"
        },
        {
          "internalType": "bytes",
          "name": "receiverData",
          "type": "bytes"
        }
      ],
      "name": "flashLoan",
      "outputs": [],
      "stateMutability": "nonpayable",
      "type": "function"
    },
    {
      "inputs": [],
      "name": "getAuthorizer",
      "outputs": [
        {
          "internalType": "contract IAuthorizer",
          "name": "",
          "type": "address"
        }
      ],
      "stateMutability": "view",
      "type": "function"
    },
    {
      "inputs": [
        {
          "internalType": "contract IERC20",
          "name": "token",
          "type": "address"
        }
      ],
      "name": "getCollectedFeesByToken",
      "outputs": [
        {
          "internalType": "uint256",
          "name": "",
          "type": "uint256"
        }
      ],
      "stateMutability": "view",
      "type": "function"
    },
    {
      "inputs": [
        {
          "internalType": "address",
          "name": "user",
          "type": "address"
        },
        {
          "internalType": "contract IERC20[]",
          "name": "tokens",
          "type": "address[]"
        }
      ],
      "name": "getInternalBalance",
      "outputs": [
        {
          "internalType": "uint256[]",
          "name": "",
          "type": "uint256[]"
        }
      ],
      "stateMutability": "view",
      "type": "function"
    },
    {
      "inputs": [],
      "name": "getNumberOfPools",
      "outputs": [
        {
          "internalType": "uint256",
          "name": "",
          "type": "uint256"
        }
      ],
      "stateMutability": "view",
      "type": "function"
    },
    {
      "inputs": [
        {
          "internalType": "bytes32",
          "name": "poolId",
          "type": "bytes32"
        }
      ],
      "name": "getPool",
      "outputs": [
        {
          "internalType": "address",
          "name": "",
          "type": "address"
        },
        {
          "internalType": "enum IVault.PoolSpecialization",
          "name": "",
          "type": "uint8"
        }
      ],
      "stateMutability": "view",
      "type": "function"
    },
    {
      "inputs": [
        {
          "internalType": "bytes32",
          "name": "poolId",
          "type": "bytes32"
        },
        {
          "internalType": "contract IERC20",
          "name": "token",
          "type": "address"
        }
      ],
      "name": "getPoolAssetManager",
      "outputs": [
        {
          "internalType": "address",
          "name": "",
          "type": "address"
        }
      ],
      "stateMutability": "view",
      "type": "function"
    },
    {
      "inputs": [
        {
          "internalType": "uint256",
          "name": "start",
          "type": "uint256"
        },
        {
          "internalType": "uint256",
          "name": "end",
          "type": "uint256"
        }
      ],
      "name": "getPoolIds",
      "outputs": [
        {
          "internalType": "bytes32[]",
          "name": "",
          "type": "bytes32[]"
        }
      ],
      "stateMutability": "view",
      "type": "function"
    },
    {
      "inputs": [
        {
          "internalType": "bytes32",
          "name": "poolId",
          "type": "bytes32"
        },
        {
          "internalType": "contract IERC20",
          "name": "token",
          "type": "address"
        }
      ],
      "name": "getPoolTokenBalanceInfo",
      "outputs": [
        {
          "internalType": "uint256",
          "name": "cash",
          "type": "uint256"
        },
        {
          "internalType": "uint256",
          "name": "managed",
          "type": "uint256"
        }
      ],
      "stateMutability": "view",
      "type": "function"
    },
    {
      "inputs": [
        {
          "internalType": "bytes32",
          "name": "poolId",
          "type": "bytes32"
        }
      ],
      "name": "getPoolTokens",
      "outputs": [
        {
          "internalType": "contract IERC20[]",
          "name": "tokens",
          "type": "address[]"
        },
        {
          "internalType": "uint256[]",
          "name": "balances",
          "type": "uint256[]"
        }
      ],
      "stateMutability": "view",
      "type": "function"
    },
    {
      "inputs": [],
      "name": "getProtocolFlashLoanFee",
      "outputs": [
        {
          "internalType": "uint256",
          "name": "",
          "type": "uint256"
        }
      ],
      "stateMutability": "view",
      "type": "function"
    },
    {
      "inputs": [],
      "name": "getProtocolSwapFee",
      "outputs": [
        {
          "internalType": "uint256",
          "name": "",
          "type": "uint256"
        }
      ],
      "stateMutability": "view",
      "type": "function"
    },
    {
      "inputs": [],
      "name": "getProtocolWithdrawFee",
      "outputs": [
        {
          "internalType": "uint256",
          "name": "",
          "type": "uint256"
        }
      ],
      "stateMutability": "view",
      "type": "function"
    },
    {
      "inputs": [
        {
          "internalType": "bytes32",
          "name": "poolId",
          "type": "bytes32"
        },
        {
          "internalType": "address",
          "name": "recipient",
          "type": "address"
        },
        {
          "internalType": "contract IERC20[]",
          "name": "tokens",
          "type": "address[]"
        },
        {
          "internalType": "uint256[]",
          "name": "maxAmountsIn",
          "type": "uint256[]"
        },
        {
          "internalType": "bool",
          "name": "fromInternalBalance",
          "type": "bool"
        },
        {
          "internalType": "bytes",
          "name": "userData",
          "type": "bytes"
        }
      ],
      "name": "joinPool",
      "outputs": [],
      "stateMutability": "nonpayable",
      "type": "function"
    },
    {
      "inputs": [
        {
          "components": [
            {
              "internalType": "bytes32",
              "name": "poolId",
              "type": "bytes32"
            },
            {
              "internalType": "uint256",
              "name": "tokenInIndex",
              "type": "uint256"
            },
            {
              "internalType": "uint256",
              "name": "tokenOutIndex",
              "type": "uint256"
            },
            {
              "internalType": "uint256",
              "name": "amountIn",
              "type": "uint256"
            },
            {
              "internalType": "bytes",
              "name": "userData",
              "type": "bytes"
            }
          ],
          "internalType": "struct IVault.SwapIn[]",
          "name": "swaps",
          "type": "tuple[]"
        },
        {
          "internalType": "contract IERC20[]",
          "name": "tokens",
          "type": "address[]"
        },
        {
          "components": [
            {
              "internalType": "address",
              "name": "recipient",
              "type": "address"
            },
            {
              "internalType": "bool",
              "name": "fromInternalBalance",
              "type": "bool"
            },
            {
              "internalType": "bool",
              "name": "toInternalBalance",
              "type": "bool"
            }
          ],
          "internalType": "struct IVault.FundManagement",
          "name": "funds",
          "type": "tuple"
        }
      ],
      "name": "queryBatchSwapGivenIn",
      "outputs": [
        {
          "internalType": "int256[]",
          "name": "",
          "type": "int256[]"
        }
      ],
      "stateMutability": "nonpayable",
      "type": "function"
    },
    {
      "inputs": [
        {
          "components": [
            {
              "internalType": "bytes32",
              "name": "poolId",
              "type": "bytes32"
            },
            {
              "internalType": "uint256",
              "name": "tokenInIndex",
              "type": "uint256"
            },
            {
              "internalType": "uint256",
              "name": "tokenOutIndex",
              "type": "uint256"
            },
            {
              "internalType": "uint256",
              "name": "amountOut",
              "type": "uint256"
            },
            {
              "internalType": "bytes",
              "name": "userData",
              "type": "bytes"
            }
          ],
          "internalType": "struct IVault.SwapOut[]",
          "name": "swaps",
          "type": "tuple[]"
        },
        {
          "internalType": "contract IERC20[]",
          "name": "tokens",
          "type": "address[]"
        },
        {
          "components": [
            {
              "internalType": "address",
              "name": "recipient",
              "type": "address"
            },
            {
              "internalType": "bool",
              "name": "fromInternalBalance",
              "type": "bool"
            },
            {
              "internalType": "bool",
              "name": "toInternalBalance",
              "type": "bool"
            }
          ],
          "internalType": "struct IVault.FundManagement",
          "name": "funds",
          "type": "tuple"
        }
      ],
      "name": "queryBatchSwapGivenOut",
      "outputs": [
        {
          "internalType": "int256[]",
          "name": "",
          "type": "int256[]"
        }
      ],
      "stateMutability": "nonpayable",
      "type": "function"
    },
    {
      "inputs": [
        {
          "components": [
            {
              "internalType": "bytes32",
              "name": "poolId",
              "type": "bytes32"
            },
            {
              "internalType": "uint256",
              "name": "tokenInIndex",
              "type": "uint256"
            },
            {
              "internalType": "uint256",
              "name": "tokenOutIndex",
              "type": "uint256"
            },
            {
              "internalType": "uint256",
              "name": "amount",
              "type": "uint256"
            },
            {
              "internalType": "bytes",
              "name": "userData",
              "type": "bytes"
            }
          ],
          "internalType": "struct Swaps.SwapInternal[]",
          "name": "swaps",
          "type": "tuple[]"
        },
        {
          "internalType": "contract IERC20[]",
          "name": "tokens",
          "type": "address[]"
        },
        {
          "components": [
            {
              "internalType": "address",
              "name": "recipient",
              "type": "address"
            },
            {
              "internalType": "bool",
              "name": "fromInternalBalance",
              "type": "bool"
            },
            {
              "internalType": "bool",
              "name": "toInternalBalance",
              "type": "bool"
            }
          ],
          "internalType": "struct IVault.FundManagement",
          "name": "funds",
          "type": "tuple"
        },
        {
          "internalType": "enum Swaps.SwapKind",
          "name": "kind",
          "type": "uint8"
        }
      ],
      "name": "queryBatchSwapHelper",
      "outputs": [],
      "stateMutability": "nonpayable",
      "type": "function"
    },
    {
      "inputs": [
        {
          "internalType": "enum IVault.PoolSpecialization",
          "name": "specialization",
          "type": "uint8"
        }
      ],
      "name": "registerPool",
      "outputs": [
        {
          "internalType": "bytes32",
          "name": "",
          "type": "bytes32"
        }
      ],
      "stateMutability": "nonpayable",
      "type": "function"
    },
    {
      "inputs": [
        {
          "internalType": "bytes32",
          "name": "poolId",
          "type": "bytes32"
        },
        {
          "internalType": "contract IERC20[]",
          "name": "tokens",
          "type": "address[]"
        },
        {
          "internalType": "address[]",
          "name": "assetManagers",
          "type": "address[]"
        }
      ],
      "name": "registerTokens",
      "outputs": [],
      "stateMutability": "nonpayable",
      "type": "function"
    },
    {
      "inputs": [
        {
          "internalType": "uint256",
          "name": "newFee",
          "type": "uint256"
        }
      ],
      "name": "setProtocolFlashLoanFee",
      "outputs": [],
      "stateMutability": "nonpayable",
      "type": "function"
    },
    {
      "inputs": [
        {
          "internalType": "uint256",
          "name": "newFee",
          "type": "uint256"
        }
      ],
      "name": "setProtocolSwapFee",
      "outputs": [],
      "stateMutability": "nonpayable",
      "type": "function"
    },
    {
      "inputs": [
        {
          "internalType": "uint256",
          "name": "newFee",
          "type": "uint256"
        }
      ],
      "name": "setProtocolWithdrawFee",
      "outputs": [],
      "stateMutability": "nonpayable",
      "type": "function"
    },
    {
      "inputs": [
        {
          "internalType": "contract IERC20[]",
          "name": "tokens",
          "type": "address[]"
        },
        {
          "internalType": "uint256[]",
          "name": "amounts",
          "type": "uint256[]"
        },
        {
          "internalType": "address",
          "name": "recipient",
          "type": "address"
        }
      ],
      "name": "transferInternalBalance",
      "outputs": [],
      "stateMutability": "nonpayable",
      "type": "function"
    },
    {
      "inputs": [
        {
          "internalType": "bytes32",
          "name": "poolId",
          "type": "bytes32"
        },
        {
          "internalType": "contract IERC20[]",
          "name": "tokens",
          "type": "address[]"
        }
      ],
      "name": "unregisterTokens",
      "outputs": [],
      "stateMutability": "nonpayable",
      "type": "function"
    },
    {
      "inputs": [
        {
          "internalType": "bytes32",
          "name": "poolId",
          "type": "bytes32"
        },
        {
          "internalType": "contract IERC20",
          "name": "token",
          "type": "address"
        },
        {
          "internalType": "uint256",
          "name": "amount",
          "type": "uint256"
        }
      ],
      "name": "updateManagedBalance",
      "outputs": [],
      "stateMutability": "nonpayable",
      "type": "function"
    },
    {
      "inputs": [
        {
          "internalType": "contract IERC20[]",
          "name": "tokens",
          "type": "address[]"
        },
        {
          "internalType": "uint256[]",
          "name": "amounts",
          "type": "uint256[]"
        },
        {
          "internalType": "address",
          "name": "recipient",
          "type": "address"
        }
      ],
      "name": "withdrawFromInternalBalance",
      "outputs": [],
      "stateMutability": "nonpayable",
      "type": "function"
    },
    {
      "inputs": [
        {
          "internalType": "bytes32",
          "name": "poolId",
          "type": "bytes32"
        },
        {
          "internalType": "contract IERC20",
          "name": "token",
          "type": "address"
        },
        {
          "internalType": "uint256",
          "name": "amount",
          "type": "uint256"
        }
      ],
      "name": "withdrawFromPoolBalance",
      "outputs": [],
      "stateMutability": "nonpayable",
      "type": "function"
    },
    {
      "inputs": [
        {
          "internalType": "contract IERC20[]",
          "name": "tokens",
          "type": "address[]"
        },
        {
          "internalType": "uint256[]",
          "name": "amounts",
          "type": "uint256[]"
        },
        {
          "internalType": "address",
          "name": "recipient",
          "type": "address"
        }
      ],
      "name": "withdrawProtocolFees",
      "outputs": [],
      "stateMutability": "nonpayable",
      "type": "function"
    }
  ],
  "transactionHash": "0xe014275e76918d5d09d5b87447ff13a3c12807a35bd2715d4abb3c2d0aa55a1a",
  "args": [
    "0xec988e2EF97468a4501a8B676Cb5F51752C2C684"
  ],
  "solcInputHash": "bda5793225c06166b1ababd6dc2d5abe",
  "bytecode": "0x60e0604052620000536064620000366002670de0b6b3a76400006001600160801b03166200012960201b620028d31790919060201c565b6001600160801b0316620001f560201b6200298e1790919060201c565b608090811b6001600160801b03191690526200008b606462000036670de0b6b3a7640000603262000129602090811b620028d317901c565b60801b6001600160801b03191660a052620000c2606462000036670de0b6b3a7640000603262000129602090811b620028d317901c565b6001600160801b031660c052348015620000db57600080fd5b5060405162007e5838038062007e58833981016040819052620000fe91620002ed565b6001600081905580546001600160a01b0319166001600160a01b039290921691909117905562000397565b60008282026001600160801b0384161580620001725750826001600160801b0316846001600160801b0316826001600160801b0316816200016657fe5b046001600160801b0316145b6200019a5760405162461bcd60e51b8152600401620001919062000347565b60405180910390fd5b6706f05b59d3b2000081016001600160801b038083169082161015620001d45760405162461bcd60e51b8152600401620001919062000347565b6000670de0b6b3a76400006001600160801b0383165b049695505050505050565b60006001600160801b038216620002205760405162461bcd60e51b8152600401620001919062000371565b670de0b6b3a764000083026001600160801b0384161580620002685750670de0b6b3a76400006001600160801b03858116908316816200025c57fe5b046001600160801b0316145b620002875760405162461bcd60e51b815260040162000191906200031d565b600060026001600160801b0385160482019050816001600160801b0316816001600160801b03161015620002cf5760405162461bcd60e51b815260040162000191906200031d565b6000846001600160801b0316826001600160801b031681620001ea57fe5b600060208284031215620002ff578081fd5b81516001600160a01b038116811462000316578182fd5b9392505050565b60208082526010908201526f11549497d1125597d25395115493905360821b604082015260600190565b60208082526010908201526f4552525f4d554c5f4f564552464c4f5760801b604082015260600190565b6020808252600c908201526b4552525f4449565f5a45524f60a01b604082015260600190565b60805160801c60a05160801c60c051617a8e620003ca600039806125ec5250806110ee525080610f6b5250617a8e6000f3fe608060405234801561001057600080fd5b50600436106102265760003560e01c80637576b5f11161012a578063c3946977116100bd578063e6a329091161008c578063f6c0092711610071578063f6c009271461048e578063f90e6570146104af578063f94d4668146104c257610226565b8063e6a3290914610468578063f0f5fd551461047b57610226565b8063c39469771461041c578063c4cd53db1461042f578063d1b33a4814610442578063ddbada601461045557610226565b80638adc5f5d116100f95780638adc5f5d146103e3578063a297857814610404578063aaabadc51461040c578063bb61f6351461041457610226565b80637576b5f1146103a257806375e9cfb7146103b5578063761c52e6146103c85780637a7d3f74146103d057610226565b806323eeca01116101bd5780634b4039f61161018c5780635c38449e116101715780635c38449e1461036957806366a9c7d21461037c57806370c5ae2c1461038f57610226565b80634b4039f6146103435780635233cd6b1461035657610226565b806323eeca01146102ea5780632b8a61631461030a578063379162c41461031d57806338b025051461033057610226565b80630f5a6efa116101f95780630f5a6efa146102915780631adcfe0d146102b15780631faddee5146102c457806321a6eb13146102d757610226565b806307dfca131461022b57806309b2760f146102495780630c0626421461025c5780630e9e98cf1461027c575b600080fd5b6102336104e3565b6040516102409190616a25565b60405180910390f35b6102336102573660046164d8565b6104f3565b61026f61026a3660046162ef565b6105ad565b6040516102409190616796565b61028f61028a366004615e03565b6105ee565b005b6102a461029f366004615e1f565b610708565b604051610240919061691a565b61028f6102bf36600461622e565b6107f3565b61028f6102d236600461617a565b610a10565b6102a46102e53660046163e2565b610cf3565b6102fd6102f8366004616564565b610de9565b6040516102409190616828565b61028f610318366004616162565b610ea2565b6102a461032b366004615ff3565b610fec565b6102a461033e366004615ff3565b61100d565b61028f610351366004616162565b611025565b61028f61036436600461631e565b611170565b61028f610377366004616355565b611283565b61028f61038a366004616278565b6116e7565b61028f61039d36600461631e565b611962565b61028f6103b036600461617a565b611a16565b61028f6103c336600461606c565b611cc7565b610233611d6e565b61028f6103de366004615eee565b611d7f565b6103f66103f13660046162ef565b611f78565b6040516102409291906178eb565b610233612015565b61026f612038565b610233612047565b61028f61042a366004615eee565b61204d565b6102a461043d366004616497565b612247565b61028f61045036600461631e565b6122a0565b61028f610463366004615eee565b6123a2565b61028f610476366004616162565b612523565b61028f610489366004615e6d565b612647565b6104a161049c366004616162565b61281c565b6040516102409291906167e8565b6102336104bd366004615e03565b612846565b6104d56104d0366004616162565b612865565b6040516102409291906168a7565b6003546001600160801b03165b90565b6000600260005414156105215760405162461bcd60e51b8152600401610518906177e3565b60405180910390fd5b6002600090815561053c3384610537600b612a7a565b612a85565b9050600061054b600b83612ad7565b90508061056a5760405162461bcd60e51b81526004016105189061727c565b7f76c4350174727086805a3b026998a38a23dec4eaa173f2eb5449eb961e69c043826040516105999190616a25565b60405180910390a150600160005592915050565b6000826105b981612ae3565b6105c38484612b0d565b50506000918252600d602090815260408084206001600160a01b039384168552909152909120541690565b600260005414156106115760405162461bcd60e51b8152600401610518906177e3565b60026000556001546040517fa962e8690000000000000000000000000000000000000000000000000000000081526001600160a01b039091169063a962e8699061065f903390600401616796565b60206040518083038186803b15801561067757600080fd5b505afa15801561068b573d6000803e3d6000fd5b505050506040513d601f19601f820116820180604052508101906106af9190616146565b6106cb5760405162461bcd60e51b815260040161051890617247565b600180547fffffffffffffffffffffffff0000000000000000000000000000000000000000166001600160a01b0392909216919091178155600055565b606080825167ffffffffffffffff8111801561072357600080fd5b5060405190808252806020026020018201604052801561074d578160200160208202803683370190505b50905060005b83518110156107e9576001600160a01b0385166000908152600560205260408120855190919086908490811061078557fe5b60200260200101516001600160a01b03166001600160a01b0316815260200190815260200160002060009054906101000a90046001600160801b03166001600160801b03168282815181106107d657fe5b6020908102919091010152600101610753565b5090505b92915050565b600260005414156108165760405162461bcd60e51b8152600401610518906177e3565b60026000558261082581612b37565b600061083085612b75565b9050600281600281111561084057fe5b14156108b857600283146108665760405162461bcd60e51b815260040161051890617145565b6108b3858585600081811061087757fe5b905060200201602081019061088c9190615e03565b8686600181811061089957fe5b90506020020160208101906108ae9190615e03565b612b8b565b610946565b60018160028111156108c657fe5b1415610909576108b385858580806020026020016040519081016040528093929190818152602001838360200280828437600092019190915250612c1b92505050565b61094685858580806020026020016040519081016040528093929190818152602001838360200280828437600092019190915250612cd392505050565b60005b838110156109c8576000868152600d602052604081209086868481811061096c57fe5b90506020020160208101906109819190615e03565b6001600160a01b03168152602081019190915260400160002080547fffffffffffffffffffffffff0000000000000000000000000000000000000000169055600101610949565b507f12f8276099dfd84906c19325f6d9886ec2317c278654dc41b1aefe273a0489368585856040516109fc93929190616a9a565b60405180910390a150506001600055505050565b60026000541415610a335760405162461bcd60e51b8152600401610518906177e3565b600260005585610a4281612ae3565b8351855114610a635760405162461bcd60e51b815260040161051890616cf1565b6060610a6f8887612d4f565b9050606080610a828a89858c8b8a612df6565b915091506060885167ffffffffffffffff81118015610aa057600080fd5b50604051908082528060200260200182016040528015610aca578160200160208202803683370190505b50905060005b8951811015610bee5760008a8281518110610ae757fe5b602002602001015190506000610b0f868481518110610b0257fe5b6020026020010151612eef565b90508a8381518110610b1d57fe5b6020026020010151816001600160801b03161115610b4d5760405162461bcd60e51b815260040161051890617043565b610b598282338d612f25565b6000610b6a868581518110610b0257fe5b6001600160a01b038416600090815260026020526040902054909150610b99906001600160801b038316613010565b6001600160a01b038416600090815260026020526040902055610bc86001600160801b03808416908316613035565b858581518110610bd457fe5b602002602001018181525050505050806001019050610ad0565b506000610bfa8c612b75565b90506002816002811115610c0a57fe5b1415610c7257610c6d8c8b600081518110610c2157fe5b602002602001015184600081518110610c3657fe5b60200260200101518d600181518110610c4b57fe5b602002602001015186600181518110610c6057fe5b602002602001015161307b565b610c9c565b6001816002811115610c8057fe5b1415610c9157610c6d8c8b846130c6565b610c9c8c8b84613130565b336001600160a01b03168c7ff7f95732a0f83c5093bfd147b3c8e57ac41ee39cd0f23cb6e74325e9f8fe1a648686604051610cd8929190616a12565b60405180910390a35050600160005550505050505050505050565b606080610d4c610d02876104f0565b868680806020026020016040519081016040528093929190818152602001838360200280828437600092019190915250610d4592505050368790038701876164f7565b60006131a7565b90506001600160a01b03891615610ddd576040517f9ab681f20000000000000000000000000000000000000000000000000000000081526001600160a01b038a1690639ab681f290610daa908890889086908e908e9060040161686c565b600060405180830381600087803b158015610dc457600080fd5b505af1158015610dd8573d6000803e3d6000fd5b505050505b98975050505050505050565b6060828210158015610e065750610e00600b612a7a565b83830311155b610e225760405162461bcd60e51b8152600401610518906172b3565b606083830367ffffffffffffffff81118015610e3d57600080fd5b50604051908082528060200260200182016040528015610e67578160200160208202803683370190505b50905060005b81518110156107e957610e83600b8287016133ea565b828281518110610e8f57fe5b6020908102919091010152600101610e6d565b60026000541415610ec55760405162461bcd60e51b8152600401610518906177e3565b6002600055610ed2612038565b6001600160a01b031663026158d5336040518263ffffffff1660e01b8152600401610efd9190616796565b60206040518083038186803b158015610f1557600080fd5b505afa158015610f29573d6000803e3d6000fd5b505050506040513d601f19601f82011682018060405250810190610f4d9190616146565b610f695760405162461bcd60e51b8152600401610518906173c6565b7f00000000000000000000000000000000000000000000000000000000000000006001600160801b0316811115610fb25760405162461bcd60e51b81526004016105189061738f565b610fbb81612eef565b600380546fffffffffffffffffffffffffffffffff19166001600160801b0392909216919091179055506001600055565b6060611004610ffa866104f0565b85858560016133f6565b95945050505050565b606061100461101b866104f0565b85858560006133f6565b600260005414156110485760405162461bcd60e51b8152600401610518906177e3565b6002600055611055612038565b6001600160a01b0316637c3b47f5336040518263ffffffff1660e01b81526004016110809190616796565b60206040518083038186803b15801561109857600080fd5b505afa1580156110ac573d6000803e3d6000fd5b505050506040513d601f19601f820116820180604052508101906110d09190616146565b6110ec5760405162461bcd60e51b8152600401610518906171ea565b7f00000000000000000000000000000000000000000000000000000000000000006001600160801b03168111156111355760405162461bcd60e51b8152600401610518906170b1565b61113e81612eef565b600380546001600160801b03928316700100000000000000000000000000000000029216919091179055506001600055565b600260005414156111935760405162461bcd60e51b8152600401610518906177e3565b600260005582826111a482826134ac565b60006111af86612b75565b905060018160028111156111bf57fe5b14156111dd576111d886866111d387612eef565b613502565b611217565b60028160028111156111eb57fe5b1415611204576111d886866111ff87612eef565b613515565b611217868661121287612eef565b613523565b61122b6001600160a01b0386163386613531565b6001600160a01b03851633877fea86d22f498d42c4c5ed8d09366d0af8bb816a7d2265eef1080d0cb6acb517bb611261886135b4565b60405161126e9190616a25565b60405180910390a45050600160005550505050565b600260005414156112a65760405162461bcd60e51b8152600401610518906177e3565b600260005582518451146112cc5760405162461bcd60e51b815260040161051890616ead565b6060845167ffffffffffffffff811180156112e657600080fd5b50604051908082528060200260200182016040528015611310578160200160208202803683370190505b5090506060855167ffffffffffffffff8111801561132d57600080fd5b50604051908082528060200260200182016040528015611357578160200160208202803683370190505b50905060005b86518110156114d35786818151811061137257fe5b60200260200101516001600160a01b03166370a08231306040518263ffffffff1660e01b81526004016113a59190616796565b60206040518083038186803b1580156113bd57600080fd5b505afa1580156113d1573d6000803e3d6000fd5b505050506040513d601f19601f820116820180604052508101906113f5919061654c565b82828151811061140157fe5b60200260200101818152505085818151811061141957fe5b602002602001015182828151811061142d57fe5b602002602001015110156114535760405162461bcd60e51b8152600401610518906176f2565b61146f86828151811061146257fe5b60200260200101516135f5565b83828151811061147b57fe5b6020026020010181815250506114cb8887838151811061149757fe5b60200260200101518984815181106114ab57fe5b60200260200101516001600160a01b03166135319092919063ffffffff16565b60010161135d565b506040517ff04f27070000000000000000000000000000000000000000000000000000000081526001600160a01b0388169063f04f270790611521908990899087908a908a906004016168cc565b600060405180830381600087803b15801561153b57600080fd5b505af115801561154f573d6000803e3d6000fd5b5050505060005b86518110156116d857600087828151811061156d57fe5b60200260200101516001600160a01b03166370a08231306040518263ffffffff1660e01b81526004016115a09190616796565b60206040518083038186803b1580156115b857600080fd5b505afa1580156115cc573d6000803e3d6000fd5b505050506040513d601f19601f820116820180604052508101906115f0919061654c565b9050600061161a84848151811061160357fe5b60200260200101518361360c90919063ffffffff16565b905084838151811061162857fe5b602002602001015181101561164f5760405162461bcd60e51b81526004016105189061700c565b61169a81600260008c878151811061166357fe5b60200260200101516001600160a01b03166001600160a01b031681526020019081526020016000205461301090919063ffffffff16565b600260008b86815181106116aa57fe5b6020908102919091018101516001600160a01b03168252810191909152604001600020555050600101611556565b50506001600055505050505050565b6002600054141561170a5760405162461bcd60e51b8152600401610518906177e3565b60026000558461171981612b37565b600061172487612b75565b9050600281600281111561173457fe5b14156117ac576002851461175a5760405162461bcd60e51b815260040161051890617145565b6117a7878787600081811061176b57fe5b90506020020160208101906117809190615e03565b8888600181811061178d57fe5b90506020020160208101906117a29190615e03565b61363d565b61183a565b60018160028111156117ba57fe5b14156117fd576117a7878787808060200260200160405190810160405280939291908181526020018383602002808284376000920191909152506137a392505050565b61183a8787878080602002602001604051908101604052809392919081815260200183836020028082843760009201919091525061383c92505050565b60005b8581101561191857600085858381811061185357fe5b90506020020160208101906118689190615e03565b9050600088888481811061187857fe5b905060200201602081019061188d9190615e03565b60008b8152600d602090815260408083206001600160a01b038581168086529190935281842080547fffffffffffffffffffffffff00000000000000000000000000000000000000001693881693841790559051939450909290918d917fc438982f36308c6c0153761eaa0cf9f00a59ef4d93338c934468f52bd45296119190a4505060010161183d565b507fb69d13ab78b4f721123e9de02f1779b42ef54bb914fd86024b5a85c4fadfee8887878760405161194c93929190616a9a565b60405180910390a1505060016000555050505050565b600260005414156119855760405162461bcd60e51b8152600401610518906177e3565b6002600055828261199682826134ac565b60006119a186612b75565b905060018160028111156119b157fe5b14156119cf576119ca86866119c587612eef565b6138d6565b611a09565b60028160028111156119dd57fe5b14156119f6576119ca86866119f187612eef565b6138e4565b611a098686611a0487612eef565b6138f2565b5050600160005550505050565b60026000541415611a395760405162461bcd60e51b8152600401610518906177e3565b600260005585611a4881612ae3565b8351855114611a695760405162461bcd60e51b815260040161051890616cf1565b6060611a758887612d4f565b9050606080611a888a89858c8b8a613900565b915091506060885167ffffffffffffffff81118015611aa657600080fd5b50604051908082528060200260200182016040528015611ad0578160200160208202803683370190505b50905060005b8951811015611be75760008a8281518110611aed57fe5b602002602001015190506000611b08868481518110610b0257fe5b90508a8381518110611b1657fe5b6020026020010151816001600160801b03161015611b465760405162461bcd60e51b815260040161051890616dbc565b611b5282828f8d6139cc565b6000611b63868581518110610b0257fe5b6001600160a01b038416600090815260026020526040902054909150611b92906001600160801b038316613010565b6001600160a01b038416600090815260026020526040902055611bc16001600160801b03838116908316613010565b858581518110611bcd57fe5b602002602001018181525050505050806001019050611ad6565b506000611bf38c612b75565b90506002816002811115611c0357fe5b1415611c6157611c5c8c8b600081518110611c1a57fe5b6020026020010151611c3285600081518110610b0257fe5b8d600181518110611c3f57fe5b6020026020010151611c5787600181518110610b0257fe5b613aed565b611c8b565b6001816002811115611c6f57fe5b1415611c8057611c5c8c8b84613afd565b611c8b8c8b84613b46565b336001600160a01b03168c7fe1f0410ab343b6bd5ac108e2e4c8085cef471896ef5214b73d944091850293218686604051610cd8929190616a12565b333014611ce65760405162461bcd60e51b815260040161051890616b5b565b6060611d3586868680806020026020016040519081016040528093929190818152602001838360200280828437600092019190915250611d2f92505050368790038701876164f7565b85613b9c565b905080604051602001611d48919061691a565b60408051601f198184030181529082905262461bcd60e51b825261051891600401616ab4565b6000611d7a600b612a7a565b905090565b60026000541415611da25760405162461bcd60e51b8152600401610518906177e3565b60026000558151835114611dc85760405162461bcd60e51b815260040161051890617786565b60005b8351811015611f6d576000848281518110611de257fe5b6020908102919091018101513360009081526005835260408082206001600160a01b03841683529093529182205486519193506001600160801b03169190611e3090879086908110610b0257fe5b9050816001600160801b0316816001600160801b03161115611e645760405162461bcd60e51b815260040161051890616b92565b3360009081526005602081815260408084206001600160a01b0388811680875291845282862080546fffffffffffffffffffffffffffffffff1916888a036001600160801b0390811691909117909155908b16865293835281852090855290915290912054611ed4911682613e4d565b6001600160a01b038681166000818152600560209081526040808320948916808452949091529081902080546fffffffffffffffffffffffffffffffff19166001600160801b039590951694909417909355915190919033907fc9427b4a5655c5832a046d33056c59e7191d43a22bd8f93c89277f33efaf45fd90611f5a9086906178bd565b60405180910390a4505050600101611dcb565b505060016000555050565b60008083611f8581612ae3565b600080611f9187612b75565b90506002816002811115611fa157fe5b1415611fb857611fb18787613e7e565b9150611fe3565b6001816002811115611fc657fe5b1415611fd657611fb18787613f6a565b611fe08787613fd4565b91505b611fec82613ff4565b6001600160801b0316945061200082614000565b6001600160801b031693505050509250929050565b60035470010000000000000000000000000000000090046001600160801b031690565b6001546001600160a01b031690565b60045490565b600260005414156120705760405162461bcd60e51b8152600401610518906177e3565b600260005581518351146120965760405162461bcd60e51b815260040161051890617786565b60005b8351811015611f6d5760008482815181106120b057fe5b6020026020010151905060006120cb858481518110610b0257fe5b3360009081526005602090815260408083206001600160a01b03871684529091529020549091506001600160801b0390811690821681101561211f5760405162461bcd60e51b815260040161051890616c5d565b3360009081526005602090815260408083206001600160a01b0387168452909152812080546fffffffffffffffffffffffffffffffff19168484036001600160801b031617905561216f83614006565b6001600160a01b03851660009081526002602052604090205490915061219e906001600160801b038316613010565b6001600160a01b0385166000908152600260205260409020556121e2866121d16001600160801b0386811690851661360c565b6001600160a01b0387169190613531565b836001600160a01b0316866001600160a01b0316336001600160a01b03167f7b875067eda472e508132da5f6930c3a6b21129bcb10c84169bbc72aec9eef7a8660405161222f91906178bd565b60405180910390a45050600190920191506120999050565b606080610d4c612256876104f0565b86868080602002602001604051908101604052809392919081815260200183836020028082843760009201919091525061229992505050368790038701876164f7565b60016131a7565b600260005414156122c35760405162461bcd60e51b8152600401610518906177e3565b600260005582826122d482826134ac565b6122e96001600160a01b038516333086614022565b60006122f486612b75565b9050600181600281111561230457fe5b14156123225761231d868661231887612eef565b614043565b61235c565b600281600281111561233057fe5b14156123495761231d868661234487612eef565b614051565b61235c868661235787612eef565b61405f565b6001600160a01b03851633877fea86d22f498d42c4c5ed8d09366d0af8bb816a7d2265eef1080d0cb6acb517bb612392886135b4565b60000360405161126e9190616a25565b600260005414156123c55760405162461bcd60e51b8152600401610518906177e3565b600260005581518351146123eb5760405162461bcd60e51b815260040161051890617786565b60005b8351811015611f6d57600084828151811061240557fe5b60200260200101519050600084838151811061241d57fe5b6020026020010151905061246861243382612eef565b6001600160a01b038087166000908152600560209081526040808320938816835292905220546001600160801b031690613e4d565b6001600160a01b03858116600090815260056020908152604080832093871680845293909152902080546fffffffffffffffffffffffffffffffff19166001600160801b0393909316929092179091556124c490333084614022565b816001600160a01b0316846001600160a01b0316336001600160a01b03167fb76281916fe2a7c5a7b2c2d3b84fcc820d3b5546b3d3572a74840423fec96a7c846040516125119190616a25565b60405180910390a450506001016123ee565b600260005414156125465760405162461bcd60e51b8152600401610518906177e3565b6002600055612553612038565b6001600160a01b03166315e61d33336040518263ffffffff1660e01b815260040161257e9190616796565b60206040518083038186803b15801561259657600080fd5b505afa1580156125aa573d6000803e3d6000fd5b505050506040513d601f19601f820116820180604052508101906125ce9190616146565b6125ea5760405162461bcd60e51b8152600401610518906170e8565b7f000000000000000000000000000000000000000000000000000000000000000081111561262a5760405162461bcd60e51b815260040161051890616ac7565b61263381612eef565b6001600160801b0316600455506001600055565b6002600054141561266a5760405162461bcd60e51b8152600401610518906177e3565b600260005583821461268e5760405162461bcd60e51b815260040161051890616ead565b6000612698612038565b905060005b8581101561280e5760008787838181106126b357fe5b90506020020160208101906126c89190615e03565b6040517f75f101590000000000000000000000000000000000000000000000000000000081529091506001600160a01b038416906375f101599061271290339085906004016167aa565b60206040518083038186803b15801561272a57600080fd5b505afa15801561273e573d6000803e3d6000fd5b505050506040513d601f19601f820116820180604052508101906127629190616146565b61277e5760405162461bcd60e51b815260040161051890616c00565b600086868481811061278c57fe5b9050602002013590508060026000846001600160a01b03166001600160a01b031681526020019081526020016000205410156127da5760405162461bcd60e51b81526004016105189061700c565b6001600160a01b038216600081815260026020526040902080548390039055612804908683613531565b505060010161269d565b505060016000555050505050565b6000808261282981612ae3565b6128328461406d565b61283b85612b75565b925092505b50915091565b6001600160a01b0381166000908152600260205260409020545b919050565b6060808261287281612ae3565b600061287d85612b75565b9050600281600281111561288d57fe5b14156128a65761289c85614073565b9350935050612840565b60018160028111156128b457fe5b14156128c35761289c85614236565b61289c85614366565b5050915091565b60008282026001600160801b038416158061291a5750826001600160801b0316846001600160801b0316826001600160801b03168161290e57fe5b046001600160801b0316145b6129365760405162461bcd60e51b815260040161051890617358565b6706f05b59d3b2000081016001600160801b03808316908216101561296d5760405162461bcd60e51b815260040161051890617358565b6000670de0b6b3a76400006001600160801b0383165b049695505050505050565b60006001600160801b0382166129b65760405162461bcd60e51b815260040161051890617423565b670de0b6b3a764000083026001600160801b03841615806129fc5750670de0b6b3a76400006001600160801b03858116908316816129f057fe5b046001600160801b0316145b612a185760405162461bcd60e51b81526004016105189061717c565b600060026001600160801b0385160482019050816001600160801b0316816001600160801b03161015612a5d5760405162461bcd60e51b81526004016105189061717c565b6000846001600160801b0316826001600160801b03168161298357fe5b60006107ed82614487565b600069ffffffffffffffffffff82166050846002811115612aa257fe5b901b17606085901b7fffffffffffffffffffffffffffffffffffffffff000000000000000000000000161790505b9392505050565b6000612ad0838361448b565b612aee600b826144d5565b612b0a5760405162461bcd60e51b815260040161051890616cba565b50565b612b1782826144e1565b612b335760405162461bcd60e51b815260040161051890617321565b5050565b612b4081612ae3565b6000612b4b8261406d565b90506001600160a01b0381163314612b335760405162461bcd60e51b81526004016105189061707a565b600061ffff605083901c1660028111156107ed57fe5b600080612b9985858561453d565b5091509150612ba7826145f5565b8015612bb75750612bb7816145f5565b612bd35760405162461bcd60e51b815260040161051890616d85565b50505060009182525060096020526040902080547fffffffffffffffffffffffff00000000000000000000000000000000000000009081168255600190910180549091169055565b6000828152600760205260408120905b8251811015612ccd576000838281518110612c4257fe5b60209081029190910181015160008781526008835260408082206001600160a01b03841683529093529190912054909150612c7c906145f5565b612c985760405162461bcd60e51b815260040161051890616d85565b6000612ca484836145f9565b905080612cc35760405162461bcd60e51b815260040161051890617321565b5050600101612c2b565b50505050565b6000828152600660205260408120905b8251811015612ccd576000838281518110612cfa57fe5b602002602001015190506000612d10848361460e565b9050612d1b816145f5565b612d375760405162461bcd60e51b815260040161051890616d85565b612d41848361465a565b505050806001019050612ce3565b6060806060612d5d85612865565b915091508351825114612d825760405162461bcd60e51b8152600401610518906174c8565b60005b8251811015612ded57848181518110612d9a57fe5b60200260200101516001600160a01b0316838281518110612db757fe5b60200260200101516001600160a01b031614612de55760405162461bcd60e51b8152600401610518906174c8565b600101612d85565b50949350505050565b6060806000612e048961406d565b9050806001600160a01b0316630385ccea8a33898b8a612e22612015565b8b6040518863ffffffff1660e01b8152600401612e459796959493929190616a2e565b600060405180830381600087803b158015612e5f57600080fd5b505af1158015612e73573d6000803e3d6000fd5b505050506040513d6000823e601f3d908101601f19168201604052612e9b91908101906160ef565b8951825192955090935014612ec25760405162461bcd60e51b815260040161051890616d4e565b8751825114612ee35760405162461bcd60e51b815260040161051890617638565b50965096945050505050565b60007001000000000000000000000000000000008210612f215760405162461bcd60e51b815260040161051890616df3565b5090565b6001600160801b038316612f3857612ccd565b828115612fdc576001600160a01b0380841660009081526005602090815260408083209389168352929052908120546001600160801b039081169190612f8a90612f85908490861661466f565b612eef565b6001600160a01b038681166000908152600560209081526040808320938c1683529290522080546fffffffffffffffffffffffffffffffff1916938290036001600160801b0316939093179092555090035b6001600160801b03811615613009576130096001600160a01b03861684306001600160801b038516614022565b5050505050565b600082820183811015612ad05760405162461bcd60e51b815260040161051890617601565b600081830381831280159061304a5750838113155b8061305f575060008312801561305f57508381135b612ad05760405162461bcd60e51b815260040161051890617695565b613009858561308c612f8587614685565b6000871361309c576146a16130a0565b6146d95b866130ad612f8588614685565b600088136130bd576146a16130c1565b6146d95b6146f8565b60005b8251811015612ccd5760008282815181106130e057fe5b60200260200101519050613127858584815181106130fa57fe5b602002602001015160008413613112576146a1613116565b6146d95b613122612f8586614685565b614785565b506001016130c9565b6000838152600660205260408120905b835181101561300957600083828151811061315757fe5b6020026020010151905061319e8386848151811061317157fe5b602002602001015160008413613189576146a161318d565b6146d95b613199612f8586614685565b6147cf565b50600101613140565b6060600260005414156131cc5760405162461bcd60e51b8152600401610518906177e3565b600260005560606131df86868686613b9c565b905060005b85518110156133db5760008682815181106131fb57fe5b60200260200101519050600083838151811061321357fe5b602002602001015113156132f557600083838151811061322f57fe5b602002602001015190508660200151156132d1573360009081526005602090815260408083206001600160a01b03861684529091528120546001600160801b039081169190613281908390851661466f565b3360009081526005602090815260408083206001600160a01b0389168452909152902080546fffffffffffffffffffffffffffffffff1916938290036001600160801b0316939093179092555090035b6132ef6001600160a01b03831633306001600160801b038516614022565b506133d2565b6000613316612f8585858151811061330957fe5b6020026020010151614685565b90508660400151156133b05786516001600160a01b0390811660009081526005602090815260408083209386168352929052205461335d906001600160801b031682613e4d565b87516001600160a01b03908116600090815260056020908152604080832093871683529290522080546fffffffffffffffffffffffffffffffff19166001600160801b03929092169190911790556133d0565b86516133d0906001600160a01b038416906001600160801b038416613531565b505b506001016131e4565b50600160005595945050505050565b6000612ad083836147ff565b6040517f75e9cfb700000000000000000000000000000000000000000000000000000000815260609030906375e9cfb79061343d908990899089908990899060040161692d565b600060405180830381600087803b15801561345757600080fd5b505af1925050508015613468575060015b6134aa57613474617972565b8061347f575061349b565b808060200190518101906134939190615f63565b9150506134a5565b3d6000803e3d6000fd5b611004565bfe5b6134b582612ae3565b6134bf8282612b0d565b6000828152600d602090815260408083206001600160a01b038581168552925290912054163314612b335760405162461bcd60e51b81526004016105189061781a565b613510838361484484614785565b505050565b613510838361484484614865565b61351083836148448461497f565b6135108363a9059cbb60e01b848460405160240161355092919061680f565b60408051601f198184030181529190526020810180517bffffffffffffffffffffffffffffffffffffffffffffffffffffffff167fffffffff0000000000000000000000000000000000000000000000000000000090931692909217909152614999565b60007f80000000000000000000000000000000000000000000000000000000000000008210612f215760405162461bcd60e51b81526004016105189061756d565b60006107ed60045483614a2890919063ffffffff16565b600080600061361b8585614a9a565b9150915080156107e95760405162461bcd60e51b8152600401610518906175ca565b6001600160a01b0382161580159061365d57506001600160a01b03811615155b6136795760405162461bcd60e51b81526004016105189061745a565b806001600160a01b0316826001600160a01b031614156136ab5760405162461bcd60e51b8152600401610518906171b3565b6136b3615a91565b50600083815260096020908152604091829020825180840190935280546001600160a01b039081168085526001909201541691830191909152158015613704575060208101516001600160a01b0316155b6137205760405162461bcd60e51b815260040161051890616f9e565b60008061372d8585614abf565b6040805180820182526001600160a01b039384168152918316602080840191825260009a8b52600990529820905181547fffffffffffffffffffffffff00000000000000000000000000000000000000009081169184169190911782559751600190910180549098169116179095555050505050565b6000828152600760205260408120905b8251811015612ccd5760008382815181106137ca57fe5b6020026020010151905060006001600160a01b0316816001600160a01b031614156138075760405162461bcd60e51b81526004016105189061745a565b60006138138483614af0565b9050806138325760405162461bcd60e51b8152600401610518906171b3565b50506001016137b3565b6000828152600660205260408120905b8251811015612ccd57600083828151811061386357fe5b6020026020010151905060006001600160a01b0316816001600160a01b031614156138a05760405162461bcd60e51b81526004016105189061745a565b60006138ad848383614b05565b9050806138cc5760405162461bcd60e51b8152600401610518906171b3565b505060010161384c565b6135108383614b1b84614785565b6135108383614b1b84614865565b6135108383614b1b8461497f565b606080600061390e8961406d565b9050806001600160a01b03166345c6472c8a33898b8a61392c612015565b8b6040518863ffffffff1660e01b815260040161394f9796959493929190616a2e565b600060405180830381600087803b15801561396957600080fd5b505af115801561397d573d6000803e3d6000fd5b505050506040513d6000823e601f3d908101601f191682016040526139a591908101906160ef565b8951825192955090935014612ec25760405162461bcd60e51b815260040161051890616bc9565b6001600160801b0383166139df57612ccd565b8015613a6f576001600160a01b03808316600090815260056020908152604080832093881683529290522054613a1e906001600160801b031684613e4d565b6001600160a01b03838116600090815260056020908152604080832093891683529290522080546fffffffffffffffffffffffffffffffff19166001600160801b0392909216919091179055612ccd565b6000613a7a84614006565b6001600160a01b038616600090815260026020526040902054909150613aa9906001600160801b038316613010565b6001600160a01b03861660009081526002602052604090205561300983613adc6001600160801b0387811690851661360c565b6001600160a01b0388169190613531565b61300985858585856146a1614b33565b60005b8251811015612ccd576000613b1a838381518110610b0257fe5b9050613b3d85858481518110613b2c57fe5b60200260200101516146a184614785565b50600101613b00565b6000838152600660205260408120905b8351811015613009576000613b70848381518110610b0257fe5b9050613b9383868481518110613b8257fe5b60200260200101516146a1846147cf565b50600101613b56565b6060835167ffffffffffffffff81118015613bb657600080fd5b50604051908082528060200260200182016040528015613be0578160200160208202803683370190505b509050613beb615a91565b613bf3615aa8565b60005b8751811015613e4257878181518110613c0b57fe5b6020026020010151915086518260200151108015613c2d575086518260400151105b613c495760405162461bcd60e51b815260040161051890616f0a565b600087836020015181518110613c5b57fe5b60200260200101519050600088846040015181518110613c7757fe5b60200260200101519050806001600160a01b0316826001600160a01b03161415613cb35760405162461bcd60e51b8152600401610518906172ea565b6060840151613d3b5760018a511115613d23576000613cd3888484614bbf565b6001600160a01b031686600001516001600160a01b031614905080613d0a5760405162461bcd60e51b815260040161051890617491565b5060208501516001600160801b03166060850152613d3b565b60405162461bcd60e51b815260040161051890616fd5565b600080613d51848488338e600001518c8f614be1565b91509150613d7f88876020015181518110613d6857fe5b6020026020010151836001600160801b0316614cb8565b88876020015181518110613d8f57fe5b602002602001018181525050613dc588876040015181518110613dae57fe5b6020026020010151826001600160801b0316613035565b88876040015181518110613dd557fe5b602002602001018181525050826001600160a01b0316846001600160a01b031687600001517f2170c741c41531aec20e7c107c24eecfdd15e69c9bb0a8dd37b1840b9e0b207b8585604051613e2b9291906178d1565b60405180910390a450505050806001019050613bf6565b505050949350505050565b60008282016001600160801b038085169082161015612ad05760405162461bcd60e51b815260040161051890617601565b6000613e88615a91565b506000838152600960209081526040808320815180830190925280546001600160a01b0390811680845260019092015416928201839052909291613ecc9190614cfe565b6000868152600a60209081526040808320848452909152902080546001820154855193945091929091906001600160a01b0388811691161415613f1f57613f138282614d31565b955050505050506107ed565b84602001516001600160a01b0316876001600160a01b03161415613f4757613f138282614d4d565b60405162461bcd60e51b815260040161051890617321565b505050505092915050565b60008281526008602090815260408083206001600160a01b038516845290915281205481613f9782614d64565b80613fb557506000858152600760205260409020613fb59085614d76565b9050806107e95760405162461bcd60e51b815260040161051890617321565b6000828152600660205260408120613fec818461460e565b949350505050565b6001600160801b031690565b60801c90565b6003546000906107ed906001600160801b0384811691166128d3565b612ccd846323b872dd60e01b858585604051602401613550939291906167c4565b6135108383614d8b84614785565b6135108383614d8b84614865565b6135108383614d8b8461497f565b60601c90565b60608061407e615a91565b50600083815260096020908152604091829020825180840190935280546001600160a01b03908116808552600190920154169183019190915215806140ce575060208101516001600160a01b0316155b156140f2575050604080516000808252602082019081528183019092529150614231565b604080516002808252606082018352909160208301908036833701905050925080600001518360008151811061412457fe5b60200260200101906001600160a01b031690816001600160a01b03168152505080602001518360018151811061415657fe5b6001600160a01b039290921660209283029190910182015260408051600280825260608201835290929091908301908036833701905050915060006141a382600001518360200151614cfe565b6000868152600a6020908152604080832084845290915290208054600182015492935090916141da6141d58383614d31565b614dac565b6001600160801b0316866000815181106141f057fe5b6020026020010181815250506142096141d58383614d4d565b6001600160801b03168660018151811061421f57fe5b60200260200101818152505050505050505b915091565b6000818152600760205260409020606090819061425281612a7a565b67ffffffffffffffff8111801561426857600080fd5b50604051908082528060200260200182016040528015614292578160200160208202803683370190505b509250825167ffffffffffffffff811180156142ad57600080fd5b506040519080825280602002602001820160405280156142d7578160200160208202803683370190505b50915060005b83518110156128cc5760006142f283836133ea565b90508085838151811061430157fe5b6001600160a01b039283166020918202929092018101919091526000888152600882526040808220938516825292909152205461433d90614dac565b6001600160801b031684838151811061435257fe5b6020908102919091010152506001016142dd565b6000818152600660205260409020606090819061438281612a7a565b67ffffffffffffffff8111801561439857600080fd5b506040519080825280602002602001820160405280156143c2578160200160208202803683370190505b509250825167ffffffffffffffff811180156143dd57600080fd5b50604051908082528060200260200182016040528015614407578160200160208202803683370190505b50915060005b83518110156128cc576000806144238484614dc3565b915091508186848151811061443457fe5b60200260200101906001600160a01b031690816001600160a01b03168152505061445d81614dac565b6001600160801b031685848151811061447257fe5b6020908102919091010152505060010161440d565b5490565b60006144978383614ddf565b6144cd575081546001818101845560008481526020808220909301849055845484825282860190935260409020919091556107ed565b5060006107ed565b6000612ad08383614ddf565b6000806144ed84612b75565b905060028160028111156144fd57fe5b14156145155761450d8484614df7565b9150506107ed565b600181600281111561452357fe5b14156145335761450d8484614e78565b61450d8484614e90565b600080600080600061454f8787614abf565b91509150600061455f8383614cfe565b60008a8152600a602090815260408083208484529091528120805460018201549197509293509061458f83614d64565b8061459e575061459e82614d64565b806145af57506145af8c8787614ea8565b9050806145ce5760405162461bcd60e51b815260040161051890617321565b6145d88383614d31565b98506145e48383614d4d565b975050505050505093509350939050565b1590565b6000612ad0836001600160a01b038416614f19565b6000612ad0826040518060400160405280601881526020017f4552525f544f4b454e5f4e4f545f52454749535445524544000000000000000081525085614ffd9092919063ffffffff16565b6000612ad0836001600160a01b038416615013565b600081831061467e5781612ad0565b5090919050565b600080821315614696575080612860565b816000039050612860565b6000806146c0836146b186613ff4565b6001600160801b0316906150aa565b905060006146cd85614000565b905061100482826150b9565b6000806146c0836146e986613ff4565b6001600160801b031690613e4d565b60008060006147088a8a8861453d565b925092509250856001600160a01b0316896001600160a01b0316101561474d5761473683898963ffffffff16565b925061474682868663ffffffff16565b915061476e565b61475b83868663ffffffff16565b925061476b82898963ffffffff16565b91505b6147788383615115565b9055505050505050505050565b60006147918585613f6a565b90506147a181838563ffffffff16565b60009586526008602090815260408088206001600160a01b0390971688529590529390942092909255505050565b60006147db858561460e565b90506147f7846147ef83858763ffffffff16565b879190614b05565b505050505050565b815460009082106148225760405162461bcd60e51b815260040161051890616afe565b82600001828154811061483157fe5b9060005260206000200154905092915050565b600080614854836146b186613ff4565b905060006146cd846146e987614000565b61486d615a91565b506000848152600960209081526040808320815180830190925280546001600160a01b03908116808452600190920154169282018390529092916148b19190614cfe565b6000878152600a60209081526040808320848452909152812080546001820154939450909290916148e28383614d31565b905060006148f08484614d4d565b905086600001516001600160a01b03168a6001600160a01b031614156149255761491e82898b63ffffffff16565b9150614954565b86602001516001600160a01b03168a6001600160a01b03161415613f475761495181898b63ffffffff16565b90505b61495e8282615115565b855561496a8282615147565b85600101819055505050505050505050505050565b6000848152600660205260409020613009818585856147cf565b60606149ee826040518060400160405280602081526020017f5361666545524332303a206c6f772d6c6576656c2063616c6c206661696c6564815250856001600160a01b03166151669092919063ffffffff16565b8051909150156135105780806020019051810190614a0c9190616146565b6135105760405162461bcd60e51b815260040161051890617729565b6000828202831580614a42575082848281614a3f57fe5b04145b614a5e5760405162461bcd60e51b815260040161051890617358565b6706f05b59d3b20000810181811015614a895760405162461bcd60e51b815260040161051890617358565b6000670de0b6b3a764000082612983565b600080828410614ab05750508082036000614ab8565b505081810360015b9250929050565b600080826001600160a01b0316846001600160a01b031610614ae2578284614ae5565b83835b915091509250929050565b6000612ad0836001600160a01b03841661448b565b6000613fec846001600160a01b03851684615175565b600080614b2784613ff4565b9050613fec81846150b9565b6000806000614b4389898861453d565b925092509250856001600160a01b0316886001600160a01b03161015614b8857614b7183888663ffffffff16565b9250614b8182868663ffffffff16565b9150614ba9565b614b9683868663ffffffff16565b9250614ba682888663ffffffff16565b91505b614bb38383615115565b90555050505050505050565b600080846001811115614bce57fe5b14614bd95781613fec565b509092915050565b6000806000614bf38860600151612eef565b9050614bfd615ada565b6040518060e001604052808c6001600160a01b031681526020018b6001600160a01b03168152602001836001600160801b031681526020018a600001518152602001896001600160a01b03168152602001886001600160a01b031681526020018a6080015181525090506000614c738287615216565b9050614c80868d8d615291565b6001600160a01b031687526001600160801b0381166020880152614ca58684836152b2565b909d909c509a5050505050505050505050565b6000828201818312801590614ccd5750838112155b80614ce25750600083128015614ce257508381125b612ad05760405162461bcd60e51b815260040161051890616e50565b60008282604051602001614d1392919061675c565b60405160208183030381529060405280519060200120905092915050565b6000612ad0614d3f84614000565b614d4884614000565b6150b9565b6000612ad0614d5b84613ff4565b614d4884613ff4565b6000614d6f826145f5565b1592915050565b6000612ad0836001600160a01b038416614ddf565b600080614d9b836146e986613ff4565b905060006146cd846146b187614000565b60006107ed614dba83614000565b6146e984613ff4565b6000808080614dd286866152e0565b9097909650945050505050565b60009081526001919091016020526040902054151590565b6000614e01615a91565b50600083815260096020908152604091829020825180840190935280546001600160a01b039081168085526001909201548116928401929092529084161480614e5f575080602001516001600160a01b0316836001600160a01b0316145b8015613fec575050506001600160a01b03161515919050565b6000828152600760205260408120613fec8184614d76565b6000828152600660205260408120613fec81846152fa565b6000614eb2615a91565b50600084815260096020908152604091829020825180840190935280546001600160a01b03908116808552600190920154811692840192909252908516148015611004575080602001516001600160a01b0316836001600160a01b03161495945050505050565b60008181526001830160205260408120548015614ff35783547fffffffffffffffffffffffffffffffffffffffffffffffffffffffffffffffff8083019190810190600090879083908110614f6a57fe5b9060005260206000200154905080876000018481548110614f8757fe5b600091825260208083209091019290925582815260018981019092526040902090840190558654879080614fb757fe5b600190038181906000526020600020016000905590558660010160008781526020019081526020016000206000905560019450505050506107ed565b60009150506107ed565b6000613fec846001600160a01b0385168461530f565b60008181526002830160205260408120548015614ff35783547fffffffffffffffffffffffffffffffffffffffffffffffffffffffffffffffff90810160008181526001808801602090815260408084209587018452808420865481558684018054918501919091558654855260028b019092528084209690965593829055928190559086558481529182209190915590506107ed565b600080600061361b8585615329565b60008282016001600160801b0380851690821610156150ea5760405162461bcd60e51b8152600401610518906174ff565b50506fffffffffffffffffffffffffffffffff19608082901b166001600160801b0383161792915050565b600061512082613ff4565b6001600160801b0316608061513485613ff4565b6001600160801b0316901b019392505050565b600061515282614000565b6001600160801b0316608061513485614000565b6060613fec8484600085615351565b6000828152600284016020526040812054806151d85750508254604080518082018252848152602080820185815260008581526001808a018452858220945185559151938201939093559384018088558683526002880190915291902055612ad0565b7fffffffffffffffffffffffffffffffffffffffffffffffffffffffffffffffff016000908152600180860160205260408220018390559050612ad0565b600080615226846060015161406d565b905060006152378560600151612b75565b9050600181600281111561524757fe5b141561525f57615258858386615412565b9250615289565b600281600281111561526d57fe5b141561527e576152588583866155c9565b611004858386615728565b505092915050565b6000808460018111156152a057fe5b146152ab5782613fec565b5092915050565b600080808560018111156152c257fe5b14156152d25750829050816152d8565b50819050825b935093915050565b600090815260019182016020526040902080549101549091565b6000612ad0836001600160a01b038416615984565b60008061531d85858561599c565b905061100485826159f7565b600080826001600160801b0316846001600160801b031610614ab05750508082036000614ab8565b6060824710156153735760405162461bcd60e51b815260040161051890616f41565b61537c85615a0d565b6153985760405162461bcd60e51b815260040161051890617536565b60006060866001600160a01b031685876040516153b59190616740565b60006040518083038185875af1925050503d80600081146153f2576040519150601f19603f3d011682016040523d82523d6000602084013e6153f7565b606091505b5091509150615407828286615a13565b979650505050505050565b60008061542785606001518660000151613f6a565b9050600061543d86606001518760200151613f6a565b9050600061544a83614dac565b9050600061545783614dac565b9050600086600181111561546757fe5b141561552b5760006154fc886001600160a01b0316633d28000161548a8c615a4c565b86866040518463ffffffff1660e01b81526004016154aa9392919061788a565b602060405180830381600087803b1580156154c457600080fd5b505af11580156154d8573d6000803e3d6000fd5b505050506040513d601f19601f82011682018060405250810190612f85919061654c565b905061551561550e8a60400151612eef565b86906146d9565b945061552184826146a1565b9095509250615573565b6000615548886001600160a01b03166395dc27ee61548a8c615a4c565b905061555485826146d9565b945061556d6155668a60400151612eef565b85906146a1565b90955092505b505060608601805160009081526008602081815260408084208b516001600160a01b0390811686529083528185209790975593518352908152828220988101519094168152969092529420939093555090919050565b6000806000806155e687606001518860000151896020015161453d565b92509250925060008088602001516001600160a01b031689600001516001600160a01b0316101561561b575083905082615621565b50829050835b600061562c83614dac565b9050600061563983614dac565b9050600089600181111561564957fe5b141561569457600061566c8b6001600160a01b0316633d28000161548a8f615a4c565b905061567e61550e8d60400151612eef565b945061568a84826146a1565b90985092506156d5565b60006156b18b6001600160a01b03166395dc27ee61548a8f615a4c565b90506156bd85826146d9565b94506156cf6155668d60400151612eef565b90985092505b60008b602001516001600160a01b03168c600001516001600160a01b0316101561570a576157038585615115565b9050615717565b6157148486615115565b90505b909455509498975050505050505050565b6060830151600090815260066020908152604080832086518251808401909352601883527f4552525f544f4b454e5f4e4f545f5245474953544552454400000000000000009383019390935283928392839161578691849190615a54565b905060006157d889602001516040518060400160405280601881526020017f4552525f544f4b454e5f4e4f545f52454749535445524544000000000000000081525085615a549092919063ffffffff16565b905060606157e584612a7a565b67ffffffffffffffff811180156157fb57600080fd5b50604051908082528060200260200182016040528015615825578160200160208202803683370190505b50805190915060005b818110156158935760006158428783615a6a565b905061584d81614dac565b6001600160801b031684838151811061586257fe5b6020026020010181815250508582141561587e5780985061588a565b8482141561588a578097505b5060010161582e565b5060008960018111156158a257fe5b14156159175760006158e78b6001600160a01b03166363df3b436158c58f615a4c565b8689896040518563ffffffff1660e01b81526004016154aa9493929190617851565b90508098506159036158fc8d60400151612eef565b89906146d9565b975061590f87826146a1565b965050615960565b60006159348b6001600160a01b031663a9a3f0376158c58f615a4c565b985088905061594388826146d9565b975061595c6159558d60400151612eef565b88906146a1565b9650505b61596b858589615a76565b615976858488615a76565b505050505050509392505050565b60009081526002919091016020526040902054151590565b600082815260028401602052604081205482816159cc5760405162461bcd60e51b81526004016105189190616ab4565b507fffffffffffffffffffffffffffffffffffffffffffffffffffffffffffffffff01949350505050565b6000908152600191820160205260409020015490565b3b151590565b60608315615a22575081612ad0565b825115615a325782518084602001fd5b8160405162461bcd60e51b81526004016105189190616ab4565b612f21615ada565b6000613fec846001600160a01b0385168461599c565b6000612ad083836159f7565b60008281526001808501602052604090912001819055613510565b604080518082019091526000808252602082015290565b6040518060a0016040528060008019168152602001600081526020016000815260200160008152602001606081525090565b6040805160e08101825260008082526020820181905291810182905260608082018390526080820183905260a082019290925260c081019190915290565b60008083601f840112615b29578182fd5b50813567ffffffffffffffff811115615b40578182fd5b6020830191508360208083028501011115614ab857600080fd5b600082601f830112615b6a578081fd5b8135615b7d615b7882617920565b6178f9565b818152915060208083019084810181840286018201871015615b9e57600080fd5b60005b84811015613f5f578135615bb481617a35565b84529282019290820190600101615ba1565b600082601f830112615bd6578081fd5b8135615be4615b7882617920565b818152915060208083019084810160005b84811015613f5f578135870160a080601f19838c03011215615c1657600080fd5b615c1f816178f9565b85830135815260408084013587830152606080850135828401526080915081850135818401525082840135925067ffffffffffffffff831115615c6157600080fd5b615c6f8c8885870101615d83565b90820152865250509282019290820190600101615bf5565b600082601f830112615c97578081fd5b8135615ca5615b7882617920565b818152915060208083019084810181840286018201871015615cc657600080fd5b60005b84811015613f5f57813584529282019290820190600101615cc9565b600082601f830112615cf5578081fd5b8151615d03615b7882617920565b818152915060208083019084810181840286018201871015615d2457600080fd5b60005b84811015613f5f57815184529282019290820190600101615d27565b60008083601f840112615d54578182fd5b50813567ffffffffffffffff811115615d6b578182fd5b602083019150836020828501011115614ab857600080fd5b600082601f830112615d93578081fd5b813567ffffffffffffffff811115615da9578182fd5b615dbc6020601f19601f840116016178f9565b9150808252836020828501011115615dd357600080fd5b8060208401602084013760009082016020015292915050565b600060608284031215615dfd578081fd5b50919050565b600060208284031215615e14578081fd5b8135612ad081617a35565b60008060408385031215615e31578081fd5b8235615e3c81617a35565b9150602083013567ffffffffffffffff811115615e57578182fd5b615e6385828601615b5a565b9150509250929050565b600080600080600060608688031215615e84578081fd5b853567ffffffffffffffff80821115615e9b578283fd5b615ea789838a01615b18565b90975095506020880135915080821115615ebf578283fd5b50615ecc88828901615b18565b9094509250506040860135615ee081617a35565b809150509295509295909350565b600080600060608486031215615f02578081fd5b833567ffffffffffffffff80821115615f19578283fd5b615f2587838801615b5a565b94506020860135915080821115615f3a578283fd5b50615f4786828701615c87565b9250506040840135615f5881617a35565b809150509250925092565b60006020808385031215615f75578182fd5b825167ffffffffffffffff811115615f8b578283fd5b8301601f81018513615f9b578283fd5b8051615fa9615b7882617920565b8181528381019083850185840285018601891015615fc5578687fd5b8694505b83851015615fe7578051835260019490940193918501918501615fc9565b50979650505050505050565b60008060008060a08587031215616008578182fd5b843567ffffffffffffffff8082111561601f578384fd5b61602b88838901615bc6565b95506020870135915080821115616040578384fd5b5061604d87828801615b18565b909450925061606190508660408701615dec565b905092959194509250565b600080600080600060c08688031215616083578283fd5b853567ffffffffffffffff8082111561609a578485fd5b6160a689838a01615bc6565b965060208801359150808211156160bb578485fd5b506160c888828901615b18565b90955093506160dc90508760408801615dec565b915060a086013560028110615ee0578182fd5b60008060408385031215616101578182fd5b825167ffffffffffffffff80821115616118578384fd5b61612486838701615ce5565b93506020850151915080821115616139578283fd5b50615e6385828601615ce5565b600060208284031215616157578081fd5b8151612ad081617a4a565b600060208284031215616173578081fd5b5035919050565b60008060008060008060c08789031215616192578384fd5b8635955060208701356161a481617a35565b9450604087013567ffffffffffffffff808211156161c0578586fd5b6161cc8a838b01615b5a565b955060608901359150808211156161e1578283fd5b6161ed8a838b01615c87565b9450608089013591506161ff82617a4a565b90925060a08801359080821115616214578283fd5b5061622189828a01615d83565b9150509295509295509295565b600080600060408486031215616242578081fd5b83359250602084013567ffffffffffffffff81111561625f578182fd5b61626b86828701615b18565b9497909650939450505050565b60008060008060006060868803121561628f578283fd5b85359450602086013567ffffffffffffffff808211156162ad578485fd5b6162b989838a01615b18565b909650945060408801359150808211156162d1578283fd5b506162de88828901615b18565b969995985093965092949392505050565b60008060408385031215616301578182fd5b82359150602083013561631381617a35565b809150509250929050565b600080600060608486031215616332578081fd5b83359250602084013561634481617a35565b929592945050506040919091013590565b60008060008060006080868803121561636c578283fd5b853561637781617a35565b9450602086013567ffffffffffffffff80821115616393578485fd5b61639f89838a01615b5a565b955060408801359150808211156163b4578485fd5b6163c089838a01615c87565b945060608801359150808211156163d5578283fd5b506162de88828901615d43565b600080600080600080600060e0888a0312156163fc578485fd5b873561640781617a35565b9650602088013567ffffffffffffffff80821115616423578687fd5b61642f8b838c01615d43565b909850965060408a0135915080821115616447578283fd5b6164538b838c01615bc6565b955060608a0135915080821115616468578283fd5b506164758a828b01615b18565b909450925061648990508960808a01615dec565b905092959891949750929550565b600080600080600080600060e0888a0312156164b1578081fd5b87356164bc81617a35565b9650602088013567ffffffffffffffff80821115616423578283fd5b6000602082840312156164e9578081fd5b813560038110612ad0578182fd5b600060608284031215616508578081fd5b61651260606178f9565b823561651d81617a35565b8152602083013561652d81617a4a565b6020820152604083013561654081617a4a565b60408201529392505050565b60006020828403121561655d578081fd5b5051919050565b60008060408385031215616576578182fd5b50508035926020909101359150565b60008284526020808501945082825b858110156165c25781356165a781617a35565b6001600160a01b031687529582019590820190600101616594565b509495945050505050565b6000815180845260208085019450808401835b838110156165c25781516001600160a01b0316875295820195908201906001016165e0565b6000815180845260208085019450808401835b838110156165c257815187529582019590820190600101616618565b60008284528282602086013780602084860101526020601f19601f85011685010190509392505050565b60008151808452616676816020860160208601617940565b601f01601f19169290920160200192915050565b6002811061669457fe5b9052565b80356166a381617a35565b6001600160a01b0316825260208101356166bc81617a4a565b1515602083015260408101356166d181617a4a565b8015156040840152505050565b60006001600160a01b0380835116845280602084015116602085015260408301516040850152606083015160608501528060808401511660808501528060a08401511660a08501525060c082015160e060c0850152613fec60e085018261665e565b60008251616752818460208701617940565b9190910192915050565b7fffffffffffffffffffffffffffffffffffffffff000000000000000000000000606093841b811682529190921b16601482015260280190565b6001600160a01b0391909116815260200190565b6001600160a01b0392831681529116602082015260400190565b6001600160a01b039384168152919092166020820152604081019190915260600190565b6001600160a01b0383168152604081016003831061680257fe5b8260208301529392505050565b6001600160a01b03929092168252602082015260400190565b6020808252825182820181905260009190848201906040850190845b8181101561686057835183529284019291840191600101616844565b50909695505050505050565b600060608252616880606083018789616585565b82810360208401526168928187616605565b90508281036040840152610ddd818587616634565b6000604082526168ba60408301856165cd565b82810360208401526110048185616605565b6000608082526168df60808301886165cd565b82810360208401526168f18188616605565b905082810360408401526169058187616605565b90508281036060840152610ddd818587616634565b600060208252612ad06020830184616605565b600060c0820160c0835280885180835260e0850191506020925060e0838202860101838b01855b838110156169d4578783037fffffffffffffffffffffffffffffffffffffffffffffffffffffffffffffff200185528151805184528681015187850152604080820151908501526060808201519085015260809081015160a0918501829052906169c08186018361665e565b968801969450505090850190600101616954565b5050858103848701526169e8818a8c616585565b9450505050506169fb6040830185616698565b616a0860a083018461668a565b9695505050505050565b6000604082526168ba6040830185616605565b90815260200190565b60008882526001600160a01b03808916602084015280881660408401525060e06060830152616a6060e0830187616605565b8281036080840152616a728187616605565b90508460a084015282810360c0840152616a8c818561665e565b9a9950505050505050505050565b600084825260406020830152611004604083018486616585565b600060208252612ad0602083018461665e565b60208082526016908201527f466c6173684c6f616e2066656520746f6f206869676800000000000000000000604082015260600190565b60208082526022908201527f456e756d657261626c655365743a20696e646578206f7574206f6620626f756e60408201527f6473000000000000000000000000000000000000000000000000000000000000606082015260800190565b60208082526017908201527f43616c6c6572206973206e6f7420746865205661756c74000000000000000000604082015260600190565b6020808252601f908201527f4552525f4e4f545f454e4f5547485f494e5445524e414c5f42414c414e434500604082015260600190565b60208082526016908201527f4552525f414d4f554e54535f4f55545f4c454e47544800000000000000000000604082015260600190565b60208082526024908201527f43616c6c65722063616e6e6f742077697468647261772070726f746f636f6c2060408201527f6665657300000000000000000000000000000000000000000000000000000000606082015260800190565b60208082526026908201527f5661756c743a20776974686472617720616d6f756e742065786365656473206260408201527f616c616e63650000000000000000000000000000000000000000000000000000606082015260800190565b60208082526010908201527f4e6f6e6578697374656e7420706f6f6c00000000000000000000000000000000604082015260600190565b60208082526022908201527f4552525f544f4b454e535f414d4f554e54535f4c454e4754485f4d49534d415460408201527f4348000000000000000000000000000000000000000000000000000000000000606082015260800190565b60208082526015908201527f4552525f414d4f554e54535f494e5f4c454e4754480000000000000000000000604082015260600190565b6020808252601d908201527f4552525f544f4b454e5f42414c414e43455f49535f4e4f545f5a45524f000000604082015260600190565b60208082526012908201527f4552525f455849545f42454c4f575f4d494e0000000000000000000000000000604082015260600190565b60208082526027908201527f53616665436173743a2076616c756520646f65736e27742066697420696e203160408201527f3238206269747300000000000000000000000000000000000000000000000000606082015260800190565b60208082526021908201527f5369676e6564536166654d6174683a206164646974696f6e206f766572666c6f60408201527f7700000000000000000000000000000000000000000000000000000000000000606082015260800190565b60208082526022908201527f546f6b656e7320616e6420616d6f756e7473206c656e677468206d69736d617460408201527f6368000000000000000000000000000000000000000000000000000000000000606082015260800190565b60208082526017908201527f4552525f494e4445585f4f55545f4f465f424f554e4453000000000000000000604082015260600190565b60208082526026908201527f416464726573733a20696e73756666696369656e742062616c616e636520666f60408201527f722063616c6c0000000000000000000000000000000000000000000000000000606082015260800190565b60208082526016908201527f4552525f544f4b454e535f414c52454144595f53455400000000000000000000604082015260600190565b6020808252601f908201527f556e6b6e6f776e20616d6f756e7420696e206f6e206669727374207377617000604082015260600190565b6020808252601a908201527f496e73756666696369656e742070726f746f636f6c2066656573000000000000604082015260600190565b60208082526012908201527f4552525f4a4f494e5f41424f56455f4d41580000000000000000000000000000604082015260600190565b60208082526016908201527f43616c6c6572206973206e6f742074686520706f6f6c00000000000000000000604082015260600190565b60208082526011908201527f537761702066656520746f6f2068696768000000000000000000000000000000604082015260600190565b60208082526029908201527f43616c6c65722063616e6e6f74207365742070726f746f636f6c20666c61736860408201527f206c6f616e206665650000000000000000000000000000000000000000000000606082015260800190565b6020808252601b908201527f4552525f544f4b454e535f4c454e4754485f4d5553545f42455f320000000000604082015260600190565b60208082526010908201527f4552525f4449565f494e5445524e414c00000000000000000000000000000000604082015260600190565b6020808252601c908201527f4552525f544f4b454e5f414c52454144595f5245474953544552454400000000604082015260600190565b60208082526023908201527f43616c6c65722063616e6e6f74207365742070726f746f636f6c20737761702060408201527f6665650000000000000000000000000000000000000000000000000000000000606082015260800190565b6020808252818101527f43616c6c65722063616e6e6f74207472616e7366657220617574686f72697479604082015260600190565b60208082526016908201527f506f6f6c20494420616c72656164792065786973747300000000000000000000604082015260600190565b6020808252600f908201527f4552525f4241445f494e44494345530000000000000000000000000000000000604082015260600190565b60208082526013908201527f5377617020666f722073616d6520746f6b656e00000000000000000000000000604082015260600190565b60208082526018908201527f4552525f544f4b454e5f4e4f545f524547495354455245440000000000000000604082015260600190565b60208082526010908201527f4552525f4d554c5f4f564552464c4f5700000000000000000000000000000000604082015260600190565b60208082526015908201527f57697468647261772066656520746f6f20686967680000000000000000000000604082015260600190565b60208082526027908201527f43616c6c65722063616e6e6f74207365742070726f746f636f6c20776974686460408201527f7261772066656500000000000000000000000000000000000000000000000000606082015260800190565b6020808252600c908201527f4552525f4449565f5a45524f0000000000000000000000000000000000000000604082015260600190565b60208082526016908201527f4552525f544f4b454e5f43414e545f42455f5a45524f00000000000000000000604082015260600190565b6020808252601c908201527f4d6973636f6e7374727563746564206d756c7469686f70207377617000000000604082015260600190565b60208082526013908201527f4552525f544f4b454e535f4d49534d4154434800000000000000000000000000604082015260600190565b60208082526016908201527f42414c414e43455f544f54414c5f4f564552464c4f5700000000000000000000604082015260600190565b6020808252601d908201527f416464726573733a2063616c6c20746f206e6f6e2d636f6e7472616374000000604082015260600190565b60208082526028908201527f53616665436173743a2076616c756520646f65736e27742066697420696e206160408201527f6e20696e74323536000000000000000000000000000000000000000000000000606082015260800190565b60208082526011908201527f4552525f5355425f554e444552464c4f57000000000000000000000000000000604082015260600190565b60208082526010908201527f4552525f4144445f4f564552464c4f5700000000000000000000000000000000604082015260600190565b60208082526023908201527f4552525f4455455f50524f544f434f4c5f4645455f414d4f554e54535f4c454e60408201527f4754480000000000000000000000000000000000000000000000000000000000606082015260800190565b60208082526024908201527f5369676e6564536166654d6174683a207375627472616374696f6e206f76657260408201527f666c6f7700000000000000000000000000000000000000000000000000000000606082015260800190565b6020808252601e908201527f496e73756666696369656e742062616c616e636520746f20626f72726f770000604082015260600190565b6020808252602a908201527f5361666545524332303a204552433230206f7065726174696f6e20646964206e60408201527f6f74207375636365656400000000000000000000000000000000000000000000606082015260800190565b60208082526029908201527f5661756c743a20746f6b656e7320616e6420616d6f756e7473206c656e67746860408201527f206d69736d617463680000000000000000000000000000000000000000000000606082015260800190565b6020808252601f908201527f5265656e7472616e637947756172643a207265656e7472616e742063616c6c00604082015260600190565b60208082526018908201527f53454e4445525f4e4f545f41535345545f4d414e414745520000000000000000604082015260600190565b60006080825261786460808301876166de565b82810360208401526178768187616605565b604084019590955250506060015292915050565b60006060825261789d60608301866166de565b6001600160801b0394851660208401529290931660409091015292915050565b6001600160801b0391909116815260200190565b6001600160801b0392831681529116602082015260400190565b918252602082015260400190565b60405181810167ffffffffffffffff8111828210171561791857600080fd5b604052919050565b600067ffffffffffffffff821115617936578081fd5b5060209081020190565b60005b8381101561795b578181015183820152602001617943565b83811115612ccd5750506000910152565b60e01c90565b600060443d1015617982576104f0565b600481823e6308c379a0617996825161796c565b146179a0576104f0565b6040517ffffffffffffffffffffffffffffffffffffffffffffffffffffffffffffffffc3d016004823e80513d67ffffffffffffffff81602484011181841117156179ee57505050506104f0565b82840192508251915080821115617a0857505050506104f0565b503d83016020828401011115617a20575050506104f0565b601f01601f1916810160200160405291505090565b6001600160a01b0381168114612b0a57600080fd5b8015158114612b0a57600080fdfea2646970667358221220bcbacfc99ae8e94b2fa18b810b6b6666c9403923ffaf20cdaaafd014e4240bcd64736f6c63430007010033",
  "devdoc": {
    "kind": "dev",
    "methods": {
      "batchSwapGivenIn(address,bytes,(bytes32,uint256,uint256,uint256,bytes)[],address[],(address,bool,bool))": {
        "details": "Performs a series of swaps with one or multiple Pools. In each swap, the amount of tokens sent to the Pool is known. For swaps where the amount of tokens received from the Pool is known, see `batchSwapGivenOut`. Returns an array with the net Vault token balance deltas. Positive amounts represent tokens sent to the Vault, and negative amounts tokens sent by the Vault. Each delta corresponds to the token at the same index in the `tokens` array. A `validator` can be optionally supplied, and if so it will be called with `tokens`, the Vault deltas, and user-supplied `validatorData`. This is useful to check a swap has happened according to user expectations (and wasn't, for example, affected by other transactions), and potentially revert if not. Each swap is executed independently in the order specified by the `swaps` array. However, tokens are only transferred in and out of the Vault (or withdrawn from and deposited into the User's Internal Balance) after all swaps have been completed and the net token balance change computed. This means it is possible to e.g. under certain conditions perform arbitrage by swapping with multiple Pools in a way that results in net token movement out of the Vault (profit), with no tokens being sent in (but updating the Pool's internal balances). The `swaps` array contains the information about each individual swaps. All swaps consist of a Pool receiving some amount of one of its tokens (`tokenIn`), and sending some amount of another one of its tokens (`tokenOut`). The `tokenOut` amount is determined by the Pool's pricing algorithm by calling the `quoteOutGivenIn` function (from IGeneralPoolQuote or IMinimalSwapInfoPoolQuote). Multihop swaps, where one token is exchanged for another one by passing through one or more intermediate tokens, can be executed by passing an `amountIn` value of zero for a swap. This will cause the amount out of the previous swap to be used as the amount in of the current one. In such a scenario, `tokenIn` must equal the previous swap's `tokenOut`. The `tokens` array contains the addresses of all tokens involved in the swaps. Funds will be sent and  received according to the data in the `funds` struct."
      },
      "batchSwapGivenOut(address,bytes,(bytes32,uint256,uint256,uint256,bytes)[],address[],(address,bool,bool))": {
        "details": "Performs a series of swaps with one or multiple Pools. In each swap, the amount of tokens received from the Pool is known. For swaps where the amount of tokens sent to the Pool is known, see `batchSwapGivenIn`. Returns an array with the net Vault token balance deltas. Positive amounts represent tokens sent to the Vault, and negative amounts tokens sent by the Vault. Each delta corresponds to the token at the same index in the `tokens` array. A `validator` can be optionally supplied, and if so it will be called with `tokens`, the Vault deltas, and user-supplied `validatorData`. This is useful to check a swap has happened according to user expectations (and wasn't, for example, affected by other transactions), and potentially revert if not. Each swap is executed independently in the order specified by the `swaps` array. However, tokens are only transferred in and out of the Vault (or withdrawn from and deposited into the User's Internal Balance) after all swaps have been completed and the net token balance change computed. This means it is possible to e.g. under certain conditions perform arbitrage by swapping with multiple Pools in a way that results in net token movement out of the Vault (profit), with no tokens being sent in (but updating the Pool's internal balances). The `swaps` array contains the information about each individual swaps. All swaps consist of a Pool receiving some amount of one of its tokens (`tokenIn`), and sending some amount of another one of its tokens (`tokenOut`). The `tokenIn` amount is determined by the Pool's pricing algorithm by calling the `quoteInGivenOut` function (from IGeneralPoolQuote or IMinimalSwapInfoPoolQuote). Multihop swaps, where one token is exchanged for another one by passing through one or more intermediate tokens, can be executed by passing an `amountOut` value of zero for a swap. This will cause the amount in of the previous swap to be used as the amount out of the current one. In such a scenario, `tokenOut` must equal the previous swap's `tokenIn`. The `tokens` array contains the addresses of all tokens involved in the swaps. Funds will be sent and  received according to the data in the `funds` struct."
      },
      "changeAuthorizer(address)": {
        "details": "Sets a new Authorizer for the Vault. Requirements: - the caller must be approved by the authorizer (`IAuthorizer.canChangeAuthorizer`)."
      },
      "depositToInternalBalance(address[],uint256[],address)": {
        "details": "Deposits tokens from the caller into `user`'s Internal Balance. The caller must have allowed the Vault to use their tokens via `IERC20.approve()`."
      },
      "depositToPoolBalance(bytes32,address,uint256)": {
        "details": "Called by a Pool's Asset Manager for `token` to deposit `amount` tokens into the Vault. This increases the Pool's cash but decreases its managed balance, leaving the total balance unchanged. The Asset Manager must have approved the Vault to use `token`."
      },
      "flashLoan(address,address[],uint256[],bytes)": {
        "details": "Performs a flash loan where 'amount' tokens of 'token' are sent to 'receiver', which must implement the IFlashLoanReceiver interface. An arbitrary user-provided 'receiverData' is forwarded to this contract. Before returning from the IFlashLoanReceiver.receiveFlashLoan call, the receiver must transfer back the loaned tokens, plus a proportional protocol fee."
      },
      "getAuthorizer()": {
        "details": "Returns the Vault's Authorizer."
      },
      "getCollectedFeesByToken(address)": {
        "details": "Returns the amount of protocol fees collected by the Vault for `token`."
      },
      "getInternalBalance(address,address[])": {
        "details": "Returns `user`'s Internal Balance for a specific token."
      },
      "getNumberOfPools()": {
        "details": "Returns the number of Pools."
      },
      "getPool(bytes32)": {
        "details": "Returns a Pool's address and specialization level."
      },
      "getPoolAssetManager(bytes32,address)": {
        "details": "Returns a Pool's Asset Manager for `token`. Asset Managers can manage a Pool's assets by taking them out of the Vault via `withdrawFromPoolBalance`, `depositToPoolBalance` and `updateManagedBalance`."
      },
      "getPoolIds(uint256,uint256)": {
        "details": "Returns a partial list of Pool IDs, starting at index `start`, up to index `end`."
      },
      "getPoolTokenBalanceInfo(bytes32,address)": {
        "details": "Returns the Pool's token cash and managed balances."
      },
      "getPoolTokens(bytes32)": {
        "details": "Returns the Pool's tokens and total balances. This means it will refer also to the assets held by the Pool's Asset Manager and not currently held by the Vault."
      },
      "getProtocolFlashLoanFee()": {
        "details": "Returns the Protocol Flash Loan Fee. These are collected on all Flash Loans. This is an 18 decimal fixed point number, so e.g. 0.1e18 stands for a 10% fee."
      },
      "getProtocolSwapFee()": {
        "details": "Returns the Protocol Swap Fee. These are paid by Pools via `paySwapProtocolFees`. This is an 18 decimal fixed point number, so e.g. 0.1e18 stands for a 10% fee."
      },
      "getProtocolWithdrawFee()": {
        "details": "Returns the Protocol Withdraw Fee. Withdraw fees are applied on `withdraw` and `exitPool` (unless depositing into User's Internal Balance). Swaps and `withdrawFromPoolBalance` are not charged withdraw fees. This is an 18 decimal fixed point number, so e.g. 0.1e18 stands for a 10% fee."
      },
      "joinPool(bytes32,address,address[],uint256[],bool,bytes)": {
        "details": "Called by users to join a Pool, transferring tokens into its balance. The `IPool.onJoinPool` hook will be called on the Pool by the Vault, which will typically grant something to the user in return - often tokenized Pool shares. `maxAmountsIn` is the maximum amount of tokens the user is willing to provide to the Pool, for each token in the `tokens` array. This array must match the Pool's registered tokens. Pools are free to implement any arbitrary logic in the `IPool.onJoinPool` hook, and may require additional information (such as the expected number of Pool shares to obtain). This can be encoded in the `userData` argument, which is ignored by the Vault and passed directly to the Pool, as is `recipient`. If `fromInternalBalance` is true, the caller's Internal Balance will be preferred, performing an ERC20 transfer for the difference between the requested amount and Internal Balance (if any)."
      },
      "queryBatchSwapGivenIn((bytes32,uint256,uint256,uint256,bytes)[],address[],(address,bool,bool))": {
        "details": "Simulates a call to batchSwapGivenIn, returning an array of Vault token deltas. Each element in the array corresponds to the token at the same index, and indicates the number of tokens the Vault would take from the caller (if positive) or send to the recipient (if negative). The arguments it receives are the same that an equivalent batchSwapGivenIn would receive. Unlike batchSwapGivenIn, this function performs no checks on its caller nor the recipient field in the FundsManagement struct. This makes it suitable to be called by off-chain applications via eth_call without needing to hold tokens, approve them for the Vault, or even know a user's address. Note that this function is not 'view' (due to implementation details): the client code must explicitly execute eth_call instead of eth_sendTransaction."
      },
      "queryBatchSwapGivenOut((bytes32,uint256,uint256,uint256,bytes)[],address[],(address,bool,bool))": {
        "details": "Simulates a call to batchSwapGivenOut, returning an array of Vault token deltas. Each element in the array corresponds to the token at the same index, and indicates the number of tokens the Vault would take from the caller (if positive) or send to the recipient (if negative). The arguments it receives are the same that an equivalent batchSwapGivenOut would receive. Unlike batchSwapGivenOut, this function performs no checks on its caller nor the recipient field in the FundsManagement struct. This makes it suitable to be called by off-chain applications via eth_call without needing to hold tokens, approve them for the Vault, or even know a user's address. Note that this function is not 'view' (due to implementation details): the client code must explicitly execute eth_call instead of eth_sendTransaction."
      },
      "queryBatchSwapHelper((bytes32,uint256,uint256,uint256,bytes)[],address[],(address,bool,bool),uint8)": {
        "details": "Despite this function being external, it can only be called by the Vault itself, and should not be considered part of the Vault's external API. It executes the Pool interaction part of a batch swap, asking Pools for quotes and computing the Vault deltas, but without performing any token transfers. It then reverts unconditionally, returning the Vault deltas array as the revert data. This enables an accurate implementation of queryBatchSwapGivenIn and queryBatchSwapGivenOut, since the array 'returned' by this function is the result of the exact same computation a swap would perform, including the Pool calls."
      },
      "registerPool(uint8)": {
        "details": "Registers a the caller as a Pool, with selected specialization level. Returns the Pool's ID. Also emits a PoolCreated event."
      },
      "registerTokens(bytes32,address[],address[])": {
        "details": "Called by the Pool to register `tokens`. A Pool can only add and remove liquidity for tokens it has registered, and all swaps with a Pool must involve registered tokens. Each token in `tokens` must not be already registered before this call. For Pools with the Two Token specialization, `tokens` must have a length of two, that is, both tokens must be registered at the same time. Also define the asset manager for each token at registration time (can be the zero address, if a token is unmanaged)"
      },
      "setProtocolFlashLoanFee(uint256)": {
        "details": "Sets a new Protocol Flash Loan Fee. Requirements: - the caller must be approved by the authorizer (`IAuthorizer.canSetProtocolFlashLoanFee`)."
      },
      "setProtocolSwapFee(uint256)": {
        "details": "Sets a new Protocol Swap Fee. Requirements: - the caller must be approved by the authorizer (`IAuthorizer.canSetProtocolSwapFee`)."
      },
      "setProtocolWithdrawFee(uint256)": {
        "details": "Sets a new Protocol Withdraw Fee. Requirements: - the caller must be approved by the authorizer (`IAuthorizer.canSetProtocolWithdrawFee`)."
      },
      "transferInternalBalance(address[],uint256[],address)": {
        "details": "Transfers tokens from the caller's Internal Balance, transferring them to `recipient`'s Internal Balance. This does not charge protocol withdrawal fees."
      },
      "unregisterTokens(bytes32,address[])": {
        "details": "Called by the Pool to unregisted `tokens`. This prevents adding and removing liquidity in the future, as well as swaps. Unregistered tokens can be re-registered in the future. Each token in `tokens` must be registered before this call, and have zero balance. For Pools with the Two Token specialization, `tokens` must have a length of two, that is, both tokens must be unregistered at the same time."
      },
      "updateManagedBalance(bytes32,address,uint256)": {
        "details": "Called by a Pool's Asset Manager for `token` to update the external amount. This causes no change on the Pool's cash, but because the managed balance changes, so does the total balance. The external amount can be both increased and decreased by this call."
      },
      "withdrawFromInternalBalance(address[],uint256[],address)": {
        "details": "Withdraws tokens from the caller's Internal Balance, transferring them to `recipient`. This charges protocol withdrawal fees."
      },
      "withdrawFromPoolBalance(bytes32,address,uint256)": {
        "details": "Called by a Pool's Asset Manager for `token` to withdraw `amount` tokens from the Vault. This decreases the Pool's cash but increases its managed balance, leaving the total balance unchanged."
      },
      "withdrawProtocolFees(address[],uint256[],address)": {
        "details": "Withdraws collected protocol fees. Requirements: - the caller must be approved by the authorizer (`IAuthorizer.canWithdrawProtocolFees`) for each token."
      }
    },
    "version": 1
  },
  "userdoc": {
    "kind": "user",
    "methods": {},
    "version": 1
  },
  "storageLayout": {
    "storage": [
      {
        "astId": 20178,
        "contract": "contracts/vault/Vault.sol:Vault",
        "label": "_status",
        "offset": 0,
        "slot": "0",
        "type": "t_uint256"
      },
      {
        "astId": 11719,
        "contract": "contracts/vault/Vault.sol:Vault",
        "label": "_authorizer",
        "offset": 0,
        "slot": "1",
        "type": "t_contract(IAuthorizer)18541"
      },
      {
        "astId": 11793,
        "contract": "contracts/vault/Vault.sol:Vault",
        "label": "_collectedProtocolFees",
        "offset": 0,
        "slot": "2",
        "type": "t_mapping(t_contract(IERC20)1393,t_uint256)"
      },
      {
        "astId": 11795,
        "contract": "contracts/vault/Vault.sol:Vault",
        "label": "_protocolWithdrawFee",
        "offset": 0,
        "slot": "3",
        "type": "t_uint128"
      },
      {
        "astId": 11797,
        "contract": "contracts/vault/Vault.sol:Vault",
        "label": "_protocolSwapFee",
        "offset": 16,
        "slot": "3",
        "type": "t_uint128"
      },
      {
        "astId": 11799,
        "contract": "contracts/vault/Vault.sol:Vault",
        "label": "_protocolFlashLoanFee",
        "offset": 0,
        "slot": "4",
        "type": "t_uint256"
      },
      {
        "astId": 12309,
        "contract": "contracts/vault/Vault.sol:Vault",
        "label": "_internalTokenBalance",
        "offset": 0,
        "slot": "5",
        "type": "t_mapping(t_address,t_mapping(t_contract(IERC20)1393,t_uint128))"
      },
      {
        "astId": 16442,
        "contract": "contracts/vault/Vault.sol:Vault",
        "label": "_generalPoolsBalances",
        "offset": 0,
        "slot": "6",
        "type": "t_mapping(t_bytes32,t_struct(IERC20ToBytes32Map)19862_storage)"
      },
      {
        "astId": 17010,
        "contract": "contracts/vault/Vault.sol:Vault",
        "label": "_minimalSwapInfoPoolsTokens",
        "offset": 0,
        "slot": "7",
        "type": "t_mapping(t_bytes32,t_struct(AddressSet)2234_storage)"
      },
      {
        "astId": 17016,
        "contract": "contracts/vault/Vault.sol:Vault",
        "label": "_minimalSwapInfoPoolsBalances",
        "offset": 0,
        "slot": "8",
        "type": "t_mapping(t_bytes32,t_mapping(t_contract(IERC20)1393,t_bytes32))"
      },
      {
        "astId": 17550,
        "contract": "contracts/vault/Vault.sol:Vault",
        "label": "_poolTwoTokenTokens",
        "offset": 0,
        "slot": "9",
        "type": "t_mapping(t_bytes32,t_struct(TwoTokenTokens)17541_storage)"
      },
      {
        "astId": 17556,
        "contract": "contracts/vault/Vault.sol:Vault",
        "label": "_poolTwoTokenSharedBalances",
        "offset": 0,
        "slot": "10",
        "type": "t_mapping(t_bytes32,t_mapping(t_bytes32,t_struct(TwoTokenSharedBalances)17546_storage))"
      },
      {
        "astId": 12743,
        "contract": "contracts/vault/Vault.sol:Vault",
        "label": "_pools",
        "offset": 0,
        "slot": "11",
        "type": "t_struct(Bytes32Set)2149_storage"
      },
      {
        "astId": 12759,
        "contract": "contracts/vault/Vault.sol:Vault",
        "label": "_poolAssetManagers",
        "offset": 0,
        "slot": "13",
        "type": "t_mapping(t_bytes32,t_mapping(t_contract(IERC20)1393,t_address))"
      }
    ],
    "types": {
      "t_address": {
        "encoding": "inplace",
        "label": "address",
        "numberOfBytes": "20"
      },
      "t_array(t_bytes32)dyn_storage": {
        "base": "t_bytes32",
        "encoding": "dynamic_array",
        "label": "bytes32[]",
        "numberOfBytes": "32"
      },
      "t_bytes32": {
        "encoding": "inplace",
        "label": "bytes32",
        "numberOfBytes": "32"
      },
      "t_contract(IAuthorizer)18541": {
        "encoding": "inplace",
        "label": "contract IAuthorizer",
        "numberOfBytes": "20"
      },
      "t_contract(IERC20)1393": {
        "encoding": "inplace",
        "label": "contract IERC20",
        "numberOfBytes": "20"
      },
      "t_mapping(t_address,t_mapping(t_contract(IERC20)1393,t_uint128))": {
        "encoding": "mapping",
        "key": "t_address",
        "label": "mapping(address => mapping(contract IERC20 => uint128))",
        "numberOfBytes": "32",
        "value": "t_mapping(t_contract(IERC20)1393,t_uint128)"
      },
      "t_mapping(t_bytes32,t_mapping(t_bytes32,t_struct(TwoTokenSharedBalances)17546_storage))": {
        "encoding": "mapping",
        "key": "t_bytes32",
        "label": "mapping(bytes32 => mapping(bytes32 => struct TwoTokenPoolsBalance.TwoTokenSharedBalances))",
        "numberOfBytes": "32",
        "value": "t_mapping(t_bytes32,t_struct(TwoTokenSharedBalances)17546_storage)"
      },
      "t_mapping(t_bytes32,t_mapping(t_contract(IERC20)1393,t_address))": {
        "encoding": "mapping",
        "key": "t_bytes32",
        "label": "mapping(bytes32 => mapping(contract IERC20 => address))",
        "numberOfBytes": "32",
        "value": "t_mapping(t_contract(IERC20)1393,t_address)"
      },
      "t_mapping(t_bytes32,t_mapping(t_contract(IERC20)1393,t_bytes32))": {
        "encoding": "mapping",
        "key": "t_bytes32",
        "label": "mapping(bytes32 => mapping(contract IERC20 => bytes32))",
        "numberOfBytes": "32",
        "value": "t_mapping(t_contract(IERC20)1393,t_bytes32)"
      },
      "t_mapping(t_bytes32,t_struct(AddressSet)2234_storage)": {
        "encoding": "mapping",
        "key": "t_bytes32",
        "label": "mapping(bytes32 => struct EnumerableSet.AddressSet)",
        "numberOfBytes": "32",
        "value": "t_struct(AddressSet)2234_storage"
      },
      "t_mapping(t_bytes32,t_struct(IERC20ToBytes32Map)19862_storage)": {
        "encoding": "mapping",
        "key": "t_bytes32",
        "label": "mapping(bytes32 => struct EnumerableMap.IERC20ToBytes32Map)",
        "numberOfBytes": "32",
        "value": "t_struct(IERC20ToBytes32Map)19862_storage"
      },
      "t_mapping(t_bytes32,t_struct(TwoTokenSharedBalances)17546_storage)": {
        "encoding": "mapping",
        "key": "t_bytes32",
        "label": "mapping(bytes32 => struct TwoTokenPoolsBalance.TwoTokenSharedBalances)",
        "numberOfBytes": "32",
        "value": "t_struct(TwoTokenSharedBalances)17546_storage"
      },
      "t_mapping(t_bytes32,t_struct(TwoTokenTokens)17541_storage)": {
        "encoding": "mapping",
        "key": "t_bytes32",
        "label": "mapping(bytes32 => struct TwoTokenPoolsBalance.TwoTokenTokens)",
        "numberOfBytes": "32",
        "value": "t_struct(TwoTokenTokens)17541_storage"
      },
      "t_mapping(t_bytes32,t_uint256)": {
        "encoding": "mapping",
        "key": "t_bytes32",
        "label": "mapping(bytes32 => uint256)",
        "numberOfBytes": "32",
        "value": "t_uint256"
      },
      "t_mapping(t_contract(IERC20)1393,t_address)": {
        "encoding": "mapping",
        "key": "t_contract(IERC20)1393",
        "label": "mapping(contract IERC20 => address)",
        "numberOfBytes": "32",
        "value": "t_address"
      },
      "t_mapping(t_contract(IERC20)1393,t_bytes32)": {
        "encoding": "mapping",
        "key": "t_contract(IERC20)1393",
        "label": "mapping(contract IERC20 => bytes32)",
        "numberOfBytes": "32",
        "value": "t_bytes32"
      },
      "t_mapping(t_contract(IERC20)1393,t_uint128)": {
        "encoding": "mapping",
        "key": "t_contract(IERC20)1393",
        "label": "mapping(contract IERC20 => uint128)",
        "numberOfBytes": "32",
        "value": "t_uint128"
      },
      "t_mapping(t_contract(IERC20)1393,t_uint256)": {
        "encoding": "mapping",
        "key": "t_contract(IERC20)1393",
        "label": "mapping(contract IERC20 => uint256)",
        "numberOfBytes": "32",
        "value": "t_uint256"
      },
      "t_mapping(t_uint256,t_struct(MapEntry)19184_storage)": {
        "encoding": "mapping",
        "key": "t_uint256",
        "label": "mapping(uint256 => struct EnumerableMap.MapEntry)",
        "numberOfBytes": "32",
        "value": "t_struct(MapEntry)19184_storage"
      },
      "t_struct(AddressSet)2234_storage": {
        "encoding": "inplace",
        "label": "struct EnumerableSet.AddressSet",
        "members": [
          {
            "astId": 2233,
            "contract": "contracts/vault/Vault.sol:Vault",
            "label": "_inner",
            "offset": 0,
            "slot": "0",
            "type": "t_struct(Set)1969_storage"
          }
        ],
        "numberOfBytes": "64"
      },
      "t_struct(Bytes32Set)2149_storage": {
        "encoding": "inplace",
        "label": "struct EnumerableSet.Bytes32Set",
        "members": [
          {
            "astId": 2148,
            "contract": "contracts/vault/Vault.sol:Vault",
            "label": "_inner",
            "offset": 0,
            "slot": "0",
            "type": "t_struct(Set)1969_storage"
          }
        ],
        "numberOfBytes": "64"
      },
      "t_struct(IERC20ToBytes32Map)19862_storage": {
        "encoding": "inplace",
        "label": "struct EnumerableMap.IERC20ToBytes32Map",
        "members": [
          {
            "astId": 19861,
            "contract": "contracts/vault/Vault.sol:Vault",
            "label": "_inner",
            "offset": 0,
            "slot": "0",
            "type": "t_struct(Map)19195_storage"
          }
        ],
        "numberOfBytes": "96"
      },
      "t_struct(Map)19195_storage": {
        "encoding": "inplace",
        "label": "struct EnumerableMap.Map",
        "members": [
          {
            "astId": 19186,
            "contract": "contracts/vault/Vault.sol:Vault",
            "label": "_length",
            "offset": 0,
            "slot": "0",
            "type": "t_uint256"
          },
          {
            "astId": 19190,
            "contract": "contracts/vault/Vault.sol:Vault",
            "label": "_entries",
            "offset": 0,
            "slot": "1",
            "type": "t_mapping(t_uint256,t_struct(MapEntry)19184_storage)"
          },
          {
            "astId": 19194,
            "contract": "contracts/vault/Vault.sol:Vault",
            "label": "_indexes",
            "offset": 0,
            "slot": "2",
            "type": "t_mapping(t_bytes32,t_uint256)"
          }
        ],
        "numberOfBytes": "96"
      },
      "t_struct(MapEntry)19184_storage": {
        "encoding": "inplace",
        "label": "struct EnumerableMap.MapEntry",
        "members": [
          {
            "astId": 19181,
            "contract": "contracts/vault/Vault.sol:Vault",
            "label": "_key",
            "offset": 0,
            "slot": "0",
            "type": "t_bytes32"
          },
          {
            "astId": 19183,
            "contract": "contracts/vault/Vault.sol:Vault",
            "label": "_value",
            "offset": 0,
            "slot": "1",
            "type": "t_bytes32"
          }
        ],
        "numberOfBytes": "64"
      },
      "t_struct(Set)1969_storage": {
        "encoding": "inplace",
        "label": "struct EnumerableSet.Set",
        "members": [
          {
            "astId": 1964,
            "contract": "contracts/vault/Vault.sol:Vault",
            "label": "_values",
            "offset": 0,
            "slot": "0",
            "type": "t_array(t_bytes32)dyn_storage"
          },
          {
            "astId": 1968,
            "contract": "contracts/vault/Vault.sol:Vault",
            "label": "_indexes",
            "offset": 0,
            "slot": "1",
            "type": "t_mapping(t_bytes32,t_uint256)"
          }
        ],
        "numberOfBytes": "64"
      },
      "t_struct(TwoTokenSharedBalances)17546_storage": {
        "encoding": "inplace",
        "label": "struct TwoTokenPoolsBalance.TwoTokenSharedBalances",
        "members": [
          {
            "astId": 17543,
            "contract": "contracts/vault/Vault.sol:Vault",
            "label": "sharedCash",
            "offset": 0,
            "slot": "0",
            "type": "t_bytes32"
          },
          {
            "astId": 17545,
            "contract": "contracts/vault/Vault.sol:Vault",
            "label": "sharedManaged",
            "offset": 0,
            "slot": "1",
            "type": "t_bytes32"
          }
        ],
        "numberOfBytes": "64"
      },
      "t_struct(TwoTokenTokens)17541_storage": {
        "encoding": "inplace",
        "label": "struct TwoTokenPoolsBalance.TwoTokenTokens",
        "members": [
          {
            "astId": 17538,
            "contract": "contracts/vault/Vault.sol:Vault",
            "label": "tokenA",
            "offset": 0,
            "slot": "0",
            "type": "t_contract(IERC20)1393"
          },
          {
            "astId": 17540,
            "contract": "contracts/vault/Vault.sol:Vault",
            "label": "tokenB",
            "offset": 0,
            "slot": "1",
            "type": "t_contract(IERC20)1393"
          }
        ],
        "numberOfBytes": "64"
      },
      "t_uint128": {
        "encoding": "inplace",
        "label": "uint128",
        "numberOfBytes": "16"
      },
      "t_uint256": {
        "encoding": "inplace",
        "label": "uint256",
        "numberOfBytes": "32"
      }
    }
  }
}