{
  "_format": "hh-sol-artifact-1",
  "contractName": "WeightedPoolFactory",
  "sourceName": "contracts/pools/weighted/WeightedPoolFactory.sol",
  "abi": [
    {
      "inputs": [
        {
          "internalType": "contract IVault",
          "name": "_vault",
          "type": "address"
        }
      ],
      "stateMutability": "nonpayable",
      "type": "constructor"
    },
    {
      "anonymous": false,
      "inputs": [
        {
          "indexed": true,
          "internalType": "address",
          "name": "pool",
          "type": "address"
        }
      ],
      "name": "PoolCreated",
      "type": "event"
    },
    {
      "inputs": [
        {
          "internalType": "string",
          "name": "name",
          "type": "string"
        },
        {
          "internalType": "string",
          "name": "symbol",
          "type": "string"
        },
        {
          "internalType": "contract IERC20[]",
          "name": "tokens",
          "type": "address[]"
        },
        {
          "internalType": "uint256[]",
          "name": "weights",
          "type": "uint256[]"
        },
        {
          "internalType": "uint256",
          "name": "swapFee",
          "type": "uint256"
        }
      ],
      "name": "create",
      "outputs": [
        {
          "internalType": "address",
          "name": "",
          "type": "address"
        }
      ],
      "stateMutability": "nonpayable",
      "type": "function"
    },
    {
      "inputs": [
        {
          "internalType": "uint256",
          "name": "start",
          "type": "uint256"
        },
        {
          "internalType": "uint256",
          "name": "end",
          "type": "uint256"
        }
      ],
      "name": "getCreatedPoolIds",
      "outputs": [
        {
          "internalType": "bytes32[]",
          "name": "",
          "type": "bytes32[]"
        }
      ],
      "stateMutability": "view",
      "type": "function"
    },
    {
      "inputs": [],
      "name": "getNumberOfCreatedPools",
      "outputs": [
        {
          "internalType": "uint256",
          "name": "",
          "type": "uint256"
        }
      ],
      "stateMutability": "view",
      "type": "function"
    },
    {
      "inputs": [],
      "name": "getVault",
      "outputs": [
        {
          "internalType": "contract IVault",
          "name": "",
          "type": "address"
        }
      ],
      "stateMutability": "view",
      "type": "function"
    }
  ],
  "bytecode": "0x60a060405234801561001057600080fd5b50604051615c29380380615c2983398101604081905261002f91610044565b60601b6001600160601b031916608052610072565b600060208284031215610055578081fd5b81516001600160a01b038116811461006b578182fd5b9392505050565b60805160601c615b966100936000398060d152806102125250615b966000f3fe60806040523480156200001157600080fd5b5060043610620000525760003560e01c80638d928af8146200005757806390c24ad31462000079578063f4d7e07a1462000092578063fde09a9614620000b8575b600080fd5b62000061620000cf565b604051620000709190620007d2565b60405180910390f35b62000083620000f3565b60405162000070919062000a04565b620000a9620000a336600462000713565b62000106565b604051620000709190620007e6565b62000061620000c9366004620005f3565b620001de565b7f000000000000000000000000000000000000000000000000000000000000000090565b600062000101600062000284565b905090565b606082821015801562000126575062000120600062000284565b83830311155b6200014e5760405162461bcd60e51b81526004016200014590620008d3565b60405180910390fd5b60608383036001600160401b03811180156200016957600080fd5b5060405190808252806020026020018201604052801562000194578160200160208202803683370190505b50905060005b8151811015620001d457620001b3600082870162000291565b828281518110620001c057fe5b60209081029190910101526001016200019a565b5090505b92915050565b60006200027a60405180602001620001f690620004e9565b601f1982820381018352601f90910116604081905262000245907f0000000000000000000000000000000000000000000000000000000000000000908a908a908a908a908a906020016200082c565b60408051601f19818403018152908290526200026592916020016200079f565b604051602081830303815290604052620002a6565b9695505050505050565b6000620001d882620003aa565b60006200029f8383620003ae565b9392505050565b600080620002c26000620002bb600062000284565b85620003f7565b90506000816001600160a01b03166338fff2d06040518163ffffffff1660e01b815260040160206040518083038186803b1580156200030057600080fd5b505afa15801562000315573d6000803e3d6000fd5b505050506040513d601f19601f820116820180604052508101906200033b9190620005da565b905060006200034b81836200047a565b9050806200036d5760405162461bcd60e51b8152600401620001459062000971565b6040516001600160a01b038416907f83a48fbcfc991335314e74d0496aab6a1987e992ddc85dddbcc4d6dd6ef2e9fc90600090a250909392505050565b5490565b81546000908210620003d45760405162461bcd60e51b81526004016200014590620008fa565b826000018281548110620003e457fe5b9060005260206000200154905092915050565b600080844710156200041d5760405162461bcd60e51b81526004016200014590620009cd565b82516200043e5760405162461bcd60e51b815260040162000145906200093c565b8383516020850187f590506001600160a01b038116620004725760405162461bcd60e51b815260040162000145906200099a565b949350505050565b60006200029f83836000620004908383620004d1565b620004c857508154600181810184556000848152602080822090930184905584548482528286019093526040902091909155620001d8565b506000620001d8565b60009081526001919091016020526040902054151590565b6150b48062000aad83390190565b600082601f83011262000508578081fd5b81356200051f620005198262000a34565b62000a0d565b8181529150602080830190848101818402860182018710156200054157600080fd5b60005b84811015620005625781358452928201929082019060010162000544565b505050505092915050565b600082601f8301126200057e578081fd5b81356001600160401b0381111562000594578182fd5b620005a9601f8201601f191660200162000a0d565b9150808252836020828501011115620005c157600080fd5b8060208401602084013760009082016020015292915050565b600060208284031215620005ec578081fd5b5051919050565b600080600080600060a086880312156200060b578081fd5b85356001600160401b038082111562000622578283fd5b6200063089838a016200056d565b965060209150818801358181111562000647578384fd5b620006558a828b016200056d565b9650506040880135818111156200066a578384fd5b8801601f81018a136200067b578384fd5b80356200068c620005198262000a34565b81815284810190838601868402850187018e1015620006a9578788fd5b8794505b83851015620006d8578035620006c38162000a93565b835260019490940193918601918601620006ad565b5097505050506060880135915080821115620006f2578283fd5b506200070188828901620004f7565b95989497509295608001359392505050565b6000806040838503121562000726578182fd5b50508035926020909101359150565b6000815180845260208085019450808401835b83811015620007665781518752958201959082019060010162000748565b509495945050505050565b600081518084526200078b81602086016020860162000a60565b601f01601f19169290920160200192915050565b60008351620007b381846020880162000a60565b835190830190620007c981836020880162000a60565b01949350505050565b6001600160a01b0391909116815260200190565b6020808252825182820181905260009190848201906040850190845b81811015620008205783518352928401929184019160010162000802565b50909695505050505050565b6001600160a01b038716815260c06020808301829052600091620008539084018962000771565b838103604085015262000867818962000771565b84810360608601528751808252838901925090830190845b81811015620008a75762000894845162000a54565b835292840192918401916001016200087f565b50508481036080860152620008bd818862000735565b93505050508260a0830152979650505050505050565b6020808252600d908201526c4f55545f4f465f424f554e445360981b604082015260600190565b60208082526022908201527f456e756d657261626c655365743a20696e646578206f7574206f6620626f756e604082015261647360f01b606082015260800190565b6020808252818101527f437265617465323a2062797465636f6465206c656e677468206973207a65726f604082015260600190565b6020808252600f908201526e1253959053125117d413d3d317d251608a1b604082015260600190565b602080825260199082015278437265617465323a204661696c6564206f6e206465706c6f7960381b604082015260600190565b6020808252601d908201527f437265617465323a20696e73756666696369656e742062616c616e6365000000604082015260600190565b90815260200190565b6040518181016001600160401b038111828210171562000a2c57600080fd5b604052919050565b60006001600160401b0382111562000a4a578081fd5b5060209081020190565b6001600160a01b031690565b60005b8381101562000a7d57818101518382015260200162000a63565b8381111562000a8d576000848401525b50505050565b6001600160a01b038116811462000aa957600080fd5b5056fe6105006040523480156200001257600080fd5b50604051620050b4380380620050b4833981016040819052620000359162000d85565b8451859085906200004e90600390602085019062000b4e565b5080516200006490600490602084019062000b4e565b50506001600555508251600211156200009a5760405162461bcd60e51b8152600401620000919062000f4f565b60405180910390fd5b825160101015620000bf5760405162461bcd60e51b8152600401620000919062001043565b8151835114620000e35760405162461bcd60e51b815260040162000091906200100c565b60008351600214620000f7576001620000fa565b60025b90506000876001600160a01b03166309b2760f836040518263ffffffff1660e01b81526004016200012c919062000ef2565b602060405180830381600087803b1580156200014757600080fd5b505af11580156200015c573d6000803e3d6000fd5b505050506040513d601f19601f8201168201806040525081019062000182919062000d6c565b9050876001600160a01b03166366a9c7d2828788516001600160401b0381118015620001ad57600080fd5b50604051908082528060200260200182016040528015620001d8578160200160208202803683370190505b506040518463ffffffff1660e01b8152600401620001f99392919062000e56565b600060405180830381600087803b1580156200021457600080fd5b505af115801562000229573d6000803e3d6000fd5b5050506001600160601b031960608a901b166080525060a081905284516102c05267016345785d8a0000831115620002755760405162461bcd60e51b8152600401620000919062000fe6565b6104e083905284516200028a576000620002a1565b846000815181106200029857fe5b60200260200101515b60601b6001600160601b03191660c0528451600110620002c3576000620002da565b84600181518110620002d157fe5b60200260200101515b60601b6001600160601b03191660e0528451600210620002fc57600062000313565b846002815181106200030a57fe5b60200260200101515b60601b6001600160601b031916610100528451600310620003365760006200034d565b846003815181106200034457fe5b60200260200101515b60601b6001600160601b0319166101205284516004106200037057600062000387565b846004815181106200037e57fe5b60200260200101515b60601b6001600160601b031916610140528451600510620003aa576000620003c1565b84600581518110620003b857fe5b60200260200101515b60601b6001600160601b031916610160528451600610620003e4576000620003fb565b84600681518110620003f257fe5b60200260200101515b60601b6001600160601b0319166101805284516007106200041e57600062000435565b846007815181106200042c57fe5b60200260200101515b60601b6001600160601b0319166101a0528451600810620004585760006200046f565b846008815181106200046657fe5b60200260200101515b60601b6001600160601b0319166101c052845160091062000492576000620004a9565b84600981518110620004a057fe5b60200260200101515b60601b6001600160601b0319166101e0528451600a10620004cc576000620004e3565b84600a81518110620004da57fe5b60200260200101515b60601b6001600160601b031916610200528451600b10620005065760006200051d565b84600b815181106200051457fe5b60200260200101515b60601b6001600160601b031916610220528451600c106200054057600062000557565b84600c815181106200054e57fe5b60200260200101515b60601b6001600160601b031916610240528451600d106200057a57600062000591565b84600d815181106200058857fe5b60200260200101515b60601b6001600160601b031916610260528451600e10620005b4576000620005cb565b84600e81518110620005c257fe5b60200260200101515b60601b6001600160601b031916610280528451600f10620005ee57600062000605565b84600f81518110620005fc57fe5b60200260200101515b60601b6001600160601b0319166102a0526000805b85518160ff161015620006e2576064868260ff16815181106200063957fe5b60200260200101511015620006625760405162461bcd60e51b8152600401620000919062000f2b565b69010f0cf064dd59200000868260ff16815181106200067d57fe5b60200260200101511115620006a65760405162461bcd60e51b8152600401620000919062000f07565b620006d7868260ff1681518110620006ba57fe5b60200260200101518362000a7260201b62000bbc1790919060201c565b91506001016200061a565b50606085516001600160401b0381118015620006fd57600080fd5b5060405190808252806020026020018201604052801562000728578160200160208202803683370190505b50905060005b81518160ff16101562000790576200076c83888360ff16815181106200075057fe5b602002602001015162000aa360201b62000be81790919060201c565b828260ff16815181106200077c57fe5b60209081029190910101526001016200072e565b506000865111620007a3576000620007ba565b80600081518110620007b157fe5b60200260200101515b6102e0528551600110620007d0576000620007e7565b80600181518110620007de57fe5b60200260200101515b610300528551600210620007fd57600062000814565b806002815181106200080b57fe5b60200260200101515b6103205285516003106200082a57600062000841565b806003815181106200083857fe5b60200260200101515b610340528551600410620008575760006200086e565b806004815181106200086557fe5b60200260200101515b610360528551600510620008845760006200089b565b806005815181106200089257fe5b60200260200101515b610380528551600610620008b1576000620008c8565b80600681518110620008bf57fe5b60200260200101515b6103a0528551600710620008de576000620008f5565b80600781518110620008ec57fe5b60200260200101515b6103c05285516008106200090b57600062000922565b806008815181106200091957fe5b60200260200101515b6103e0528551600910620009385760006200094f565b806009815181106200094657fe5b60200260200101515b610400528551600a10620009655760006200097c565b80600a815181106200097357fe5b60200260200101515b610420528551600b1062000992576000620009a9565b80600b81518110620009a057fe5b60200260200101515b610440528551600c10620009bf576000620009d6565b80600c81518110620009cd57fe5b60200260200101515b610460528551600d10620009ec57600062000a03565b80600d81518110620009fa57fe5b60200260200101515b610480528551600e1062000a1957600062000a30565b80600e8151811062000a2757fe5b60200260200101515b6104a0528551600f1062000a4657600062000a5d565b80600f8151811062000a5457fe5b60200260200101515b6104c05250620010d398505050505050505050565b60008282018381101562000a9a5760405162461bcd60e51b8152600401620000919062000f73565b90505b92915050565b60008162000ac55760405162461bcd60e51b8152600401620000919062000fbf565b670de0b6b3a7640000830283158062000aef5750670de0b6b3a764000084828162000aec57fe5b04145b62000b0e5760405162461bcd60e51b8152600401620000919062000f99565b6002830481018181101562000b375760405162461bcd60e51b8152600401620000919062000f99565b600084828162000b4357fe5b049695505050505050565b828054600181600116156101000203166002900490600052602060002090601f016020900481019282601f1062000b9157805160ff191683800117855562000bc1565b8280016001018555821562000bc1579182015b8281111562000bc157825182559160200191906001019062000ba4565b5062000bcf92915062000bd3565b5090565b5b8082111562000bcf576000815560010162000bd4565b600082601f83011262000bfb578081fd5b815162000c1262000c0c826200108e565b62001067565b81815291506020808301908481018184028601820187101562000c3457600080fd5b60005b8481101562000c6057815162000c4d81620010ba565b8452928201929082019060010162000c37565b505050505092915050565b600082601f83011262000c7c578081fd5b815162000c8d62000c0c826200108e565b81815291506020808301908481018184028601820187101562000caf57600080fd5b60005b8481101562000c605781518452928201929082019060010162000cb2565b805162000a9d81620010ba565b600082601f83011262000cee578081fd5b81516001600160401b0381111562000d04578182fd5b602062000d1a601f8301601f1916820162001067565b9250818352848183860101111562000d3157600080fd5b60005b8281101562000d5157848101820151848201830152810162000d34565b8281111562000d635760008284860101525b50505092915050565b60006020828403121562000d7e578081fd5b5051919050565b60008060008060008060c0878903121562000d9e578182fd5b62000daa888862000cd0565b60208801519096506001600160401b038082111562000dc7578384fd5b62000dd58a838b0162000cdd565b9650604089015191508082111562000deb578384fd5b62000df98a838b0162000cdd565b9550606089015191508082111562000e0f578384fd5b62000e1d8a838b0162000bea565b9450608089015191508082111562000e33578384fd5b5062000e4289828a0162000c6b565b92505060a087015190509295509295509295565b60006060820185835260206060818501528186518084526080860191508288019350845b8181101562000ea25762000e8f8551620010ae565b8352938301939183019160010162000e7a565b505084810360408601528551808252908201925081860190845b8181101562000ee45762000ed18351620010ae565b8552938301939183019160010162000ebc565b509298975050505050505050565b602081016003831062000f0157fe5b91905290565b6020808252600a908201526913505617d5d15251d21560b21b604082015260600190565b6020808252600a908201526913525397d5d15251d21560b21b604082015260600190565b6020808252600a90820152694d494e5f544f4b454e5360b01b604082015260600190565b6020808252600c908201526b4144445f4f564552464c4f5760a01b604082015260600190565b6020808252600c908201526b11125597d25395115493905360a21b604082015260600190565b6020808252600d908201526c2d22a927afa224ab24a9a4a7a760991b604082015260600190565b6020808252600c908201526b4d41585f535741505f46454560a01b604082015260600190565b60208082526015908201527f41525241595f4c454e4754485f4d49534d415443480000000000000000000000604082015260600190565b6020808252600a90820152694d41585f544f4b454e5360b01b604082015260600190565b6040518181016001600160401b03811182821017156200108657600080fd5b604052919050565b60006001600160401b03821115620010a4578081fd5b5060209081020190565b6001600160a01b031690565b6001600160a01b0381168114620010d057600080fd5b50565b60805160601c60a05160c05160601c60e05160601c6101005160601c6101205160601c6101405160601c6101605160601c6101805160601c6101a05160601c6101c05160601c6101e05160601c6102005160601c6102205160601c6102405160601c6102605160601c6102805160601c6102a05160601c6102c0516102e05161030051610320516103405161036051610380516103a0516103c0516103e05161040051610420516104405161046051610480516104a0516104c0516104e051613d396200137b600039806109cd52806114415280611cd75280611e265280611f9952806121665250806113945280611afb5250806113335280611a985250806112d25280611a3552508061127152806119d2525080611210528061196f5250806111af528061190c52508061114e52806118a95250806110ed528061184652508061108c52806117e352508061102b5280611780525080610fca528061171d525080610f6952806116ba525080610f085280611657525080610ea752806115f4525080610e465280611591525080610de552806115225250806106cb528061149952806114fc528061156a52806115cd5280611630528061169352806116f6528061175952806117bc528061181f528061188252806118e5528061194852806119ab5280611a0e5280611a715280611ad45280611b415280611c405280611d345280611d9a528061205252806120af52806121bb5250806113595250806112f85250806112975250806112365250806111d55250806111745250806111135250806110b2525080611051525080610ff0525080610f8f525080610f2e525080610ecd525080610e6c525080610e0b525080610daa525080610437528061056d52806108cd5280610a3c52508061052e5280610801528061089e52806109fd5250613d396000f3fe608060405234801561001057600080fd5b50600436106101075760003560e01c806306fdde031461010c578063095ea7b31461012a57806318160ddd1461014a57806323b872dd1461015f578063313ce5671461017257806338fff2d0146101875780634f07b1d81461018f57806366188463146101a257806370a08231146101b557806374f3b009146101c85780638c69d5a2146101e95780638d928af81461020957806395d89b411461021e5780639b02cdde14610226578063a9059cbb1461022e578063c0ff1a1514610241578063d05361d814610249578063d4cadf681461025c578063d5c096c414610264578063d73dd62314610277578063dd62ed3e1461028a575b600080fd5b61011461029d565b6040516101219190613861565b60405180910390f35b61013d6101383660046133ad565b610334565b6040516101219190613839565b61015261034b565b6040516101219190613844565b61013d61016d36600461336d565b610351565b61017a610430565b6040516101219190613c78565b610152610435565b61015261019d36600461377c565b610459565b61013d6101b03660046133ad565b6104a7565b6101526101c3366004613319565b610501565b6101db6101d6366004613532565b610520565b604051610121929190613814565b6101fc6101f73660046133d8565b61076c565b6040516101219190613801565b6102116107ff565b604051610121919061384d565b610114610823565b610152610884565b61013d61023c3660046133ad565b61088a565b610152610897565b61015261025736600461377c565b61097f565b6101526109cb565b6101db610272366004613532565b6109ef565b61013d6102853660046133ad565b610b5b565b610152610298366004613335565b610b91565b60038054604080516020601f60026000196101006001881615020190951694909404938401819004810282018101909252828152606093909290918301828280156103295780601f106102fe57610100808354040283529160200191610329565b820191906000526020600020905b81548152906001019060200180831161030c57829003601f168201915b505050505090505b90565b6000610341338484610c87565b5060015b92915050565b60025490565b6000336001600160a01b038516148061038d57506001600160a01b03841660009081526001602090815260408083203384529091529020548211155b6103b25760405162461bcd60e51b81526004016103a990613c05565b60405180910390fd5b6103bd848484610cef565b6001600160a01b03841660008181526001602090815260408083203380855292529091205491148015906103f357506000198114155b1561042557828110156104185760405162461bcd60e51b81526004016103a9906139e2565b6104258533858403610c87565b506001949350505050565b601290565b7f000000000000000000000000000000000000000000000000000000000000000090565b600080610493846104756104706020890189613319565b610da6565b8561048961047060408b0160208c01613319565b89604001356113d0565b905061049e8161142e565b95945050505050565b3360009081526001602090815260408083206001600160a01b03861684529091528120548083106104e3576104de33856000610c87565b6104f7565b6104f733856104f2848761146c565b610c87565b5060019392505050565b6001600160a01b0381166000908152602081905260409020545b919050565b606080336001600160a01b037f0000000000000000000000000000000000000000000000000000000000000000161461056b5760405162461bcd60e51b81526004016103a990613a12565b7f000000000000000000000000000000000000000000000000000000000000000089146105aa5760405162461bcd60e51b81526004016103a990613a3c565b60606105b4611494565b905060606105c3888388611b38565b9050600060606000878060200190518101906105df919061362e565b905060008160028111156105ef57fe5b141561062a5760008880602001905181019061060b91906136cb565b909550915061061e9050868d8684611c18565b90945092506106bc9050565b600181600281111561063857fe5b141561066a5787806020019051810190610652919061369f565b935061066090508b84611d1f565b90935091506106bc565b6000888060200190518101906106809190613649565b81518f519296509093501490506106a95760405162461bcd60e51b81526004016103a990613902565b6106b5868d8584611e10565b9094509250505b6106c68d84611e78565b60005b7f00000000000000000000000000000000000000000000000000000000000000008110156107495761072a83828151811061070057fe5b60200260200101518d838151811061071457fe5b602002602001015161146c90919063ffffffff16565b8c828151811061073657fe5b60209081029190910101526001016106c9565b50610754858c611f03565b60065550945090925050505b97509795505050505050565b606081516001600160401b038111801561078557600080fd5b506040519080825280602002602001820160405280156107af578160200160208202803683370190505b50905060005b81518110156107f9576107da8382815181106107cd57fe5b6020026020010151610da6565b8282815181106107e657fe5b60209081029190910101526001016107b5565b50919050565b7f000000000000000000000000000000000000000000000000000000000000000090565b60048054604080516020601f60026000196101006001881615020190951694909404938401819004810282018101909252828152606093909290918301828280156103295780601f106102fe57610100808354040283529160200191610329565b60065490565b6000610341338484610cef565b60006060807f00000000000000000000000000000000000000000000000000000000000000006001600160a01b031663f94d46687f00000000000000000000000000000000000000000000000000000000000000006040518263ffffffff1660e01b81526004016109089190613844565b60006040518083038186803b15801561092057600080fd5b505afa158015610934573d6000803e3d6000fd5b505050506040513d6000823e601f3d908101601f1916820160405261095c9190810190613470565b91509150606061096b8361076c565b90506109778183611f03565b935050505090565b60008061098f8560400135611f90565b905060006109c1856109a761047060208a018a613319565b866109bb61047060408c0160208d01613319565b86611fc9565b9695505050505050565b7f000000000000000000000000000000000000000000000000000000000000000090565b606080336001600160a01b037f00000000000000000000000000000000000000000000000000000000000000001614610a3a5760405162461bcd60e51b81526004016103a990613a12565b7f00000000000000000000000000000000000000000000000000000000000000008914610a795760405162461bcd60e51b81526004016103a990613a3c565b6060610a83611494565b9050600084806020019051810190610a9b9190613700565b90506000816001811115610aab57fe5b1415610b0257606085806020019051810190610ac7919061371b565b9150508051895114610aeb5760405162461bcd60e51b81526004016103a99061395f565b610af6838b8361201a565b94509450505050610760565b6060600086806020019051810190610b1a919061375e565b925092505081518a5114610b405760405162461bcd60e51b81526004016103a99061395f565b610b4e848b8d85858d61211d565b9550955050505050610760565b3360008181526001602090815260408083206001600160a01b038716845290915281205490916103419185906104f29086610bbc565b6001600160a01b03918216600090815260016020908152604080832093909416825291909152205490565b600082820183811015610be15760405162461bcd60e51b81526004016103a990613b63565b9392505050565b600081610c075760405162461bcd60e51b81526004016103a990613baf565b670de0b6b3a76400008302831580610c2f5750670de0b6b3a7640000848281610c2c57fe5b04145b610c4b5760405162461bcd60e51b81526004016103a990613b89565b60028304810181811015610c715760405162461bcd60e51b81526004016103a990613b89565b6000848281610c7c57fe5b049695505050505050565b6001600160a01b0380841660008181526001602090815260408083209487168084529490915290819020849055517f8c5be1e5ebec7d5bd14f71427d1e84f3dd0314c0f7b2291e5b200ac8c7c3b92590610ce2908590613844565b60405180910390a3505050565b6001600160a01b03831660009081526020819052604090205481811015610d285760405162461bcd60e51b81526004016103a9906139b5565b6001600160a01b03808516600090815260208190526040808220858503905591851681522054610d589083610bbc565b6001600160a01b038085166000818152602081905260409081902093909355915190861690600080516020613ce483398151915290610d98908690613844565b60405180910390a350505050565b60007f00000000000000000000000000000000000000000000000000000000000000006001600160a01b0316826001600160a01b03161415610e0957507f000000000000000000000000000000000000000000000000000000000000000061051b565b7f00000000000000000000000000000000000000000000000000000000000000006001600160a01b0316826001600160a01b03161415610e6a57507f000000000000000000000000000000000000000000000000000000000000000061051b565b7f00000000000000000000000000000000000000000000000000000000000000006001600160a01b0316826001600160a01b03161415610ecb57507f000000000000000000000000000000000000000000000000000000000000000061051b565b7f00000000000000000000000000000000000000000000000000000000000000006001600160a01b0316826001600160a01b03161415610f2c57507f000000000000000000000000000000000000000000000000000000000000000061051b565b7f00000000000000000000000000000000000000000000000000000000000000006001600160a01b0316826001600160a01b03161415610f8d57507f000000000000000000000000000000000000000000000000000000000000000061051b565b7f00000000000000000000000000000000000000000000000000000000000000006001600160a01b0316826001600160a01b03161415610fee57507f000000000000000000000000000000000000000000000000000000000000000061051b565b7f00000000000000000000000000000000000000000000000000000000000000006001600160a01b0316826001600160a01b0316141561104f57507f000000000000000000000000000000000000000000000000000000000000000061051b565b7f00000000000000000000000000000000000000000000000000000000000000006001600160a01b0316826001600160a01b031614156110b057507f000000000000000000000000000000000000000000000000000000000000000061051b565b7f00000000000000000000000000000000000000000000000000000000000000006001600160a01b0316826001600160a01b0316141561111157507f000000000000000000000000000000000000000000000000000000000000000061051b565b7f00000000000000000000000000000000000000000000000000000000000000006001600160a01b0316826001600160a01b0316141561117257507f000000000000000000000000000000000000000000000000000000000000000061051b565b7f00000000000000000000000000000000000000000000000000000000000000006001600160a01b0316826001600160a01b031614156111d357507f000000000000000000000000000000000000000000000000000000000000000061051b565b7f00000000000000000000000000000000000000000000000000000000000000006001600160a01b0316826001600160a01b0316141561123457507f000000000000000000000000000000000000000000000000000000000000000061051b565b7f00000000000000000000000000000000000000000000000000000000000000006001600160a01b0316826001600160a01b0316141561129557507f000000000000000000000000000000000000000000000000000000000000000061051b565b7f00000000000000000000000000000000000000000000000000000000000000006001600160a01b0316826001600160a01b031614156112f657507f000000000000000000000000000000000000000000000000000000000000000061051b565b7f00000000000000000000000000000000000000000000000000000000000000006001600160a01b0316826001600160a01b0316141561135757507f000000000000000000000000000000000000000000000000000000000000000061051b565b7f00000000000000000000000000000000000000000000000000000000000000006001600160a01b0316826001600160a01b031614156113b857507f000000000000000000000000000000000000000000000000000000000000000061051b565b60405162461bcd60e51b81526004016103a99061398e565b6000806113e76113e0868561146c565b8690610be8565b905060006113f58588610be8565b90506000611415670de0b6b3a764000061140f8585612264565b9061146c565b905061142189826123a9565b9998505050505050505050565b6000610345611465670de0b6b3a76400007f000000000000000000000000000000000000000000000000000000000000000061146c565b8390610be8565b60008282111561148e5760405162461bcd60e51b81526004016103a990613a91565b50900390565b6060807f00000000000000000000000000000000000000000000000000000000000000006001600160401b03811180156114cd57600080fd5b506040519080825280602002602001820160405280156114f7578160200160208202803683370190505b5090507f00000000000000000000000000000000000000000000000000000000000000001561155f577f00000000000000000000000000000000000000000000000000000000000000008160008151811061154e57fe5b602002602001018181525050611566565b9050610331565b60017f0000000000000000000000000000000000000000000000000000000000000000111561155f577f0000000000000000000000000000000000000000000000000000000000000000816001815181106115bd57fe5b60200260200101818152505060027f0000000000000000000000000000000000000000000000000000000000000000111561155f577f00000000000000000000000000000000000000000000000000000000000000008160028151811061162057fe5b60200260200101818152505060037f0000000000000000000000000000000000000000000000000000000000000000111561155f577f00000000000000000000000000000000000000000000000000000000000000008160038151811061168357fe5b60200260200101818152505060047f0000000000000000000000000000000000000000000000000000000000000000111561155f577f0000000000000000000000000000000000000000000000000000000000000000816004815181106116e657fe5b60200260200101818152505060057f0000000000000000000000000000000000000000000000000000000000000000111561155f577f00000000000000000000000000000000000000000000000000000000000000008160058151811061174957fe5b60200260200101818152505060067f0000000000000000000000000000000000000000000000000000000000000000111561155f577f0000000000000000000000000000000000000000000000000000000000000000816006815181106117ac57fe5b60200260200101818152505060077f0000000000000000000000000000000000000000000000000000000000000000111561155f577f00000000000000000000000000000000000000000000000000000000000000008160078151811061180f57fe5b60200260200101818152505060087f0000000000000000000000000000000000000000000000000000000000000000111561155f577f00000000000000000000000000000000000000000000000000000000000000008160088151811061187257fe5b60200260200101818152505060097f0000000000000000000000000000000000000000000000000000000000000000111561155f577f0000000000000000000000000000000000000000000000000000000000000000816009815181106118d557fe5b602002602001018181525050600a7f0000000000000000000000000000000000000000000000000000000000000000111561155f577f000000000000000000000000000000000000000000000000000000000000000081600a8151811061193857fe5b602002602001018181525050600b7f0000000000000000000000000000000000000000000000000000000000000000111561155f577f000000000000000000000000000000000000000000000000000000000000000081600b8151811061199b57fe5b602002602001018181525050600c7f0000000000000000000000000000000000000000000000000000000000000000111561155f577f000000000000000000000000000000000000000000000000000000000000000081600c815181106119fe57fe5b602002602001018181525050600d7f0000000000000000000000000000000000000000000000000000000000000000111561155f577f000000000000000000000000000000000000000000000000000000000000000081600d81518110611a6157fe5b602002602001018181525050600e7f0000000000000000000000000000000000000000000000000000000000000000111561155f577f000000000000000000000000000000000000000000000000000000000000000081600e81518110611ac457fe5b602002602001018181525050600f7f0000000000000000000000000000000000000000000000000000000000000000111561155f577f000000000000000000000000000000000000000000000000000000000000000081600f81518110611b2757fe5b602002602001018181525050905090565b60606000611b657f000000000000000000000000000000000000000000000000000000000000000061241b565b90506000611b77868660065485612436565b90506000611b8582866123a9565b9050606087516001600160401b0381118015611ba057600080fd5b50604051908082528060200260200182016040528015611bca578160200160208202803683370190505b50905081818581518110611bda57fe5b602002602001018181525050611bf68289868151811061071457fe5b888581518110611c0257fe5b6020908102919091010152979650505050505050565b6000606084518310611c3c5760405162461bcd60e51b81526004016103a9906138b4565b60607f00000000000000000000000000000000000000000000000000000000000000006001600160401b0381118015611c7457600080fd5b50604051908082528060200260200182016040528015611c9e578160200160208202803683370190505b509050611cfb868581518110611cb057fe5b6020026020010151888681518110611cc457fe5b602002602001015187611cd561034b565b7f00000000000000000000000000000000000000000000000000000000000000006124ad565b818581518110611d0757fe5b60209081029190910101529396939550929350505050565b600060606000611d2e84612540565b905060607f00000000000000000000000000000000000000000000000000000000000000006001600160401b0381118015611d6857600080fd5b50604051908082528060200260200182016040528015611d92578160200160208202803683370190505b50905060005b7f0000000000000000000000000000000000000000000000000000000000000000811015611e0557611de683888381518110611dd057fe5b60200260200101516123a990919063ffffffff16565b828281518110611df257fe5b6020908102919091010152600101611d98565b509395939450505050565b600060606000611e4a868887611e2461034b565b7f0000000000000000000000000000000000000000000000000000000000000000612578565b905083811115611e6c5760405162461bcd60e51b81526004016103a990613ab7565b96939550929350505050565b611e83823083610cef565b3060009081526020819052604090205481811015611eb35760405162461bcd60e51b81526004016103a9906139b5565b3060009081526020819052604090208282039055600254611ed4908361146c565b6002556040516000906001600160a01b03851690600080516020613ce483398151915290610ce2908690613844565b60008151835114611f265760405162461bcd60e51b81526004016103a990613bd6565b50670de0b6b3a764000060005b83518160ff161015611f8957611f7f611f78848360ff1681518110611f5457fe5b6020026020010151868460ff1681518110611f6b57fe5b6020026020010151612264565b83906123a9565b9150600101611f33565b5092915050565b600080611fbd837f00000000000000000000000000000000000000000000000000000000000000006123a9565b9050610be1838261146c565b600080611fe0611fd98885610bbc565b8890610be8565b90506000611fee8786610be8565b9050600061200e611fff8484612264565b670de0b6b3a76400009061146c565b905061142187826123a9565b60608061202561034b565b156120425760405162461bcd60e51b81526004016103a990613932565b600061204e8685611f03565b90507f00000000000000000000000000000000000000000000000000000000000000008082029082828161207e57fe5b041461209c5760405162461bcd60e51b81526004016103a990613c52565b6120a68682612795565b600682905560607f00000000000000000000000000000000000000000000000000000000000000006001600160401b03811180156120e357600080fd5b5060405190808252806020026020018201604052801561210d578160200160208202803683370190505b5095989597509495505050505050565b606080600061212a61034b565b90506000811161214c5760405162461bcd60e51b81526004016103a9906138db565b6060612159898b87611b38565b9050600061218a8a8c8a867f0000000000000000000000000000000000000000000000000000000000000000612818565b9050868110156121ac5760405162461bcd60e51b81526004016103a990613a65565b6121b68982612795565b60005b7f00000000000000000000000000000000000000000000000000000000000000008160ff16101561224557612223898260ff16815181106121f657fe5b60200260200101518c8360ff168151811061220d57fe5b6020026020010151610bbc90919063ffffffff16565b8b8260ff168151811061223257fe5b60209081029190910101526001016121b9565b506122508b8b611f03565b600655509599959850949650505050505050565b60008161227a5750670de0b6b3a7640000610345565b8261228757506000610345565b600160ff1b83106122aa5760405162461bcd60e51b81526004016103a990613b3a565b770bce5086492111aea88f4bb1ca6bcf584181ea8059f7653282106122e15760405162461bcd60e51b81526004016103a990613ae2565b82826000670c7d713b49da0000831380156123035750670f43fc2c04ee000083125b1561233a576000612313846129d9565b9050670de0b6b3a764000080820784020583670de0b6b3a764000083050201915050612348565b8161234484612a8d565b0290505b6f1f2e4fc7e9a120d363a862467b9fffff19811280159061237957506f62541066c2001c07b75885b199d400008113155b6123955760405162461bcd60e51b81526004016103a990613b0b565b670de0b6b3a764000090056109c181612e3c565b60008282028315806123c35750828482816123c057fe5b04145b6123df5760405162461bcd60e51b81526004016103a990613c52565b6706f05b59d3b2000081018181101561240a5760405162461bcd60e51b81526004016103a990613c52565b6000670de0b6b3a764000082610c7c565b60006000194301804083818161242d57fe5b06949350505050565b60008061246785848151811061244857fe5b6020026020010151670de0b6b3a7640000610be890919063ffffffff16565b905060006124758688611f03565b905060006124838683610be8565b90506124a1612495611fff8386612264565b898781518110611dd057fe5b98975050505050505050565b6000806124c4846124be818861146c565b90610be8565b905060006124e3826124de670de0b6b3a76400008a610be8565b612264565b905060006124f9670de0b6b3a76400008961146c565b90506000612519612512670de0b6b3a76400008561146c565b8b906123a9565b905061253261252b611fff84896123a9565b82906123a9565b9a9950505050505050505050565b60008061254b61034b565b905060006125598483610be8565b905080610be15760405162461bcd60e51b81526004016103a990613c2d565b6000606084516001600160401b038111801561259357600080fd5b506040519080825280602002602001820160405280156125bd578160200160208202803683370190505b5090506000805b8851811015612656576126078982815181106125dc57fe5b60200260200101516124be8984815181106125f357fe5b60200260200101518c858151811061071457fe5b83828151811061261357fe5b60200260200101818152505061264c61264589838151811061263157fe5b6020026020010151858481518110611dd057fe5b8390610bbc565b91506001016125c4565b50670de0b6b3a764000060005b89518110156127785760008085838151811061267b57fe5b6020026020010151851161269257600091506126ec565b6126e96126c38785815181106126a457fe5b6020026020010151670de0b6b3a764000061146c90919063ffffffff16565b6124be8886815181106126d257fe5b60200260200101518861146c90919063ffffffff16565b91505b60006127206126fe611fff8b866123a9565b8c868151811061270a57fe5b6020026020010151610be890919063ffffffff16565b905061274b611fff8e868151811061273457fe5b602002602001015183610be890919063ffffffff16565b9150612767612760838e8781518110611f6b57fe5b86906123a9565b945050600190920191506126639050565b5061142161278e670de0b6b3a76400008361146c565b87906123a9565b306000908152602081905260409020546127af9082610bbc565b306000908152602081905260409020556002546127cc9082610bbc565b6002556127da308383610cef565b816001600160a01b031660006001600160a01b0316600080516020613ce48339815191528360405161280c9190613844565b60405180910390a35050565b6000606084516001600160401b038111801561283357600080fd5b5060405190808252806020026020018201604052801561285d578160200160208202803683370190505b5090506000805b88518110156128db576128a789828151811061287c57fe5b60200260200101516124be89848151811061289357fe5b60200260200101518c858151811061220d57fe5b8382815181106128b357fe5b6020026020010181815250506128d161264589838151811061263157fe5b9150600101612864565b50670de0b6b3a764000060005b89518110156129c35760008482815181106128ff57fe5b6020026020010151841061291557506000612943565b612940612930670de0b6b3a764000087858151811061071457fe5b6124be8688868151811061071457fe5b90505b6000612961612955611fff8a856123a9565b8b8581518110611dd057fe5b9050600061299d61298e8e868151811061297757fe5b602002602001015184610be890919063ffffffff16565b670de0b6b3a764000090610bbc565b90506129b2612760828e8781518110611f6b57fe5b945050600190920191506128e89050565b5061142161278e82670de0b6b3a764000061146c565b670de0b6b3a7640000026000806a0c097ce7bc90715b34b9f160241b808401906ec097ce7bc90715b34b9f0fffffffff1985010281612a1457fe5b60036a0c097ce7bc90715b34b9f160241b92909105808002839005808202849005928305909101600592820284900592830501600792820284900592830501600992820284900592830501600b92820284900592830501600d92820284900592830501600f929091029290920505016002029392505050565b6000808213612aae5760405162461bcd60e51b81526004016103a9906138b4565b670de0b6b3a7640000821215612ae857612ade826a0c097ce7bc90715b34b9f160241b81612ad857fe5b05612a8d565b600003905061051b565b6000775803bcc5cb9634ba4cfb2213f784019318ed4dcb6017880f60361b8312612b33576806f05b59d3b20000000172195e54c5dd42177f53a27172fa9ec63026282760241b830592505b6f8bcc0026baae9e45e470190267a230cf60191b8312612b6a576803782dace9d9000000016b1425982cf597cd205cef7380830592505b606492830292026e01855144814a7ff805980ff00840008312612bb25768ad78ebc5ac62000000016e01855144814a7ff805980ff008400068056bc75e2d6310000084020592505b6b02df0ab5a80a22c61ab5a7008312612bed576856bc75e2d631000000016b02df0ab5a80a22c61ab5a70068056bc75e2d6310000084020592505b693f1fce3da636ea5cf8508312612c2457682b5e3af16b1880000001693f1fce3da636ea5cf85068056bc75e2d6310000084020592505b690127fa27722cc06cc5e28312612c5b576815af1d78b58c40000001690127fa27722cc06cc5e268056bc75e2d6310000084020592505b68280e60114edb805d038312612c9057680ad78ebc5ac62000000168280e60114edb805d0368056bc75e2d6310000084020592505b680ebc5fb417461211108312612cbb57680ebc5fb4174612111068056bc75e2d631000009384020592015b6808f00f760a4b2db55d8312612cf0576802b5e3af16b1880000016808f00f760a4b2db55d68056bc75e2d6310000084020592505b6806f5f17757889379378312612d255768015af1d78b58c40000016806f5f177578893793768056bc75e2d6310000084020592505b6806248f33704b2866038312612d595767ad78ebc5ac620000016806248f33704b28660368056bc75e2d6310000084020592505b6805c548670b9510e7ac8312612d8d576756bc75e2d6310000016805c548670b9510e7ac68056bc75e2d6310000084020592505b600068056bc75e2d63100000840168056bc75e2d63100000850368056bc75e2d631000000281612db957fe5b059050600768056bc75e2d631000008280028190058084028290058082028390058083028490059485056003909205860160059091050101929091818302059050600981058301925068056bc75e2d6310000082820281612e1657fe5b059050600b810583019250606483600202860181612e3057fe5b05979650505050505050565b600068023f2fa8f6da5b9d27198212158015612e615750680715d69fa8c011c3fd8213155b612e7d5760405162461bcd60e51b81526004016103a9906138b4565b6000821215612eb057612e9282600003612e3c565b6a0c097ce7bc90715b34b9f160241b81612ea857fe5b05905061051b565b68056bc75e2d6310000060016806f05b59d3b20000008412612ef457506806f05b59d3b1ffffff199092019172195e54c5dd42177f53a27172fa9ec63026282760241b5b6803782dace9d90000008412612f22576803782dace9d8ffffff19909301926b1425982cf597cd205cef7380025b60648402935068ad78ebc5ac620000008412612f665768056bc75e2d631000006e01855144814a7ff805980ff0084000830205915068ad78ebc5ac62000000840393505b6856bc75e2d6310000008412612fa15768056bc75e2d631000006b02df0ab5a80a22c61ab5a70083020591506856bc75e2d631000000840393505b682b5e3af16b188000008412612fda5768056bc75e2d63100000693f1fce3da636ea5cf8508302059150682b5e3af16b18800000840393505b6815af1d78b58c40000084126130135768056bc75e2d63100000690127fa27722cc06cc5e283020591506815af1d78b58c400000840393505b680ad78ebc5ac6200000841261304b5768056bc75e2d6310000068280e60114edb805d038302059150680ad78ebc5ac6200000840393505b68056bc75e2d6310000084126130835768056bc75e2d63100000680ebc5fb41746121110830205915068056bc75e2d63100000840393505b6802b5e3af16b188000084126130bb5768056bc75e2d631000006808f00f760a4b2db55d83020591506802b5e3af16b1880000840393505b68015af1d78b58c4000084126130f35768056bc75e2d631000006806f5f1775788937937830205915068015af1d78b58c40000840393505b68056bc75e2d631000008481019085906002828002050591820191905068056bc75e2d631000006003878302050591820191905068056bc75e2d631000006004878302050591820191905068056bc75e2d631000006005878302050591820191905068056bc75e2d631000006006878302050591820191905068056bc75e2d631000006007878302050591820191905068056bc75e2d631000006008878302050591820191905068056bc75e2d631000006009878302050591820191905068056bc75e2d63100000600a878302050591820191905068056bc75e2d63100000600b878302050591820191905068056bc75e2d63100000600c8783020505918201919050606468056bc75e2d63100000858402058402059695505050505050565b600082601f830112613223578081fd5b815161323661323182613cac565b613c86565b81815291506020808301908481018184028601820187101561325757600080fd5b60005b848110156132765781518452928201929082019060010161325a565b505050505092915050565b600082601f830112613291578081fd5b81356001600160401b038111156132a6578182fd5b6132b9601f8201601f1916602001613c86565b91508082528360208285010111156132d057600080fd5b8060208401602084013760009082016020015292915050565b80516003811061034557600080fd5b80516002811061034557600080fd5b600061010082840312156107f9578081fd5b60006020828403121561332a578081fd5b8135610be181613ccb565b60008060408385031215613347578081fd5b823561335281613ccb565b9150602083013561336281613ccb565b809150509250929050565b600080600060608486031215613381578081fd5b833561338c81613ccb565b9250602084013561339c81613ccb565b929592945050506040919091013590565b600080604083850312156133bf578182fd5b82356133ca81613ccb565b946020939093013593505050565b600060208083850312156133ea578182fd5b82356001600160401b038111156133ff578283fd5b8301601f8101851361340f578283fd5b803561341d61323182613cac565b8181528381019083850185840285018601891015613439578687fd5b8694505b8385101561346457803561345081613ccb565b83526001949094019391850191850161343d565b50979650505050505050565b60008060408385031215613482578182fd5b82516001600160401b0380821115613498578384fd5b818501915085601f8301126134ab578384fd5b81516134b961323182613cac565b80828252602080830192508086018a8283870289010111156134d9578889fd5b8896505b848710156135045780516134f081613ccb565b8452600196909601959281019281016134dd565b50880151909650935050508082111561351b578283fd5b5061352885828601613213565b9150509250929050565b600080600080600080600060e0888a03121561354c578283fd5b8735965060208089013561355f81613ccb565b9650604089013561356f81613ccb565b955060608901356001600160401b038082111561358a578586fd5b818b0191508b601f83011261359d578586fd5b81356135ab61323182613cac565b8082825285820191508585018f8788860288010111156135c957898afd5b8995505b838610156135eb5780358352600195909501949186019186016135cd565b509850505060808b0135955060a08b0135945060c08b0135925080831115613611578384fd5b505061361f8a828b01613281565b91505092959891949750929550565b60006020828403121561363f578081fd5b610be183836132e9565b60008060006060848603121561365d578081fd5b61366785856132e9565b60208501519093506001600160401b03811115613682578182fd5b61368e86828701613213565b925050604084015190509250925092565b600080604083850312156136b1578182fd5b6136bb84846132e9565b9150602083015190509250929050565b6000806000606084860312156136df578081fd5b6136e985856132e9565b925060208401519150604084015190509250925092565b600060208284031215613711578081fd5b610be183836132f8565b6000806040838503121561372d578182fd5b61373784846132f8565b60208401519092506001600160401b03811115613752578182fd5b61352885828601613213565b600080600060608486031215613772578081fd5b61366785856132f8565b600080600060608486031215613790578081fd5b83356001600160401b038111156137a5578182fd5b6137b186828701613307565b9660208601359650604090950135949350505050565b6000815180845260208085019450808401835b838110156137f6578151875295820195908201906001016137da565b509495945050505050565b600060208252610be160208301846137c7565b60006040825261382760408301856137c7565b828103602084015261049e81856137c7565b901515815260200190565b90815260200190565b6001600160a01b0391909116815260200190565b6000602080835283518082850152825b8181101561388d57858101830151858201604001528201613871565b8181111561389e5783604083870101525b50601f01601f1916929092016040019392505050565b6020808252600d908201526c4f55545f4f465f424f554e445360981b604082015260600190565b6020808252600d908201526c15539253925512505312569151609a1b604082015260600190565b60208082526016908201527508aa4a4be829a9eaa9ca8a6be9eaaa8be988a9c8ea8960531b604082015260600190565b6020808252601390820152721053149150511657d253925512505312569151606a1b604082015260600190565b60208082526015908201527408aa4a4be829a9eaa9ca8a6be929cbe988a9c8ea89605b1b604082015260600190565b6020808252600d908201526c24a72b20a624a22faa27a5a2a760991b604082015260600190565b6020808252601390820152724e53554646494349454e545f42414c414e434560681b604082015260600190565b602080825260169082015275494e53554646494349454e545f414c4c4f57414e434560501b604082015260600190565b60208082526010908201526f10d05313115497d393d517d59055531560821b604082015260600190565b6020808252600f908201526e1253959053125117d413d3d317d251608a1b604082015260600190565b60208082526012908201527110941517d3d55517d3525397d05353d5539560721b604082015260600190565b6020808252600c908201526b5355425f4f564552464c4f5760a01b604082015260600190565b60208082526011908201527010941517d25397d3505617d05353d55395607a1b604082015260600190565b6020808252600f908201526e595f4f55545f4f465f424f554e445360881b604082015260600190565b60208082526015908201527450524f445543545f4f55545f4f465f424f554e445360581b604082015260600190565b6020808252600f908201526e585f4f55545f4f465f424f554e445360881b604082015260600190565b6020808252600c908201526b4144445f4f564552464c4f5760a01b604082015260600190565b6020808252600c908201526b11125597d25395115493905360a21b604082015260600190565b6020808252600d908201526c2d22a927afa224ab24a9a4a7a760991b604082015260600190565b602080825260159082015274082a4a482b2be988a9c8ea890be9a92a69a82a8869605b1b604082015260600190565b6020808252600e908201526d21282a2fa120a22fa1a0a62622a960911b604082015260600190565b6020808252600b908201526a09a82a890be82a0a0a49eb60ab1b604082015260600190565b6020808252600c908201526b4d554c5f4f564552464c4f5760a01b604082015260600190565b60ff91909116815260200190565b6040518181016001600160401b0381118282101715613ca457600080fd5b604052919050565b60006001600160401b03821115613cc1578081fd5b5060209081020190565b6001600160a01b0381168114613ce057600080fd5b5056feddf252ad1be2c89b69c2b068fc378daa952ba7f163c4a11628f55a4df523b3efa2646970667358221220bb065c3faba5ef778fc8dbb705a007e2a1fca3aecd790fc806cee7168a23af1d64736f6c63430007010033a264697066735822122056aa5df2f96acf1bc02a22920b167b5d58410b3e1a7e70f462e4bd27d9be7ae164736f6c63430007010033",
  "linkReferences": {},
  "deployedLinkReferences": {}
}