{
  "address": "0xB8c6aB2e7A7cdE111646C80D4c5D7cB7ba17F68d",
  "abi": [
    {
      "inputs": [],
      "stateMutability": "nonpayable",
      "type": "constructor"
    },
    {
      "anonymous": false,
      "inputs": [
        {
          "indexed": true,
          "internalType": "address",
          "name": "strategy",
          "type": "address"
        }
      ],
      "name": "StrategyCreated",
      "type": "event"
    },
    {
      "inputs": [
        {
          "internalType": "contract IERC20[]",
          "name": "tokens",
          "type": "address[]"
        },
        {
          "internalType": "uint256[]",
          "name": "weights",
          "type": "uint256[]"
        },
        {
          "internalType": "uint256",
          "name": "swapFee",
          "type": "uint256"
        }
      ],
      "name": "create",
      "outputs": [
        {
          "internalType": "address",
          "name": "",
          "type": "address"
        }
      ],
      "stateMutability": "nonpayable",
      "type": "function"
    }
  ],
  "transactionHash": "0xe030a7a364f2c5df7e5f74d82946a1a706a65550fdb4dac4322e6e5386705a8f",
  "args": [],
  "solcInputHash": "afcbb748db9c776c982c2f208c231f65",
  "bytecode": "0x608060405234801561001057600080fd5b50612ad4806100206000396000f3fe60806040523480156200001157600080fd5b50600436106200002e5760003560e01c8063f7cff1331462000033575b600080fd5b6200004a62000044366004620004a3565b62000062565b60405162000059919062000636565b60405180910390f35b600060606040518060200162000078906200041f565b7fffffffffffffffffffffffffffffffffffffffffffffffffffffffffffffffe082820381018352601f909101166040819052620000bf9087908790879060200162000657565b604080517fffffffffffffffffffffffffffffffffffffffffffffffffffffffffffffffe081840301815290829052620000fd92916020016200061d565b60405160208183030381529060405290506000620001266000801b838051906020012062000201565b9050620001498173ffffffffffffffffffffffffffffffffffffffff1662000219565b1562000159579150620001fa9050565b60006200016881808562000256565b90508173ffffffffffffffffffffffffffffffffffffffff168173ffffffffffffffffffffffffffffffffffffffff1614620001a057fe5b620001ad60008262000335565b5060405173ffffffffffffffffffffffffffffffffffffffff8216907fbe69a8909bf54ab6b33b6090045cf72cb4832fe592c189d7cb21504b38ec2d1590600090a29250620001fa915050565b9392505050565b60006200021083833062000359565b90505b92915050565b6000813f7fc5d2460186f7233c927e7db2dcc703c0e500b653ca82273b7bfad8045d85a4708181148015906200024e57508115155b949350505050565b600080844710156200029f576040517f08c379a0000000000000000000000000000000000000000000000000000000008152600401620002969062000754565b60405180910390fd5b8251620002da576040517f08c379a00000000000000000000000000000000000000000000000000000000081526004016200029690620006e8565b8383516020850187f5905073ffffffffffffffffffffffffffffffffffffffff81166200024e576040517f08c379a000000000000000000000000000000000000000000000000000000000815260040162000296906200071d565b6000620002108373ffffffffffffffffffffffffffffffffffffffff8416620003b8565b60008060ff60f81b838686604051602001620003799493929190620005b9565b604080518083037fffffffffffffffffffffffffffffffffffffffffffffffffffffffffffffffe0018152919052805160209091012095945050505050565b6000620003c6838362000407565b620003fe5750815460018181018455600084815260208082209093018490558454848252828601909352604090209190915562000213565b50600062000213565b60009081526001919091016020526040902054151590565b61228b806200081483390190565b600082601f8301126200043e578081fd5b8135620004556200044f82620007b3565b6200078b565b8181529150602080830190848101818402860182018710156200047757600080fd5b60005b8481101562000498578135845292820192908201906001016200047a565b505050505092915050565b600080600060608486031215620004b8578283fd5b833567ffffffffffffffff80821115620004d0578485fd5b818601915086601f830112620004e4578485fd5b8135620004f56200044f82620007b3565b80828252602080830192508086018b8283870289010111156200051657898afd5b8996505b84871015620005455780356200053081620007ed565b8452600196909601959281019281016200051a565b5090975088013593505050808211156200055d578384fd5b506200056c868287016200042d565b925050604084013590509250925092565b60008151815b818110156200059f576020818501810151868301520162000583565b81811115620005ae5782828601525b509290920192915050565b7fff0000000000000000000000000000000000000000000000000000000000000094909416845260609290921b7fffffffffffffffffffffffffffffffffffffffff0000000000000000000000001660018401526015830152603582015260550190565b60006200024e6200062f83866200057d565b846200057d565b73ffffffffffffffffffffffffffffffffffffffff91909116815260200190565b606080825284519082018190526000906020906080840190828801845b828110156200069c57620006898251620007d4565b8452928401929084019060010162000674565b50505083810382850152855180825286830191830190845b81811015620006d257835183529284019291840191600101620006b4565b5050809350505050826040830152949350505050565b6020808252818101527f437265617465323a2062797465636f6465206c656e677468206973207a65726f604082015260600190565b60208082526019908201527f437265617465323a204661696c6564206f6e206465706c6f7900000000000000604082015260600190565b6020808252601d908201527f437265617465323a20696e73756666696369656e742062616c616e6365000000604082015260600190565b60405181810167ffffffffffffffff81118282101715620007ab57600080fd5b604052919050565b600067ffffffffffffffff821115620007ca578081fd5b5060209081020190565b73ffffffffffffffffffffffffffffffffffffffff1690565b73ffffffffffffffffffffffffffffffffffffffff811681146200081057600080fd5b5056fe6104c06040523480156200001257600080fd5b506040516200228b3803806200228b833981016040819052620000359162000807565b62000044565b60405180910390fd5b67016345785d8a00008111156200006f5760405162461bcd60e51b81526004016200003b9062000932565b6080819052825160021115620000995760405162461bcd60e51b81526004016200003b906200097f565b825160101015620000be5760405162461bcd60e51b81526004016200003b90620008e0565b8151835114620000e25760405162461bcd60e51b81526004016200003b9062000908565b60005b83518160ff1610156200013957600160ff16838260ff16815181106200010757fe5b60200260200101511015620001305760405162461bcd60e51b81526004016200003b9062000957565b600101620000e5565b508251806200014a57600062000161565b836000815181106200015857fe5b60200260200101515b60601b6001600160601b03191660c052600181116200018257600062000199565b836001815181106200019057fe5b60200260200101515b60601b6001600160601b03191660e05260028111620001ba576000620001d1565b83600281518110620001c857fe5b60200260200101515b60601b6001600160601b0319166101005260038111620001f35760006200020a565b836003815181106200020157fe5b60200260200101515b60601b6001600160601b03191661012052600481116200022c57600062000243565b836004815181106200023a57fe5b60200260200101515b60601b6001600160601b0319166101405260058111620002655760006200027c565b836005815181106200027357fe5b60200260200101515b60601b6001600160601b03191661016052600681116200029e576000620002b5565b83600681518110620002ac57fe5b60200260200101515b60601b6001600160601b0319166101805260078111620002d7576000620002ee565b83600781518110620002e557fe5b60200260200101515b60601b6001600160601b0319166101a052600881116200031057600062000327565b836008815181106200031e57fe5b60200260200101515b60601b6001600160601b0319166101c052600981116200034957600062000360565b836009815181106200035757fe5b60200260200101515b60601b6001600160601b0319166101e052600a81116200038257600062000399565b83600a815181106200039057fe5b60200260200101515b60601b6001600160601b03191661020052600b8111620003bb576000620003d2565b83600b81518110620003c957fe5b60200260200101515b60601b6001600160601b03191661022052600c8111620003f45760006200040b565b83600c815181106200040257fe5b60200260200101515b60601b6001600160601b03191661024052600d81116200042d57600062000444565b83600d815181106200043b57fe5b60200260200101515b60601b6001600160601b03191661026052600e8111620004665760006200047d565b83600e815181106200047457fe5b60200260200101515b60601b6001600160601b03191661028052600f81116200049f576000620004b6565b83600f81518110620004ad57fe5b60200260200101515b60601b6001600160601b0319166102a05280620004d5576000620004ec565b82600081518110620004e357fe5b60200260200101515b6102c052600181116200050157600062000518565b826001815181106200050f57fe5b60200260200101515b6102e052600281116200052d57600062000544565b826002815181106200053b57fe5b60200260200101515b61030052600381116200055957600062000570565b826003815181106200056757fe5b60200260200101515b6103205260048111620005855760006200059c565b826004815181106200059357fe5b60200260200101515b6103405260058111620005b1576000620005c8565b82600581518110620005bf57fe5b60200260200101515b6103605260068111620005dd576000620005f4565b82600681518110620005eb57fe5b60200260200101515b61038052600781116200060957600062000620565b826007815181106200061757fe5b60200260200101515b6103a05260088111620006355760006200064c565b826008815181106200064357fe5b60200260200101515b6103c052600981116200066157600062000678565b826009815181106200066f57fe5b60200260200101515b6103e052600a81116200068d576000620006a4565b82600a815181106200069b57fe5b60200260200101515b61040052600b8111620006b9576000620006d0565b82600b81518110620006c757fe5b60200260200101515b61042052600c8111620006e5576000620006fc565b82600c81518110620006f357fe5b60200260200101515b61044052600d81116200071157600062000728565b82600d815181106200071f57fe5b60200260200101515b61046052600e81116200073d57600062000754565b82600e815181106200074b57fe5b60200260200101515b61048052600f81116200076957600062000780565b82600f815181106200077757fe5b60200260200101515b6104a05260a0525062000a07915050565b600082601f830112620007a2578081fd5b8151620007b9620007b382620009ce565b620009a7565b818152915060208083019084810181840286018201871015620007db57600080fd5b60005b84811015620007fc57815184529282019290820190600101620007de565b505050505092915050565b6000806000606084860312156200081c578283fd5b83516001600160401b038082111562000833578485fd5b818601915086601f83011262000847578485fd5b815162000858620007b382620009ce565b80828252602080830192508086018b8283870289010111156200087957898afd5b8996505b84871015620008a85780516200089381620009ee565b8452600196909601959281019281016200087d565b508901519097509350505080821115620008c0578384fd5b50620008cf8682870162000791565b925050604084015190509250925092565b6020808252600e908201526d4552525f4d41585f544f4b454e5360901b604082015260600190565b60208082526010908201526f11549497d5d15251d21514d7d31254d560821b604082015260600190565b6020808252600b908201526a4552525f4d41585f46454560a81b604082015260600190565b6020808252600e908201526d11549497d3525397d5d15251d21560921b604082015260600190565b6020808252600e908201526d4552525f4d494e5f544f4b454e5360901b604082015260600190565b6040518181016001600160401b0381118282101715620009c657600080fd5b604052919050565b60006001600160401b03821115620009e4578081fd5b5060209081020190565b6001600160a01b038116811462000a0457600080fd5b50565b60805160a05160c05160601c60e05160601c6101005160601c6101205160601c6101405160601c6101605160601c6101805160601c6101a05160601c6101c05160601c6101e05160601c6102005160601c6102205160601c6102405160601c6102605160601c6102805160601c6102a05160601c6102c0516102e05161030051610320516103405161036051610380516103a0516103c0516103e05161040051610420516104405161046051610480516104a0516116e862000ba360003980610a0952508061098e52508061091352508061089852508061081d5250806107a25250806107275250806106ac5250806106315250806105b652508061053b5250806104c05250806104455250806103ca52508061034f5250806102d45250806109b45250806109395250806108be5250806108435250806107c852508061074d5250806106d25250806106575250806105dc5250806105615250806104e652508061046b5250806103f05250806103755250806102fa52508061027f525080610a7c5250806101c45280610a585280610ab052506116e86000f3fe608060405234801561001057600080fd5b50600436106100be5760003560e01c8063bc063e1a11610076578063f08b82e61161005b578063f08b82e614610142578063f47c84c51461014a578063f9ddfe3e14610152576100be565b8063bc063e1a14610132578063d4cadf681461013a576100be565b806376c7a3c7116100a757806376c7a3c7146100e95780637ee65e53146100fe578063ac6c52511461011f576100be565b80631965e183146100c3578063218b5382146100e1575b600080fd5b6100cb610165565b6040516100d891906116a4565b60405180910390f35b6100cb61016a565b6100f161016f565b6040516100d8919061169b565b61011161010c3660046113e7565b610174565b6040516100d8929190611678565b6100f161012d366004611355565b61023f565b6100f1610a4a565b6100f1610a56565b6100f1610a7a565b6100cb610a9e565b610111610160366004611389565b610aa3565b600281565b600181565b600081565b600080806101b58561018c61012d60208a018a611355565b866101a061012d60408c0160208d01611355565b6101b060608c0160408d01611411565b610b6c565b905060006102106101f76101e87f0000000000000000000000000000000000000000000000000000000000000000610c0b565b670de0b6b3a764000090610c41565b6fffffffffffffffffffffffffffffffff841690610c7c565b905060006102306fffffffffffffffffffffffffffffffff831684610c41565b91989197509095505050505050565b600073ffffffffffffffffffffffffffffffffffffffff821661027d5760405162461bcd60e51b81526004016102749061152e565b60405180910390fd5b7f000000000000000000000000000000000000000000000000000000000000000073ffffffffffffffffffffffffffffffffffffffff168273ffffffffffffffffffffffffffffffffffffffff1614156102f857507f0000000000000000000000000000000000000000000000000000000000000000610a45565b7f000000000000000000000000000000000000000000000000000000000000000073ffffffffffffffffffffffffffffffffffffffff168273ffffffffffffffffffffffffffffffffffffffff16141561037357507f0000000000000000000000000000000000000000000000000000000000000000610a45565b7f000000000000000000000000000000000000000000000000000000000000000073ffffffffffffffffffffffffffffffffffffffff168273ffffffffffffffffffffffffffffffffffffffff1614156103ee57507f0000000000000000000000000000000000000000000000000000000000000000610a45565b7f000000000000000000000000000000000000000000000000000000000000000073ffffffffffffffffffffffffffffffffffffffff168273ffffffffffffffffffffffffffffffffffffffff16141561046957507f0000000000000000000000000000000000000000000000000000000000000000610a45565b7f000000000000000000000000000000000000000000000000000000000000000073ffffffffffffffffffffffffffffffffffffffff168273ffffffffffffffffffffffffffffffffffffffff1614156104e457507f0000000000000000000000000000000000000000000000000000000000000000610a45565b7f000000000000000000000000000000000000000000000000000000000000000073ffffffffffffffffffffffffffffffffffffffff168273ffffffffffffffffffffffffffffffffffffffff16141561055f57507f0000000000000000000000000000000000000000000000000000000000000000610a45565b7f000000000000000000000000000000000000000000000000000000000000000073ffffffffffffffffffffffffffffffffffffffff168273ffffffffffffffffffffffffffffffffffffffff1614156105da57507f0000000000000000000000000000000000000000000000000000000000000000610a45565b7f000000000000000000000000000000000000000000000000000000000000000073ffffffffffffffffffffffffffffffffffffffff168273ffffffffffffffffffffffffffffffffffffffff16141561065557507f0000000000000000000000000000000000000000000000000000000000000000610a45565b7f000000000000000000000000000000000000000000000000000000000000000073ffffffffffffffffffffffffffffffffffffffff168273ffffffffffffffffffffffffffffffffffffffff1614156106d057507f0000000000000000000000000000000000000000000000000000000000000000610a45565b7f000000000000000000000000000000000000000000000000000000000000000073ffffffffffffffffffffffffffffffffffffffff168273ffffffffffffffffffffffffffffffffffffffff16141561074b57507f0000000000000000000000000000000000000000000000000000000000000000610a45565b7f000000000000000000000000000000000000000000000000000000000000000073ffffffffffffffffffffffffffffffffffffffff168273ffffffffffffffffffffffffffffffffffffffff1614156107c657507f0000000000000000000000000000000000000000000000000000000000000000610a45565b7f000000000000000000000000000000000000000000000000000000000000000073ffffffffffffffffffffffffffffffffffffffff168273ffffffffffffffffffffffffffffffffffffffff16141561084157507f0000000000000000000000000000000000000000000000000000000000000000610a45565b7f000000000000000000000000000000000000000000000000000000000000000073ffffffffffffffffffffffffffffffffffffffff168273ffffffffffffffffffffffffffffffffffffffff1614156108bc57507f0000000000000000000000000000000000000000000000000000000000000000610a45565b7f000000000000000000000000000000000000000000000000000000000000000073ffffffffffffffffffffffffffffffffffffffff168273ffffffffffffffffffffffffffffffffffffffff16141561093757507f0000000000000000000000000000000000000000000000000000000000000000610a45565b7f000000000000000000000000000000000000000000000000000000000000000073ffffffffffffffffffffffffffffffffffffffff168273ffffffffffffffffffffffffffffffffffffffff1614156109b257507f0000000000000000000000000000000000000000000000000000000000000000610a45565b7f000000000000000000000000000000000000000000000000000000000000000073ffffffffffffffffffffffffffffffffffffffff168273ffffffffffffffffffffffffffffffffffffffff161415610a2d57507f0000000000000000000000000000000000000000000000000000000000000000610a45565b60405162461bcd60e51b815260040161027490611641565b919050565b67016345785d8a000081565b7f000000000000000000000000000000000000000000000000000000000000000090565b7f000000000000000000000000000000000000000000000000000000000000000090565b601081565b6000806000610afc610ad47f0000000000000000000000000000000000000000000000000000000000000000610c0b565b610ae46060890160408a01611411565b6fffffffffffffffffffffffffffffffff1690610dc4565b90506000610b2c82610b1460608a0160408b01611411565b6fffffffffffffffffffffffffffffffff1690610c41565b90506000610b5e87610b4461012d60208c018c611355565b88610b5861012d60408e0160208f01611355565b86610eb7565b989297509195505050505050565b600080610baa610b916fffffffffffffffffffffffffffffffff878116908616610f44565b6fffffffffffffffffffffffffffffffff871690610f53565b90506000610bb88588610f53565b90506000610bd8670de0b6b3a7640000610bd28585610fe7565b90610f44565b9050610bfe610bf96fffffffffffffffffffffffffffffffff8b168361109a565b610c0b565b9998505050505050505050565b60007001000000000000000000000000000000008210610c3d5760405162461bcd60e51b815260040161027490611463565b5090565b6000806000610c50858561110c565b915091508015610c725760405162461bcd60e51b8152600401610274906115d3565b5090505b92915050565b60006fffffffffffffffffffffffffffffffff8216610cad5760405162461bcd60e51b81526004016102749061159c565b670de0b6b3a764000083026fffffffffffffffffffffffffffffffff84161580610d0e5750670de0b6b3a76400006fffffffffffffffffffffffffffffffff85811690831681610cf957fe5b046fffffffffffffffffffffffffffffffff16145b610d2a5760405162461bcd60e51b8152600401610274906114c0565b600060026fffffffffffffffffffffffffffffffff85160482019050816fffffffffffffffffffffffffffffffff16816fffffffffffffffffffffffffffffffff161015610d8a5760405162461bcd60e51b8152600401610274906114c0565b6000846fffffffffffffffffffffffffffffffff16826fffffffffffffffffffffffffffffffff1681610db957fe5b049695505050505050565b60008282026fffffffffffffffffffffffffffffffff84161580610e385750826fffffffffffffffffffffffffffffffff16846fffffffffffffffffffffffffffffffff16826fffffffffffffffffffffffffffffffff1681610e2357fe5b046fffffffffffffffffffffffffffffffff16145b610e545760405162461bcd60e51b815260040161027490611565565b6706f05b59d3b2000081016fffffffffffffffffffffffffffffffff8083169082161015610e945760405162461bcd60e51b815260040161027490611565565b6000670de0b6b3a76400006fffffffffffffffffffffffffffffffff8316610db9565b600080610ef5610edc6fffffffffffffffffffffffffffffffff898116908616611155565b6fffffffffffffffffffffffffffffffff891690610f53565b90506000610f038786610f53565b90506000610f23610f148484610fe7565b670de0b6b3a764000090610f44565b9050610bfe610bf96fffffffffffffffffffffffffffffffff89168361109a565b6000806000610c508585611181565b600081610f725760405162461bcd60e51b81526004016102749061159c565b670de0b6b3a76400008302831580610f9a5750670de0b6b3a7640000848281610f9757fe5b04145b610fb65760405162461bcd60e51b8152600401610274906114c0565b60028304810181811015610fdc5760405162461bcd60e51b8152600401610274906114c0565b6000848281610db957fe5b6000600183101561100a5760405162461bcd60e51b81526004016102749061142c565b671bc16d674ec7ffff8311156110325760405162461bcd60e51b8152600401610274906114f7565b600061103d83611197565b9050600061104b8483610f44565b905060006110618661105c856111b2565b6111c0565b905081611072579250610c76915050565b600061108387846305f5e100611217565b905061108f828261109a565b979650505050505050565b60008282028315806110b45750828482816110b157fe5b04145b6110d05760405162461bcd60e51b815260040161027490611565565b6706f05b59d3b200008101818110156110fb5760405162461bcd60e51b815260040161027490611565565b6000670de0b6b3a764000082610db9565b600080826fffffffffffffffffffffffffffffffff16846fffffffffffffffffffffffffffffffff1610611146575050808203600061114e565b505081810360015b9250929050565b60008282018381101561117a5760405162461bcd60e51b81526004016102749061160a565b9392505050565b600080828410611146575050808203600061114e565b6000670de0b6b3a76400006111ab836111b2565b0292915050565b670de0b6b3a7640000900490565b600080600283066111d957670de0b6b3a76400006111db565b835b90506002830492505b821561117a576111f4848561109a565b9350600283061561120c57611209818561109a565b90505b6002830492506111e4565b600082818061122e87670de0b6b3a7640000611181565b9092509050670de0b6b3a764000080600060015b88841061130f576000670de0b6b3a76400006fffffffffffffffffffffffffffffffff168202905060008061129a8a61129585670de0b6b3a76400006fffffffffffffffffffffffffffffffff16610f44565b611181565b915091506112b1876112ac848c61109a565b61109a565b96506112bd8784610f53565b9650866112cc5750505061130f565b87156112d6579315935b80156112e0579315935b84156112f7576112f08688610f44565b9550611304565b6113018688611155565b95505b505050600101611242565b50909998505050505050505050565b600060e0828403121561132f578081fd5b50919050565b80356fffffffffffffffffffffffffffffffff81168114610c7657600080fd5b600060208284031215611366578081fd5b813573ffffffffffffffffffffffffffffffffffffffff8116811461117a578182fd5b60008060006060848603121561139d578182fd5b833567ffffffffffffffff8111156113b3578283fd5b6113bf8682870161131e565b9350506113cf8560208601611335565b91506113de8560408601611335565b90509250925092565b6000806000606084860312156113fb578283fd5b833567ffffffffffffffff8111156113b3578384fd5b600060208284031215611422578081fd5b61117a8383611335565b60208082526014908201527f4552525f504f575f424153455f544f4f5f4c4f57000000000000000000000000604082015260600190565b60208082526027908201527f53616665436173743a2076616c756520646f65736e27742066697420696e203160408201527f3238206269747300000000000000000000000000000000000000000000000000606082015260800190565b60208082526010908201527f4552525f4449565f494e5445524e414c00000000000000000000000000000000604082015260600190565b60208082526015908201527f4552525f504f575f424153455f544f4f5f484947480000000000000000000000604082015260600190565b60208082526013908201527f4552525f494e56414c49445f4144445245535300000000000000000000000000604082015260600190565b60208082526010908201527f4552525f4d554c5f4f564552464c4f5700000000000000000000000000000000604082015260600190565b6020808252600c908201527f4552525f4449565f5a45524f0000000000000000000000000000000000000000604082015260600190565b60208082526011908201527f4552525f5355425f554e444552464c4f57000000000000000000000000000000604082015260600190565b60208082526010908201527f4552525f4144445f4f564552464c4f5700000000000000000000000000000000604082015260600190565b60208082526011908201527f4552525f494e56414c49445f544f4b454e000000000000000000000000000000604082015260600190565b6fffffffffffffffffffffffffffffffff92831681529116602082015260400190565b90815260200190565b60ff9190911681526020019056fea26469706673582212209caa42a2fe97a90e3e0e8911d91bda636e00bbf37649f8964f01cc63c48ad9b364736f6c63430007010033a26469706673582212205f24621b92626d9b0b1b42678d928b57460b51ec5cfc97f72722881a3a3f8d8d64736f6c63430007010033",
  "devdoc": {
    "kind": "dev",
    "methods": {},
    "version": 1
  },
  "userdoc": {
    "kind": "user",
    "methods": {},
    "version": 1
  },
  "storageLayout": {
    "storage": [
      {
        "astId": 6267,
        "contract": "contracts/strategies/factories/CWPFactory.sol:CWPFactory",
        "label": "_weightedProdStrategies",
        "offset": 0,
        "slot": "0",
        "type": "t_struct(AddressSet)12360_storage"
      }
    ],
    "types": {
      "t_array(t_bytes32)dyn_storage": {
        "base": "t_bytes32",
        "encoding": "dynamic_array",
        "label": "bytes32[]",
        "numberOfBytes": "32"
      },
      "t_bytes32": {
        "encoding": "inplace",
        "label": "bytes32",
        "numberOfBytes": "32"
      },
      "t_mapping(t_bytes32,t_uint256)": {
        "encoding": "mapping",
        "key": "t_bytes32",
        "label": "mapping(bytes32 => uint256)",
        "numberOfBytes": "32",
        "value": "t_uint256"
      },
      "t_struct(AddressSet)12360_storage": {
        "encoding": "inplace",
        "label": "struct EnumerableSet.AddressSet",
        "members": [
          {
            "astId": 12359,
            "contract": "contracts/strategies/factories/CWPFactory.sol:CWPFactory",
            "label": "_inner",
            "offset": 0,
            "slot": "0",
            "type": "t_struct(Set)12095_storage"
          }
        ],
        "numberOfBytes": "64"
      },
      "t_struct(Set)12095_storage": {
        "encoding": "inplace",
        "label": "struct EnumerableSet.Set",
        "members": [
          {
            "astId": 12090,
            "contract": "contracts/strategies/factories/CWPFactory.sol:CWPFactory",
            "label": "_values",
            "offset": 0,
            "slot": "0",
            "type": "t_array(t_bytes32)dyn_storage"
          },
          {
            "astId": 12094,
            "contract": "contracts/strategies/factories/CWPFactory.sol:CWPFactory",
            "label": "_indexes",
            "offset": 0,
            "slot": "1",
            "type": "t_mapping(t_bytes32,t_uint256)"
          }
        ],
        "numberOfBytes": "64"
      },
      "t_uint256": {
        "encoding": "inplace",
        "label": "uint256",
        "numberOfBytes": "32"
      }
    }
  }
}