{
  "address": "0x0940F4092a3672Db7e2AA9604f177e9eFC3ecD4f",
  "abi": [
    {
      "inputs": [
        {
          "internalType": "contract IVault",
          "name": "_vault",
          "type": "address"
        }
      ],
      "stateMutability": "nonpayable",
      "type": "constructor"
    },
    {
      "anonymous": false,
      "inputs": [
        {
          "indexed": true,
          "internalType": "address",
          "name": "controller",
          "type": "address"
        }
      ],
      "name": "ControllerCreated",
      "type": "event"
    },
    {
      "inputs": [
        {
          "internalType": "address",
          "name": "strategy",
          "type": "address"
        },
        {
          "internalType": "enum IVault.StrategyType",
          "name": "strategyType",
          "type": "uint8"
        },
        {
          "internalType": "uint256",
          "name": "initialBPT",
          "type": "uint256"
        },
        {
          "internalType": "address[]",
          "name": "tokens",
          "type": "address[]"
        },
        {
          "internalType": "uint128[]",
          "name": "amounts",
          "type": "uint128[]"
        },
        {
          "internalType": "bytes32",
          "name": "salt",
          "type": "bytes32"
        }
      ],
      "name": "create",
      "outputs": [
        {
          "internalType": "address",
          "name": "",
          "type": "address"
        }
      ],
      "stateMutability": "nonpayable",
      "type": "function"
    },
    {
      "inputs": [],
      "name": "vault",
      "outputs": [
        {
          "internalType": "contract IVault",
          "name": "",
          "type": "address"
        }
      ],
      "stateMutability": "view",
      "type": "function"
    }
  ],
  "transactionHash": "0xaa8ba0e977faf4514a8993e153e73977f2fef5b2391bc154e203fbb9f7aa0177",
  "args": [
    "0xaEaCB2BC2A09025982069107aCb8956422FbBe87"
  ],
  "solcInputHash": "afcbb748db9c776c982c2f208c231f65",
  "bytecode": "0x60a060405234801561001057600080fd5b506040516135a33803806135a383398101604081905261002f91610044565b60601b6001600160601b031916608052610072565b600060208284031215610055578081fd5b81516001600160a01b038116811461006b578182fd5b9392505050565b60805160601c61350b6100986000398060ca5280610160528061023b525061350b6000f3fe60806040523480156200001157600080fd5b50600436106200003a5760003560e01c8063d65bc1eb146200003f578063fbfa77cf146200006e575b600080fd5b62000056620000503660046200058a565b62000078565b604051620000659190620007b6565b60405180910390f35b620000566200015e565b600062000153604051806020016200009090620004c1565b7fffffffffffffffffffffffffffffffffffffffffffffffffffffffffffffffe082820381018352601f909101166040819052620000ff907f0000000000000000000000000000000000000000000000000000000000000000908b908b908b908b908b903390602001620007d7565b604080517fffffffffffffffffffffffffffffffffffffffffffffffffffffffffffffffe0818403018152908290526200013d92916020016200079d565b6040516020818303038152906040528362000182565b979650505050505050565b7f000000000000000000000000000000000000000000000000000000000000000081565b6000806200019883858051906020012062000339565b9050620001bb8173ffffffffffffffffffffffffffffffffffffffff166200034f565b15620001fe576040517f08c379a0000000000000000000000000000000000000000000000000000000008152600401620001f590620008fd565b60405180910390fd5b6040517feb1192c300000000000000000000000000000000000000000000000000000000815273ffffffffffffffffffffffffffffffffffffffff7f0000000000000000000000000000000000000000000000000000000000000000169063eb1192c39062000272908490600401620007b6565b600060405180830381600087803b1580156200028d57600080fd5b505af1158015620002a2573d6000803e3d6000fd5b505050506000620002b6600085876200038c565b90508173ffffffffffffffffffffffffffffffffffffffff168173ffffffffffffffffffffffffffffffffffffffff1614620002ee57fe5b60405173ffffffffffffffffffffffffffffffffffffffff8216907f61a1525f83a9a659cdc1dfd5ba0a75b20537f5127a4abcebba133b6440e431ff90600090a29150505b92915050565b60006200034883833062000462565b9392505050565b6000813f7fc5d2460186f7233c927e7db2dcc703c0e500b653ca82273b7bfad8045d85a4708181148015906200038457508115155b949350505050565b60008084471015620003cc576040517f08c379a0000000000000000000000000000000000000000000000000000000008152600401620001f59062000934565b825162000407576040517f08c379a0000000000000000000000000000000000000000000000000000000008152600401620001f59062000891565b8383516020850187f5905073ffffffffffffffffffffffffffffffffffffffff811662000384576040517f08c379a0000000000000000000000000000000000000000000000000000000008152600401620001f590620008c6565b60008060ff60f81b83868660405160200162000482949392919062000739565b604080518083037fffffffffffffffffffffffffffffffffffffffffffffffffffffffffffffffe0018152919052805160209091012095945050505050565b612afa80620009dc83390190565b803573ffffffffffffffffffffffffffffffffffffffff811681146200033357600080fd5b600082601f83011262000505578081fd5b81356200051c620005168262000993565b6200096b565b8181529150602080830190848101818402860182018710156200053e57600080fd5b6000805b858110156200057e5782356fffffffffffffffffffffffffffffffff811681146200056b578283fd5b8552938301939183019160010162000542565b50505050505092915050565b60008060008060008060c08789031215620005a3578182fd5b620005af8888620004cf565b955060208088013560028110620005c4578384fd5b955060408801359450606088013567ffffffffffffffff80821115620005e8578485fd5b818a0191508a601f830112620005fc578485fd5b81356200060d620005168262000993565b81815284810190848601868402860187018f10156200062a578889fd5b8895505b838610156200065857620006438f82620004cf565b8352600195909501949186019186016200062e565b509750505060808a013592508083111562000671578485fd5b50506200068189828a01620004f4565b92505060a087013590509295509295509295565b73ffffffffffffffffffffffffffffffffffffffff169052565b6000815180845260208085019450808401835b83811015620006f25781516fffffffffffffffffffffffffffffffff1687529582019590820190600101620006c2565b509495945050505050565b60008151815b818110156200071f576020818501810151868301520162000703565b818111156200072e5782828601525b509290920192915050565b7fff0000000000000000000000000000000000000000000000000000000000000094909416845260609290921b7fffffffffffffffffffffffffffffffffffffffff0000000000000000000000001660018401526015830152603582015260550190565b600062000384620007af8386620006fd565b84620006fd565b73ffffffffffffffffffffffffffffffffffffffff91909116815260200190565b600060e0820173ffffffffffffffffffffffffffffffffffffffff808b1684526020818b16818601526200080b8a620009cd565b604085018a90526060850189905260e060808601528751928390528088019261010086019250845b818110156200085b57620008488551620009b4565b8452938201939282019260010162000833565b50505083810360a0850152620008728187620006af565b925050506200088560c083018462000695565b98975050505050505050565b6020808252818101527f437265617465323a2062797465636f6465206c656e677468206973207a65726f604082015260600190565b60208082526019908201527f437265617465323a204661696c6564206f6e206465706c6f7900000000000000604082015260600190565b60208082526015908201527f53616c742063616e6e6f74206265207265757365640000000000000000000000604082015260600190565b6020808252601d908201527f437265617465323a20696e73756666696369656e742062616c616e6365000000604082015260600190565b60405181810167ffffffffffffffff811182821017156200098b57600080fd5b604052919050565b600067ffffffffffffffff821115620009aa578081fd5b5060209081020190565b73ffffffffffffffffffffffffffffffffffffffff1690565b60028110620009d857fe5b5056fe610100604052601360c08190527f42616c616e63657220506f6f6c20546f6b656e0000000000000000000000000060e0908152620000419160039190620006af565b506040805180820190915260038082526210941560ea1b60209092019182526200006e91600491620006af565b506005805460ff191660121790553480156200008957600080fd5b5060405162002afa38038062002afa833981810160405260e0811015620000af57600080fd5b8151602083015160408085015160608601516080870180519351959794969295919491939282019284640100000000821115620000eb57600080fd5b9083019060208201858111156200010157600080fd5b82518660208202830111640100000000821117156200011f57600080fd5b82525081516020918201928201910280838360005b838110156200014e57818101518382015260200162000134565b50505050905001604052602001805160405193929190846401000000008211156200017857600080fd5b9083019060208201858111156200018e57600080fd5b8251866020820283011164010000000082111715620001ac57600080fd5b82525081516020918201928201910280838360005b83811015620001db578181015183820152602001620001c1565b50505050905001604052602001805190602001909291905050506000876001600160a01b03166381158ad988886040518363ffffffff1660e01b815260040180836001600160a01b031681526020018260018111156200023757fe5b815260200192505050602060405180830381600087803b1580156200025b57600080fd5b505af115801562000270573d6000803e3d6000fd5b505050506040513d60208110156200028757600080fd5b5051604051630ab0e98b60e11b8152600481018281526001600160a01b03858116602484015260a060448401908152885160a48501528851949550908c1693631561d31693869388938b938b93849392916064820191608481019160c4909101906020898101910280838360005b838110156200030f578181015183820152602001620002f5565b50505050905001848103835286818151815260200191508051906020019060200280838360005b838110156200035057818101518382015260200162000336565b50505050905001848103825285818151815260200191508051906020019060200280838360005b838110156200039157818101518382015260200162000377565b5050505090500198505050505050505050600060405180830381600087803b158015620003bd57600080fd5b505af1158015620003d2573d6000803e3d6000fd5b50505050620003e7856200041960201b60201c565b620003f3828662000427565b60609790971b6001600160601b03191660805250505060a093909352506200074b915050565b620004248162000437565b50565b620004338282620004b8565b5050565b30600090815260208181526040909120546200045e91839062001c15620004c5821b17901c565b30600090815260208181526040909120919091556002546200048b91839062001c15620004c5821b17901c565b600255604080518281529051309160009160008051602062002ada8339815191529181900360200190a350565b6200043330838362000527565b60008282018381101562000520576040805162461bcd60e51b815260206004820152601b60248201527f536166654d6174683a206164646974696f6e206f766572666c6f770000000000604482015290519081900360640190fd5b9392505050565b604080518082018252601481527f4552525f494e53554646494349454e545f42414c0000000000000000000000006020808301919091526001600160a01b038616600090815280825292909220546200058d929091849162001c7662000614821b17901c565b6001600160a01b038085166000908152602081815260408083209490945591851681529190912054620005cb91839062001c15620004c5821b17901c565b6001600160a01b0380841660008181526020818152604091829020949094558051858152905191939287169260008051602062002ada83398151915292918290030190a3505050565b60008184841115620006a75760405162461bcd60e51b81526004018080602001828103825283818151815260200191508051906020019080838360005b838110156200066b57818101518382015260200162000651565b50505050905090810190601f168015620006995780820380516001836020036101000a031916815260200191505b509250505060405180910390fd5b505050900390565b828054600181600116156101000203166002900490600052602060002090601f016020900481019282601f10620006f257805160ff191683800117855562000722565b8280016001018555821562000722579182015b828111156200072257825182559160200191906001019062000705565b506200073092915062000734565b5090565b5b8082111562000730576000815560010162000735565b60805160601c60a05161232c620007ae6000398061073b52806108b75280610d0a52806110bc5280611403528061157f528061199c5250806106ff528061087b5280610d6152806113c7528061154352806119605280611bf3525061232c6000f3fe608060405234801561001057600080fd5b50600436106100f55760003560e01c80636618846311610097578063b5db9b8b11610066578063b5db9b8b1461038b578063d73dd62314610420578063dd62ed3e14610459578063fbfa77cf14610494576100f5565b806366188463146102de57806370a082311461031757806395d89b411461034a578063a9059cbb14610352576100f5565b806318160ddd116100d357806318160ddd1461025b57806323b872dd14610275578063313ce567146102b85780633e0dc34e146102d6576100f5565b806306fdde03146100fa578063095ea7b314610177578063127cdc42146101c4575b600080fd5b6101026104c5565b6040805160208082528351818301528351919283929083019185019080838360005b8381101561013c578181015183820152602001610124565b50505050905090810190601f1680156101695780820380516001836020036101000a031916815260200191505b509250505060405180910390f35b6101b06004803603604081101561018d57600080fd5b5073ffffffffffffffffffffffffffffffffffffffff8135169060200135610579565b604080519115158252519081900360200190f35b610259600480360360808110156101da57600080fd5b813591908101906040810160208201356401000000008111156101fc57600080fd5b82018360208201111561020e57600080fd5b8035906020019184602083028401116401000000008311171561023057600080fd5b919350915080351515906020013573ffffffffffffffffffffffffffffffffffffffff166105ec565b005b610263610ecb565b60408051918252519081900360200190f35b6101b06004803603606081101561028b57600080fd5b5073ffffffffffffffffffffffffffffffffffffffff813581169160208101359091169060400135610ed1565b6102c06110b1565b6040805160ff9092168252519081900360200190f35b6102636110ba565b6101b0600480360360408110156102f457600080fd5b5073ffffffffffffffffffffffffffffffffffffffff81351690602001356110de565b6102636004803603602081101561032d57600080fd5b503573ffffffffffffffffffffffffffffffffffffffff166111fc565b610102611224565b6101b06004803603604081101561036857600080fd5b5073ffffffffffffffffffffffffffffffffffffffff81351690602001356112a3565b610259600480360360808110156103a157600080fd5b813591908101906040810160208201356401000000008111156103c357600080fd5b8201836020820111156103d557600080fd5b803590602001918460208302840111640100000000831117156103f757600080fd5b919350915080351515906020013573ffffffffffffffffffffffffffffffffffffffff166112b9565b6101b06004803603604081101561043657600080fd5b5073ffffffffffffffffffffffffffffffffffffffff8135169060200135611b0c565b6102636004803603604081101561046f57600080fd5b5073ffffffffffffffffffffffffffffffffffffffff81358116916020013516611bb9565b61049c611bf1565b6040805173ffffffffffffffffffffffffffffffffffffffff9092168252519081900360200190f35b60038054604080516020601f60027fffffffffffffffffffffffffffffffffffffffffffffffffffffffffffffffff61010060018816150201909516949094049384018190048102820181019092528281526060939092909183018282801561056f5780601f106105445761010080835404028352916020019161056f565b820191906000526020600020905b81548152906001019060200180831161055257829003601f168201915b5050505050905090565b33600081815260016020908152604080832073ffffffffffffffffffffffffffffffffffffffff8716808552908352818420869055815186815291519394909390927f8c5be1e5ebec7d5bd14f71427d1e84f3dd0314c0f7b2291e5b200ac8c7c3b925928290030190a350600192915050565b600554610100900460ff1615610649576040805162461bcd60e51b815260206004820152600b60248201527f4552525f5245454e545259000000000000000000000000000000000000000000604482015290519081900360640190fd5b600580547fffffffffffffffffffffffffffffffffffffffffffffffffffffffffffff00ff16610100179055600061067f610ecb565b905060006106956106908884611d0d565b611e4b565b90506fffffffffffffffffffffffffffffffff81166106fb576040805162461bcd60e51b815260206004820152600f60248201527f4552525f4d4154485f415050524f580000000000000000000000000000000000604482015290519081900360640190fd5b60607f000000000000000000000000000000000000000000000000000000000000000073ffffffffffffffffffffffffffffffffffffffff1663f94d46687f00000000000000000000000000000000000000000000000000000000000000006040518263ffffffff1660e01b81526004018082815260200191505060006040518083038186803b15801561078e57600080fd5b505afa1580156107a2573d6000803e3d6000fd5b505050506040513d6000823e601f3d9081017fffffffffffffffffffffffffffffffffffffffffffffffffffffffffffffffe016820160405260208110156107e957600080fd5b810190808051604051939291908464010000000082111561080957600080fd5b90830190602082018581111561081e57600080fd5b825186602082028301116401000000008211171561083b57600080fd5b82525081516020918201928201910280838360005b83811015610868578181015183820152602001610850565b50505050905001604052505050905060607f000000000000000000000000000000000000000000000000000000000000000073ffffffffffffffffffffffffffffffffffffffff1663fe8f2cb27f0000000000000000000000000000000000000000000000000000000000000000846040518363ffffffff1660e01b81526004018083815260200180602001828103825283818151815260200191508051906020019060200280838360005b8381101561092c578181015183820152602001610914565b50505050905001935050505060006040518083038186803b15801561095057600080fd5b505afa158015610964573d6000803e3d6000fd5b505050506040513d6000823e601f3d9081017fffffffffffffffffffffffffffffffffffffffffffffffffffffffffffffffe016820160405260208110156109ab57600080fd5b81019080805160405193929190846401000000008211156109cb57600080fd5b9083019060208201858111156109e057600080fd5b82518660208202830111640100000000821117156109fd57600080fd5b82525081516020918201928201910280838360005b83811015610a2a578181015183820152602001610a12565b50505050905001604052505050905081518888905014610a7b5760405162461bcd60e51b81526004018080602001828103825260228152602001806122d56022913960400191505060405180910390fd5b6060825167ffffffffffffffff81118015610a9557600080fd5b50604051908082528060200260200182016040528015610abf578160200160208202803683370190505b5090506060835167ffffffffffffffff81118015610adc57600080fd5b50604051908082528060200260200182016040528015610b06578160200160208202803683370190505b50905060005b8451811015610ce157610b4d86858381518110610b2557fe5b60200260200101516fffffffffffffffffffffffffffffffff16611ea090919063ffffffff16565b838281518110610b5957fe5b60200260200101906fffffffffffffffffffffffffffffffff1690816fffffffffffffffffffffffffffffffff16815250508a8a82818110610b9757fe5b905060200201356fffffffffffffffffffffffffffffffff166fffffffffffffffffffffffffffffffff16838281518110610bce57fe5b60200260200101516fffffffffffffffffffffffffffffffff161115610c3b576040805162461bcd60e51b815260206004820152600c60248201527f4552525f4c494d49545f494e0000000000000000000000000000000000000000604482015290519081900360640190fd5b8815610c9857828181518110610c4d57fe5b6020026020010151828281518110610c6157fe5b60200260200101906fffffffffffffffffffffffffffffffff1690816fffffffffffffffffffffffffffffffff1681525050610cd9565b6000828281518110610ca657fe5b60200260200101906fffffffffffffffffffffffffffffffff1690816fffffffffffffffffffffffffffffffff16815250505b600101610b0c565b506040517f1561d3160000000000000000000000000000000000000000000000000000000081527f000000000000000000000000000000000000000000000000000000000000000060048201818152336024840181905260a060448501908152885160a4860152885173ffffffffffffffffffffffffffffffffffffffff7f00000000000000000000000000000000000000000000000000000000000000001695631561d31695948b938a938a936064810191608482019160c401906020808a01910280838360005b83811015610dc2578181015183820152602001610daa565b50505050905001848103835286818151815260200191508051906020019060200280838360005b83811015610e01578181015183820152602001610de9565b50505050905001848103825285818151815260200191508051906020019060200280838360005b83811015610e40578181015183820152602001610e28565b5050505090500198505050505050505050600060405180830381600087803b158015610e6b57600080fd5b505af1158015610e7f573d6000803e3d6000fd5b50505050610e8c8b611ffd565b610e96878c612009565b5050600580547fffffffffffffffffffffffffffffffffffffffffffffffffffffffffffff00ff169055505050505050505050565b60025490565b60003373ffffffffffffffffffffffffffffffffffffffff85161480610f27575073ffffffffffffffffffffffffffffffffffffffff841660009081526001602090815260408083203384529091529020548211155b610f78576040805162461bcd60e51b815260206004820152601560248201527f4552525f42544f4b454e5f4241445f43414c4c45520000000000000000000000604482015290519081900360640190fd5b610f83848484612017565b3373ffffffffffffffffffffffffffffffffffffffff851614801590610ff9575073ffffffffffffffffffffffffffffffffffffffff841660009081526001602090815260408083203384529091529020547fffffffffffffffffffffffffffffffffffffffffffffffffffffffffffffffff14155b156110a75773ffffffffffffffffffffffffffffffffffffffff841660009081526001602090815260408083203384529091529020546110399083612121565b73ffffffffffffffffffffffffffffffffffffffff858116600090815260016020908152604080832033808552908352928190208590558051948552519287169391927f8c5be1e5ebec7d5bd14f71427d1e84f3dd0314c0f7b2291e5b200ac8c7c3b9259281900390910190a35b5060019392505050565b60055460ff1690565b7f000000000000000000000000000000000000000000000000000000000000000081565b33600090815260016020908152604080832073ffffffffffffffffffffffffffffffffffffffff861684529091528120548083111561114d5733600090815260016020908152604080832073ffffffffffffffffffffffffffffffffffffffff88168452909152812055611189565b6111578184612121565b33600090815260016020908152604080832073ffffffffffffffffffffffffffffffffffffffff891684529091529020555b33600081815260016020908152604080832073ffffffffffffffffffffffffffffffffffffffff89168085529083529281902054815190815290519293927f8c5be1e5ebec7d5bd14f71427d1e84f3dd0314c0f7b2291e5b200ac8c7c3b925929181900390910190a35060019392505050565b73ffffffffffffffffffffffffffffffffffffffff1660009081526020819052604090205490565b60048054604080516020601f60027fffffffffffffffffffffffffffffffffffffffffffffffffffffffffffffffff61010060018816150201909516949094049384018190048102820181019092528281526060939092909183018282801561056f5780601f106105445761010080835404028352916020019161056f565b60006112b0338484612017565b50600192915050565b600554610100900460ff1615611316576040805162461bcd60e51b815260206004820152600b60248201527f4552525f5245454e545259000000000000000000000000000000000000000000604482015290519081900360640190fd5b600580547fffffffffffffffffffffffffffffffffffffffffffffffffffffffffffff00ff16610100179055600061134c610ecb565b9050600061135d6106908884611d0d565b90506fffffffffffffffffffffffffffffffff81166113c3576040805162461bcd60e51b815260206004820152600f60248201527f4552525f4d4154485f415050524f580000000000000000000000000000000000604482015290519081900360640190fd5b60607f000000000000000000000000000000000000000000000000000000000000000073ffffffffffffffffffffffffffffffffffffffff1663f94d46687f00000000000000000000000000000000000000000000000000000000000000006040518263ffffffff1660e01b81526004018082815260200191505060006040518083038186803b15801561145657600080fd5b505afa15801561146a573d6000803e3d6000fd5b505050506040513d6000823e601f3d9081017fffffffffffffffffffffffffffffffffffffffffffffffffffffffffffffffe016820160405260208110156114b157600080fd5b81019080805160405193929190846401000000008211156114d157600080fd5b9083019060208201858111156114e657600080fd5b825186602082028301116401000000008211171561150357600080fd5b82525081516020918201928201910280838360005b83811015611530578181015183820152602001611518565b50505050905001604052505050905060607f000000000000000000000000000000000000000000000000000000000000000073ffffffffffffffffffffffffffffffffffffffff1663fe8f2cb27f0000000000000000000000000000000000000000000000000000000000000000846040518363ffffffff1660e01b81526004018083815260200180602001828103825283818151815260200191508051906020019060200280838360005b838110156115f45781810151838201526020016115dc565b50505050905001935050505060006040518083038186803b15801561161857600080fd5b505afa15801561162c573d6000803e3d6000fd5b505050506040513d6000823e601f3d9081017fffffffffffffffffffffffffffffffffffffffffffffffffffffffffffffffe0168201604052602081101561167357600080fd5b810190808051604051939291908464010000000082111561169357600080fd5b9083019060208201858111156116a857600080fd5b82518660208202830111640100000000821117156116c557600080fd5b82525081516020918201928201910280838360005b838110156116f25781810151838201526020016116da565b505050509050016040525050509050815188889050146117435760405162461bcd60e51b81526004018080602001828103825260228152602001806122d56022913960400191505060405180910390fd5b6060825167ffffffffffffffff8111801561175d57600080fd5b50604051908082528060200260200182016040528015611787578160200160208202803683370190505b5090506060835167ffffffffffffffff811180156117a457600080fd5b506040519080825280602002602001820160405280156117ce578160200160208202803683370190505b50905060005b845181101561195d576117ed86858381518110610b2557fe5b8382815181106117f957fe5b60200260200101906fffffffffffffffffffffffffffffffff1690816fffffffffffffffffffffffffffffffff16815250508a8a8281811061183757fe5b9050602002013583828151811061184a57fe5b60200260200101516fffffffffffffffffffffffffffffffff1610156118b7576040805162461bcd60e51b815260206004820152601260248201527f4e4f542045584954494e4720454e4f5547480000000000000000000000000000604482015290519081900360640190fd5b8815611914578281815181106118c957fe5b60200260200101518282815181106118dd57fe5b60200260200101906fffffffffffffffffffffffffffffffff1690816fffffffffffffffffffffffffffffffff1681525050611955565b600082828151811061192257fe5b60200260200101906fffffffffffffffffffffffffffffffff1690816fffffffffffffffffffffffffffffffff16815250505b6001016117d4565b507f000000000000000000000000000000000000000000000000000000000000000073ffffffffffffffffffffffffffffffffffffffff1663d4c173e07f0000000000000000000000000000000000000000000000000000000000000000898786866040518663ffffffff1660e01b8152600401808681526020018573ffffffffffffffffffffffffffffffffffffffff168152602001806020018060200180602001848103845287818151815260200191508051906020019060200280838360005b83811015611a38578181015183820152602001611a20565b50505050905001848103835286818151815260200191508051906020019060200280838360005b83811015611a77578181015183820152602001611a5f565b50505050905001848103825285818151815260200191508051906020019060200280838360005b83811015611ab6578181015183820152602001611a9e565b5050505090500198505050505050505050600060405180830381600087803b158015611ae157600080fd5b505af1158015611af5573d6000803e3d6000fd5b50505050611b03338c612163565b610e968b61216d565b33600090815260016020908152604080832073ffffffffffffffffffffffffffffffffffffffff86168452909152812054611b479083611c15565b33600081815260016020908152604080832073ffffffffffffffffffffffffffffffffffffffff89168085529083529281902085905580519485525191937f8c5be1e5ebec7d5bd14f71427d1e84f3dd0314c0f7b2291e5b200ac8c7c3b925929081900390910190a350600192915050565b73ffffffffffffffffffffffffffffffffffffffff918216600090815260016020908152604080832093909416825291909152205490565b7f000000000000000000000000000000000000000000000000000000000000000081565b600082820183811015611c6f576040805162461bcd60e51b815260206004820152601b60248201527f536166654d6174683a206164646974696f6e206f766572666c6f770000000000604482015290519081900360640190fd5b9392505050565b60008184841115611d055760405162461bcd60e51b81526004018080602001828103825283818151815260200191508051906020019080838360005b83811015611cca578181015183820152602001611cb2565b50505050905090810190601f168015611cf75780820380516001836020036101000a031916815260200191505b509250505060405180910390fd5b505050900390565b600081611d61576040805162461bcd60e51b815260206004820152600c60248201527f4552525f4449565f5a45524f0000000000000000000000000000000000000000604482015290519081900360640190fd5b670de0b6b3a76400008302831580611d895750670de0b6b3a7640000848281611d8657fe5b04145b611dda576040805162461bcd60e51b815260206004820152601060248201527f4552525f4449565f494e5445524e414c00000000000000000000000000000000604482015290519081900360640190fd5b60028304810181811015611e35576040805162461bcd60e51b815260206004820152601060248201527f4552525f4449565f494e5445524e414c00000000000000000000000000000000604482015290519081900360640190fd5b6000848281611e4057fe5b049695505050505050565b60007001000000000000000000000000000000008210611e9c5760405162461bcd60e51b81526004018080602001828103825260278152602001806122ae6027913960400191505060405180910390fd5b5090565b60008282026fffffffffffffffffffffffffffffffff84161580611f145750826fffffffffffffffffffffffffffffffff16846fffffffffffffffffffffffffffffffff16826fffffffffffffffffffffffffffffffff1681611eff57fe5b046fffffffffffffffffffffffffffffffff16145b611f65576040805162461bcd60e51b815260206004820152601060248201527f4552525f4d554c5f4f564552464c4f5700000000000000000000000000000000604482015290519081900360640190fd5b6706f05b59d3b2000081016fffffffffffffffffffffffffffffffff8083169082161015611fda576040805162461bcd60e51b815260206004820152601060248201527f4552525f4d554c5f4f564552464c4f5700000000000000000000000000000000604482015290519081900360640190fd5b6000670de0b6b3a76400006fffffffffffffffffffffffffffffffff8316611e40565b61200681612176565b50565b61201382826121eb565b5050565b604080518082018252601481527f4552525f494e53554646494349454e545f42414c00000000000000000000000060208083019190915273ffffffffffffffffffffffffffffffffffffffff8616600090815290819052919091205461207e918390611c76565b73ffffffffffffffffffffffffffffffffffffffff80851660009081526020819052604080822093909355908416815220546120ba9082611c15565b73ffffffffffffffffffffffffffffffffffffffff8084166000818152602081815260409182902094909455805185815290519193928716927fddf252ad1be2c89b69c2b068fc378daa952ba7f163c4a11628f55a4df523b3ef92918290030190a3505050565b6000611c6f83836040518060400160405280601e81526020017f536166654d6174683a207375627472616374696f6e206f766572666c6f770000815250611c76565b61201382826121f6565b61200681612201565b306000908152602081905260409020546121909082611c15565b306000908152602081905260409020556002546121ad9082611c15565b60025560408051828152905130916000917fddf252ad1be2c89b69c2b068fc378daa952ba7f163c4a11628f55a4df523b3ef9181900360200190a350565b612013308383612017565b612013823083612017565b604080518082018252601481527f4552525f494e53554646494349454e545f42414c000000000000000000000000602080830191909152306000908152908190529190912054612252918390611c76565b3060009081526020819052604090205560025461226f9082612121565b60025560408051828152905160009130917fddf252ad1be2c89b69c2b068fc378daa952ba7f163c4a11628f55a4df523b3ef9181900360200190a35056fe53616665436173743a2076616c756520646f65736e27742066697420696e203132382062697473546f6b656e7320616e6420616d6f756e7473206c656e677468206d69736d61746368a2646970667358221220fb1120efc4148dc7410117ce53461e4fba8a21f9fdb92af7037a41ea5a8c744664736f6c63430007010033ddf252ad1be2c89b69c2b068fc378daa952ba7f163c4a11628f55a4df523b3efa264697066735822122005ea696ef1548bc267cac4033f807ef7af7150f5dea44bb73e22ca76852940c364736f6c63430007010033",
  "devdoc": {
    "kind": "dev",
    "methods": {},
    "version": 1
  },
  "userdoc": {
    "kind": "user",
    "methods": {},
    "version": 1
  },
  "storageLayout": {
    "storage": [],
    "types": null
  }
}