{
  "address": "0x7F4d7E797Cb06800A7327facd841A170d26b48e0",
  "abi": [
    {
      "inputs": [
        {
          "internalType": "contract IVault",
          "name": "_vault",
          "type": "address"
        }
      ],
      "stateMutability": "nonpayable",
      "type": "constructor"
    },
    {
      "anonymous": false,
      "inputs": [
        {
          "indexed": true,
          "internalType": "address",
          "name": "controller",
          "type": "address"
        }
      ],
      "name": "ControllerCreated",
      "type": "event"
    },
    {
      "inputs": [
        {
          "internalType": "address",
          "name": "strategy",
          "type": "address"
        },
        {
          "internalType": "enum IVault.StrategyType",
          "name": "strategyType",
          "type": "uint8"
        },
        {
          "internalType": "uint256",
          "name": "initialBPT",
          "type": "uint256"
        },
        {
          "internalType": "address[]",
          "name": "tokens",
          "type": "address[]"
        },
        {
          "internalType": "uint128[]",
          "name": "amounts",
          "type": "uint128[]"
        },
        {
          "internalType": "address",
          "name": "owner",
          "type": "address"
        },
        {
          "internalType": "bytes32",
          "name": "salt",
          "type": "bytes32"
        }
      ],
      "name": "create",
      "outputs": [
        {
          "internalType": "address",
          "name": "",
          "type": "address"
        }
      ],
      "stateMutability": "nonpayable",
      "type": "function"
    },
    {
      "inputs": [],
      "name": "vault",
      "outputs": [
        {
          "internalType": "contract IVault",
          "name": "",
          "type": "address"
        }
      ],
      "stateMutability": "view",
      "type": "function"
    }
  ],
  "transactionHash": "0x983e7530145e8dd7911987a7003e7e44d0711838d8aac43f4a806e30647350df",
  "args": [
    "0xaEaCB2BC2A09025982069107aCb8956422FbBe87"
  ],
  "solcInputHash": "afcbb748db9c776c982c2f208c231f65",
  "bytecode": "0x60a060405234801561001057600080fd5b50604051613c25380380613c2583398101604081905261002f91610044565b60601b6001600160601b031916608052610072565b600060208284031215610055578081fd5b81516001600160a01b038116811461006b578182fd5b9392505050565b60805160601c613b8d6100986000398060cb52806101ee52806102c95250613b8d6000f3fe60806040523480156200001157600080fd5b50600436106200003a5760003560e01c80639dfa2ede146200003f578063fbfa77cf146200006e575b600080fd5b620000566200005036600462000618565b62000078565b6040516200006591906200085d565b60405180910390f35b62000056620001ec565b600080620001546040518060200162000091906200054f565b7fffffffffffffffffffffffffffffffffffffffffffffffffffffffffffffffe082820381018352601f90910116604081905262000100907f0000000000000000000000000000000000000000000000000000000000000000908d908d908d908d908d9033906020016200087e565b604080517fffffffffffffffffffffffffffffffffffffffffffffffffffffffffffffffe0818403018152908290526200013e929160200162000844565b6040516020818303038152906040528462000210565b6040517ff2fde38b00000000000000000000000000000000000000000000000000000000815290915073ffffffffffffffffffffffffffffffffffffffff82169063f2fde38b90620001ab9087906004016200085d565b600060405180830381600087803b158015620001c657600080fd5b505af1158015620001db573d6000803e3d6000fd5b50929b9a5050505050505050505050565b7f000000000000000000000000000000000000000000000000000000000000000081565b60008062000226838580519060200120620003c7565b9050620002498173ffffffffffffffffffffffffffffffffffffffff16620003dd565b156200028c576040517f08c379a00000000000000000000000000000000000000000000000000000000081526004016200028390620009a4565b60405180910390fd5b6040517feb1192c300000000000000000000000000000000000000000000000000000000815273ffffffffffffffffffffffffffffffffffffffff7f0000000000000000000000000000000000000000000000000000000000000000169063eb1192c390620003009084906004016200085d565b600060405180830381600087803b1580156200031b57600080fd5b505af115801562000330573d6000803e3d6000fd5b50505050600062000344600085876200041a565b90508173ffffffffffffffffffffffffffffffffffffffff168173ffffffffffffffffffffffffffffffffffffffff16146200037c57fe5b60405173ffffffffffffffffffffffffffffffffffffffff8216907f61a1525f83a9a659cdc1dfd5ba0a75b20537f5127a4abcebba133b6440e431ff90600090a29150505b92915050565b6000620003d6838330620004f0565b9392505050565b6000813f7fc5d2460186f7233c927e7db2dcc703c0e500b653ca82273b7bfad8045d85a4708181148015906200041257508115155b949350505050565b600080844710156200045a576040517f08c379a00000000000000000000000000000000000000000000000000000000081526004016200028390620009db565b825162000495576040517f08c379a0000000000000000000000000000000000000000000000000000000008152600401620002839062000938565b8383516020850187f5905073ffffffffffffffffffffffffffffffffffffffff811662000412576040517f08c379a000000000000000000000000000000000000000000000000000000000815260040162000283906200096d565b60008060ff60f81b838686604051602001620005109493929190620007e0565b604080518083037fffffffffffffffffffffffffffffffffffffffffffffffffffffffffffffffe0018152919052805160209091012095945050505050565b6130d58062000a8383390190565b803573ffffffffffffffffffffffffffffffffffffffff81168114620003c157600080fd5b600082601f83011262000593578081fd5b8135620005aa620005a48262000a3a565b62000a12565b818152915060208083019084810181840286018201871015620005cc57600080fd5b6000805b858110156200060c5782356fffffffffffffffffffffffffffffffff81168114620005f9578283fd5b85529383019391830191600101620005d0565b50505050505092915050565b600080600080600080600060e0888a03121562000633578283fd5b6200063f89896200055d565b965060208801356002811062000653578384fd5b955060408801359450606088013567ffffffffffffffff8082111562000677578485fd5b818a0191508a601f8301126200068b578485fd5b81356200069c620005a48262000a3a565b80828252602082019150602085018e60208086028801011115620006be578889fd5b8895505b83861015620006ed57620006d78f826200055d565b83526001959095019460209283019201620006c2565b509750505060808a013591508082111562000706578485fd5b50620007158a828b0162000582565b935050620007278960a08a016200055d565b915060c0880135905092959891949750929550565b73ffffffffffffffffffffffffffffffffffffffff169052565b6000815180845260208085019450808401835b83811015620007995781516fffffffffffffffffffffffffffffffff168752958201959082019060010162000769565b509495945050505050565b60008151815b81811015620007c65760208185018101518683015201620007aa565b81811115620007d55782828601525b509290920192915050565b7fff0000000000000000000000000000000000000000000000000000000000000094909416845260609290921b7fffffffffffffffffffffffffffffffffffffffff0000000000000000000000001660018401526015830152603582015260550190565b600062000412620008568386620007a4565b84620007a4565b73ffffffffffffffffffffffffffffffffffffffff91909116815260200190565b600060e0820173ffffffffffffffffffffffffffffffffffffffff808b1684526020818b1681860152620008b28a62000a74565b604085018a90526060850189905260e060808601528751928390528088019261010086019250845b818110156200090257620008ef855162000a5b565b84529382019392820192600101620008da565b50505083810360a085015262000919818762000756565b925050506200092c60c08301846200073c565b98975050505050505050565b6020808252818101527f437265617465323a2062797465636f6465206c656e677468206973207a65726f604082015260600190565b60208082526019908201527f437265617465323a204661696c6564206f6e206465706c6f7900000000000000604082015260600190565b60208082526015908201527f53616c742063616e6e6f74206265207265757365640000000000000000000000604082015260600190565b6020808252601d908201527f437265617465323a20696e73756666696369656e742062616c616e6365000000604082015260600190565b60405181810167ffffffffffffffff8111828210171562000a3257600080fd5b604052919050565b600067ffffffffffffffff82111562000a51578081fd5b5060209081020190565b73ffffffffffffffffffffffffffffffffffffffff1690565b6002811062000a7f57fe5b5056fe610100604052601360c08190527f42616c616e63657220506f6f6c20546f6b656e0000000000000000000000000060e090815262000041916003919062000726565b506040805180820190915260038082526210941560ea1b60209092019182526200006e9160049162000726565b506005805460ff191660121790553480156200008957600080fd5b50604051620030d5380380620030d5833981810160405260e0811015620000af57600080fd5b8151602083015160408085015160608601516080870180519351959794969295919491939282019284640100000000821115620000eb57600080fd5b9083019060208201858111156200010157600080fd5b82518660208202830111640100000000821117156200011f57600080fd5b82525081516020918201928201910280838360005b838110156200014e57818101518382015260200162000134565b50505050905001604052602001805160405193929190846401000000008211156200017857600080fd5b9083019060208201858111156200018e57600080fd5b8251866020820283011164010000000082111715620001ac57600080fd5b82525081516020918201928201910280838360005b83811015620001db578181015183820152602001620001c1565b5050505090500160405260200180519060200190929190505050868686868686866000876001600160a01b03166381158ad988886040518363ffffffff1660e01b815260040180836001600160a01b031681526020018260018111156200023e57fe5b815260200192505050602060405180830381600087803b1580156200026257600080fd5b505af115801562000277573d6000803e3d6000fd5b505050506040513d60208110156200028e57600080fd5b5051604051630ab0e98b60e11b8152600481018281526001600160a01b03858116602484015260a060448401908152885160a48501528851949550908c1693631561d31693869388938b938b93849392916064820191608481019160c4909101906020898101910280838360005b8381101562000316578181015183820152602001620002fc565b50505050905001848103835286818151815260200191508051906020019060200280838360005b83811015620003575781810151838201526020016200033d565b50505050905001848103825285818151815260200191508051906020019060200280838360005b83811015620003985781810151838201526020016200037e565b5050505090500198505050505050505050600060405180830381600087803b158015620003c457600080fd5b505af1158015620003d9573d6000803e3d6000fd5b50505050620003ee856200048c60201b60201c565b620003fa82866200049a565b60609790971b6001600160601b03191660805250505060a0939093525060009150620004279050620004aa565b6005805462010000600160b01b031916620100006001600160a01b03841690810291909117909155604051919250906000907f8be0079c531659141344cd1fd0a4f28419497f9722a3daafe3b4186f6b6457e0908290a35050505050505050620007c2565b6200049781620004ae565b50565b620004a682826200052f565b5050565b3390565b3060009081526020818152604090912054620004d5918390620021586200053c821b17901c565b306000908152602081815260409091209190915560025462000502918390620021586200053c821b17901c565b6002556040805182815290513091600091600080516020620030b58339815191529181900360200190a350565b620004a63083836200059e565b60008282018381101562000597576040805162461bcd60e51b815260206004820152601b60248201527f536166654d6174683a206164646974696f6e206f766572666c6f770000000000604482015290519081900360640190fd5b9392505050565b604080518082018252601481527f4552525f494e53554646494349454e545f42414c0000000000000000000000006020808301919091526001600160a01b03861660009081528082529290922054620006049290918491620021b96200068b821b17901c565b6001600160a01b03808516600090815260208181526040808320949094559185168152919091205462000642918390620021586200053c821b17901c565b6001600160a01b03808416600081815260208181526040918290209490945580518581529051919392871692600080516020620030b583398151915292918290030190a3505050565b600081848411156200071e5760405162461bcd60e51b81526004018080602001828103825283818151815260200191508051906020019080838360005b83811015620006e2578181015183820152602001620006c8565b50505050905090810190601f168015620007105780820380516001836020036101000a031916815260200191505b509250505060405180910390fd5b505050900390565b828054600181600116156101000203166002900490600052602060002090601f016020900481019282601f106200076957805160ff191683800117855562000799565b8280016001018555821562000799579182015b82811115620007995782518255916020019190600101906200077c565b50620007a7929150620007ab565b5090565b5b80821115620007a75760008155600101620007ac565b60805160601c60a05161287262000843600039806107e952806109585280610dab528061110252806112af52806114d9528061173e52806118ad5280611cbd5280611ec15250806107ba52806109295280610df5528061128052806114aa528061170f528061187e5280611c8e5280611e92528061213652506128726000f3fe608060405234801561001057600080fd5b50600436106101775760003560e01c8063715018a6116100d8578063b5db9b8b1161008c578063dd62ed3e11610066578063dd62ed3e14610531578063f2fde38b1461055f578063fbfa77cf1461058557610177565b8063b5db9b8b1461043f578063c8e28325146104c7578063d73dd6231461050557610177565b806392cf4a66116100bd57806392cf4a66146103dd57806395d89b411461040b578063a9059cbb1461041357610177565b8063715018a6146103b15780638da5cb5b146103b957610177565b8063313ce5671161012f578063661884631161011457806366188463146103395780636cec99731461036557806370a082311461038b57610177565b8063313ce567146103135780633e0dc34e1461033157610177565b8063127cdc4211610160578063127cdc421461023957806318160ddd146102c357806323b872dd146102dd57610177565b806306fdde031461017c578063095ea7b3146101f9575b600080fd5b61018461058d565b6040805160208082528351818301528351919283929083019185019080838360005b838110156101be5781810151838201526020016101a6565b50505050905090810190601f1680156101eb5780820380516001836020036101000a031916815260200191505b509250505060405180910390f35b6102256004803603604081101561020f57600080fd5b506001600160a01b038135169060200135610641565b604080519115158252519081900360200190f35b6102c16004803603608081101561024f57600080fd5b8135919081019060408101602082013564010000000081111561027157600080fd5b82018360208201111561028357600080fd5b803590602001918460208302840111640100000000831117156102a557600080fd5b91935091508035151590602001356001600160a01b03166106a7565b005b6102cb610f5f565b60408051918252519081900360200190f35b610225600480360360608110156102f357600080fd5b506001600160a01b03813581169160208101359091169060400135610f65565b61031b6110f7565b6040805160ff9092168252519081900360200190f35b6102cb611100565b6102256004803603604081101561034f57600080fd5b506001600160a01b038135169060200135611124565b6102c16004803603602081101561037b57600080fd5b50356001600160a01b031661120e565b6102cb600480360360208110156103a157600080fd5b50356001600160a01b0316611330565b6102c161134b565b6103c1611423565b604080516001600160a01b039092168252519081900360200190f35b6102c1600480360360408110156103f357600080fd5b506001600160a01b0381358116916020013516611438565b61018461156c565b6102256004803603604081101561042957600080fd5b506001600160a01b0381351690602001356115eb565b6102c16004803603608081101561045557600080fd5b8135919081019060408101602082013564010000000081111561047757600080fd5b82018360208201111561048957600080fd5b803590602001918460208302840111640100000000831117156104ab57600080fd5b91935091508035151590602001356001600160a01b0316611601565b6102c1600480360360408110156104dd57600080fd5b5080356001600160a01b031690602001356fffffffffffffffffffffffffffffffff16611e20565b6102256004803603604081101561051b57600080fd5b506001600160a01b038135169060200135611f41565b6102cb6004803603604081101561054757600080fd5b506001600160a01b0381358116916020013516611fd4565b6102c16004803603602081101561057557600080fd5b50356001600160a01b0316611fff565b6103c1612134565b60038054604080516020601f60027fffffffffffffffffffffffffffffffffffffffffffffffffffffffffffffffff6101006001881615020190951694909404938401819004810282018101909252828152606093909290918301828280156106375780601f1061060c57610100808354040283529160200191610637565b820191906000526020600020905b81548152906001019060200180831161061a57829003601f168201915b5050505050905090565b3360008181526001602090815260408083206001600160a01b038716808552908352818420869055815186815291519394909390927f8c5be1e5ebec7d5bd14f71427d1e84f3dd0314c0f7b2291e5b200ac8c7c3b925928290030190a350600192915050565b600554610100900460ff1615610704576040805162461bcd60e51b815260206004820152600b60248201527f4552525f5245454e545259000000000000000000000000000000000000000000604482015290519081900360640190fd5b600580547fffffffffffffffffffffffffffffffffffffffffffffffffffffffffffff00ff16610100179055600061073a610f5f565b9050600061075061074b8884612250565b61238e565b90506fffffffffffffffffffffffffffffffff81166107b6576040805162461bcd60e51b815260206004820152600f60248201527f4552525f4d4154485f415050524f580000000000000000000000000000000000604482015290519081900360640190fd5b60607f00000000000000000000000000000000000000000000000000000000000000006001600160a01b031663f94d46687f00000000000000000000000000000000000000000000000000000000000000006040518263ffffffff1660e01b81526004018082815260200191505060006040518083038186803b15801561083c57600080fd5b505afa158015610850573d6000803e3d6000fd5b505050506040513d6000823e601f3d9081017fffffffffffffffffffffffffffffffffffffffffffffffffffffffffffffffe0168201604052602081101561089757600080fd5b81019080805160405193929190846401000000008211156108b757600080fd5b9083019060208201858111156108cc57600080fd5b82518660208202830111640100000000821117156108e957600080fd5b82525081516020918201928201910280838360005b838110156109165781810151838201526020016108fe565b50505050905001604052505050905060607f00000000000000000000000000000000000000000000000000000000000000006001600160a01b031663fe8f2cb27f0000000000000000000000000000000000000000000000000000000000000000846040518363ffffffff1660e01b81526004018083815260200180602001828103825283818151815260200191508051906020019060200280838360005b838110156109cd5781810151838201526020016109b5565b50505050905001935050505060006040518083038186803b1580156109f157600080fd5b505afa158015610a05573d6000803e3d6000fd5b505050506040513d6000823e601f3d9081017fffffffffffffffffffffffffffffffffffffffffffffffffffffffffffffffe01682016040526020811015610a4c57600080fd5b8101908080516040519392919084640100000000821115610a6c57600080fd5b908301906020820185811115610a8157600080fd5b8251866020820283011164010000000082111715610a9e57600080fd5b82525081516020918201928201910280838360005b83811015610acb578181015183820152602001610ab3565b50505050905001604052505050905081518888905014610b1c5760405162461bcd60e51b815260040180806020018281038252602281526020018061281b6022913960400191505060405180910390fd5b6060825167ffffffffffffffff81118015610b3657600080fd5b50604051908082528060200260200182016040528015610b60578160200160208202803683370190505b5090506060835167ffffffffffffffff81118015610b7d57600080fd5b50604051908082528060200260200182016040528015610ba7578160200160208202803683370190505b50905060005b8451811015610d8257610bee86858381518110610bc657fe5b60200260200101516fffffffffffffffffffffffffffffffff166123e390919063ffffffff16565b838281518110610bfa57fe5b60200260200101906fffffffffffffffffffffffffffffffff1690816fffffffffffffffffffffffffffffffff16815250508a8a82818110610c3857fe5b905060200201356fffffffffffffffffffffffffffffffff166fffffffffffffffffffffffffffffffff16838281518110610c6f57fe5b60200260200101516fffffffffffffffffffffffffffffffff161115610cdc576040805162461bcd60e51b815260206004820152600c60248201527f4552525f4c494d49545f494e0000000000000000000000000000000000000000604482015290519081900360640190fd5b8815610d3957828181518110610cee57fe5b6020026020010151828281518110610d0257fe5b60200260200101906fffffffffffffffffffffffffffffffff1690816fffffffffffffffffffffffffffffffff1681525050610d7a565b6000828281518110610d4757fe5b60200260200101906fffffffffffffffffffffffffffffffff1690816fffffffffffffffffffffffffffffffff16815250505b600101610bad565b506040517f1561d3160000000000000000000000000000000000000000000000000000000081527f000000000000000000000000000000000000000000000000000000000000000060048201818152336024840181905260a060448501908152885160a486015288516001600160a01b037f00000000000000000000000000000000000000000000000000000000000000001695631561d31695948b938a938a936064810191608482019160c401906020808a01910280838360005b83811015610e56578181015183820152602001610e3e565b50505050905001848103835286818151815260200191508051906020019060200280838360005b83811015610e95578181015183820152602001610e7d565b50505050905001848103825285818151815260200191508051906020019060200280838360005b83811015610ed4578181015183820152602001610ebc565b5050505090500198505050505050505050600060405180830381600087803b158015610eff57600080fd5b505af1158015610f13573d6000803e3d6000fd5b50505050610f208b612540565b610f2a878c61254c565b5050600580547fffffffffffffffffffffffffffffffffffffffffffffffffffffffffffff00ff169055505050505050505050565b60025490565b6000336001600160a01b0385161480610fa157506001600160a01b03841660009081526001602090815260408083203384529091529020548211155b610ff2576040805162461bcd60e51b815260206004820152601560248201527f4552525f42544f4b454e5f4241445f43414c4c45520000000000000000000000604482015290519081900360640190fd5b610ffd84848461255a565b336001600160a01b0385161480159061105957506001600160a01b03841660009081526001602090815260408083203384529091529020547fffffffffffffffffffffffffffffffffffffffffffffffffffffffffffffffff14155b156110ed576001600160a01b038416600090815260016020908152604080832033845290915290205461108c908361263d565b6001600160a01b03858116600090815260016020908152604080832033808552908352928190208590558051948552519287169391927f8c5be1e5ebec7d5bd14f71427d1e84f3dd0314c0f7b2291e5b200ac8c7c3b9259281900390910190a35b5060019392505050565b60055460ff1690565b7f000000000000000000000000000000000000000000000000000000000000000081565b3360009081526001602090815260408083206001600160a01b038616845290915281205480831115611179573360009081526001602090815260408083206001600160a01b03881684529091528120556111a8565b611183818461263d565b3360009081526001602090815260408083206001600160a01b03891684529091529020555b3360008181526001602090815260408083206001600160a01b0389168085529083529281902054815190815290519293927f8c5be1e5ebec7d5bd14f71427d1e84f3dd0314c0f7b2291e5b200ac8c7c3b925929181900390910190a35060019392505050565b61121661267f565b6005546201000090046001600160a01b0390811691161461127e576040805162461bcd60e51b815260206004820181905260248201527f4f776e61626c653a2063616c6c6572206973206e6f7420746865206f776e6572604482015290519081900360640190fd5b7f00000000000000000000000000000000000000000000000000000000000000006001600160a01b031663bb141ca37f0000000000000000000000000000000000000000000000000000000000000000836040518363ffffffff1660e01b815260040180838152602001826001600160a01b0316815260200192505050600060405180830381600087803b15801561131557600080fd5b505af1158015611329573d6000803e3d6000fd5b5050505050565b6001600160a01b031660009081526020819052604090205490565b61135361267f565b6005546201000090046001600160a01b039081169116146113bb576040805162461bcd60e51b815260206004820181905260248201527f4f776e61626c653a2063616c6c6572206973206e6f7420746865206f776e6572604482015290519081900360640190fd5b6005546040516000916201000090046001600160a01b0316907f8be0079c531659141344cd1fd0a4f28419497f9722a3daafe3b4186f6b6457e0908390a3600580547fffffffffffffffffffff0000000000000000000000000000000000000000ffff169055565b6005546201000090046001600160a01b031690565b61144061267f565b6005546201000090046001600160a01b039081169116146114a8576040805162461bcd60e51b815260206004820181905260248201527f4f776e61626c653a2063616c6c6572206973206e6f7420746865206f776e6572604482015290519081900360640190fd5b7f00000000000000000000000000000000000000000000000000000000000000006001600160a01b0316636feec2297f000000000000000000000000000000000000000000000000000000000000000084846040518463ffffffff1660e01b815260040180848152602001836001600160a01b03168152602001826001600160a01b031681526020019350505050600060405180830381600087803b15801561155057600080fd5b505af1158015611564573d6000803e3d6000fd5b505050505050565b60048054604080516020601f60027fffffffffffffffffffffffffffffffffffffffffffffffffffffffffffffffff6101006001881615020190951694909404938401819004810282018101909252828152606093909290918301828280156106375780601f1061060c57610100808354040283529160200191610637565b60006115f833848461255a565b50600192915050565b600554610100900460ff161561165e576040805162461bcd60e51b815260206004820152600b60248201527f4552525f5245454e545259000000000000000000000000000000000000000000604482015290519081900360640190fd5b600580547fffffffffffffffffffffffffffffffffffffffffffffffffffffffffffff00ff166101001790556000611694610f5f565b905060006116a561074b8884612250565b90506fffffffffffffffffffffffffffffffff811661170b576040805162461bcd60e51b815260206004820152600f60248201527f4552525f4d4154485f415050524f580000000000000000000000000000000000604482015290519081900360640190fd5b60607f00000000000000000000000000000000000000000000000000000000000000006001600160a01b031663f94d46687f00000000000000000000000000000000000000000000000000000000000000006040518263ffffffff1660e01b81526004018082815260200191505060006040518083038186803b15801561179157600080fd5b505afa1580156117a5573d6000803e3d6000fd5b505050506040513d6000823e601f3d9081017fffffffffffffffffffffffffffffffffffffffffffffffffffffffffffffffe016820160405260208110156117ec57600080fd5b810190808051604051939291908464010000000082111561180c57600080fd5b90830190602082018581111561182157600080fd5b825186602082028301116401000000008211171561183e57600080fd5b82525081516020918201928201910280838360005b8381101561186b578181015183820152602001611853565b50505050905001604052505050905060607f00000000000000000000000000000000000000000000000000000000000000006001600160a01b031663fe8f2cb27f0000000000000000000000000000000000000000000000000000000000000000846040518363ffffffff1660e01b81526004018083815260200180602001828103825283818151815260200191508051906020019060200280838360005b8381101561192257818101518382015260200161190a565b50505050905001935050505060006040518083038186803b15801561194657600080fd5b505afa15801561195a573d6000803e3d6000fd5b505050506040513d6000823e601f3d9081017fffffffffffffffffffffffffffffffffffffffffffffffffffffffffffffffe016820160405260208110156119a157600080fd5b81019080805160405193929190846401000000008211156119c157600080fd5b9083019060208201858111156119d657600080fd5b82518660208202830111640100000000821117156119f357600080fd5b82525081516020918201928201910280838360005b83811015611a20578181015183820152602001611a08565b50505050905001604052505050905081518888905014611a715760405162461bcd60e51b815260040180806020018281038252602281526020018061281b6022913960400191505060405180910390fd5b6060825167ffffffffffffffff81118015611a8b57600080fd5b50604051908082528060200260200182016040528015611ab5578160200160208202803683370190505b5090506060835167ffffffffffffffff81118015611ad257600080fd5b50604051908082528060200260200182016040528015611afc578160200160208202803683370190505b50905060005b8451811015611c8b57611b1b86858381518110610bc657fe5b838281518110611b2757fe5b60200260200101906fffffffffffffffffffffffffffffffff1690816fffffffffffffffffffffffffffffffff16815250508a8a82818110611b6557fe5b90506020020135838281518110611b7857fe5b60200260200101516fffffffffffffffffffffffffffffffff161015611be5576040805162461bcd60e51b815260206004820152601260248201527f4e4f542045584954494e4720454e4f5547480000000000000000000000000000604482015290519081900360640190fd5b8815611c4257828181518110611bf757fe5b6020026020010151828281518110611c0b57fe5b60200260200101906fffffffffffffffffffffffffffffffff1690816fffffffffffffffffffffffffffffffff1681525050611c83565b6000828281518110611c5057fe5b60200260200101906fffffffffffffffffffffffffffffffff1690816fffffffffffffffffffffffffffffffff16815250505b600101611b02565b507f00000000000000000000000000000000000000000000000000000000000000006001600160a01b031663d4c173e07f0000000000000000000000000000000000000000000000000000000000000000898786866040518663ffffffff1660e01b815260040180868152602001856001600160a01b03168152602001806020018060200180602001848103845287818151815260200191508051906020019060200280838360005b83811015611d4c578181015183820152602001611d34565b50505050905001848103835286818151815260200191508051906020019060200280838360005b83811015611d8b578181015183820152602001611d73565b50505050905001848103825285818151815260200191508051906020019060200280838360005b83811015611dca578181015183820152602001611db2565b5050505090500198505050505050505050600060405180830381600087803b158015611df557600080fd5b505af1158015611e09573d6000803e3d6000fd5b50505050611e17338c612683565b610f2a8b61268d565b611e2861267f565b6005546201000090046001600160a01b03908116911614611e90576040805162461bcd60e51b815260206004820181905260248201527f4f776e61626c653a2063616c6c6572206973206e6f7420746865206f776e6572604482015290519081900360640190fd5b7f00000000000000000000000000000000000000000000000000000000000000006001600160a01b03166339fc9fde7f000000000000000000000000000000000000000000000000000000000000000084846040518463ffffffff1660e01b815260040180848152602001836001600160a01b03168152602001826fffffffffffffffffffffffffffffffff1681526020019350505050600060405180830381600087803b15801561155057600080fd5b3360009081526001602090815260408083206001600160a01b0386168452909152812054611f6f9083612158565b3360008181526001602090815260408083206001600160a01b0389168085529083529281902085905580519485525191937f8c5be1e5ebec7d5bd14f71427d1e84f3dd0314c0f7b2291e5b200ac8c7c3b925929081900390910190a350600192915050565b6001600160a01b03918216600090815260016020908152604080832093909416825291909152205490565b61200761267f565b6005546201000090046001600160a01b0390811691161461206f576040805162461bcd60e51b815260206004820181905260248201527f4f776e61626c653a2063616c6c6572206973206e6f7420746865206f776e6572604482015290519081900360640190fd5b6001600160a01b0381166120b45760405162461bcd60e51b81526004018080602001828103825260268152602001806127ce6026913960400191505060405180910390fd5b6005546040516001600160a01b038084169262010000900416907f8be0079c531659141344cd1fd0a4f28419497f9722a3daafe3b4186f6b6457e090600090a3600580546001600160a01b0390921662010000027fffffffffffffffffffff0000000000000000000000000000000000000000ffff909216919091179055565b7f000000000000000000000000000000000000000000000000000000000000000081565b6000828201838110156121b2576040805162461bcd60e51b815260206004820152601b60248201527f536166654d6174683a206164646974696f6e206f766572666c6f770000000000604482015290519081900360640190fd5b9392505050565b600081848411156122485760405162461bcd60e51b81526004018080602001828103825283818151815260200191508051906020019080838360005b8381101561220d5781810151838201526020016121f5565b50505050905090810190601f16801561223a5780820380516001836020036101000a031916815260200191505b509250505060405180910390fd5b505050900390565b6000816122a4576040805162461bcd60e51b815260206004820152600c60248201527f4552525f4449565f5a45524f0000000000000000000000000000000000000000604482015290519081900360640190fd5b670de0b6b3a764000083028315806122cc5750670de0b6b3a76400008482816122c957fe5b04145b61231d576040805162461bcd60e51b815260206004820152601060248201527f4552525f4449565f494e5445524e414c00000000000000000000000000000000604482015290519081900360640190fd5b60028304810181811015612378576040805162461bcd60e51b815260206004820152601060248201527f4552525f4449565f494e5445524e414c00000000000000000000000000000000604482015290519081900360640190fd5b600084828161238357fe5b049695505050505050565b600070010000000000000000000000000000000082106123df5760405162461bcd60e51b81526004018080602001828103825260278152602001806127f46027913960400191505060405180910390fd5b5090565b60008282026fffffffffffffffffffffffffffffffff841615806124575750826fffffffffffffffffffffffffffffffff16846fffffffffffffffffffffffffffffffff16826fffffffffffffffffffffffffffffffff168161244257fe5b046fffffffffffffffffffffffffffffffff16145b6124a8576040805162461bcd60e51b815260206004820152601060248201527f4552525f4d554c5f4f564552464c4f5700000000000000000000000000000000604482015290519081900360640190fd5b6706f05b59d3b2000081016fffffffffffffffffffffffffffffffff808316908216101561251d576040805162461bcd60e51b815260206004820152601060248201527f4552525f4d554c5f4f564552464c4f5700000000000000000000000000000000604482015290519081900360640190fd5b6000670de0b6b3a76400006fffffffffffffffffffffffffffffffff8316612383565b61254981612696565b50565b612556828261270b565b5050565b604080518082018252601481527f4552525f494e53554646494349454e545f42414c0000000000000000000000006020808301919091526001600160a01b03861660009081529081905291909120546125b49183906121b9565b6001600160a01b0380851660009081526020819052604080822093909355908416815220546125e39082612158565b6001600160a01b038084166000818152602081815260409182902094909455805185815290519193928716927fddf252ad1be2c89b69c2b068fc378daa952ba7f163c4a11628f55a4df523b3ef92918290030190a3505050565b60006121b283836040518060400160405280601e81526020017f536166654d6174683a207375627472616374696f6e206f766572666c6f7700008152506121b9565b3390565b6125568282612716565b61254981612721565b306000908152602081905260409020546126b09082612158565b306000908152602081905260409020556002546126cd9082612158565b60025560408051828152905130916000917fddf252ad1be2c89b69c2b068fc378daa952ba7f163c4a11628f55a4df523b3ef9181900360200190a350565b61255630838361255a565b61255682308361255a565b604080518082018252601481527f4552525f494e53554646494349454e545f42414c0000000000000000000000006020808301919091523060009081529081905291909120546127729183906121b9565b3060009081526020819052604090205560025461278f908261263d565b60025560408051828152905160009130917fddf252ad1be2c89b69c2b068fc378daa952ba7f163c4a11628f55a4df523b3ef9181900360200190a35056fe4f776e61626c653a206e6577206f776e657220697320746865207a65726f206164647265737353616665436173743a2076616c756520646f65736e27742066697420696e203132382062697473546f6b656e7320616e6420616d6f756e7473206c656e677468206d69736d61746368a2646970667358221220e8b9c5393c66253f32e0ddefc1a9f42c7c84a5c2e23b62faf666ea5327ebd3e364736f6c63430007010033ddf252ad1be2c89b69c2b068fc378daa952ba7f163c4a11628f55a4df523b3efa26469706673582212208f6e7fd97506aefbfa34042b773d60d0532064e9678410489868bf87ab821ff764736f6c63430007010033",
  "devdoc": {
    "kind": "dev",
    "methods": {},
    "version": 1
  },
  "userdoc": {
    "kind": "user",
    "methods": {},
    "version": 1
  },
  "storageLayout": {
    "storage": [],
    "types": null
  }
}