{
  "address": "0x36A12a2226fA170DF7a690E8e9F38f52a4E8069b",
  "abi": [
    {
      "inputs": [
        {
          "internalType": "contract IVault",
          "name": "vault",
          "type": "address"
        }
      ],
      "stateMutability": "nonpayable",
      "type": "constructor"
    },
    {
      "inputs": [
        {
          "components": [
            {
              "internalType": "contract IERC20",
              "name": "overallTokenIn",
              "type": "address"
            },
            {
              "internalType": "contract IERC20",
              "name": "overallTokenOut",
              "type": "address"
            },
            {
              "internalType": "uint128",
              "name": "maxAmountIn",
              "type": "uint128"
            },
            {
              "internalType": "uint128",
              "name": "minAmountOut",
              "type": "uint128"
            }
          ],
          "internalType": "struct ITradeScript.OverallInfoIn",
          "name": "info",
          "type": "tuple"
        },
        {
          "components": [
            {
              "internalType": "bytes32",
              "name": "poolId",
              "type": "bytes32"
            },
            {
              "internalType": "uint128",
              "name": "tokenInIndex",
              "type": "uint128"
            },
            {
              "internalType": "uint128",
              "name": "tokenOutIndex",
              "type": "uint128"
            },
            {
              "internalType": "uint128",
              "name": "amountIn",
              "type": "uint128"
            },
            {
              "internalType": "bytes",
              "name": "userData",
              "type": "bytes"
            }
          ],
          "internalType": "struct IVault.SwapIn[]",
          "name": "swaps",
          "type": "tuple[]"
        },
        {
          "internalType": "contract IERC20[]",
          "name": "tokens",
          "type": "address[]"
        },
        {
          "internalType": "bool",
          "name": "withdrawTokens",
          "type": "bool"
        }
      ],
      "name": "swapExactAmountIn",
      "outputs": [],
      "stateMutability": "nonpayable",
      "type": "function"
    }
  ],
  "transactionHash": "0xe81af72cf63f5ff2306fce052574608c54ac6fe9840302960878bae92a47d9cd",
  "args": [
    "0xaEaCB2BC2A09025982069107aCb8956422FbBe87"
  ],
  "solcInputHash": "afcbb748db9c776c982c2f208c231f65",
  "bytecode": "0x60a060405234801561001057600080fd5b50604051610af9380380610af983398101604081905261002f91610044565b60601b6001600160601b031916608052610072565b600060208284031215610055578081fd5b81516001600160a01b038116811461006b578182fd5b9392505050565b60805160601c610a6b61008e6000398060a55250610a6b6000f3fe608060405234801561001057600080fd5b506004361061002b5760003560e01c8063fc1ed39c14610030575b600080fd5b61004361003e36600461064d565b610045565b005b60408051608081018252338082526020820152600081830152821560608281019190915291517fd4782a5100000000000000000000000000000000000000000000000000000000815273ffffffffffffffffffffffffffffffffffffffff7f0000000000000000000000000000000000000000000000000000000000000000169163d4782a51916100dd918891889190600401610837565b600060405180830381600087803b1580156100f757600080fd5b505af115801561010b573d6000803e3d6000fd5b505050506040513d6000823e601f3d9081017fffffffffffffffffffffffffffffffffffffffffffffffffffffffffffffffe016820160405261015191908101906105bd565b905060005b835181101561032657856000015173ffffffffffffffffffffffffffffffffffffffff1684828151811061018657fe5b602002602001015173ffffffffffffffffffffffffffffffffffffffff16141561021b5785604001516fffffffffffffffffffffffffffffffff168282815181106101cd57fe5b60200260200101511315610216576040517f08c379a000000000000000000000000000000000000000000000000000000000815260040161020d9061095f565b60405180910390fd5b61031e565b856020015173ffffffffffffffffffffffffffffffffffffffff1684828151811061024257fe5b602002602001015173ffffffffffffffffffffffffffffffffffffffff1614156102d15785606001516fffffffffffffffffffffffffffffffff1661029983838151811061028c57fe5b602002602001015161032e565b1015610216576040517f08c379a000000000000000000000000000000000000000000000000000000000815260040161020d90610928565b8181815181106102dd57fe5b602002602001015160001461031e576040517f08c379a000000000000000000000000000000000000000000000000000000000815260040161020d90610996565b600101610156565b505050505050565b60008082131561033f575080610346565b8160000390505b919050565b600082601f83011261035b578081fd5b813561036e610369826109f4565b6109cd565b81815291506020808301908481018184028601820187101561038f57600080fd5b6000805b858110156103d057823573ffffffffffffffffffffffffffffffffffffffff811681146103be578283fd5b85529383019391830191600101610393565b50505050505092915050565b600082601f8301126103ec578081fd5b81356103fa610369826109f4565b818152915060208083019084810160005b848110156104d1578135870160a0807fffffffffffffffffffffffffffffffffffffffffffffffffffffffffffffffe0838c0301121561044a57600080fd5b610453816109cd565b85830135815260406104678c82860161059d565b8783015260606104798d82870161059d565b828401526080915061048d8d83870161059d565b90830152918301359167ffffffffffffffff8311156104ab57600080fd5b6104b98c88858701016104f2565b9082015286525050928201929082019060010161040b565b505050505092915050565b803580151581146104ec57600080fd5b92915050565b600082601f830112610502578081fd5b813567ffffffffffffffff811115610518578182fd5b61054960207fffffffffffffffffffffffffffffffffffffffffffffffffffffffffffffffe0601f840116016109cd565b915080825283602082850101111561056057600080fd5b8060208401602084013760009082016020015292915050565b803573ffffffffffffffffffffffffffffffffffffffff811681146104ec57600080fd5b80356fffffffffffffffffffffffffffffffff811681146104ec57600080fd5b600060208083850312156105cf578182fd5b825167ffffffffffffffff8111156105e5578283fd5b8301601f810185136105f5578283fd5b8051610603610369826109f4565b818152838101908385018584028501860189101561061f578687fd5b8694505b83851015610641578051835260019490940193918501918501610623565b50979650505050505050565b60008060008084860360e0811215610663578384fd5b6080811215610670578384fd5b5061067b60806109cd565b6106858787610579565b81526106948760208801610579565b602082015260408601356106a781610a14565b604082015260608601356106ba81610a14565b60608201529350608085013567ffffffffffffffff808211156106db578485fd5b6106e7888389016103dc565b945060a08701359150808211156106fc578384fd5b506107098782880161034b565b9250506107198660c087016104dc565b905092959194509250565b6000815180845260208085019450808401835b8381101561076957815173ffffffffffffffffffffffffffffffffffffffff1687529582019590820190600101610737565b509495945050505050565b60008151808452815b818110156107995760208185018101518683018201520161077d565b818111156107aa5782602083870101525b50601f017fffffffffffffffffffffffffffffffffffffffffffffffffffffffffffffffe0169290920160200192915050565b73ffffffffffffffffffffffffffffffffffffffff808251168352806020830151166020840152506040810151151560408301526060810151151560608301525050565b6fffffffffffffffffffffffffffffffff169052565b600060c0820160c0835280865180835260e0850191506020925060e0838202860101838901855b838110156108fa577fffffffffffffffffffffffffffffffffffffffffffffffffffffffffffffff20888403018552815160a081518552878201516108a589870182610821565b506040808301516108b882880182610821565b50506060808301516108cc82880182610821565b50506080918201519185018190526108e685820183610774565b96880196945050509085019060010161085e565b50508581038487015261090d8189610724565b94505050505061092060408301846107dd565b949350505050565b60208082526015908201527f4e6f7420656e6f75676820746f6b656e73206f75740000000000000000000000604082015260600190565b60208082526013908201527f45786365737369766520616d6f756e7420696e00000000000000000000000000604082015260600190565b6020808252601d908201527f496e7465726d656469617465206e6f6e2d7a65726f2062616c616e6365000000604082015260600190565b60405181810167ffffffffffffffff811182821017156109ec57600080fd5b604052919050565b600067ffffffffffffffff821115610a0a578081fd5b5060209081020190565b6fffffffffffffffffffffffffffffffff81168114610a3257600080fd5b5056fea26469706673582212200da7060a66a5a20ec5df6ffd4f33263fa0632d005e596b98176cbe2040a7046e64736f6c63430007010033",
  "devdoc": {
    "kind": "dev",
    "methods": {},
    "version": 1
  },
  "userdoc": {
    "kind": "user",
    "methods": {},
    "version": 1
  },
  "storageLayout": {
    "storage": [],
    "types": null
  }
}