{
  "address": "0x52402A8bAf78a6d7c5804D4308B31a856BAa52a2",
  "abi": [
    {
      "inputs": [
        {
          "internalType": "contract IERC20[]",
          "name": "tokens",
          "type": "address[]"
        },
        {
          "internalType": "int256[]",
          "name": "vaultDeltas",
          "type": "int256[]"
        },
        {
          "internalType": "bytes",
          "name": "data",
          "type": "bytes"
        }
      ],
      "name": "validate",
      "outputs": [],
      "stateMutability": "view",
      "type": "function"
    }
  ],
  "transactionHash": "0x43be58e9da472264fb3fa403fb545d94d290ace70b44aae2c252779728e0c5ee",
  "args": [],
  "solcInputHash": "bda5793225c06166b1ababd6dc2d5abe",
  "bytecode": "0x608060405234801561001057600080fd5b50610584806100206000396000f3fe608060405234801561001057600080fd5b506004361061002b5760003560e01c80639ab681f214610030575b600080fd5b61004361003e366004610332565b610045565b005b60008080808061005786880188610413565b94509450945094509450804211156100a4576040517f08c379a000000000000000000000000000000000000000000000000000000000815260040161009b906104a9565b60405180910390fd5b60005b8a811015610274578573ffffffffffffffffffffffffffffffffffffffff168c8c838181106100d257fe5b90506020020160208101906100e791906103f1565b73ffffffffffffffffffffffffffffffffffffffff16141561016657836fffffffffffffffffffffffffffffffff168a8a8381811061012257fe5b905060200201351315610161576040517f08c379a000000000000000000000000000000000000000000000000000000000815260040161009b906104e0565b61026c565b8473ffffffffffffffffffffffffffffffffffffffff168c8c8381811061018957fe5b905060200201602081019061019e91906103f1565b73ffffffffffffffffffffffffffffffffffffffff16141561022057826fffffffffffffffffffffffffffffffff166101e88b8b848181106101dc57fe5b90506020020135610282565b1015610161576040517f08c379a000000000000000000000000000000000000000000000000000000000815260040161009b90610472565b89898281811061022c57fe5b9050602002013560001461026c576040517f08c379a000000000000000000000000000000000000000000000000000000000815260040161009b90610517565b6001016100a7565b505050505050505050505050565b60008082131561029357508061029a565b8160000390505b919050565b60008083601f8401126102b0578182fd5b50813567ffffffffffffffff8111156102c7578182fd5b60208301915083602080830285010111156102e157600080fd5b9250929050565b803573ffffffffffffffffffffffffffffffffffffffff8116811461030c57600080fd5b92915050565b80356fffffffffffffffffffffffffffffffff8116811461030c57600080fd5b6000806000806000806060878903121561034a578182fd5b863567ffffffffffffffff80821115610361578384fd5b61036d8a838b0161029f565b90985096506020890135915080821115610385578384fd5b6103918a838b0161029f565b909650945060408901359150808211156103a9578384fd5b818901915089601f8301126103bc578384fd5b8135818111156103ca578485fd5b8a60208285010111156103db578485fd5b6020830194508093505050509295509295509295565b600060208284031215610402578081fd5b61040c83836102e8565b9392505050565b600080600080600060a0868803121561042a578081fd5b61043487876102e8565b945061044387602088016102e8565b93506104528760408801610312565b92506104618760608801610312565b949793965091946080013592915050565b60208082526015908201527f4e6f7420656e6f75676820746f6b656e73206f75740000000000000000000000604082015260600190565b60208082526010908201527f446561646c696e65206578706972656400000000000000000000000000000000604082015260600190565b60208082526013908201527f45786365737369766520616d6f756e7420696e00000000000000000000000000604082015260600190565b6020808252601d908201527f496e7465726d656469617465206e6f6e2d7a65726f2062616c616e636500000060408201526060019056fea264697066735822122097672a1758d49d8fdde21a831bf020c5b10cd38258f006a103266b94fa0e63b764736f6c63430007010033",
  "devdoc": {
    "kind": "dev",
    "methods": {},
    "version": 1
  },
  "userdoc": {
    "kind": "user",
    "methods": {},
    "version": 1
  },
  "storageLayout": {
    "storage": [],
    "types": null
  }
}