{
  "_format": "hh-sol-artifact-1",
  "contractName": "StablePoolFactory",
  "sourceName": "contracts/pools/stable/StablePoolFactory.sol",
  "abi": [
    {
      "inputs": [
        {
          "internalType": "contract IVault",
          "name": "_vault",
          "type": "address"
        }
      ],
      "stateMutability": "nonpayable",
      "type": "constructor"
    },
    {
      "anonymous": false,
      "inputs": [
        {
          "indexed": true,
          "internalType": "address",
          "name": "pool",
          "type": "address"
        }
      ],
      "name": "PoolCreated",
      "type": "event"
    },
    {
      "inputs": [
        {
          "internalType": "string",
          "name": "name",
          "type": "string"
        },
        {
          "internalType": "string",
          "name": "symbol",
          "type": "string"
        },
        {
          "internalType": "contract IERC20[]",
          "name": "tokens",
          "type": "address[]"
        },
        {
          "internalType": "uint256",
          "name": "amp",
          "type": "uint256"
        },
        {
          "internalType": "uint256",
          "name": "swapFee",
          "type": "uint256"
        }
      ],
      "name": "create",
      "outputs": [
        {
          "internalType": "address",
          "name": "",
          "type": "address"
        }
      ],
      "stateMutability": "nonpayable",
      "type": "function"
    },
    {
      "inputs": [
        {
          "internalType": "uint256",
          "name": "start",
          "type": "uint256"
        },
        {
          "internalType": "uint256",
          "name": "end",
          "type": "uint256"
        }
      ],
      "name": "getCreatedPoolIds",
      "outputs": [
        {
          "internalType": "bytes32[]",
          "name": "",
          "type": "bytes32[]"
        }
      ],
      "stateMutability": "view",
      "type": "function"
    },
    {
      "inputs": [],
      "name": "getNumberOfCreatedPools",
      "outputs": [
        {
          "internalType": "uint256",
          "name": "",
          "type": "uint256"
        }
      ],
      "stateMutability": "view",
      "type": "function"
    },
    {
      "inputs": [],
      "name": "getVault",
      "outputs": [
        {
          "internalType": "contract IVault",
          "name": "",
          "type": "address"
        }
      ],
      "stateMutability": "view",
      "type": "function"
    }
  ],
  "bytecode": "0x60a060405234801561001057600080fd5b5060405161306138038061306183398101604081905261002f91610044565b60601b6001600160601b031916608052610072565b600060208284031215610055578081fd5b81516001600160a01b038116811461006b578182fd5b9392505050565b60805160601c612fcd6100946000398061010352806101775250612fcd6000f3fe60806040523480156200001157600080fd5b5060043610620000525760003560e01c80636645607d14620000575780638d928af8146200008657806390c24ad31462000090578063f4d7e07a14620000a9575b600080fd5b6200006e620000683660046200059b565b620000cf565b6040516200007d91906200072e565b60405180910390f35b6200006e62000175565b6200009a62000199565b6040516200007d919062000944565b620000c0620000ba366004620006ab565b620001ac565b6040516200007d919062000742565b60006200016b60405180602001620000e790620004ef565b601f1982820381018352601f90910116604081905262000136907f0000000000000000000000000000000000000000000000000000000000000000908a908a908a908a908a9060200162000788565b60408051601f1981840301815290829052620001569291602001620006fb565b60405160208183030381529060405262000284565b9695505050505050565b7f000000000000000000000000000000000000000000000000000000000000000090565b6000620001a7600062000388565b905090565b6060828210158015620001cc5750620001c6600062000388565b83830311155b620001f45760405162461bcd60e51b8152600401620001eb9062000813565b60405180910390fd5b60608383036001600160401b03811180156200020f57600080fd5b506040519080825280602002602001820160405280156200023a578160200160208202803683370190505b50905060005b81518110156200027a5762000259600082870162000395565b8282815181106200026657fe5b602090810291909101015260010162000240565b5090505b92915050565b600080620002a0600062000299600062000388565b85620003aa565b90506000816001600160a01b03166338fff2d06040518163ffffffff1660e01b815260040160206040518083038186803b158015620002de57600080fd5b505afa158015620002f3573d6000803e3d6000fd5b505050506040513d601f19601f8201168201806040525081019062000319919062000582565b905060006200032981836200042d565b9050806200034b5760405162461bcd60e51b8152600401620001eb90620008b1565b6040516001600160a01b038416907f83a48fbcfc991335314e74d0496aab6a1987e992ddc85dddbcc4d6dd6ef2e9fc90600090a250909392505050565b60006200027e826200043b565b6000620003a383836200043f565b9392505050565b60008084471015620003d05760405162461bcd60e51b8152600401620001eb906200090d565b8251620003f15760405162461bcd60e51b8152600401620001eb906200087c565b8383516020850187f590506001600160a01b038116620004255760405162461bcd60e51b8152600401620001eb90620008da565b949350505050565b6000620003a3838362000488565b5490565b81546000908210620004655760405162461bcd60e51b8152600401620001eb906200083a565b8260000182815481106200047557fe5b9060005260206000200154905092915050565b6000620004968383620004d7565b620004ce575081546001818101845560008481526020808220909301849055845484825282860190935260409020919091556200027e565b5060006200027e565b60009081526001919091016020526040902054151590565b6125f080620009a883390190565b80356001600160a01b03811681146200027e57600080fd5b600082601f83011262000526578081fd5b81356001600160401b038111156200053c578182fd5b62000551601f8201601f19166020016200094d565b91508082528360208285010111156200056957600080fd5b8060208401602084013760009082016020015292915050565b60006020828403121562000594578081fd5b5051919050565b600080600080600060a08688031215620005b3578081fd5b85356001600160401b0380821115620005ca578283fd5b620005d889838a0162000515565b9650602091508188013581811115620005ef578384fd5b620005fd8a828b0162000515565b96505060408801358181111562000612578384fd5b8801601f81018a1362000623578384fd5b80358281111562000632578485fd5b8381029250620006448484016200094d565b8181528481019083860185850187018e10156200065f578788fd5b8795505b838610156200068d57620006788e82620004fd565b83526001959095019491860191860162000663565b50999c989b5098996060810135995060800135979650505050505050565b60008060408385031215620006be578182fd5b50508035926020909101359150565b60008151808452620006e781602086016020860162000974565b601f01601f19169290920160200192915050565b600083516200070f81846020880162000974565b8351908301906200072581836020880162000974565b01949350505050565b6001600160a01b0391909116815260200190565b6020808252825182820181905260009190848201906040850190845b818110156200077c578351835292840192918401916001016200075e565b50909695505050505050565b600060018060a01b038089168352602060c081850152620007ad60c085018a620006cd565b8481036040860152620007c1818a620006cd565b85810360608701528851808252838a01925090830190855b81811015620007f9578351861683529284019291840191600101620007d9565b505060808601979097525050505060a00152949350505050565b6020808252600d908201526c4f55545f4f465f424f554e445360981b604082015260600190565b60208082526022908201527f456e756d657261626c655365743a20696e646578206f7574206f6620626f756e604082015261647360f01b606082015260800190565b6020808252818101527f437265617465323a2062797465636f6465206c656e677468206973207a65726f604082015260600190565b6020808252600f908201526e1253959053125117d413d3d317d251608a1b604082015260600190565b602080825260199082015278437265617465323a204661696c6564206f6e206465706c6f7960381b604082015260600190565b6020808252601d908201527f437265617465323a20696e73756666696369656e742062616c616e6365000000604082015260600190565b90815260200190565b6040518181016001600160401b03811182821017156200096c57600080fd5b604052919050565b60005b838110156200099157818101518382015260200162000977565b83811115620009a1576000848401525b5050505056fe6101006040523480156200001257600080fd5b50604051620025f0380380620025f08339810160408190526200003591620003f7565b8451859085906200004e906003906020850190620002a0565b50805162000064906004906020840190620002a0565b50506001600555508251600211156200009a5760405162461bcd60e51b81526004016200009190620005d5565b60405180910390fd5b825160101015620000bf5760405162461bcd60e51b8152600401620000919062000640565b6040516309b2760f60e01b81526000906001600160a01b038816906309b2760f90620000f0908490600401620005c0565b602060405180830381600087803b1580156200010b57600080fd5b505af115801562000120573d6000803e3d6000fd5b505050506040513d601f19601f82011682018060405250810190620001469190620003de565b9050866001600160a01b03166366a9c7d2828687516001600160401b03811180156200017157600080fd5b506040519080825280602002602001820160405280156200019c578160200160208202803683370190505b506040518463ffffffff1660e01b8152600401620001bd9392919062000524565b600060405180830381600087803b158015620001d857600080fd5b505af1158015620001ed573d6000803e3d6000fd5b5050506001600160601b0319606089901b166080525060a081905267016345785d8a0000821115620002335760405162461bcd60e51b815260040162000091906200061a565b60e08290526802b5e3af16b1880000831015620002645760405162461bcd60e51b8152600401620000919062000664565b686c6b935b8bbd400000831115620002905760405162461bcd60e51b81526004016200009190620005f9565b505060c05250620006d192505050565b828054600181600116156101000203166002900490600052602060002090601f016020900481019282601f10620002e357805160ff191683800117855562000313565b8280016001018555821562000313579182015b8281111562000313578251825591602001919060010190620002f6565b506200032192915062000325565b5090565b5b8082111562000321576000815560010162000326565b80516200034981620006b8565b92915050565b600082601f83011262000360578081fd5b81516001600160401b0381111562000376578182fd5b60206200038c601f8301601f1916820162000685565b92508183528481838601011115620003a357600080fd5b60005b82811015620003c3578481018201518482018301528101620003a6565b82811115620003d55760008284860101525b50505092915050565b600060208284031215620003f0578081fd5b5051919050565b60008060008060008060c0878903121562000410578182fd5b86516200041d81620006b8565b602088810151919750906001600160401b03808211156200043c578485fd5b6200044a8b838c016200034f565b975060408a015191508082111562000460578485fd5b6200046e8b838c016200034f565b965060608a015191508082111562000484578485fd5b818a0191508a601f83011262000498578485fd5b815181811115620004a7578586fd5b8381029150620004b984830162000685565b8181528481019084860184860187018f1015620004d4578889fd5b8895505b838610156200050257620004ed8f826200033c565b835260019590950194918601918601620004d8565b508098505050505050506080870151915060a087015190509295509295509295565b60006060820185835260206060818501528186518084526080860191508288019350845b8181101562000570576200055d8551620006ac565b8352938301939183019160010162000548565b505084810360408601528551808252908201925081860190845b81811015620005b2576200059f8351620006ac565b855293830193918301916001016200058a565b509298975050505050505050565b6020810160038310620005cf57fe5b91905290565b6020808252600a90820152694d494e5f544f4b454e5360b01b604082015260600190565b60208082526007908201526604d41585f414d560cc1b604082015260600190565b6020808252600c908201526b4d41585f535741505f46454560a01b604082015260600190565b6020808252600a90820152694d41585f544f4b454e5360b01b604082015260600190565b60208082526007908201526604d494e5f414d560cc1b604082015260600190565b6040518181016001600160401b0381118282101715620006a457600080fd5b604052919050565b6001600160a01b031690565b6001600160a01b0381168114620006ce57600080fd5b50565b60805160601c60a05160c05160e051611eaa62000746600039806107145280610b84528061116952508061040b5280610472528061064452806108eb5280610bee5280610f3252806110fd52508061044e528061055a528061078352508061051b528061068252806107445250611eaa6000f3fe608060405234801561001057600080fd5b50600436106100f15760003560e01c806306fdde03146100f6578063095ea7b31461011457806318160ddd1461013457806323b872dd14610149578063313ce5671461015c5780633143fe881461017157806338fff2d014610184578063468d7c3b1461018c578063661884631461019457806370a08231146101a757806374f3b009146101ba5780638d928af8146101db57806395d89b41146101f0578063a9059cbb146101f8578063d4cadf681461020b578063d5c096c414610213578063d73dd62314610226578063dd62ed3e14610239578063e21e5e9a1461024c575b600080fd5b6100fe61025f565b60405161010b9190611b48565b60405180910390f35b6101276101223660046117d0565b6102f5565b60405161010b9190611b20565b61013c61030c565b60405161010b9190611b2b565b610127610157366004611793565b610312565b6101646103f1565b60405161010b9190611e01565b61013c61017f366004611a75565b6103f6565b61013c61044c565b61013c610470565b6101276101a23660046117d0565b610494565b61013c6101b5366004611744565b6104ee565b6101cd6101c83660046117fa565b61050d565b60405161010b929190611afb565b6101e3610680565b60405161010b9190611b34565b6100fe6106a4565b6101276102063660046117d0565b610705565b61013c610712565b6101cd6102213660046117fa565b610736565b6101276102343660046117d0565b610864565b61013c61024736600461175f565b61089a565b61013c61025a366004611a05565b6108c5565b60038054604080516020601f60026000196101006001881615020190951694909404938401819004810282018101909252828152606093909290918301828280156102eb5780601f106102c0576101008083540402835291602001916102eb565b820191906000526020600020905b8154815290600101906020018083116102ce57829003601f168201915b5050505050905090565b600061030233848461091e565b5060015b92915050565b60025490565b6000336001600160a01b038516148061034e57506001600160a01b03841660009081526001602090815260408083203384529091529020548211155b6103735760405162461bcd60e51b815260040161036a90611d8e565b60405180910390fd5b61037e848484610986565b6001600160a01b03841660008181526001602090815260408083203380855292529091205491148015906103b457506000198114155b156103e657828110156103d95760405162461bcd60e51b815260040161036a90611c72565b6103e6853385840361091e565b506001949350505050565b601290565b600061040483838651610a3d565b60006104377f00000000000000000000000000000000000000000000000000000000000000008686868a60400135610a6c565b905061044281610b71565b9695505050505050565b7f000000000000000000000000000000000000000000000000000000000000000090565b7f000000000000000000000000000000000000000000000000000000000000000090565b3360009081526001602090815260408083206001600160a01b03861684529091528120548083106104d0576104cb3385600061091e565b6104e4565b6104e433856104df8487610baf565b61091e565b5060019392505050565b6001600160a01b0381166000908152602081905260409020545b919050565b606080336001600160a01b037f000000000000000000000000000000000000000000000000000000000000000016146105585760405162461bcd60e51b815260040161036a90611ca2565b7f000000000000000000000000000000000000000000000000000000000000000089146105975760405162461bcd60e51b815260040161036a90611ccc565b60606105a38786610bd7565b90506000848060200190518101906105bb91906118e9565b8951909250905060606105cf828b85610cb7565b90506105db8c84610d62565b60005b8281101561063e5761061f8282815181106105f557fe5b60200260200101518c838151811061060957fe5b6020026020010151610baf90919063ffffffff16565b8b828151811061062b57fe5b60209081029190910101526001016105de565b506106697f00000000000000000000000000000000000000000000000000000000000000008b610ded565b600655945091925050505b97509795505050505050565b7f000000000000000000000000000000000000000000000000000000000000000090565b60048054604080516020601f60026000196101006001881615020190951694909404938401819004810282018101909252828152606093909290918301828280156102eb5780601f106102c0576101008083540402835291602001916102eb565b6000610302338484610986565b7f000000000000000000000000000000000000000000000000000000000000000090565b606080336001600160a01b037f000000000000000000000000000000000000000000000000000000000000000016146107815760405162461bcd60e51b815260040161036a90611ca2565b7f000000000000000000000000000000000000000000000000000000000000000089146107c05760405162461bcd60e51b815260040161036a90611ccc565b6000838060200190518101906107d69190611919565b905060008160018111156107e657fe5b141561083d576060848060200190518101906108029190611934565b91505080518851146108265760405162461bcd60e51b815260040161036a90611c16565b61083288518a83610f03565b935093505050610674565b60008480602001905181019061085391906119d9565b9150506108328851898b8985610fb9565b3360008181526001602090815260408083206001600160a01b038716845290915281205490916103029185906104df9086611134565b6001600160a01b03918216600090815260016020908152604080832093909416825291909152205490565b60006108d383838651610a3d565b60006108e28660400135611160565b905060006109137f000000000000000000000000000000000000000000000000000000000000000087878786611199565b979650505050505050565b6001600160a01b0380841660008181526001602090815260408083209487168084529490915290819020849055517f8c5be1e5ebec7d5bd14f71427d1e84f3dd0314c0f7b2291e5b200ac8c7c3b92590610979908590611b2b565b60405180910390a3505050565b6001600160a01b038316600090815260208190526040902054818110156109bf5760405162461bcd60e51b815260040161036a90611c45565b6001600160a01b038085166000908152602081905260408082208585039055918516815220546109ef9083611134565b6001600160a01b038085166000818152602081905260409081902093909355915190861690600080516020611e5583398151915290610a2f908690611b2b565b60405180910390a350505050565b8083108015610a4b57508082105b610a675760405162461bcd60e51b815260040161036a90611b9b565b505050565b600080610a798787610ded565b86519091508190600090600182805b83811015610afc5789811415610ab557888c8281518110610aa557fe5b6020026020010151039150610adc565b8a8114610ad7578b8181518110610ac857fe5b60200260200101519150610adc565b610af4565b9381019383800292508186880281610af057fe5b0495505b600101610a88565b5081828d020286860281610b0c57fe5b0494506000828d028781610b1c57fe5b048501905060006002610b37838a03800260048a020161129e565b838a030181610b4257fe5b0490508c8c81518110610b5157fe5b602002602001015181036001019850505050505050505095945050505050565b6000610306610ba8670de0b6b3a76400007f0000000000000000000000000000000000000000000000000000000000000000610baf565b83906113de565b600082821115610bd15760405162461bcd60e51b815260040161036a90611cf5565b50900390565b60606000610be5845161147d565b90506000610c177f00000000000000000000000000000000000000000000000000000000000000008660065485611498565b90506000610c25828661156b565b9050606086516001600160401b0381118015610c4057600080fd5b50604051908082528060200260200182016040528015610c6a578160200160208202803683370190505b50905081818581518110610c7a57fe5b602002602001018181525050610c968288868151811061060957fe5b878581518110610ca257fe5b60209081029190910101529695505050505050565b60606000610cc4836115dd565b9050846001600160401b0381118015610cdc57600080fd5b50604051908082528060200260200182016040528015610d06578160200160208202803683370190505b50915060005b85811015610d5957610d3a82868381518110610d2457fe5b602002602001015161156b90919063ffffffff16565b838281518110610d4657fe5b6020908102919091010152600101610d0c565b50509392505050565b610d6d823083610986565b3060009081526020819052604090205481811015610d9d5760405162461bcd60e51b815260040161036a90611c45565b3060009081526020819052604090208282039055600254610dbe9083610baf565b6002556040516000906001600160a01b03851690600080516020611e5583398151915290610979908690611b2b565b80516000908190815b81811015610e2357848181518110610e0a57fe5b6020026020010151830192508080600101915050610df6565b5081610e3457600092505050610306565b600082868302825b60ff811015610ef657600088600081518110610e5457fe5b6020026020010151860290506000600190505b86811015610e9a5784878b8381518110610e7d57fe5b602002602001015184020281610e8f57fe5b049150600101610e67565b5083945080600184030284876001010201818885020285868902020181610ebd57fe5b04935084841115610edd57600185850311610ed85750610ef6565b610eed565b600184860311610eed5750610ef6565b50600101610e3c565b5090979650505050505050565b606080610f0e61030c565b15610f2b5760405162461bcd60e51b815260040161036a90611be9565b6000610f577f000000000000000000000000000000000000000000000000000000000000000085610ded565b9050610f638582611615565b60068190556060866001600160401b0381118015610f8057600080fd5b50604051908082528060200260200182016040528015610faa578160200160208202803683370190505b50949794965093945050505050565b6060806000610fc661030c565b11610fe35760405162461bcd60e51b815260040161036a90611bc2565b6060610fef8786610bd7565b90506000610ffc856115dd565b90506060896001600160401b038111801561101657600080fd5b50604051908082528060200260200182016040528015611040578160200160208202803683370190505b50905060005b8a81101561107d5761105e838b8381518110610d2457fe5b82828151811061106a57fe5b6020908102919091010152600101611046565b506110888887611615565b60005b8a8160ff1610156110f7576110d5828260ff16815181106110a857fe5b60200260200101518b8360ff16815181106110bf57fe5b602002602001015161113490919063ffffffff16565b8a8260ff16815181106110e457fe5b602090810291909101015260010161108b565b506111227f00000000000000000000000000000000000000000000000000000000000000008a610ded565b60065599919850909650505050505050565b6000828201838110156111595760405162461bcd60e51b815260040161036a90611d1b565b9392505050565b60008061118d837f000000000000000000000000000000000000000000000000000000000000000061156b565b90506111598382610baf565b6000806111a68787610ded565b86519091508190600090600182805b83811015611229578a8114156111e257888c82815181106111d257fe5b6020026020010151019150611209565b898114611204578b81815181106111f557fe5b60200260200101519150611209565b611221565b938101938380029250818688028161121d57fe5b0495505b6001016111b5565b5081828d02028686028161123957fe5b0494506000828d02878161124957fe5b048501905060006002611264838a03800260048a020161129e565b838a03018161126f57fe5b0490506001818e8d8151811061128157fe5b602002602001015103039850505050505050505095945050505050565b6000816112ad57506000610508565b816001600160801b82106112c65760809190911c9060401b5b600160401b82106112dc5760409190911c9060201b5b600160201b82106112f25760209190911c9060101b5b6201000082106113075760109190911c9060081b5b610100821061131b5760089190911c9060041b5b6010821061132e5760049190911c9060021b5b6008821061133a5760011b5b600181858161134557fe5b048201901c9050600181858161135757fe5b048201901c9050600181858161136957fe5b048201901c9050600181858161137b57fe5b048201901c9050600181858161138d57fe5b048201901c9050600181858161139f57fe5b048201901c905060018185816113b157fe5b048201901c905060008185816113c357fe5b0490508082106113d357806113d5565b815b95945050505050565b6000816113fd5760405162461bcd60e51b815260040161036a90611d67565b670de0b6b3a764000083028315806114255750670de0b6b3a764000084828161142257fe5b04145b6114415760405162461bcd60e51b815260040161036a90611d41565b600283048101818110156114675760405162461bcd60e51b815260040161036a90611d41565b600084828161147257fe5b049695505050505050565b60006000194301804083818161148f57fe5b06949350505050565b8251600090839081908390600182805b838110156114f7578881146114d2578a81815181106114c357fe5b602002602001015191506114d7565b6114ef565b93810193838002925081868802816114eb57fe5b0495505b6001016114a8565b5081828c02028686028161150757fe5b0494506000828c02878161151757fe5b048501905060006002611532838a03800260048a020161129e565b838a03018161153d57fe5b0490506001818d8c8151811061154f57fe5b6020026020010151030398505050505050505050949350505050565b600082820283158061158557508284828161158257fe5b04145b6115a15760405162461bcd60e51b815260040161036a90611ddb565b6706f05b59d3b200008101818110156115cc5760405162461bcd60e51b815260040161036a90611ddb565b6000670de0b6b3a764000082611472565b6000806115e861030c565b905060006115f684836113de565b9050806111595760405162461bcd60e51b815260040161036a90611db6565b3060009081526020819052604090205461162f9082611134565b3060009081526020819052604090205560025461164c9082611134565b60025561165a308383610986565b816001600160a01b031660006001600160a01b0316600080516020611e558339815191528360405161168c9190611b2b565b60405180910390a35050565b80356001600160a01b038116811461030657600080fd5b600082601f8301126116bf578081fd5b81356116d26116cd82611e35565b611e0f565b8181529150602080830190848101818402860182018710156116f357600080fd5b60005b84811015611712578135845292820192908201906001016116f6565b505050505092915050565b80516002811061030657600080fd5b6000610100828403121561173e578081fd5b50919050565b600060208284031215611755578081fd5b6111598383611698565b60008060408385031215611771578081fd5b61177b8484611698565b915061178a8460208501611698565b90509250929050565b6000806000606084860312156117a7578081fd5b6117b18585611698565b92506117c08560208601611698565b9150604084013590509250925092565b600080604083850312156117e2578182fd5b6117ec8484611698565b946020939093013593505050565b600080600080600080600060e0888a031215611814578283fd5b8735965060206118268a828b01611698565b96506118358a60408b01611698565b955060608901356001600160401b0380821115611850578586fd5b61185c8c838d016116af565b965060808b0135955060a08b0135945060c08b013591508082111561187f578384fd5b818b0191508b601f830112611892578384fd5b8135818111156118a0578485fd5b6118b2601f8201601f19168501611e0f565b91508082528c848285010111156118c7578485fd5b8084840185840137848482840101525080935050505092959891949750929550565b600080604083850312156118fb578182fd5b825160018110611909578283fd5b6020939093015192949293505050565b60006020828403121561192a578081fd5b611159838361171d565b60008060408385031215611946578182fd5b611950848461171d565b602084810151919350906001600160401b0381111561196d578283fd5b8401601f8101861361197d578283fd5b805161198b6116cd82611e35565b81815283810190838501858402850186018a10156119a7578687fd5b8694505b838510156119c95780518352600194909401939185019185016119ab565b5080955050505050509250929050565b600080604083850312156119eb578182fd5b6119f5848461171d565b9150602083015190509250929050565b60008060008060808587031215611a1a578384fd5b84356001600160401b0380821115611a30578586fd5b611a3c8883890161172c565b95506020870135915080821115611a51578485fd5b50611a5e878288016116af565b949794965050505060408301359260600135919050565b60008060008060808587031215611a8a578182fd5b84356001600160401b0380821115611aa0578384fd5b611aac8883890161172c565b95506020870135915080821115611a51578384fd5b6000815180845260208085019450808401835b83811015611af057815187529582019590820190600101611ad4565b509495945050505050565b600060408252611b0e6040830185611ac1565b82810360208401526113d58185611ac1565b901515815260200190565b90815260200190565b6001600160a01b0391909116815260200190565b6000602080835283518082850152825b81811015611b7457858101830151858201604001528201611b58565b81811115611b855783604083870101525b50601f01601f1916929092016040019392505050565b6020808252600d908201526c4f55545f4f465f424f554e445360981b604082015260600190565b6020808252600d908201526c15539253925512505312569151609a1b604082015260600190565b6020808252601390820152721053149150511657d253925512505312569151606a1b604082015260600190565b60208082526015908201527408aa4a4be829a9eaa9ca8a6be929cbe988a9c8ea89605b1b604082015260600190565b6020808252601390820152724e53554646494349454e545f42414c414e434560681b604082015260600190565b602080825260169082015275494e53554646494349454e545f414c4c4f57414e434560501b604082015260600190565b60208082526010908201526f10d05313115497d393d517d59055531560821b604082015260600190565b6020808252600f908201526e1253959053125117d413d3d317d251608a1b604082015260600190565b6020808252600c908201526b5355425f4f564552464c4f5760a01b604082015260600190565b6020808252600c908201526b4144445f4f564552464c4f5760a01b604082015260600190565b6020808252600c908201526b11125597d25395115493905360a21b604082015260600190565b6020808252600d908201526c2d22a927afa224ab24a9a4a7a760991b604082015260600190565b6020808252600e908201526d21282a2fa120a22fa1a0a62622a960911b604082015260600190565b6020808252600b908201526a09a82a890be82a0a0a49eb60ab1b604082015260600190565b6020808252600c908201526b4d554c5f4f564552464c4f5760a01b604082015260600190565b60ff91909116815260200190565b6040518181016001600160401b0381118282101715611e2d57600080fd5b604052919050565b60006001600160401b03821115611e4a578081fd5b506020908102019056feddf252ad1be2c89b69c2b068fc378daa952ba7f163c4a11628f55a4df523b3efa2646970667358221220ed869024193ddc75c0df4628d9e34fa8d0eb8fa06aa3d61f94bf9940e00ba7a364736f6c63430007010033a2646970667358221220b7d0306d0ce76b2fae40425dc171ebc6215d978f83c8682769780f1e955ec7b364736f6c63430007010033",
  "linkReferences": {},
  "deployedLinkReferences": {}
}